{
  "address": "0x4b35E464De664e3c7621972980c0A37d2E2A7321",
  "abi": [
    {
      "inputs": [
        {
          "internalType": "contract IProductionEscrowV3",
          "name": "",
          "type": "address"
        },
        {
          "components": [
            {
              "internalType": "uint256",
              "name": "id",
              "type": "uint256"
            },
            {
              "internalType": "address",
              "name": "creator",
              "type": "address"
            },
            {
              "internalType": "uint256",
              "name": "totalSupply",
              "type": "uint256"
            },
            {
              "internalType": "uint256",
              "name": "organizerTokens",
              "type": "uint256"
            },
            {
              "internalType": "uint256",
              "name": "soldCounter",
              "type": "uint256"
            },
            {
              "internalType": "uint256",
              "name": "maxTokensUnknownBuyer",
              "type": "uint256"
            },
            {
              "internalType": "contract IERC20Upgradeable",
              "name": "currency",
              "type": "address"
            },
            {
              "internalType": "enum IProductionEscrowV3.ProductionState",
              "name": "state",
              "type": "uint8"
            },
            {
              "internalType": "string",
              "name": "dataHash",
              "type": "string"
            },
            {
              "internalType": "uint256",
              "name": "crowdsaleEndDate",
              "type": "uint256"
            },
            {
              "internalType": "uint256",
              "name": "productionEndDate",
              "type": "uint256"
            },
            {
              "internalType": "uint8",
              "name": "platformSharePercentage",
              "type": "uint8"
            },
            {
              "internalType": "contract IPerkTrackerV3",
              "name": "perkTracker",
              "type": "address"
            },
            {
              "internalType": "contract IPriceCalculationEngineV3",
              "name": "priceCalculationEngine",
              "type": "address"
            }
          ],
          "internalType": "struct IProductionEscrowV3.ProductionData",
          "name": "productionData",
          "type": "tuple"
        },
        {
          "internalType": "uint256",
          "name": "tokenBasePrice",
          "type": "uint256"
        },
        {
          "internalType": "uint256",
          "name": "amount",
          "type": "uint256"
        },
        {
          "internalType": "address",
          "name": "",
          "type": "address"
        }
      ],
      "name": "calculateTokenPrice",
      "outputs": [
        {
          "internalType": "contract IERC20Upgradeable",
          "name": "currency",
          "type": "address"
        },
        {
          "internalType": "uint256",
          "name": "price",
          "type": "uint256"
        }
      ],
      "stateMutability": "pure",
      "type": "function"
    }
  ],
  "transactionHash": "0xf241fbdad992db4d59a9983111ca17296c92a1c129faaf6c93deac49a44dd3a6",
  "args": [],
  "numDeployments": 1,
  "solcInputHash": "b801a4be96309b7026ac8774cd2b71b2",
  "bytecode": "0x608060405234801561001057600080fd5b506101c8806100206000396000f3fe608060405234801561001057600080fd5b506004361061002b5760003560e01c80635ae55d4c14610030575b600080fd5b61004361003e3660046100c3565b610073565b6040805173ffffffffffffffffffffffffffffffffffffffff909316835260208301919091520160405180910390f35b60008061008660e0870160c08801610141565b6100908686610165565b915091509550959350505050565b73ffffffffffffffffffffffffffffffffffffffff811681146100c057600080fd5b50565b600080600080600060a086880312156100db57600080fd5b85356100e68161009e565b9450602086013567ffffffffffffffff81111561010257600080fd5b86016101c0818903121561011557600080fd5b9350604086013592506060860135915060808601356101338161009e565b809150509295509295909350565b60006020828403121561015357600080fd5b813561015e8161009e565b9392505050565b600081600019048311821515161561018d57634e487b7160e01b600052601160045260246000fd5b50029056fea2646970667358221220e592146ae3b67c5f3afc5e73a4675c96aab341348521be48e26b6dfd9d0474a464736f6c63430008090033",
  "devdoc": {
    "kind": "dev",
    "methods": {},
    "version": 1
  },
  "userdoc": {
    "kind": "user",
    "methods": {},
    "version": 1
  },
  "storageLayout": {
    "storage": [],
    "types": null
  }
}