{
  "address": "0xc6F2A1918330948b0B326B7EC23F0184Eceb8bbC",
  "abi": [
    {
      "inputs": [
        {
          "internalType": "address",
          "name": "_trustedForwarder",
          "type": "address"
        }
      ],
      "stateMutability": "nonpayable",
      "type": "constructor"
    },
    {
      "anonymous": false,
      "inputs": [
        {
          "indexed": true,
          "internalType": "address",
          "name": "owner",
          "type": "address"
        },
        {
          "indexed": true,
          "internalType": "address",
          "name": "spender",
          "type": "address"
        },
        {
          "indexed": false,
          "internalType": "uint256",
          "name": "value",
          "type": "uint256"
        }
      ],
      "name": "Approval",
      "type": "event"
    },
    {
      "anonymous": false,
      "inputs": [
        {
          "indexed": true,
          "internalType": "address",
          "name": "buyer",
          "type": "address"
        },
        {
          "indexed": false,
          "internalType": "uint256",
          "name": "tokenAmount",
          "type": "uint256"
        },
        {
          "indexed": false,
          "internalType": "address",
          "name": "tokenAddress",
          "type": "address"
        }
      ],
      "name": "Deposit",
      "type": "event"
    },
    {
      "anonymous": false,
      "inputs": [
        {
          "indexed": false,
          "internalType": "uint8",
          "name": "version",
          "type": "uint8"
        }
      ],
      "name": "Initialized",
      "type": "event"
    },
    {
      "anonymous": false,
      "inputs": [
        {
          "indexed": true,
          "internalType": "address",
          "name": "previousOwner",
          "type": "address"
        },
        {
          "indexed": true,
          "internalType": "address",
          "name": "newOwner",
          "type": "address"
        }
      ],
      "name": "OwnershipTransferred",
      "type": "event"
    },
    {
      "anonymous": false,
      "inputs": [
        {
          "indexed": false,
          "internalType": "address",
          "name": "account",
          "type": "address"
        }
      ],
      "name": "Paused",
      "type": "event"
    },
    {
      "anonymous": false,
      "inputs": [
        {
          "indexed": true,
          "internalType": "address",
          "name": "buyer",
          "type": "address"
        },
        {
          "indexed": true,
          "internalType": "uint256",
          "name": "tokenId",
          "type": "uint256"
        },
        {
          "indexed": false,
          "internalType": "uint256",
          "name": "numTokens",
          "type": "uint256"
        },
        {
          "indexed": false,
          "internalType": "uint16",
          "name": "perkId",
          "type": "uint16"
        },
        {
          "indexed": false,
          "internalType": "address",
          "name": "paymentToken",
          "type": "address"
        },
        {
          "indexed": false,
          "internalType": "uint256",
          "name": "price",
          "type": "uint256"
        }
      ],
      "name": "PurchaseExecuted",
      "type": "event"
    },
    {
      "anonymous": false,
      "inputs": [
        {
          "indexed": true,
          "internalType": "address",
          "name": "buyer",
          "type": "address"
        },
        {
          "indexed": true,
          "internalType": "uint256",
          "name": "tokenId",
          "type": "uint256"
        },
        {
          "indexed": false,
          "internalType": "uint256",
          "name": "numTokens",
          "type": "uint256"
        },
        {
          "indexed": false,
          "internalType": "uint16",
          "name": "perkId",
          "type": "uint16"
        }
      ],
      "name": "PurchasePlaced",
      "type": "event"
    },
    {
      "anonymous": false,
      "inputs": [
        {
          "indexed": true,
          "internalType": "address",
          "name": "from",
          "type": "address"
        },
        {
          "indexed": true,
          "internalType": "address",
          "name": "to",
          "type": "address"
        },
        {
          "indexed": false,
          "internalType": "uint256",
          "name": "value",
          "type": "uint256"
        }
      ],
      "name": "Transfer",
      "type": "event"
    },
    {
      "anonymous": false,
      "inputs": [
        {
          "indexed": false,
          "internalType": "address",
          "name": "account",
          "type": "address"
        }
      ],
      "name": "Unpaused",
      "type": "event"
    },
    {
      "inputs": [
        {
          "internalType": "address",
          "name": "owner",
          "type": "address"
        },
        {
          "internalType": "address",
          "name": "spender",
          "type": "address"
        }
      ],
      "name": "allowance",
      "outputs": [
        {
          "internalType": "uint256",
          "name": "",
          "type": "uint256"
        }
      ],
      "stateMutability": "view",
      "type": "function"
    },
    {
      "inputs": [
        {
          "internalType": "address",
          "name": "spender",
          "type": "address"
        },
        {
          "internalType": "uint256",
          "name": "amount",
          "type": "uint256"
        }
      ],
      "name": "approve",
      "outputs": [
        {
          "internalType": "bool",
          "name": "",
          "type": "bool"
        }
      ],
      "stateMutability": "nonpayable",
      "type": "function"
    },
    {
      "inputs": [
        {
          "internalType": "address",
          "name": "account",
          "type": "address"
        }
      ],
      "name": "balanceOf",
      "outputs": [
        {
          "internalType": "uint256",
          "name": "",
          "type": "uint256"
        }
      ],
      "stateMutability": "view",
      "type": "function"
    },
    {
      "inputs": [],
      "name": "decimals",
      "outputs": [
        {
          "internalType": "uint8",
          "name": "",
          "type": "uint8"
        }
      ],
      "stateMutability": "view",
      "type": "function"
    },
    {
      "inputs": [
        {
          "internalType": "address",
          "name": "spender",
          "type": "address"
        },
        {
          "internalType": "uint256",
          "name": "subtractedValue",
          "type": "uint256"
        }
      ],
      "name": "decreaseAllowance",
      "outputs": [
        {
          "internalType": "bool",
          "name": "",
          "type": "bool"
        }
      ],
      "stateMutability": "nonpayable",
      "type": "function"
    },
    {
      "inputs": [
        {
          "internalType": "address",
          "name": "buyer",
          "type": "address"
        },
        {
          "internalType": "uint256",
          "name": "tokenAmount",
          "type": "uint256"
        },
        {
          "internalType": "address",
          "name": "tokenAddress",
          "type": "address"
        }
      ],
      "name": "depositTo",
      "outputs": [],
      "stateMutability": "nonpayable",
      "type": "function"
    },
    {
      "inputs": [
        {
          "internalType": "address",
          "name": "spender",
          "type": "address"
        },
        {
          "internalType": "uint256",
          "name": "addedValue",
          "type": "uint256"
        }
      ],
      "name": "increaseAllowance",
      "outputs": [
        {
          "internalType": "bool",
          "name": "",
          "type": "bool"
        }
      ],
      "stateMutability": "nonpayable",
      "type": "function"
    },
    {
      "inputs": [
        {
          "internalType": "contract IProductionsV3",
          "name": "_productions",
          "type": "address"
        },
        {
          "internalType": "contract IERC20Upgradeable",
          "name": "_wrappedToken",
          "type": "address"
        }
      ],
      "name": "initialize",
      "outputs": [],
      "stateMutability": "nonpayable",
      "type": "function"
    },
    {
      "inputs": [
        {
          "internalType": "address",
          "name": "forwarder",
          "type": "address"
        }
      ],
      "name": "isTrustedForwarder",
      "outputs": [
        {
          "internalType": "bool",
          "name": "",
          "type": "bool"
        }
      ],
      "stateMutability": "view",
      "type": "function"
    },
    {
      "inputs": [],
      "name": "name",
      "outputs": [
        {
          "internalType": "string",
          "name": "",
          "type": "string"
        }
      ],
      "stateMutability": "view",
      "type": "function"
    },
    {
      "inputs": [],
      "name": "owner",
      "outputs": [
        {
          "internalType": "address",
          "name": "",
          "type": "address"
        }
      ],
      "stateMutability": "view",
      "type": "function"
    },
    {
      "inputs": [],
      "name": "pause",
      "outputs": [],
      "stateMutability": "nonpayable",
      "type": "function"
    },
    {
      "inputs": [],
      "name": "paused",
      "outputs": [
        {
          "internalType": "bool",
          "name": "",
          "type": "bool"
        }
      ],
      "stateMutability": "view",
      "type": "function"
    },
    {
      "inputs": [
        {
          "internalType": "uint256",
          "name": "tokenId",
          "type": "uint256"
        },
        {
          "internalType": "uint256",
          "name": "numTokens",
          "type": "uint256"
        },
        {
          "internalType": "uint16",
          "name": "perkId",
          "type": "uint16"
        }
      ],
      "name": "placePurchase",
      "outputs": [],
      "stateMutability": "nonpayable",
      "type": "function"
    },
    {
      "inputs": [
        {
          "internalType": "uint256",
          "name": "tokenId",
          "type": "uint256"
        },
        {
          "internalType": "uint256",
          "name": "numTokens",
          "type": "uint256"
        },
        {
          "internalType": "uint16",
          "name": "perkId",
          "type": "uint16"
        }
      ],
      "name": "purchase",
      "outputs": [],
      "stateMutability": "nonpayable",
      "type": "function"
    },
    {
      "inputs": [],
      "name": "renounceOwnership",
      "outputs": [],
      "stateMutability": "nonpayable",
      "type": "function"
    },
    {
      "inputs": [],
      "name": "symbol",
      "outputs": [
        {
          "internalType": "string",
          "name": "",
          "type": "string"
        }
      ],
      "stateMutability": "view",
      "type": "function"
    },
    {
      "inputs": [],
      "name": "totalSupply",
      "outputs": [
        {
          "internalType": "uint256",
          "name": "",
          "type": "uint256"
        }
      ],
      "stateMutability": "view",
      "type": "function"
    },
    {
      "inputs": [
        {
          "internalType": "address",
          "name": "to",
          "type": "address"
        },
        {
          "internalType": "uint256",
          "name": "amount",
          "type": "uint256"
        }
      ],
      "name": "transfer",
      "outputs": [
        {
          "internalType": "bool",
          "name": "",
          "type": "bool"
        }
      ],
      "stateMutability": "nonpayable",
      "type": "function"
    },
    {
      "inputs": [
        {
          "internalType": "address",
          "name": "from",
          "type": "address"
        },
        {
          "internalType": "address",
          "name": "to",
          "type": "address"
        },
        {
          "internalType": "uint256",
          "name": "amount",
          "type": "uint256"
        }
      ],
      "name": "transferFrom",
      "outputs": [
        {
          "internalType": "bool",
          "name": "",
          "type": "bool"
        }
      ],
      "stateMutability": "nonpayable",
      "type": "function"
    },
    {
      "inputs": [
        {
          "internalType": "address",
          "name": "newOwner",
          "type": "address"
        }
      ],
      "name": "transferOwnership",
      "outputs": [],
      "stateMutability": "nonpayable",
      "type": "function"
    },
    {
      "inputs": [],
      "name": "unpause",
      "outputs": [],
      "stateMutability": "nonpayable",
      "type": "function"
    },
    {
      "inputs": [
        {
          "internalType": "uint256",
          "name": "amount",
          "type": "uint256"
        }
      ],
      "name": "withdraw",
      "outputs": [],
      "stateMutability": "nonpayable",
      "type": "function"
    },
    {
      "inputs": [],
      "name": "withdrawAll",
      "outputs": [],
      "stateMutability": "nonpayable",
      "type": "function"
    }
  ],
  "transactionHash": "0xa84d43b0d9f7a38debdf5fbbf130297c4c0b4260ae04ddc96519b530760c4cfd",
  "args": [
    "0x06Da36862E87D70878B01d91FdFAAcc04407C59B"
  ],
  "numDeployments": 1,
  "solcInputHash": "df4ac18ce0570d62bffd09e9232f4746",
  "bytecode": "0x60a06040523480156200001157600080fd5b506040516200290638038062002906833981016040819052620000349162000114565b6001600160a01b0381166080526200004b62000052565b5062000146565b600054610100900460ff1615620000bf5760405162461bcd60e51b815260206004820152602760248201527f496e697469616c697a61626c653a20636f6e747261637420697320696e697469604482015266616c697a696e6760c81b606482015260840160405180910390fd5b60005460ff908116101562000112576000805460ff191660ff9081179091556040519081527f7f26b83ff96e1f2b6a682f133852f6798a09c465da95921460cefb38474024989060200160405180910390a15b565b6000602082840312156200012757600080fd5b81516001600160a01b03811681146200013f57600080fd5b9392505050565b60805161279d62000169600039600081816102830152611a97015261279d6000f3fe608060405234801561001057600080fd5b50600436106101985760003560e01c806370a08231116100e3578063a457c2d71161008c578063c5eac02211610066578063c5eac0221461035b578063dd62ed3e1461036e578063f2fde38b146103a757600080fd5b8063a457c2d714610322578063a9059cbb14610335578063ac06b27d1461034857600080fd5b8063853828b6116100bd578063853828b6146102f75780638da5cb5b146102ff57806395d89b411461031a57600080fd5b806370a08231146102be578063715018a6146102e75780638456cb59146102ef57600080fd5b8063313ce56711610145578063485cc9551161011f578063485cc95514610260578063572b6c05146102735780635c975abb146102b357600080fd5b8063313ce5671461022b57806339509351146102455780633f4ba83a1461025857600080fd5b806320acd9f31161017657806320acd9f3146101f057806323b872dd146102055780632e1a7d4d1461021857600080fd5b806306fdde031461019d578063095ea7b3146101bb57806318160ddd146101de575b600080fd5b6101a56103ba565b6040516101b29190612058565b60405180910390f35b6101ce6101c93660046120a0565b61044c565b60405190151581526020016101b2565b6035545b6040519081526020016101b2565b6102036101fe3660046120cc565b61046e565b005b6101ce61021336600461210e565b610594565b61020361022636600461214f565b6105c2565b6102336106b9565b60405160ff90911681526020016101b2565b6101ce6102533660046120a0565b61073c565b61020361078e565b61020361026e366004612168565b6107a0565b6101ce6102813660046121a1565b7f00000000000000000000000000000000000000000000000000000000000000006001600160a01b0390811691161490565b60c95460ff166101ce565b6101e26102cc3660046121a1565b6001600160a01b031660009081526033602052604090205490565b61020361096b565b61020361097d565b61020361098d565b6097546040516001600160a01b0390911681526020016101b2565b6101a5610a1d565b6101ce6103303660046120a0565b610a2c565b6101ce6103433660046120a0565b610acb565b6102036103563660046121d5565b610ae3565b6102036103693660046121d5565b610c49565b6101e261037c366004612168565b6001600160a01b03918216600090815260346020908152604080832093909416825291909152205490565b6102036103b53660046121a1565b610e6e565b6060603680546103c990612203565b80601f01602080910402602001604051908101604052809291908181526020018280546103f590612203565b80156104425780601f1061041757610100808354040283529160200191610442565b820191906000526020600020905b81548152906001019060200180831161042557829003601f168201915b5050505050905090565b600080610457610ee4565b9050610464818585610eee565b5060019392505050565b610476611012565b61047e61106c565b61012e546001600160a01b038281169116146104e15760405162461bcd60e51b815260206004820152601260248201527f496e76616c696420746f6b656e2073656e74000000000000000000000000000060448201526064015b60405180910390fd5b806104ff6104ed610ee4565b6001600160a01b0383169030866110bf565b610509848461115d565b6001600160a01b038416600090815261012f602052604090205415610584576001600160a01b038416600090815261012f602052604081208054600182015460029092015461055f9288929161ffff168561121f565b90508015610582576001600160a01b038516600090815261012f60205260408120555b505b5061058f600160fb55565b505050565b60008061059f610ee4565b90506105ac8582856114cc565b6105b7858585611558565b506001949350505050565b6105ca611012565b6105d261106c565b600081116106225760405162461bcd60e51b815260206004820152601260248201527f416d6f756e74206d757374206265203e2030000000000000000000000000000060448201526064016104d8565b8061062e6102cc610ee4565b101561067c5760405162461bcd60e51b815260206004820152601760248201527f42616c616e6365206e6f74206869676820656e6f75676800000000000000000060448201526064016104d8565b61068d610687610ee4565b82611703565b6106ac610698610ee4565b61012e546001600160a01b03169083611837565b6106b6600160fb55565b50565b61012e546040805163313ce56760e01b815290516000926001600160a01b03169163313ce567916004808301926020929190829003018186803b1580156106ff57600080fd5b505afa158015610713573d6000803e3d6000fd5b505050506040513d601f19601f820116820180604052508101906107379190612254565b905090565b600080610747610ee4565b905061046481858561077f85896001600160a01b03918216600090815260346020908152604080832093909416825291909152205490565b610789919061226f565b610eee565b610796611867565b61079e6118e0565b565b600054610100900460ff16158080156107c05750600054600160ff909116105b806107da5750303b1580156107da575060005460ff166001145b61084c5760405162461bcd60e51b815260206004820152602e60248201527f496e697469616c697a61626c653a20636f6e747261637420697320616c72656160448201527f647920696e697469616c697a656400000000000000000000000000000000000060648201526084016104d8565b6000805460ff19166001179055801561086f576000805461ff0019166101001790555b610877611938565b6108d26040518060400160405280601481526020017f5374617865205772617070657220546f6b656e73000000000000000000000000815250604051806040016040528060048152602001630aea6a8b60e31b815250611967565b6108da611998565b6108e26119c7565b61012d80546001600160a01b0380861673ffffffffffffffffffffffffffffffffffffffff199283161790925561012e805492851692909116919091179055801561058f576000805461ff0019169055604051600181527f7f26b83ff96e1f2b6a682f133852f6798a09c465da95921460cefb38474024989060200160405180910390a1505050565b610973611867565b61079e60006119f6565b610985611867565b61079e611a55565b610995611012565b61099d61106c565b60006109aa6102cc610ee4565b9050600081116109fc5760405162461bcd60e51b815260206004820152601360248201527f4e6f7468696e6720746f2077697468647261770000000000000000000000000060448201526064016104d8565b610a07610687610ee4565b610a12610698610ee4565b5061079e600160fb55565b6060603780546103c990612203565b600080610a37610ee4565b6001600160a01b0381811660009081526034602090815260408083209389168352929052205490915083811015610abe5760405162461bcd60e51b815260206004820152602560248201527f45524332303a2064656372656173656420616c6c6f77616e63652062656c6f77604482015264207a65726f60d81b60648201526084016104d8565b6105b78286868403610eee565b600080610ad6610ee4565b9050610464818585611558565b610aeb611012565b610af361106c565b61012d54604051637c28680960e11b8152600481018590526002916001600160a01b03169063f850d0129060240160006040518083038186803b158015610b3957600080fd5b505afa158015610b4d573d6000803e3d6000fd5b505050506040513d6000823e601f3d908101601f19168201604052610b7591908101906125c2565b6020015160e001516006811115610b8e57610b8e612295565b14610be75760405162461bcd60e51b815260206004820152602360248201527f50726f75646374696f6e206e6f74206f70656e20666f7220746f6b656e2073616044820152626c657360e81b60648201526084016104d8565b81610c345760405162461bcd60e51b815260206004820152601b60248201527f496e76616c696420746f6b656e206e756d62657220746f20627579000000000060448201526064016104d8565b610584610c3f610ee4565b848484600161121f565b610c51611012565b610c5961106c565b61012d54604051637c28680960e11b8152600481018590526002916001600160a01b03169063f850d0129060240160006040518083038186803b158015610c9f57600080fd5b505afa158015610cb3573d6000803e3d6000fd5b505050506040513d6000823e601f3d908101601f19168201604052610cdb91908101906125c2565b6020015160e001516006811115610cf457610cf4612295565b14610d4d5760405162461bcd60e51b815260206004820152602360248201527f50726f75646374696f6e206e6f74206f70656e20666f7220746f6b656e2073616044820152626c657360e81b60648201526084016104d8565b81610d9a5760405162461bcd60e51b815260206004820152601b60248201527f496e76616c696420746f6b656e206e756d62657220746f20627579000000000060448201526064016104d8565b82610da3610ee4565b6001600160a01b03167fb40a497791d49e425c65dd377a2d47f0d5f55231b0e46298e368a1efbba422f28484604051610dea92919091825261ffff16602082015260400190565b60405180910390a360405180606001604052808481526020018381526020018261ffff1681525061012f6000610e1e610ee4565b6001600160a01b03168152602080820192909252604090810160002083518155918301516001808401919091559201516002909101805461ffff191661ffff90921691909117905560fb55505050565b610e76611867565b6001600160a01b038116610edb5760405162461bcd60e51b815260206004820152602660248201527f4f776e61626c653a206e6577206f776e657220697320746865207a65726f206160448201526564647265737360d01b60648201526084016104d8565b6106b6816119f6565b6000610737611a93565b6001600160a01b038316610f505760405162461bcd60e51b8152602060048201526024808201527f45524332303a20617070726f76652066726f6d20746865207a65726f206164646044820152637265737360e01b60648201526084016104d8565b6001600160a01b038216610fb15760405162461bcd60e51b815260206004820152602260248201527f45524332303a20617070726f766520746f20746865207a65726f206164647265604482015261737360f01b60648201526084016104d8565b6001600160a01b0383811660008181526034602090815260408083209487168084529482529182902085905590518481527f8c5be1e5ebec7d5bd14f71427d1e84f3dd0314c0f7b2291e5b200ac8c7c3b925910160405180910390a3505050565b600260fb5414156110655760405162461bcd60e51b815260206004820152601f60248201527f5265656e7472616e637947756172643a207265656e7472616e742063616c6c0060448201526064016104d8565b600260fb55565b60c95460ff161561079e5760405162461bcd60e51b815260206004820152601060248201527f5061757361626c653a207061757365640000000000000000000000000000000060448201526064016104d8565b6040516001600160a01b03808516602483015283166044820152606481018290526111579085906323b872dd60e01b906084015b60408051601f198184030181529190526020810180517bffffffffffffffffffffffffffffffffffffffffffffffffffffffff167fffffffff0000000000000000000000000000000000000000000000000000000090931692909217909152611ad8565b50505050565b6001600160a01b0382166111b35760405162461bcd60e51b815260206004820152601f60248201527f45524332303a206d696e7420746f20746865207a65726f20616464726573730060448201526064016104d8565b80603560008282546111c5919061226f565b90915550506001600160a01b0382166000818152603360209081526040808320805486019055518481527fddf252ad1be2c89b69c2b068fc378daa952ba7f163c4a11628f55a4df523b3ef910160405180910390a35b5050565b61012d5460405163452c402d60e01b815260048101869052602481018590526001600160a01b038781166044830152600092839283929091169063452c402d90606401604080518083038186803b15801561127957600080fd5b505afa15801561128d573d6000803e3d6000fd5b505050506040513d601f19601f820116820180604052508101906112b1919061269e565b61012e5491935091506001600160a01b038084169116146113145760405162461bcd60e51b815260206004820152601860248201527f496e76616c6964207061796d656e742063757272656e6379000000000000000060448201526064016104d8565b83158061133f57508061133c896001600160a01b031660009081526033602052604090205490565b10155b61138b5760405162461bcd60e51b815260206004820152600f60248201527f42616c616e636520746f6f206c6f77000000000000000000000000000000000060448201526064016104d8565b806113ab896001600160a01b031660009081526033602052604090205490565b106114b5576040805187815261ffff871660208201526001600160a01b038481168284015260608201849052915189928b16917fd1c01ada2fbad06c5f2e73d966e962a1edab820c9b262b846fc9d2899a42e3ed919081900360800190a36114138882611703565b61012d5461012e54611432916001600160a01b03918216911683611baa565b61012d5460405163678909dd60e11b8152600481018990526001600160a01b038a811660248301526044820189905261ffff881660648301529091169063cf1213ba90608401600060405180830381600087803b15801561149257600080fd5b505af11580156114a6573d6000803e3d6000fd5b505050506001925050506114bc565b6000925050505b95945050505050565b600160fb55565b6001600160a01b038381166000908152603460209081526040808320938616835292905220546000198114611157578181101561154b5760405162461bcd60e51b815260206004820152601d60248201527f45524332303a20696e73756666696369656e7420616c6c6f77616e636500000060448201526064016104d8565b6111578484848403610eee565b6001600160a01b0383166115bc5760405162461bcd60e51b815260206004820152602560248201527f45524332303a207472616e736665722066726f6d20746865207a65726f206164604482015264647265737360d81b60648201526084016104d8565b6001600160a01b03821661161e5760405162461bcd60e51b815260206004820152602360248201527f45524332303a207472616e7366657220746f20746865207a65726f206164647260448201526265737360e81b60648201526084016104d8565b6001600160a01b038316600090815260336020526040902054818110156116965760405162461bcd60e51b815260206004820152602660248201527f45524332303a207472616e7366657220616d6f756e7420657863656564732062604482015265616c616e636560d01b60648201526084016104d8565b6001600160a01b0380851660008181526033602052604080822086860390559286168082529083902080548601905591517fddf252ad1be2c89b69c2b068fc378daa952ba7f163c4a11628f55a4df523b3ef906116f69086815260200190565b60405180910390a3611157565b6001600160a01b0382166117635760405162461bcd60e51b815260206004820152602160248201527f45524332303a206275726e2066726f6d20746865207a65726f206164647265736044820152607360f81b60648201526084016104d8565b6001600160a01b038216600090815260336020526040902054818110156117d75760405162461bcd60e51b815260206004820152602260248201527f45524332303a206275726e20616d6f756e7420657863656564732062616c616e604482015261636560f01b60648201526084016104d8565b6001600160a01b03831660008181526033602090815260408083208686039055603580548790039055518581529192917fddf252ad1be2c89b69c2b068fc378daa952ba7f163c4a11628f55a4df523b3ef910160405180910390a3505050565b6040516001600160a01b03831660248201526044810182905261058f90849063a9059cbb60e01b906064016110f3565b61186f610ee4565b6001600160a01b031661188a6097546001600160a01b031690565b6001600160a01b03161461079e5760405162461bcd60e51b815260206004820181905260248201527f4f776e61626c653a2063616c6c6572206973206e6f7420746865206f776e657260448201526064016104d8565b6118e8611cd5565b60c9805460ff191690557f5db9ee0a495bf2e6ff9c91a7834c1ba4fdd244a5e8aa4e537bd38aeae4b073aa61191b610ee4565b6040516001600160a01b03909116815260200160405180910390a1565b600054610100900460ff1661195f5760405162461bcd60e51b81526004016104d8906126cc565b61079e611d27565b600054610100900460ff1661198e5760405162461bcd60e51b81526004016104d8906126cc565b61121b8282611d5e565b600054610100900460ff166119bf5760405162461bcd60e51b81526004016104d8906126cc565b61079e611dac565b600054610100900460ff166119ee5760405162461bcd60e51b81526004016104d8906126cc565b61079e611ddf565b609780546001600160a01b0383811673ffffffffffffffffffffffffffffffffffffffff19831681179093556040519116919082907f8be0079c531659141344cd1fd0a4f28419497f9722a3daafe3b4186f6b6457e090600090a35050565b611a5d61106c565b60c9805460ff191660011790557f62e78cea01bee320cd4e420270b5ea74000d11b0c9f74754ebdbfc544b05a25861191b610ee4565b60007f00000000000000000000000000000000000000000000000000000000000000006001600160a01b0316331415611ad3575060131936013560601c90565b503390565b6000611b2d826040518060400160405280602081526020017f5361666545524332303a206c6f772d6c6576656c2063616c6c206661696c6564815250856001600160a01b0316611e069092919063ffffffff16565b80519091501561058f5780806020019051810190611b4b9190612717565b61058f5760405162461bcd60e51b815260206004820152602a60248201527f5361666545524332303a204552433230206f7065726174696f6e20646964206e6044820152691bdd081cdd58d8d9595960b21b60648201526084016104d8565b801580611c335750604051636eb1769f60e11b81523060048201526001600160a01b03838116602483015284169063dd62ed3e9060440160206040518083038186803b158015611bf957600080fd5b505afa158015611c0d573d6000803e3d6000fd5b505050506040513d601f19601f82011682018060405250810190611c319190612732565b155b611ca55760405162461bcd60e51b815260206004820152603660248201527f5361666545524332303a20617070726f76652066726f6d206e6f6e2d7a65726f60448201527f20746f206e6f6e2d7a65726f20616c6c6f77616e63650000000000000000000060648201526084016104d8565b6040516001600160a01b03831660248201526044810182905261058f90849063095ea7b360e01b906064016110f3565b60c95460ff1661079e5760405162461bcd60e51b815260206004820152601460248201527f5061757361626c653a206e6f742070617573656400000000000000000000000060448201526064016104d8565b600054610100900460ff16611d4e5760405162461bcd60e51b81526004016104d8906126cc565b61079e611d59610ee4565b6119f6565b600054610100900460ff16611d855760405162461bcd60e51b81526004016104d8906126cc565b8151611d98906036906020850190611f93565b50805161058f906037906020840190611f93565b600054610100900460ff16611dd35760405162461bcd60e51b81526004016104d8906126cc565b60c9805460ff19169055565b600054610100900460ff166114c55760405162461bcd60e51b81526004016104d8906126cc565b6060611e158484600085611e1d565b949350505050565b606082471015611e7e5760405162461bcd60e51b815260206004820152602660248201527f416464726573733a20696e73756666696369656e742062616c616e636520666f6044820152651c8818d85b1b60d21b60648201526084016104d8565b600080866001600160a01b03168587604051611e9a919061274b565b60006040518083038185875af1925050503d8060008114611ed7576040519150601f19603f3d011682016040523d82523d6000602084013e611edc565b606091505b5091509150611eed87838387611ef8565b979650505050505050565b60608315611f64578251611f5d576001600160a01b0385163b611f5d5760405162461bcd60e51b815260206004820152601d60248201527f416464726573733a2063616c6c20746f206e6f6e2d636f6e747261637400000060448201526064016104d8565b5081611e15565b611e158383815115611f795781518083602001fd5b8060405162461bcd60e51b81526004016104d89190612058565b828054611f9f90612203565b90600052602060002090601f016020900481019282611fc15760008555612007565b82601f10611fda57805160ff1916838001178555612007565b82800160010185558215612007579182015b82811115612007578251825591602001919060010190611fec565b50612013929150612017565b5090565b5b808211156120135760008155600101612018565b60005b8381101561204757818101518382015260200161202f565b838111156111575750506000910152565b602081526000825180602084015261207781604085016020870161202c565b601f01601f19169190910160400192915050565b6001600160a01b03811681146106b657600080fd5b600080604083850312156120b357600080fd5b82356120be8161208b565b946020939093013593505050565b6000806000606084860312156120e157600080fd5b83356120ec8161208b565b92506020840135915060408401356121038161208b565b809150509250925092565b60008060006060848603121561212357600080fd5b833561212e8161208b565b9250602084013561213e8161208b565b929592945050506040919091013590565b60006020828403121561216157600080fd5b5035919050565b6000806040838503121561217b57600080fd5b82356121868161208b565b915060208301356121968161208b565b809150509250929050565b6000602082840312156121b357600080fd5b81356121be8161208b565b9392505050565b61ffff811681146106b657600080fd5b6000806000606084860312156121ea57600080fd5b83359250602084013591506040840135612103816121c5565b600181811c9082168061221757607f821691505b6020821081141561223857634e487b7160e01b600052602260045260246000fd5b50919050565b805160ff8116811461224f57600080fd5b919050565b60006020828403121561226657600080fd5b6121be8261223e565b6000821982111561229057634e487b7160e01b600052601160045260246000fd5b500190565b634e487b7160e01b600052602160045260246000fd5b634e487b7160e01b600052604160045260246000fd5b6040516101c0810167ffffffffffffffff811182821017156122e5576122e56122ab565b60405290565b6040516080810167ffffffffffffffff811182821017156122e5576122e56122ab565b604051610100810167ffffffffffffffff811182821017156122e5576122e56122ab565b604051601f8201601f1916810167ffffffffffffffff8111828210171561235b5761235b6122ab565b604052919050565b805161224f8161208b565b80516007811061224f57600080fd5b600082601f83011261238e57600080fd5b815167ffffffffffffffff8111156123a8576123a86122ab565b6123bb601f8201601f1916602001612332565b8181528460208386010111156123d057600080fd5b611e1582602083016020870161202c565b60006101c082840312156123f457600080fd5b6123fc6122c1565b90508151815261240e60208301612363565b602082015260408201516040820152606082015160608201526080820151608082015260a082015160a082015261244760c08301612363565b60c082015261245860e0830161236e565b60e08201526101008083015167ffffffffffffffff81111561247957600080fd5b6124858582860161237d565b8284015250506101208083015181830152506101408083015181830152506101606124b181840161223e565b908201526101806124c3838201612363565b908201526101a06124d5838201612363565b9082015292915050565b600082601f8301126124f057600080fd5b8151602067ffffffffffffffff82111561250c5761250c6122ab565b61251a818360051b01612332565b82815260079290921b8401810191818101908684111561253957600080fd5b8286015b848110156125a757608081890312156125565760008081fd5b61255e6122eb565b8151612569816121c5565b815281850151612578816121c5565b8186015260408281015161258b816121c5565b908201526060828101519082015283529183019160800161253d565b509695505050505050565b8051801515811461224f57600080fd5b6000602082840312156125d457600080fd5b815167ffffffffffffffff808211156125ec57600080fd5b90830190610100828603121561260157600080fd5b61260961230e565b8251815260208301518281111561261f57600080fd5b61262b878286016123e1565b60208301525060408301518281111561264357600080fd5b61264f878286016124df565b60408301525061266160608401612363565b60608201526080830151608082015260a083015160a082015260c083015160c082015261269060e084016125b2565b60e082015295945050505050565b600080604083850312156126b157600080fd5b82516126bc8161208b565b6020939093015192949293505050565b6020808252602b908201527f496e697469616c697a61626c653a20636f6e7472616374206973206e6f74206960408201526a6e697469616c697a696e6760a81b606082015260800190565b60006020828403121561272957600080fd5b6121be826125b2565b60006020828403121561274457600080fd5b5051919050565b6000825161275d81846020870161202c565b919091019291505056fea264697066735822122010d439bcf7aab2d626fc6118c76d64107c6b25b1f8a70aea22a33e09823b7c9364736f6c63430008090033",
  "devdoc": {
    "custom:security-contact": "info@staxe.io",
    "kind": "dev",
    "methods": {
      "allowance(address,address)": {
        "details": "See {IERC20-allowance}."
      },
      "approve(address,uint256)": {
        "details": "See {IERC20-approve}. NOTE: If `amount` is the maximum `uint256`, the allowance is not updated on `transferFrom`. This is semantically equivalent to an infinite approval. Requirements: - `spender` cannot be the zero address."
      },
      "balanceOf(address)": {
        "details": "See {IERC20-balanceOf}."
      },
      "constructor": {
        "custom:oz-upgrades-unsafe-allow": "constructor"
      },
      "decimals()": {
        "details": "Returns the number of decimals used to get its user representation. For example, if `decimals` equals `2`, a balance of `505` tokens should be displayed to a user as `5.05` (`505 / 10 ** 2`). Tokens usually opt for a value of 18, imitating the relationship between Ether and Wei. This is the value {ERC20} uses, unless this function is overridden; NOTE: This information is only used for _display_ purposes: it in no way affects any of the arithmetic of the contract, including {IERC20-balanceOf} and {IERC20-transfer}."
      },
      "decreaseAllowance(address,uint256)": {
        "details": "Atomically decreases the allowance granted to `spender` by the caller. This is an alternative to {approve} that can be used as a mitigation for problems described in {IERC20-approve}. Emits an {Approval} event indicating the updated allowance. Requirements: - `spender` cannot be the zero address. - `spender` must have allowance for the caller of at least `subtractedValue`."
      },
      "increaseAllowance(address,uint256)": {
        "details": "Atomically increases the allowance granted to `spender` by the caller. This is an alternative to {approve} that can be used as a mitigation for problems described in {IERC20-approve}. Emits an {Approval} event indicating the updated allowance. Requirements: - `spender` cannot be the zero address."
      },
      "name()": {
        "details": "Returns the name of the token."
      },
      "owner()": {
        "details": "Returns the address of the current owner."
      },
      "paused()": {
        "details": "Returns true if the contract is paused, and false otherwise."
      },
      "renounceOwnership()": {
        "details": "Leaves the contract without owner. It will not be possible to call `onlyOwner` functions anymore. Can only be called by the current owner. NOTE: Renouncing ownership will leave the contract without an owner, thereby removing any functionality that is only available to the owner."
      },
      "symbol()": {
        "details": "Returns the symbol of the token, usually a shorter version of the name."
      },
      "totalSupply()": {
        "details": "See {IERC20-totalSupply}."
      },
      "transfer(address,uint256)": {
        "details": "See {IERC20-transfer}. Requirements: - `to` cannot be the zero address. - the caller must have a balance of at least `amount`."
      },
      "transferFrom(address,address,uint256)": {
        "details": "See {IERC20-transferFrom}. Emits an {Approval} event indicating the updated allowance. This is not required by the EIP. See the note at the beginning of {ERC20}. NOTE: Does not update the allowance if the current allowance is the maximum `uint256`. Requirements: - `from` and `to` cannot be the zero address. - `from` must have a balance of at least `amount`. - the caller must have allowance for ``from``'s tokens of at least `amount`."
      },
      "transferOwnership(address)": {
        "details": "Transfers ownership of the contract to a new account (`newOwner`). Can only be called by the current owner."
      }
    },
    "version": 1
  },
  "userdoc": {
    "kind": "user",
    "methods": {},
    "version": 1
  },
  "storageLayout": {
    "storage": [
      {
        "astId": 804,
        "contract": "contracts/v3/StaxePurchaseProxyV3.sol:StaxePurchaseProxyV3",
        "label": "_initialized",
        "offset": 0,
        "slot": "0",
        "type": "t_uint8"
      },
      {
        "astId": 807,
        "contract": "contracts/v3/StaxePurchaseProxyV3.sol:StaxePurchaseProxyV3",
        "label": "_initializing",
        "offset": 1,
        "slot": "0",
        "type": "t_bool"
      },
      {
        "astId": 3946,
        "contract": "contracts/v3/StaxePurchaseProxyV3.sol:StaxePurchaseProxyV3",
        "label": "__gap",
        "offset": 0,
        "slot": "1",
        "type": "t_array(t_uint256)50_storage"
      },
      {
        "astId": 2608,
        "contract": "contracts/v3/StaxePurchaseProxyV3.sol:StaxePurchaseProxyV3",
        "label": "_balances",
        "offset": 0,
        "slot": "51",
        "type": "t_mapping(t_address,t_uint256)"
      },
      {
        "astId": 2614,
        "contract": "contracts/v3/StaxePurchaseProxyV3.sol:StaxePurchaseProxyV3",
        "label": "_allowances",
        "offset": 0,
        "slot": "52",
        "type": "t_mapping(t_address,t_mapping(t_address,t_uint256))"
      },
      {
        "astId": 2616,
        "contract": "contracts/v3/StaxePurchaseProxyV3.sol:StaxePurchaseProxyV3",
        "label": "_totalSupply",
        "offset": 0,
        "slot": "53",
        "type": "t_uint256"
      },
      {
        "astId": 2618,
        "contract": "contracts/v3/StaxePurchaseProxyV3.sol:StaxePurchaseProxyV3",
        "label": "_name",
        "offset": 0,
        "slot": "54",
        "type": "t_string_storage"
      },
      {
        "astId": 2620,
        "contract": "contracts/v3/StaxePurchaseProxyV3.sol:StaxePurchaseProxyV3",
        "label": "_symbol",
        "offset": 0,
        "slot": "55",
        "type": "t_string_storage"
      },
      {
        "astId": 3200,
        "contract": "contracts/v3/StaxePurchaseProxyV3.sol:StaxePurchaseProxyV3",
        "label": "__gap",
        "offset": 0,
        "slot": "56",
        "type": "t_array(t_uint256)45_storage"
      },
      {
        "astId": 796,
        "contract": "contracts/v3/StaxePurchaseProxyV3.sol:StaxePurchaseProxyV3",
        "label": "__gap",
        "offset": 0,
        "slot": "101",
        "type": "t_array(t_uint256)50_storage"
      },
      {
        "astId": 589,
        "contract": "contracts/v3/StaxePurchaseProxyV3.sol:StaxePurchaseProxyV3",
        "label": "_owner",
        "offset": 0,
        "slot": "151",
        "type": "t_address"
      },
      {
        "astId": 709,
        "contract": "contracts/v3/StaxePurchaseProxyV3.sol:StaxePurchaseProxyV3",
        "label": "__gap",
        "offset": 0,
        "slot": "152",
        "type": "t_array(t_uint256)49_storage"
      },
      {
        "astId": 987,
        "contract": "contracts/v3/StaxePurchaseProxyV3.sol:StaxePurchaseProxyV3",
        "label": "_paused",
        "offset": 0,
        "slot": "201",
        "type": "t_bool"
      },
      {
        "astId": 1092,
        "contract": "contracts/v3/StaxePurchaseProxyV3.sol:StaxePurchaseProxyV3",
        "label": "__gap",
        "offset": 0,
        "slot": "202",
        "type": "t_array(t_uint256)49_storage"
      },
      {
        "astId": 1107,
        "contract": "contracts/v3/StaxePurchaseProxyV3.sol:StaxePurchaseProxyV3",
        "label": "_status",
        "offset": 0,
        "slot": "251",
        "type": "t_uint256"
      },
      {
        "astId": 1165,
        "contract": "contracts/v3/StaxePurchaseProxyV3.sol:StaxePurchaseProxyV3",
        "label": "__gap",
        "offset": 0,
        "slot": "252",
        "type": "t_array(t_uint256)49_storage"
      },
      {
        "astId": 19223,
        "contract": "contracts/v3/StaxePurchaseProxyV3.sol:StaxePurchaseProxyV3",
        "label": "productions",
        "offset": 0,
        "slot": "301",
        "type": "t_contract(IProductionsV3)20328"
      },
      {
        "astId": 19226,
        "contract": "contracts/v3/StaxePurchaseProxyV3.sol:StaxePurchaseProxyV3",
        "label": "wrappedToken",
        "offset": 0,
        "slot": "302",
        "type": "t_contract(IERC20Upgradeable)3279"
      },
      {
        "astId": 19231,
        "contract": "contracts/v3/StaxePurchaseProxyV3.sol:StaxePurchaseProxyV3",
        "label": "purchases",
        "offset": 0,
        "slot": "303",
        "type": "t_mapping(t_address,t_struct(Purchase)20369_storage)"
      }
    ],
    "types": {
      "t_address": {
        "encoding": "inplace",
        "label": "address",
        "numberOfBytes": "20"
      },
      "t_array(t_uint256)45_storage": {
        "base": "t_uint256",
        "encoding": "inplace",
        "label": "uint256[45]",
        "numberOfBytes": "1440"
      },
      "t_array(t_uint256)49_storage": {
        "base": "t_uint256",
        "encoding": "inplace",
        "label": "uint256[49]",
        "numberOfBytes": "1568"
      },
      "t_array(t_uint256)50_storage": {
        "base": "t_uint256",
        "encoding": "inplace",
        "label": "uint256[50]",
        "numberOfBytes": "1600"
      },
      "t_bool": {
        "encoding": "inplace",
        "label": "bool",
        "numberOfBytes": "1"
      },
      "t_contract(IERC20Upgradeable)3279": {
        "encoding": "inplace",
        "label": "contract IERC20Upgradeable",
        "numberOfBytes": "20"
      },
      "t_contract(IProductionsV3)20328": {
        "encoding": "inplace",
        "label": "contract IProductionsV3",
        "numberOfBytes": "20"
      },
      "t_mapping(t_address,t_mapping(t_address,t_uint256))": {
        "encoding": "mapping",
        "key": "t_address",
        "label": "mapping(address => mapping(address => uint256))",
        "numberOfBytes": "32",
        "value": "t_mapping(t_address,t_uint256)"
      },
      "t_mapping(t_address,t_struct(Purchase)20369_storage)": {
        "encoding": "mapping",
        "key": "t_address",
        "label": "mapping(address => struct IPurchaseProxyV3.Purchase)",
        "numberOfBytes": "32",
        "value": "t_struct(Purchase)20369_storage"
      },
      "t_mapping(t_address,t_uint256)": {
        "encoding": "mapping",
        "key": "t_address",
        "label": "mapping(address => uint256)",
        "numberOfBytes": "32",
        "value": "t_uint256"
      },
      "t_string_storage": {
        "encoding": "bytes",
        "label": "string",
        "numberOfBytes": "32"
      },
      "t_struct(Purchase)20369_storage": {
        "encoding": "inplace",
        "label": "struct IPurchaseProxyV3.Purchase",
        "members": [
          {
            "astId": 20364,
            "contract": "contracts/v3/StaxePurchaseProxyV3.sol:StaxePurchaseProxyV3",
            "label": "tokenId",
            "offset": 0,
            "slot": "0",
            "type": "t_uint256"
          },
          {
            "astId": 20366,
            "contract": "contracts/v3/StaxePurchaseProxyV3.sol:StaxePurchaseProxyV3",
            "label": "numTokens",
            "offset": 0,
            "slot": "1",
            "type": "t_uint256"
          },
          {
            "astId": 20368,
            "contract": "contracts/v3/StaxePurchaseProxyV3.sol:StaxePurchaseProxyV3",
            "label": "perkId",
            "offset": 0,
            "slot": "2",
            "type": "t_uint16"
          }
        ],
        "numberOfBytes": "96"
      },
      "t_uint16": {
        "encoding": "inplace",
        "label": "uint16",
        "numberOfBytes": "2"
      },
      "t_uint256": {
        "encoding": "inplace",
        "label": "uint256",
        "numberOfBytes": "32"
      },
      "t_uint8": {
        "encoding": "inplace",
        "label": "uint8",
        "numberOfBytes": "1"
      }
    }
  }
}