{
  "address": "0x06a3A873Bd1474fb41b54db9DC6ca63237D8A784",
  "abi": [
    {
      "inputs": [
        {
          "internalType": "contract IProductionsV3",
          "name": "_productions",
          "type": "address"
        },
        {
          "internalType": "contract IMembersV3",
          "name": "_members",
          "type": "address"
        },
        {
          "internalType": "contract IPriceCalculationEngineV3",
          "name": "_priceCalculationEngine",
          "type": "address"
        }
      ],
      "stateMutability": "nonpayable",
      "type": "constructor"
    },
    {
      "anonymous": false,
      "inputs": [
        {
          "indexed": true,
          "internalType": "uint256",
          "name": "id",
          "type": "uint256"
        },
        {
          "indexed": true,
          "internalType": "address",
          "name": "creator",
          "type": "address"
        },
        {
          "indexed": false,
          "internalType": "uint256",
          "name": "tokenSupply",
          "type": "uint256"
        },
        {
          "indexed": false,
          "internalType": "address",
          "name": "escrow",
          "type": "address"
        }
      ],
      "name": "ProductionCreated",
      "type": "event"
    },
    {
      "inputs": [
        {
          "components": [
            {
              "internalType": "uint256",
              "name": "totalSupply",
              "type": "uint256"
            },
            {
              "internalType": "uint256",
              "name": "organizerTokens",
              "type": "uint256"
            },
            {
              "internalType": "uint256",
              "name": "tokenPrice",
              "type": "uint256"
            },
            {
              "internalType": "address",
              "name": "currency",
              "type": "address"
            },
            {
              "internalType": "uint256",
              "name": "maxTokensUnknownBuyer",
              "type": "uint256"
            },
            {
              "components": [
                {
                  "internalType": "uint16",
                  "name": "total",
                  "type": "uint16"
                },
                {
                  "internalType": "uint256",
                  "name": "minTokensRequired",
                  "type": "uint256"
                }
              ],
              "internalType": "struct StaxeProductionsFactoryV3.CreatePerk[]",
              "name": "perks",
              "type": "tuple[]"
            },
            {
              "internalType": "string",
              "name": "dataHash",
              "type": "string"
            },
            {
              "internalType": "uint256",
              "name": "crowdsaleEndDate",
              "type": "uint256"
            },
            {
              "internalType": "uint256",
              "name": "productionEndDate",
              "type": "uint256"
            },
            {
              "internalType": "uint8",
              "name": "platformSharePercentage",
              "type": "uint8"
            },
            {
              "internalType": "address",
              "name": "perkTracker",
              "type": "address"
            }
          ],
          "internalType": "struct StaxeProductionsFactoryV3.CreateProduction",
          "name": "data",
          "type": "tuple"
        }
      ],
      "name": "createProduction",
      "outputs": [],
      "stateMutability": "nonpayable",
      "type": "function"
    }
  ],
  "transactionHash": "0xe78f7fe82594dc2acc100cd0b31419ac9f3e4d1880b9370ebfb07a52a371f354",
  "args": [
    "0x59D6Ee798e8acF47611Fd29CFa73aa41BaaC3B51",
    "0x94aA9b1DDc5CA292b12d7C31C8c4Fb94d11927b1",
    "0xaDA35A6F6D174423433e552B8b4cdC4EB14D1025"
  ],
  "numDeployments": 1,
  "solcInputHash": "df4ac18ce0570d62bffd09e9232f4746",
  "bytecode": "0x608060405234801561001057600080fd5b506040516153be3803806153be83398101604081905261002f91610089565b600080546001600160a01b039485166001600160a01b0319918216179091556001805493851693821693909317909255600280549190931691161790556100d6565b6001600160a01b038116811461008657600080fd5b50565b60008060006060848603121561009e57600080fd5b83516100a981610071565b60208501519093506100ba81610071565b60408501519092506100cb81610071565b809150509250925092565b6152d9806100e56000396000f3fe60806040523480156200001157600080fd5b50600436106200002e5760003560e01c8063ac3bb44a1462000033575b600080fd5b6200004a62000044366004620005be565b6200004c565b005b6001546040516341676f1560e01b81523360048201526001600160a01b03909116906341676f159060240160206040518083038186803b1580156200009057600080fd5b505afa158015620000a5573d6000803e3d6000fd5b505050506040513d601f19601f82011682018060405250810190620000cb919062000604565b6200011c5760405162461bcd60e51b815260206004820152601060248201527f4e6f7420616e206f7267616e697a657200000000000000000000000000000000604482015260640160405180910390fd5b60006200012d60a083018362000628565b905067ffffffffffffffff8111156200014a576200014a6200067c565b6040519080825280602002602001820160405280156200019e57816020015b604080516080810182526000808252602080830182905292820181905260608201528252600019909201910181620001695790505b50905060005b81518161ffff16101562000273576000620001c360a085018562000628565b8361ffff16818110620001da57620001da62000692565b905060400201803603810190620001f29190620006a8565b905060405180608001604052808360016200020e91906200072e565b61ffff168152602001826000015161ffff168152602001600061ffff1681526020018260200151815250838361ffff168151811062000251576200025162000692565b60200260200101819052505080806200026a9062000757565b915050620001a4565b506000604051806101c0016040528060008152602001336001600160a01b0316815260200184600001358152602001846020013581526020016000815260200184608001358152602001846060016020810190620002d291906200077c565b6001600160a01b0316815260200160018152602001620002f660c0860186620007a7565b8080601f01602080910402602001604051908101604052809392919081815260200183838082843760009201919091525050509082525060e0850135602082015261010085013560408201526060016200035961014086016101208701620007f1565b60ff16815260200162000375610160860161014087016200077c565b6001600160a01b0390811682526002548116602090920191909152600154604080519394506000938593879392890135921690620003b390620005b0565b620003c29493929190620008f1565b604051809103906000f080158015620003df573d6000803e3d6000fd5b5060005460405163f2fde38b60e01b81526001600160a01b03918216600482015291925082169063f2fde38b90602401600060405180830381600087803b1580156200042a57600080fd5b505af11580156200043f573d6000803e3d6000fd5b50600092506200045b915050610160860161014087016200077c565b6001600160a01b031614620004cf576101808201516040516339d3ad7760e01b81526001600160a01b038381166004830152909116906339d3ad7790602401600060405180830381600087803b158015620004b557600080fd5b505af1158015620004ca573d6000803e3d6000fd5b505050505b60008054604051634982bdd360e11b81526001600160a01b03848116600483015233602483015287356044830152909116906393057ba690606401602060405180830381600087803b1580156200052557600080fd5b505af11580156200053a573d6000803e3d6000fd5b505050506040513d601f19601f8201168201806040525081019062000560919062000a3e565b60408051873581526001600160a01b0385166020820152919250339183917f3456760ea9dedbb2f1547f379062707350387eb715c468c5b3f4ca6f5d041d73910160405180910390a35050505050565b61484b8062000a5983390190565b600060208284031215620005d157600080fd5b813567ffffffffffffffff811115620005e957600080fd5b82016101608185031215620005fd57600080fd5b9392505050565b6000602082840312156200061757600080fd5b81518015158114620005fd57600080fd5b6000808335601e198436030181126200064057600080fd5b83018035915067ffffffffffffffff8211156200065c57600080fd5b6020019150600681901b36038213156200067557600080fd5b9250929050565b634e487b7160e01b600052604160045260246000fd5b634e487b7160e01b600052603260045260246000fd5b600060408284031215620006bb57600080fd5b6040516040810181811067ffffffffffffffff82111715620006ed57634e487b7160e01b600052604160045260246000fd5b604052823561ffff811681146200070357600080fd5b81526020928301359281019290925250919050565b634e487b7160e01b600052601160045260246000fd5b600061ffff8083168185168083038211156200074e576200074e62000718565b01949350505050565b600061ffff8083168181141562000772576200077262000718565b6001019392505050565b6000602082840312156200078f57600080fd5b81356001600160a01b0381168114620005fd57600080fd5b6000808335601e19843603018112620007bf57600080fd5b83018035915067ffffffffffffffff821115620007db57600080fd5b6020019150368190038213156200067557600080fd5b6000602082840312156200080457600080fd5b813560ff81168114620005fd57600080fd5b600781106200083557634e487b7160e01b600052602160045260246000fd5b9052565b6000815180845260005b81811015620008615760208185018101518683018201520162000843565b8181111562000874576000602083870101525b50601f01601f19169290920160200192915050565b600081518084526020808501945080840160005b83811015620008e6578151805161ffff9081168952848201518116858a01526040808301519091169089015260609081015190880152608090960195908201906001016200089d565b509495945050505050565b6080815284516080820152600060208601516200091960a08401826001600160a01b03169052565b50604086015160c0830152606086015160e08301526080860151610100818185015260a08801519150610120828186015260c0890151925061014062000969818701856001600160a01b03169052565b60e08a01519350610160620009818188018662000816565b838b015194506101c093506101808481890152620009a461024089018762000839565b9550838c015193506101a084818a0152838d0151868a0152828d01519550620009d36101e08a018760ff169052565b908c01516001600160a01b039081166102008a0152908c0151908116610220890152935062000a0192505050565b50828103602084015262000a16818762000889565b91505083604083015262000a3560608301846001600160a01b03169052565b95945050505050565b60006020828403121562000a5157600080fd5b505191905056fe60c06040523480156200001157600080fd5b506040516200484b3803806200484b83398101604081905262000034916200058f565b6200003f336200023a565b6000805460ff60a01b19169055835160019081556020850151600280546001600160a01b039283166001600160a01b03199182161790915560408701516003556060870151600455608087015160055560a0870151600690815560c088015160078054919094169281168317845560e0890151899594909390926001600160a81b03199092161790600160a01b908490811115620000e157620000e16200070a565b02179055506101008201518051620001049160078401916020909101906200028a565b5061012082015160088201556101408201516009820155610160820151600a8201805461018085015160ff9093166001600160a81b0319909116176101006001600160a01b03938416021790556101a090920151600b90910180546001600160a01b0319169190921617905560005b83518161ffff1610156200021e57600d848261ffff16815181106200019c576200019c62000720565b6020908102919091018101518254600181810185556000948552938390208251600290920201805493830151604084015161ffff9081166401000000000261ffff60201b19928216620100000263ffffffff19909716919094161794909417939093161782556060015191015580620002158162000736565b91505062000173565b506080919091526001600160a01b031660a05250620007a49050565b600080546001600160a01b038381166001600160a01b0319831681178455604051919092169283917f8be0079c531659141344cd1fd0a4f28419497f9722a3daafe3b4186f6b6457e09190a35050565b828054620002989062000767565b90600052602060002090601f016020900481019282620002bc576000855562000307565b82601f10620002d757805160ff191683800117855562000307565b8280016001018555821562000307579182015b8281111562000307578251825591602001919060010190620002ea565b506200031592915062000319565b5090565b5b808211156200031557600081556001016200031a565b634e487b7160e01b600052604160045260246000fd5b604051608081016001600160401b03811182821017156200036b576200036b62000330565b60405290565b6040516101c081016001600160401b03811182821017156200036b576200036b62000330565b604051601f8201601f191681016001600160401b0381118282101715620003c257620003c262000330565b604052919050565b80516001600160a01b0381168114620003e257600080fd5b919050565b805160078110620003e257600080fd5b600082601f8301126200040957600080fd5b81516001600160401b0381111562000425576200042562000330565b60206200043b601f8301601f1916820162000397565b82815285828487010111156200045057600080fd5b60005b838110156200047057858101830151828201840152820162000453565b83811115620004825760008385840101525b5095945050505050565b805160ff81168114620003e257600080fd5b805161ffff81168114620003e257600080fd5b600082601f830112620004c357600080fd5b815160206001600160401b03821115620004e157620004e162000330565b620004f1818360051b0162000397565b82815260079290921b840181019181810190868411156200051157600080fd5b8286015b84811015620005845760808189031215620005305760008081fd5b6200053a62000346565b62000545826200049e565b8152620005548583016200049e565b858201526040620005678184016200049e565b908201526060828101519082015283529183019160800162000515565b509695505050505050565b60008060008060808587031215620005a657600080fd5b84516001600160401b0380821115620005be57600080fd5b908601906101c08289031215620005d457600080fd5b620005de62000371565b82518152620005f060208401620003ca565b602082015260408301516040820152606083015160608201526080830151608082015260a083015160a08201526200062b60c08401620003ca565b60c08201526200063e60e08401620003e7565b60e082015261010080840151838111156200065857600080fd5b620006668b828701620003f7565b828401525050610120808401518183015250610140808401518183015250610160620006948185016200048c565b90820152610180620006a8848201620003ca565b908201526101a0620006bc848201620003ca565b908201526020880151909650915080821115620006d857600080fd5b50620006e787828801620004b1565b93505060408501519150620006ff60608601620003ca565b905092959194509250565b634e487b7160e01b600052602160045260246000fd5b634e487b7160e01b600052603260045260246000fd5b600061ffff808316818114156200075d57634e487b7160e01b600052601160045260246000fd5b6001019392505050565b600181811c908216806200077c57607f821691505b602082108114156200079e57634e487b7160e01b600052602260045260246000fd5b50919050565b60805160a0516140346200081760003960008181610480015281816105f80152818161077201528181610b8a01528181610d11015281816113060152818161178401528181611f28015281816121320152818161270a0152612a160152600081816102ea01526111f401526140346000f3fe608060405234801561001057600080fd5b50600436106101f05760003560e01c80639b54a8171161010f578063bdd4d18d116100a2578063e36e196911610071578063e36e1969146104e8578063f23a6e6114610500578063f2fde38b14610513578063fc33962c1461052657600080fd5b8063bdd4d18d1461047b578063bf89662d146104a2578063cedd9b53146104af578063daea85c5146104d557600080fd5b8063accff552116100de578063accff552146103dd578063ad799e1014610420578063bc197c8114610433578063bd55db3a1461046857600080fd5b80639b54a8171461039a5780639d9d2fbc146103af5780639e6d77d0146103c2578063aaa5ad61146103d557600080fd5b80636681b9fd1161018757806383817f1a1161015657806383817f1a1461030c57806387e320e4146103305780638da5cb5b1461036257806398590ef91461038757600080fd5b80636681b9fd146102c1578063715018a6146102ca57806376a67a51146102d25780637ff9b596146102e557600080fd5b80632af2bfd7116101c35780632af2bfd71461026d57806357b001f91461028f5780635c202a4c146102a25780635c975abb146102b957600080fd5b806301ffc9a7146101f557806310e29cf91461021d5780631d29572714610232578063201dfbce1461025a575b600080fd5b610208610203366004613492565b610539565b60405190151581526020015b60405180910390f35b61023061022b3660046134d1565b610570565b005b6102456102403660046134ee565b6106d7565b60408051928352602083019190915201610214565b610230610268366004613535565b610873565b610275610a00565b6040516102149e9d9c9b9a99989796959493929190613610565b61023061029d3660046134d1565b610aff565b6102ab60125481565b604051908152602001610214565b610208610c56565b6102ab60115481565b610230610c72565b6102306102e03660046134d1565b610c86565b6102ab7f000000000000000000000000000000000000000000000000000000000000000081565b61031f61031a3660046134d1565b610dd9565b604051610214959493929190613728565b61034361033e36600461379f565b6111c2565b604080516001600160a01b039093168352602083019190915201610214565b6000546001600160a01b03165b6040516001600160a01b039091168152602001610214565b6102306103953660046137c4565b61127b565b6103a261152c565b60405161021491906138e2565b6102306103bd3660046138f5565b61169a565b6102306103d0366004613535565b6119e0565b6102ab611b52565b6103f06103eb366004613946565b611bc6565b604051610214949392919061ffff9485168152928416602084015292166040820152606081019190915260800190565b61023061042e36600461395f565b611c0c565b61044f610441366004613a41565b600098975050505050505050565b6040516001600160e01b03199091168152602001610214565b6102306104763660046137c4565b611e90565b61036f7f000000000000000000000000000000000000000000000000000000000000000081565b6016546102089060ff1681565b6104c26104bd3660046137c4565b612068565b60405161ffff9091168152602001610214565b6102306104e33660046134d1565b6120af565b6104f061220c565b6040516102149493929190613b00565b61044f61050e366004613b39565b612430565b6102306105213660046134d1565b61260c565b6102ab6105343660046134d1565b612685565b60006301ffc9a760e01b6001600160e01b03198316148061056a5750630271189760e51b6001600160e01b03198316145b92915050565b600180600754600160a01b900460ff16600681111561059157610591613580565b146105d15760405162461bcd60e51b81526020600482015260156024820152600080516020613fdf83398151915260448201526064015b60405180910390fd5b6105d9612978565b604051630da431c960e31b81526001600160a01b0383811660048301527f00000000000000000000000000000000000000000000000000000000000000001690636d218e489060240160206040518083038186803b15801561063a57600080fd5b505afa15801561064e573d6000803e3d6000fd5b505050506040513d601f19601f820116820180604052508101906106729190613bb5565b61067b57600080fd5b7f576026e1931f5d22bd4e8daa2b9a1d285267e6b24a2e9108498eaaa709d30b8c60016004846040516106b093929190613bd2565b60405180910390a1600780546004919060ff60a01b1916600160a01b835b02179055505050565b600080600280600754600160a01b900460ff1660068111156106fb576106fb613580565b146107365760405162461bcd60e51b81526020600482015260156024820152600080516020613fdf83398151915260448201526064016105c8565b84610740816129d2565b806107ec575060165460ff1680156107ec5750604051630da431c960e31b81526001600160a01b0382811660048301527f00000000000000000000000000000000000000000000000000000000000000001690636d218e489060240160206040518083038186803b1580156107b457600080fd5b505afa1580156107c8573d6000803e3d6000fd5b505050506040513d601f19601f820116820180604052508101906107ec9190613bb5565b61084c5760405162461bcd60e51b815260206004820152602b60248201527f43616e206f6e6c792062652063616c6c65642066726f6d2063726561746f722060448201526a6f722064656c656761746560a81b60648201526084016105c8565b610854612978565b61085c612a92565b6108668686612ae7565b9097909650945050505050565b600280600754600160a01b900460ff16600681111561089457610894613580565b146108cf5760405162461bcd60e51b81526020600482015260156024820152600080516020613fdf83398151915260448201526064016105c8565b6108d7612978565b6108df612a92565b6009541580156108f357506108f3846129d2565b8061092457506009541580159061090c57506009544210155b8015610924575061091c846129d2565b806109245750825b6109965760405162461bcd60e51b815260206004820152603860248201527f43616e6e6f742062652066696e6973686564206265666f72652066696e69736860448201527f2064617465206f72206f6e6c792062792063726561746f72000000000000000060648201526084016105c8565b7f576026e1931f5d22bd4e8daa2b9a1d285267e6b24a2e9108498eaaa709d30b8c60026003866040516109cb93929190613bd2565b60405180910390a1600780546003919060ff60a01b1916600160a01b835b02179055506109f88483612ae7565b505050505050565b600180546002546003546004546005546006546007546008805497986001600160a01b0397881698969795969495939493831693600160a01b90930460ff1692909190610a4c90613c04565b80601f0160208091040260200160405190810160405280929190818152602001828054610a7890613c04565b8015610ac55780601f10610a9a57610100808354040283529160200191610ac5565b820191906000526020600020905b815481529060010190602001808311610aa857829003601f168201915b50505060088401546009850154600a860154600b909601549495919490935060ff821692506001600160a01b03610100909204821691168e565b610b07612978565b600280600754600160a01b900460ff166006811115610b2857610b28613580565b14610b635760405162461bcd60e51b81526020600482015260156024820152600080516020613fdf83398151915260448201526064016105c8565b610b6b612c1a565b604051630da431c960e31b81526001600160a01b0383811660048301527f00000000000000000000000000000000000000000000000000000000000000001690636d218e489060240160206040518083038186803b158015610bcc57600080fd5b505afa158015610be0573d6000803e3d6000fd5b505050506040513d601f19601f82011682018060405250810190610c049190613bb5565b610c4a5760405162461bcd60e51b815260206004820152601760248201527621b0b63632b91036bab9ba1031329030b8383937bb32b960491b60448201526064016105c8565b610c52612c6e565b5050565b6000610c60612978565b600054600160a01b900460ff16905090565b610c7a612978565b610c846000612cc3565b565b610c8e612978565b600280600754600160a01b900460ff166006811115610caf57610caf613580565b14610cea5760405162461bcd60e51b81526020600482015260156024820152600080516020613fdf83398151915260448201526064016105c8565b610cf2612a92565b604051630da431c960e31b81526001600160a01b0383811660048301527f00000000000000000000000000000000000000000000000000000000000000001690636d218e489060240160206040518083038186803b158015610d5357600080fd5b505afa158015610d67573d6000803e3d6000fd5b505050506040513d601f19601f82011682018060405250810190610d8b9190613bb5565b610dd15760405162461bcd60e51b815260206004820152601760248201527621b0b63632b91036bab9ba1031329030b8383937bb32b960491b60448201526064016105c8565b610c52612d20565b601054600154604051627eeac760e11b81526001600160a01b0384811660048301526024820192909252600092606092839285928392169062fdd58e9060440160206040518083038186803b158015610e3157600080fd5b505afa158015610e45573d6000803e3d6000fd5b505050506040513d601f19601f82011682018060405250810190610e699190613c3f565b6001600160a01b0387166000908152600e6020908152604080832080548251818502810185019093528083529499509293909291830182828015610ef457602002820191906000526020600020906000905b82829054906101000a900461ffff1661ffff1681526020019060020190602082600101049283019260010382029150808411610ebb5790505b505050506001600160a01b0389166000908152600f6020526040812092935091610f1e9150612d63565b9050805167ffffffffffffffff811115610f3a57610f3a613c58565b604051908082528060200260200182016040528015610f8c57816020015b604080516080810182526000808252602080830182905292820181905260608201528252600019909201910181610f585790505b50945060005b81518161ffff1610156110ad576000828261ffff1681518110610fb757610fb7613c6e565b602002602001015190506000600d600183610fd29190613c9a565b61ffff1681548110610fe657610fe6613c6e565b60009182526020808320604080516080810182526002909402909101805461ffff8082168652620100008204811694860194909452640100000000900490921690830152600101546060820152915061103f8387612d77565b905060405180608001604052808461ffff168152602001836020015161ffff1681526020018261ffff1681526020018360600151815250898561ffff168151811061108c5761108c613c6e565b602002602001018190525050505080806110a590613cbd565b915050610f92565b506001600160a01b0388166000908152601360205260409020546005549094506110d8576000611115565b6001600160a01b038816600090815260146020526040902054600554601254611101908a613cdf565b61110b9190613cfe565b6111159190613d20565b925086601560008a6001600160a01b03166001600160a01b0316815260200190815260200160002086868683805480602002602001604051908101604052809291908181526020016000905b828210156111a757838290600052602060002090600202016040518060400160405290816000820154815260200160018201548152505081526020019060010190611161565b50505050935096509650965096509650505091939590929450565b600c546040516316b9575360e21b815260009182916001600160a01b0390911690635ae55d4c906112209030906001907f0000000000000000000000000000000000000000000000000000000000000000908a908a90600401613dd7565b604080518083038186803b15801561123757600080fd5b505afa15801561124b573d6000803e3d6000fd5b505050506040513d601f19601f8201168201806040525081019061126f9190613f0b565b915091505b9250929050565b611283612978565b600280600754600160a01b900460ff1660068111156112a4576112a4613580565b146112df5760405162461bcd60e51b81526020600482015260156024820152600080516020613fdf83398151915260448201526064016105c8565b6112e7612c1a565b604051630da431c960e31b81526001600160a01b0384811660048301527f00000000000000000000000000000000000000000000000000000000000000001690636d218e489060240160206040518083038186803b15801561134857600080fd5b505afa15801561135c573d6000803e3d6000fd5b505050506040513d601f19601f820116820180604052508101906113809190613bb5565b6113c65760405162461bcd60e51b815260206004820152601760248201527621b0b63632b91036bab9ba1031329030b8383937bb32b960491b60448201526064016105c8565b6113d34262278d00613f39565b8210156114225760405162461bcd60e51b815260206004820152601d60248201527f526566756e6420706572696f64206e6f74206c6f6e6720656e6f75676800000060448201526064016105c8565b7f576026e1931f5d22bd4e8daa2b9a1d285267e6b24a2e9108498eaaa709d30b8c600260038560405161145793929190613bd2565b60405180910390a160078054600360a01b60ff60a01b19821617909155600a8390556016805460ff191660011790556040516370a0823160e01b81523060048201526001600160a01b039091169060009082906370a082319060240160206040518083038186803b1580156114cb57600080fd5b505afa1580156114df573d6000803e3d6000fd5b505050506040513d601f19601f820116820180604052508101906115039190613c3f565b905080601260008282546115179190613f39565b909155506115259050612c6e565b5050505050565b6115346133eb565b604080516101c0810182526001805482526002546001600160a01b03908116602084015260035493830193909352600454606083015260055460808301526006805460a084015260075493841660c08401529192909160e0840191600160a01b900460ff16908111156115a9576115a9613580565b60068111156115ba576115ba613580565b81526020016007820180546115ce90613c04565b80601f01602080910402602001604051908101604052809291908181526020018280546115fa90613c04565b80156116475780601f1061161c57610100808354040283529160200191611647565b820191906000526020600020905b81548152906001019060200180831161162a57829003601f168201915b50505091835250506008820154602082015260098201546040820152600a82015460ff811660608301526001600160a01b0361010090910481166080830152600b9092015490911660a090910152919050565b600280600754600160a01b900460ff1660068111156116bb576116bb613580565b146116f65760405162461bcd60e51b81526020600482015260156024820152600080516020613fdf83398151915260448201526064016105c8565b6116fe612a92565b611706612978565b6005546003546117169190613d20565b8411156117655760405162461bcd60e51b815260206004820152601b60248201527f4e6f7420656e6f75676820746f6b656e7320617661696c61626c65000000000060448201526064016105c8565b60405163cee2a9cf60e01b81526001600160a01b0386811660048301527f0000000000000000000000000000000000000000000000000000000000000000169063cee2a9cf9060240160206040518083038186803b1580156117c657600080fd5b505afa1580156117da573d6000803e3d6000fd5b505050506040513d601f19601f820116820180604052508101906117fe9190613bb5565b8061180b57506006548411155b806118165750600654155b6118765760405162461bcd60e51b815260206004820152602b60248201527f4e6565647320696e766573746f7220726f6c6520746f2062757920616d6f756e60448201526a74206f6620746f6b656e7360a81b60648201526084016105c8565b611881858584612ddc565b82601160008282546118939190613f39565b9091555050604080516001600160a01b03871681526020810186905290810184905261ffff831660608201527f7d4ca136516fc19227d5eb2803a1ee09fd6f86fef531acaa28f1500fdf2c6abb9060800160405180910390a183600160040160008282546119019190613f39565b9091555050601054600154604051637921219560e11b81523060048201526001600160a01b03888116602483015260448201929092526064810187905260a06084820152600060a482015291169063f242432a9060c401600060405180830381600087803b15801561197257600080fd5b505af1158015611986573d6000803e3d6000fd5b505050506001600160a01b0394909416600090815260156020908152604080832081518083019092529581528082019485528554600180820188559684529190922091516002909102909101908155915191909201555050565b600380600754600160a01b900460ff166006811115611a0157611a01613580565b14611a3c5760405162461bcd60e51b81526020600482015260156024820152600080516020613fdf83398151915260448201526064016105c8565b611a44612978565b600a54158015611a585750611a58846129d2565b80611a895750600a5415801590611a715750600a544210155b8015611a895750611a81846129d2565b80611a895750825b611afb5760405162461bcd60e51b815260206004820152603560248201527f43616e6e6f7420626520636c6f736564206265666f726520636c6f736520646160448201527f7465206f72206f6e6c792062792063726561746f72000000000000000000000060648201526084016105c8565b7f576026e1931f5d22bd4e8daa2b9a1d285267e6b24a2e9108498eaaa709d30b8c6003600686604051611b3093929190613bd2565b60405180910390a1600780546006919060ff60a01b1916600160a01b836109e9565b6000600280600754600160a01b900460ff166006811115611b7557611b75613580565b14611bb05760405162461bcd60e51b81526020600482015260156024820152600080516020613fdf83398151915260448201526064016105c8565b600554600354611bc09190613d20565b91505090565b600d8181548110611bd657600080fd5b60009182526020909120600290910201805460019091015461ffff80831693506201000083048116926401000000009004169084565b6010546001600160a01b03163314611c665760405162461bcd60e51b815260206004820152601d60248201527f556e6b6e6f776e20746f6b656e20636f6e74726163742073656e64657200000060448201526064016105c8565b6001548414611cb75760405162461bcd60e51b815260206004820152601060248201527f496e76616c696420746f6b656e2069640000000000000000000000000000000060448201526064016105c8565b60008111611d075760405162461bcd60e51b815260206004820152601e60248201527f546f6b656e7320746f207472616e73666572206d757374206265203e2030000060448201526064016105c8565b601054600154604051627eeac760e11b81526000926001600160a01b03169162fdd58e91611d4d9188916004016001600160a01b03929092168252602082015260400190565b60206040518083038186803b158015611d6557600080fd5b505afa158015611d79573d6000803e3d6000fd5b505050506040513d601f19601f82011682018060405250810190611d9d9190613c3f565b905081811015611df95760405162461bcd60e51b815260206004820152602160248201527f496e73756666696369656e742062616c616e636520666f72207472616e7366656044820152603960f91b60648201526084016105c8565b6001600160a01b0384166000908152601460205260408120548290611e1e9085613cdf565b611e289190613cfe565b6001600160a01b038616600090815260146020526040812080549293508392909190611e55908490613d20565b90915550506001600160a01b03841660009081526014602052604081208054839290611e82908490613f39565b909155505050505050505050565b600380600754600160a01b900460ff166006811115611eb157611eb1613580565b14611eec5760405162461bcd60e51b81526020600482015260156024820152600080516020613fdf83398151915260448201526064016105c8565b82611ef6816129d2565b80611fa2575060165460ff168015611fa25750604051630da431c960e31b81526001600160a01b0382811660048301527f00000000000000000000000000000000000000000000000000000000000000001690636d218e489060240160206040518083038186803b158015611f6a57600080fd5b505afa158015611f7e573d6000803e3d6000fd5b505050506040513d601f19601f82011682018060405250810190611fa29190613bb5565b6120025760405162461bcd60e51b815260206004820152602b60248201527f43616e206f6e6c792062652063616c6c65642066726f6d2063726561746f722060448201526a6f722064656c656761746560a81b60648201526084016105c8565b61200a612978565b604080518481526001600160a01b03861660208201527f57da78579f402bda9a94ba7ca3c2f2ddcad9e106acef9ef6799220f200fe6ff0910160405180910390a1826012600082825461205d9190613f39565b909155505050505050565b600e602052816000526040600020818154811061208457600080fd5b9060005260206000209060109182820401919006600202915091509054906101000a900461ffff1681565b600180600754600160a01b900460ff1660068111156120d0576120d0613580565b1461210b5760405162461bcd60e51b81526020600482015260156024820152600080516020613fdf83398151915260448201526064016105c8565b612113612978565b604051630da431c960e31b81526001600160a01b0383811660048301527f00000000000000000000000000000000000000000000000000000000000000001690636d218e489060240160206040518083038186803b15801561217457600080fd5b505afa158015612188573d6000803e3d6000fd5b505050506040513d601f19601f820116820180604052508101906121ac9190613bb5565b6121b557600080fd5b7f576026e1931f5d22bd4e8daa2b9a1d285267e6b24a2e9108498eaaa709d30b8c60016002846040516121ea93929190613bd2565b60405180910390a1600780546002919060ff60a01b1916600160a01b836106ce565b6122146133eb565b601154601254604080516101c0810182526001805482526002546001600160a01b0390811660208401526003549383019390935260045460608084019190915260055460808401526006805460a085015260075494851660c0850152909560009586959394600d94929391929091869160e0840191600160a01b90910460ff16908111156122a4576122a4613580565b60068111156122b5576122b5613580565b81526020016007820180546122c990613c04565b80601f01602080910402602001604051908101604052809291908181526020018280546122f590613c04565b80156123425780601f1061231757610100808354040283529160200191612342565b820191906000526020600020905b81548152906001019060200180831161232557829003601f168201915b505050918352505060088201546020808301919091526009830154604080840191909152600a84015460ff811660608501526001600160a01b0361010090910481166080850152600b9094015490931660a09092019190915285548251818302810183019093528083529296509091859160009084015b8282101561241c5760008481526020908190206040805160808101825260028602909201805461ffff80821685526201000082048116858701526401000000009091041691830191909152600190810154606083015290835290920191016123b9565b505050509250935093509350935090919293565b6000600180600754600160a01b900460ff16600681111561245357612453613580565b1461248e5760405162461bcd60e51b81526020600482015260156024820152600080516020613fdf83398151915260448201526064016105c8565b600154156124de5760405162461bcd60e51b815260206004820152601160248201527f546f6b656e20616c72656164792073657400000000000000000000000000000060448201526064016105c8565b600354851461252f5760405162461bcd60e51b815260206004820152601360248201527f57726f6e6720616d6f756e74206d696e7465640000000000000000000000000060448201526064016105c8565b60018690556010805473ffffffffffffffffffffffffffffffffffffffff191633179055600454156125f8576010546002546004805460408051602081018252600081529051637921219560e11b81526001600160a01b039586169563f242432a956125a695309592909116938e93909101613f51565b600060405180830381600087803b1580156125c057600080fd5b505af11580156125d4573d6000803e3d6000fd5b50505050600160030154600160040160008282546125f29190613f39565b90915550505b5063f23a6e6160e01b979650505050505050565b612614612978565b6001600160a01b0381166126795760405162461bcd60e51b815260206004820152602660248201527f4f776e61626c653a206e6577206f776e657220697320746865207a65726f206160448201526564647265737360d01b60648201526084016105c8565b61268281612cc3565b50565b6000600380600754600160a01b900460ff1660068111156126a8576126a8613580565b146126e35760405162461bcd60e51b81526020600482015260156024820152600080516020613fdf83398151915260448201526064016105c8565b6126eb612978565b60405163cee2a9cf60e01b81526001600160a01b0384811660048301527f0000000000000000000000000000000000000000000000000000000000000000169063cee2a9cf9060240160206040518083038186803b15801561274c57600080fd5b505afa158015612760573d6000803e3d6000fd5b505050506040513d601f19601f820116820180604052508101906127849190613bb5565b6127da5760405162461bcd60e51b815260206004820152602160248201527f4f6e6c7920696e766573746f72732063616e20636c61696d2070726f636565646044820152607360f81b60648201526084016105c8565b601054600154604051627eeac760e11b81526000926001600160a01b03169162fdd58e916128209188916004016001600160a01b03929092168252602082015260400190565b60206040518083038186803b15801561283857600080fd5b505afa15801561284c573d6000803e3d6000fd5b505050506040513d601f19601f820116820180604052508101906128709190613c3f565b6001600160a01b038516600090815260146020526040902054600554601254929350909161289e9084613cdf565b6128a89190613cfe565b6128b29190613d20565b6001600160a01b0385166000908152601360205260408120805492955085929091906128df908490613f39565b90915550506001600160a01b0384166000908152601460205260408120805485929061290c908490613f39565b9091555050821561297157604080518481526001600160a01b03861660208201527f7ae234f282e32d9045ebb99a2727e371aabe9285ae8f3888388543d61ffea922910160405180910390a16007546001600160a01b031661296f818686613069565b505b5050919050565b6000546001600160a01b03163314610c845760405162461bcd60e51b815260206004820181905260248201527f4f776e61626c653a2063616c6c6572206973206e6f7420746865206f776e657260448201526064016105c8565b6002546000906001600160a01b038381169116148061056a575060025460405163d8d9a39160e01b81526001600160a01b03848116600483015291821660248201527f00000000000000000000000000000000000000000000000000000000000000009091169063d8d9a3919060440160206040518083038186803b158015612a5a57600080fd5b505afa158015612a6e573d6000803e3d6000fd5b505050506040513d601f19601f8201168201806040525081019061056a9190613bb5565b612a9a610c56565b15610c845760405162461bcd60e51b815260206004820152601060248201527f5061757361626c653a207061757365640000000000000000000000000000000060448201526064016105c8565b6007546040516370a0823160e01b815230600482015260009182916001600160a01b0390911690829082906370a082319060240160206040518083038186803b158015612b3357600080fd5b505afa158015612b47573d6000803e3d6000fd5b505050506040513d601f19601f82011682018060405250810190612b6b9190613c3f565b600b54909150606490612b819060ff1683613cdf565b612b8b9190613cfe565b9250612b978382613d20565b60408051828152602081018690526001600160a01b0389168183015290519195507ff2eab73588c8e9161f6a438fe2a8b08c31f71f570c0c8ca9c9d200ea098f7455919081900360600190a1600254612bfd906001600160a01b03848116911686613069565b612c116001600160a01b0383168685613069565b50509250929050565b612c22610c56565b610c845760405162461bcd60e51b815260206004820152601460248201527f5061757361626c653a206e6f742070617573656400000000000000000000000060448201526064016105c8565b612c76612c1a565b6000805460ff60a01b191690557f5db9ee0a495bf2e6ff9c91a7834c1ba4fdd244a5e8aa4e537bd38aeae4b073aa335b6040516001600160a01b03909116815260200160405180910390a1565b600080546001600160a01b0383811673ffffffffffffffffffffffffffffffffffffffff19831681178455604051919092169283917f8be0079c531659141344cd1fd0a4f28419497f9722a3daafe3b4186f6b6457e09190a35050565b612d28612a92565b6000805460ff60a01b1916600160a01b1790557f62e78cea01bee320cd4e420270b5ea74000d11b0c9f74754ebdbfc544b05a258612ca63390565b60606000612d70836130d5565b9392505050565b6000805b82518161ffff161015612dd5578361ffff16838261ffff1681518110612da357612da3613c6e565b602002602001015161ffff161415612dc357612dc0600183613f89565b91505b80612dcd81613cbd565b915050612d7b565b5092915050565b61ffff8116612dea57505050565b600d5461ffff82161115612e405760405162461bcd60e51b815260206004820152600e60248201527f496e76616c6964207065726b496400000000000000000000000000000000000060448201526064016105c8565b6000600d612e4f600184613c9a565b61ffff1681548110612e6357612e63613c6e565b60009182526020909120600290910201805490915061ffff64010000000082048116620100009092041611612eda5760405162461bcd60e51b815260206004820152601260248201527f5065726b206e6f7420617661696c61626c65000000000000000000000000000060448201526064016105c8565b8281600101541115612f2e5760405162461bcd60e51b815260206004820152601a60248201527f4e6f7420656e6f75676820746f6b656e7320746f20636c61696d00000000000060448201526064016105c8565b80546001908290600490612f4f908490640100000000900461ffff16613f89565b825461ffff91821661010093840a90810290830219909116179092556001600160a01b0387166000818152600e602090815260408083208054600181018255908452828420601082040180548b89166002600f9485160290980a888102990219169790971790965592825293909352909120612fcc925090613131565b50600b5461010090046001600160a01b03161561306357600b5460015460405163396d6e9f60e21b81526001600160a01b038781166004830152602482019290925261ffff8516604482015260648101869052610100909204169063e5b5ba7c90608401600060405180830381600087803b15801561304a57600080fd5b505af115801561305e573d6000803e3d6000fd5b505050505b50505050565b604080516001600160a01b038416602482015260448082018490528251808303909101815260649091019091526020810180517bffffffffffffffffffffffffffffffffffffffffffffffffffffffff1663a9059cbb60e01b1790526130d090849061313d565b505050565b60608160000180548060200260200160405190810160405280929190818152602001828054801561312557602002820191906000526020600020905b815481526020019060010190808311613111575b50505050509050919050565b6000612d70838361320f565b6000613192826040518060400160405280602081526020017f5361666545524332303a206c6f772d6c6576656c2063616c6c206661696c6564815250856001600160a01b031661325e9092919063ffffffff16565b8051909150156130d057808060200190518101906131b09190613bb5565b6130d05760405162461bcd60e51b815260206004820152602a60248201527f5361666545524332303a204552433230206f7065726174696f6e20646964206e6044820152691bdd081cdd58d8d9595960b21b60648201526084016105c8565b60008181526001830160205260408120546132565750815460018181018455600084815260208082209093018490558454848252828601909352604090209190915561056a565b50600061056a565b606061326d8484600085613275565b949350505050565b6060824710156132d65760405162461bcd60e51b815260206004820152602660248201527f416464726573733a20696e73756666696369656e742062616c616e636520666f6044820152651c8818d85b1b60d21b60648201526084016105c8565b600080866001600160a01b031685876040516132f29190613faf565b60006040518083038185875af1925050503d806000811461332f576040519150601f19603f3d011682016040523d82523d6000602084013e613334565b606091505b509150915061334587838387613350565b979650505050505050565b606083156133bc5782516133b5576001600160a01b0385163b6133b55760405162461bcd60e51b815260206004820152601d60248201527f416464726573733a2063616c6c20746f206e6f6e2d636f6e747261637400000060448201526064016105c8565b508161326d565b61326d83838151156133d15781518083602001fd5b8060405162461bcd60e51b81526004016105c89190613fcb565b604051806101c001604052806000815260200160006001600160a01b031681526020016000815260200160008152602001600081526020016000815260200160006001600160a01b031681526020016000600681111561344d5761344d613580565b8152602001606081526020016000815260200160008152602001600060ff16815260200160006001600160a01b0316815260200160006001600160a01b031681525090565b6000602082840312156134a457600080fd5b81356001600160e01b031981168114612d7057600080fd5b6001600160a01b038116811461268257600080fd5b6000602082840312156134e357600080fd5b8135612d70816134bc565b6000806040838503121561350157600080fd5b823561350c816134bc565b9150602083013561351c816134bc565b809150509250929050565b801515811461268257600080fd5b60008060006060848603121561354a57600080fd5b8335613555816134bc565b9250602084013561356581613527565b91506040840135613575816134bc565b809150509250925092565b634e487b7160e01b600052602160045260246000fd5b600781106135b457634e487b7160e01b600052602160045260246000fd5b9052565b60005b838110156135d35781810151838201526020016135bb565b838111156130635750506000910152565b600081518084526135fc8160208601602086016135b8565b601f01601f19169290920160200192915050565b8e81526001600160a01b038e1660208201528c60408201528b60608201528a60808201528960a08201526001600160a01b03891660c082015261365660e0820189613596565b6101c0610100820152600061366f6101c08301896135e4565b9050866101208301528561014083015261368f61016083018660ff169052565b6001600160a01b0384166101808301526001600160a01b0383166101a08301529f9e505050505050505050505050505050565b600081518084526020808501945080840160005b8381101561371d578151805161ffff9081168952848201518116858a01526040808301519091169089015260609081015190880152608090960195908201906001016136d6565b509495945050505050565b600060a08201878352602060a08185015281885180845260c086019150828a01935060005b8181101561377457845180518452840151848401529383019360409092019160010161374d565b5050848103604086015261378881896136c2565b606086019790975250505050608001529392505050565b600080604083850312156137b257600080fd5b82359150602083013561351c816134bc565b600080604083850312156137d757600080fd5b82356137e2816134bc565b946020939093013593505050565b60006101c082518452602083015161381360208601826001600160a01b03169052565b5060408301516040850152606083015160608501526080830151608085015260a083015160a085015260c083015161385660c08601826001600160a01b03169052565b5060e083015161386960e0860182613596565b50610100808401518282870152613882838701826135e4565b92505050610120808401518186015250610140808401518186015250610160808401516138b38287018260ff169052565b5050610180838101516001600160a01b03908116918601919091526101a0938401511692909301919091525090565b602081526000612d7060208301846137f0565b6000806000806080858703121561390b57600080fd5b8435613916816134bc565b93506020850135925060408501359150606085013561ffff8116811461393b57600080fd5b939692955090935050565b60006020828403121561395857600080fd5b5035919050565b600080600080600060a0868803121561397757600080fd5b8535613982816134bc565b9450602086013593506040860135613999816134bc565b925060608601356139a9816134bc565b949793965091946080013592915050565b60008083601f8401126139cc57600080fd5b50813567ffffffffffffffff8111156139e457600080fd5b6020830191508360208260051b850101111561127457600080fd5b60008083601f840112613a1157600080fd5b50813567ffffffffffffffff811115613a2957600080fd5b60208301915083602082850101111561127457600080fd5b60008060008060008060008060a0898b031215613a5d57600080fd5b8835613a68816134bc565b97506020890135613a78816134bc565b9650604089013567ffffffffffffffff80821115613a9557600080fd5b613aa18c838d016139ba565b909850965060608b0135915080821115613aba57600080fd5b613ac68c838d016139ba565b909650945060808b0135915080821115613adf57600080fd5b50613aec8b828c016139ff565b999c989b5096995094979396929594505050565b608081526000613b1360808301876137f0565b8281036020840152613b2581876136c2565b604084019590955250506060015292915050565b60008060008060008060a08789031215613b5257600080fd5b8635613b5d816134bc565b95506020870135613b6d816134bc565b94506040870135935060608701359250608087013567ffffffffffffffff811115613b9757600080fd5b613ba389828a016139ff565b979a9699509497509295939492505050565b600060208284031215613bc757600080fd5b8151612d7081613527565b60608101613be08286613596565b613bed6020830185613596565b6001600160a01b0383166040830152949350505050565b600181811c90821680613c1857607f821691505b60208210811415613c3957634e487b7160e01b600052602260045260246000fd5b50919050565b600060208284031215613c5157600080fd5b5051919050565b634e487b7160e01b600052604160045260246000fd5b634e487b7160e01b600052603260045260246000fd5b634e487b7160e01b600052601160045260246000fd5b600061ffff83811690831681811015613cb557613cb5613c84565b039392505050565b600061ffff80831681811415613cd557613cd5613c84565b6001019392505050565b6000816000190483118215151615613cf957613cf9613c84565b500290565b600082613d1b57634e487b7160e01b600052601260045260246000fd5b500490565b600082821015613d3257613d32613c84565b500390565b8054600090600181811c9080831680613d5157607f831692505b6020808410821415613d7357634e487b7160e01b600052602260045260246000fd5b83885260208801828015613d8e5760018114613d9f57613dca565b60ff19871682528282019750613dca565b60008981526020902060005b87811015613dc457815484820152908601908401613dab565b83019850505b5050505050505092915050565b60006001600160a01b03808816835260a06020840152865460a0840152613e0860018801546001600160a01b031690565b6001600160a01b03811660c085015250600287015460e084015260038701546101008401526004870154610120840152600587015461014084015260068701546001600160a01b0382821616610160850152613e6e610180850160ff8360a01c16613596565b506101c0806101a0850152613e8a610260850160078a01613d37565b60088901549185019190915260098801546101e0850152600a88015460ff811661020086015290613ecc6102208601848460081c166001600160a01b03169052565b600b8901546001600160a01b039081166102408701526040860189905260608601889052861660808601529250613f01915050565b9695505050505050565b60008060408385031215613f1e57600080fd5b8251613f29816134bc565b6020939093015192949293505050565b60008219821115613f4c57613f4c613c84565b500190565b60006001600160a01b03808816835280871660208401525084604083015283606083015260a0608083015261334560a08301846135e4565b600061ffff808316818516808303821115613fa657613fa6613c84565b01949350505050565b60008251613fc18184602087016135b8565b9190910192915050565b602081526000612d7060208301846135e456fe4e6f7420696e2072657175697265642073746174650000000000000000000000a2646970667358221220e9bd2c977b70c205d9106e3a9ce62a75efbcec15e6ef0df864b781e7ba0f526b64736f6c63430008090033a2646970667358221220a398bbd9f32873d5b24347b4e7db009daab787ce367bd7495fe8a49a2b6cc40164736f6c63430008090033",
  "devdoc": {
    "kind": "dev",
    "methods": {},
    "version": 1
  },
  "userdoc": {
    "kind": "user",
    "methods": {},
    "version": 1
  },
  "storageLayout": {
    "storage": [
      {
        "astId": 17532,
        "contract": "contracts/v3/StaxeProductionsFactoryV3.sol:StaxeProductionsFactoryV3",
        "label": "productions",
        "offset": 0,
        "slot": "0",
        "type": "t_contract(IProductionsV3)20328"
      },
      {
        "astId": 17535,
        "contract": "contracts/v3/StaxeProductionsFactoryV3.sol:StaxeProductionsFactoryV3",
        "label": "members",
        "offset": 0,
        "slot": "1",
        "type": "t_contract(IMembersV3)19737"
      },
      {
        "astId": 17538,
        "contract": "contracts/v3/StaxeProductionsFactoryV3.sol:StaxeProductionsFactoryV3",
        "label": "priceCalculationEngine",
        "offset": 0,
        "slot": "2",
        "type": "t_contract(IPriceCalculationEngineV3)19783"
      }
    ],
    "types": {
      "t_contract(IMembersV3)19737": {
        "encoding": "inplace",
        "label": "contract IMembersV3",
        "numberOfBytes": "20"
      },
      "t_contract(IPriceCalculationEngineV3)19783": {
        "encoding": "inplace",
        "label": "contract IPriceCalculationEngineV3",
        "numberOfBytes": "20"
      },
      "t_contract(IProductionsV3)20328": {
        "encoding": "inplace",
        "label": "contract IProductionsV3",
        "numberOfBytes": "20"
      }
    }
  }
}