{
  "address": "0x828B45D054AE720C0C73DCaba6129819A5399741",
  "abi": [
    {
      "inputs": [],
      "stateMutability": "nonpayable",
      "type": "constructor"
    },
    {
      "anonymous": false,
      "inputs": [
        {
          "indexed": true,
          "internalType": "address",
          "name": "account",
          "type": "address"
        },
        {
          "indexed": true,
          "internalType": "address",
          "name": "operator",
          "type": "address"
        },
        {
          "indexed": false,
          "internalType": "bool",
          "name": "approved",
          "type": "bool"
        }
      ],
      "name": "ApprovalForAll",
      "type": "event"
    },
    {
      "anonymous": false,
      "inputs": [
        {
          "indexed": false,
          "internalType": "uint8",
          "name": "version",
          "type": "uint8"
        }
      ],
      "name": "Initialized",
      "type": "event"
    },
    {
      "anonymous": false,
      "inputs": [
        {
          "indexed": false,
          "internalType": "address",
          "name": "account",
          "type": "address"
        }
      ],
      "name": "Paused",
      "type": "event"
    },
    {
      "anonymous": false,
      "inputs": [
        {
          "indexed": true,
          "internalType": "bytes32",
          "name": "role",
          "type": "bytes32"
        },
        {
          "indexed": true,
          "internalType": "bytes32",
          "name": "previousAdminRole",
          "type": "bytes32"
        },
        {
          "indexed": true,
          "internalType": "bytes32",
          "name": "newAdminRole",
          "type": "bytes32"
        }
      ],
      "name": "RoleAdminChanged",
      "type": "event"
    },
    {
      "anonymous": false,
      "inputs": [
        {
          "indexed": true,
          "internalType": "bytes32",
          "name": "role",
          "type": "bytes32"
        },
        {
          "indexed": true,
          "internalType": "address",
          "name": "account",
          "type": "address"
        },
        {
          "indexed": true,
          "internalType": "address",
          "name": "sender",
          "type": "address"
        }
      ],
      "name": "RoleGranted",
      "type": "event"
    },
    {
      "anonymous": false,
      "inputs": [
        {
          "indexed": true,
          "internalType": "bytes32",
          "name": "role",
          "type": "bytes32"
        },
        {
          "indexed": true,
          "internalType": "address",
          "name": "account",
          "type": "address"
        },
        {
          "indexed": true,
          "internalType": "address",
          "name": "sender",
          "type": "address"
        }
      ],
      "name": "RoleRevoked",
      "type": "event"
    },
    {
      "anonymous": false,
      "inputs": [
        {
          "indexed": true,
          "internalType": "address",
          "name": "operator",
          "type": "address"
        },
        {
          "indexed": true,
          "internalType": "address",
          "name": "from",
          "type": "address"
        },
        {
          "indexed": true,
          "internalType": "address",
          "name": "to",
          "type": "address"
        },
        {
          "indexed": false,
          "internalType": "uint256[]",
          "name": "ids",
          "type": "uint256[]"
        },
        {
          "indexed": false,
          "internalType": "uint256[]",
          "name": "values",
          "type": "uint256[]"
        }
      ],
      "name": "TransferBatch",
      "type": "event"
    },
    {
      "anonymous": false,
      "inputs": [
        {
          "indexed": true,
          "internalType": "address",
          "name": "operator",
          "type": "address"
        },
        {
          "indexed": true,
          "internalType": "address",
          "name": "from",
          "type": "address"
        },
        {
          "indexed": true,
          "internalType": "address",
          "name": "to",
          "type": "address"
        },
        {
          "indexed": false,
          "internalType": "uint256",
          "name": "id",
          "type": "uint256"
        },
        {
          "indexed": false,
          "internalType": "uint256",
          "name": "value",
          "type": "uint256"
        }
      ],
      "name": "TransferSingle",
      "type": "event"
    },
    {
      "anonymous": false,
      "inputs": [
        {
          "indexed": false,
          "internalType": "string",
          "name": "value",
          "type": "string"
        },
        {
          "indexed": true,
          "internalType": "uint256",
          "name": "id",
          "type": "uint256"
        }
      ],
      "name": "URI",
      "type": "event"
    },
    {
      "anonymous": false,
      "inputs": [
        {
          "indexed": false,
          "internalType": "address",
          "name": "account",
          "type": "address"
        }
      ],
      "name": "Unpaused",
      "type": "event"
    },
    {
      "inputs": [],
      "name": "DEFAULT_ADMIN_ROLE",
      "outputs": [
        {
          "internalType": "bytes32",
          "name": "",
          "type": "bytes32"
        }
      ],
      "stateMutability": "view",
      "type": "function"
    },
    {
      "inputs": [],
      "name": "MINTER_ROLE",
      "outputs": [
        {
          "internalType": "bytes32",
          "name": "",
          "type": "bytes32"
        }
      ],
      "stateMutability": "view",
      "type": "function"
    },
    {
      "inputs": [],
      "name": "PAUSER_ROLE",
      "outputs": [
        {
          "internalType": "bytes32",
          "name": "",
          "type": "bytes32"
        }
      ],
      "stateMutability": "view",
      "type": "function"
    },
    {
      "inputs": [],
      "name": "URI_SETTER_ROLE",
      "outputs": [
        {
          "internalType": "bytes32",
          "name": "",
          "type": "bytes32"
        }
      ],
      "stateMutability": "view",
      "type": "function"
    },
    {
      "inputs": [
        {
          "internalType": "address",
          "name": "account",
          "type": "address"
        },
        {
          "internalType": "uint256",
          "name": "id",
          "type": "uint256"
        }
      ],
      "name": "balanceOf",
      "outputs": [
        {
          "internalType": "uint256",
          "name": "",
          "type": "uint256"
        }
      ],
      "stateMutability": "view",
      "type": "function"
    },
    {
      "inputs": [
        {
          "internalType": "address[]",
          "name": "accounts",
          "type": "address[]"
        },
        {
          "internalType": "uint256[]",
          "name": "ids",
          "type": "uint256[]"
        }
      ],
      "name": "balanceOfBatch",
      "outputs": [
        {
          "internalType": "uint256[]",
          "name": "",
          "type": "uint256[]"
        }
      ],
      "stateMutability": "view",
      "type": "function"
    },
    {
      "inputs": [
        {
          "internalType": "bytes32",
          "name": "role",
          "type": "bytes32"
        }
      ],
      "name": "getRoleAdmin",
      "outputs": [
        {
          "internalType": "bytes32",
          "name": "",
          "type": "bytes32"
        }
      ],
      "stateMutability": "view",
      "type": "function"
    },
    {
      "inputs": [
        {
          "internalType": "address",
          "name": "buyer",
          "type": "address"
        }
      ],
      "name": "getTokenBalances",
      "outputs": [
        {
          "internalType": "uint256[]",
          "name": "tokenIds",
          "type": "uint256[]"
        },
        {
          "internalType": "uint256[]",
          "name": "balances",
          "type": "uint256[]"
        }
      ],
      "stateMutability": "view",
      "type": "function"
    },
    {
      "inputs": [
        {
          "internalType": "uint256",
          "name": "id",
          "type": "uint256"
        }
      ],
      "name": "getTokenOwners",
      "outputs": [
        {
          "internalType": "address[]",
          "name": "owners",
          "type": "address[]"
        },
        {
          "internalType": "uint256[]",
          "name": "balances",
          "type": "uint256[]"
        }
      ],
      "stateMutability": "view",
      "type": "function"
    },
    {
      "inputs": [
        {
          "internalType": "bytes32",
          "name": "role",
          "type": "bytes32"
        },
        {
          "internalType": "address",
          "name": "account",
          "type": "address"
        }
      ],
      "name": "grantRole",
      "outputs": [],
      "stateMutability": "nonpayable",
      "type": "function"
    },
    {
      "inputs": [
        {
          "internalType": "bytes32",
          "name": "role",
          "type": "bytes32"
        },
        {
          "internalType": "address",
          "name": "account",
          "type": "address"
        }
      ],
      "name": "hasRole",
      "outputs": [
        {
          "internalType": "bool",
          "name": "",
          "type": "bool"
        }
      ],
      "stateMutability": "view",
      "type": "function"
    },
    {
      "inputs": [],
      "name": "initialize",
      "outputs": [],
      "stateMutability": "nonpayable",
      "type": "function"
    },
    {
      "inputs": [
        {
          "internalType": "address",
          "name": "account",
          "type": "address"
        },
        {
          "internalType": "address",
          "name": "operator",
          "type": "address"
        }
      ],
      "name": "isApprovedForAll",
      "outputs": [
        {
          "internalType": "bool",
          "name": "",
          "type": "bool"
        }
      ],
      "stateMutability": "view",
      "type": "function"
    },
    {
      "inputs": [
        {
          "internalType": "address",
          "name": "account",
          "type": "address"
        },
        {
          "internalType": "uint256",
          "name": "id",
          "type": "uint256"
        },
        {
          "internalType": "uint256",
          "name": "amount",
          "type": "uint256"
        },
        {
          "internalType": "bytes",
          "name": "data",
          "type": "bytes"
        }
      ],
      "name": "mint",
      "outputs": [],
      "stateMutability": "nonpayable",
      "type": "function"
    },
    {
      "inputs": [
        {
          "internalType": "address",
          "name": "to",
          "type": "address"
        },
        {
          "internalType": "uint256[]",
          "name": "ids",
          "type": "uint256[]"
        },
        {
          "internalType": "uint256[]",
          "name": "amounts",
          "type": "uint256[]"
        },
        {
          "internalType": "bytes",
          "name": "data",
          "type": "bytes"
        }
      ],
      "name": "mintBatch",
      "outputs": [],
      "stateMutability": "nonpayable",
      "type": "function"
    },
    {
      "inputs": [
        {
          "internalType": "contract IProductionTokenTrackerV3",
          "name": "owner",
          "type": "address"
        },
        {
          "internalType": "uint256",
          "name": "id",
          "type": "uint256"
        },
        {
          "internalType": "uint256",
          "name": "totalAmount",
          "type": "uint256"
        }
      ],
      "name": "mintToken",
      "outputs": [],
      "stateMutability": "nonpayable",
      "type": "function"
    },
    {
      "inputs": [],
      "name": "pause",
      "outputs": [],
      "stateMutability": "nonpayable",
      "type": "function"
    },
    {
      "inputs": [],
      "name": "paused",
      "outputs": [
        {
          "internalType": "bool",
          "name": "",
          "type": "bool"
        }
      ],
      "stateMutability": "view",
      "type": "function"
    },
    {
      "inputs": [
        {
          "internalType": "bytes32",
          "name": "role",
          "type": "bytes32"
        },
        {
          "internalType": "address",
          "name": "account",
          "type": "address"
        }
      ],
      "name": "renounceRole",
      "outputs": [],
      "stateMutability": "nonpayable",
      "type": "function"
    },
    {
      "inputs": [
        {
          "internalType": "bytes32",
          "name": "role",
          "type": "bytes32"
        },
        {
          "internalType": "address",
          "name": "account",
          "type": "address"
        }
      ],
      "name": "revokeRole",
      "outputs": [],
      "stateMutability": "nonpayable",
      "type": "function"
    },
    {
      "inputs": [
        {
          "internalType": "address",
          "name": "from",
          "type": "address"
        },
        {
          "internalType": "address",
          "name": "to",
          "type": "address"
        },
        {
          "internalType": "uint256[]",
          "name": "ids",
          "type": "uint256[]"
        },
        {
          "internalType": "uint256[]",
          "name": "amounts",
          "type": "uint256[]"
        },
        {
          "internalType": "bytes",
          "name": "data",
          "type": "bytes"
        }
      ],
      "name": "safeBatchTransferFrom",
      "outputs": [],
      "stateMutability": "nonpayable",
      "type": "function"
    },
    {
      "inputs": [
        {
          "internalType": "address",
          "name": "from",
          "type": "address"
        },
        {
          "internalType": "address",
          "name": "to",
          "type": "address"
        },
        {
          "internalType": "uint256",
          "name": "id",
          "type": "uint256"
        },
        {
          "internalType": "uint256",
          "name": "amount",
          "type": "uint256"
        },
        {
          "internalType": "bytes",
          "name": "data",
          "type": "bytes"
        }
      ],
      "name": "safeTransferFrom",
      "outputs": [],
      "stateMutability": "nonpayable",
      "type": "function"
    },
    {
      "inputs": [
        {
          "internalType": "address",
          "name": "operator",
          "type": "address"
        },
        {
          "internalType": "bool",
          "name": "approved",
          "type": "bool"
        }
      ],
      "name": "setApprovalForAll",
      "outputs": [],
      "stateMutability": "nonpayable",
      "type": "function"
    },
    {
      "inputs": [
        {
          "internalType": "string",
          "name": "newuri",
          "type": "string"
        }
      ],
      "name": "setURI",
      "outputs": [],
      "stateMutability": "nonpayable",
      "type": "function"
    },
    {
      "inputs": [
        {
          "internalType": "bytes4",
          "name": "interfaceId",
          "type": "bytes4"
        }
      ],
      "name": "supportsInterface",
      "outputs": [
        {
          "internalType": "bool",
          "name": "",
          "type": "bool"
        }
      ],
      "stateMutability": "view",
      "type": "function"
    },
    {
      "inputs": [],
      "name": "unpause",
      "outputs": [],
      "stateMutability": "nonpayable",
      "type": "function"
    },
    {
      "inputs": [
        {
          "internalType": "uint256",
          "name": "",
          "type": "uint256"
        }
      ],
      "name": "uri",
      "outputs": [
        {
          "internalType": "string",
          "name": "",
          "type": "string"
        }
      ],
      "stateMutability": "view",
      "type": "function"
    }
  ],
  "transactionHash": "0xdd08603578de29a44ea99e2733d3702260c3f9a41057c9173687762a773665a8",
  "args": [],
  "numDeployments": 1,
  "solcInputHash": "df4ac18ce0570d62bffd09e9232f4746",
  "bytecode": "0x60806040523480156200001157600080fd5b506200001c62000022565b620000e4565b600054610100900460ff16156200008f5760405162461bcd60e51b815260206004820152602760248201527f496e697469616c697a61626c653a20636f6e747261637420697320696e697469604482015266616c697a696e6760c81b606482015260840160405180910390fd5b60005460ff9081161015620000e2576000805460ff191660ff9081179091556040519081527f7f26b83ff96e1f2b6a682f133852f6798a09c465da95921460cefb38474024989060200160405180910390a15b565b612d6680620000f46000396000f3fe608060405234801561001057600080fd5b50600436106101b85760003560e01c8063681ece9d116100f9578063a217fddf11610097578063d547741f11610071578063d547741f146103f7578063e63ab1e91461040a578063e985e9c514610431578063f242432a1461046d57600080fd5b8063a217fddf146103b5578063a22cb465146103bd578063d5391393146103d057600080fd5b80637f345710116100d35780637f345710146103455780638129fc1c1461036c5780638456cb591461037457806391d148541461037c57600080fd5b8063681ece9d146102f0578063731133e914610311578063764f3aa81461032457600080fd5b8063248a9ca31161016657806336568abe1161014057806336568abe146102aa5780633f4ba83a146102bd5780634e1273f4146102c55780635c975abb146102e557600080fd5b8063248a9ca3146102615780632eb2c2d6146102845780632f2ff15d1461029757600080fd5b80630e89341c116101975780630e89341c1461021b5780631f7fdffa1461023b57806323a36d2b1461024e57600080fd5b8062fdd58e146101bd57806301ffc9a7146101e357806302fe530514610206575b600080fd5b6101d06101cb3660046122f2565b610480565b6040519081526020015b60405180910390f35b6101f66101f1366004612334565b61051b565b60405190151581526020016101da565b6102196102143660046123f2565b610526565b005b61022e61022936600461243b565b61055d565b6040516101da91906124b0565b610219610249366004612578565b6105f1565b61021961025c366004612613565b61062e565b6101d061026f36600461243b565b60009081526097602052604090206001015490565b610219610292366004612648565b6106d3565b6102196102a53660046126f6565b61075f565b6102196102b83660046126f6565b610784565b61021961080c565b6102d86102d3366004612726565b610841565b6040516101da919061282e565b60c95460ff166101f6565b6103036102fe36600461243b565b61096b565b6040516101da929190612841565b61021961031f3660046128a1565b610a81565b6103376103323660046128f8565b610ab7565b6040516101da929190612915565b6101d07f7804d923f43a17d325d77e781528e0793b2edd9890ab45fc64efd7b4b427744c81565b610219610bba565b610219610d8b565b6101f661038a3660046126f6565b60009182526097602090815260408084206001600160a01b0393909316845291905290205460ff1690565b6101d0600081565b6102196103cb366004612943565b610dbd565b6101d07f9f2df0fed2c77648de5860a4cc508cd0818c85b8b8a1ab4ceeef8d981c8956a681565b6102196104053660046126f6565b610dc8565b6101d07f65d7a28e3265b37a6474929f336521b332c1681b933f6cb9f3376673440d862a81565b6101f661043f366004612976565b6001600160a01b03918216600090815260666020908152604080832093909416825291909152205460ff1690565b61021961047b3660046129a4565b610ded565b60006001600160a01b0383166104f05760405162461bcd60e51b815260206004820152602a60248201527f455243313135353a2061646472657373207a65726f206973206e6f742061207660448201526930b634b21037bbb732b960b11b60648201526084015b60405180910390fd5b5060008181526065602090815260408083206001600160a01b03861684529091529020545b92915050565b600061051582610e79565b7f7804d923f43a17d325d77e781528e0793b2edd9890ab45fc64efd7b4b427744c61055081610e9e565b61055982610ea8565b5050565b60606067805461056c90612a0d565b80601f016020809104026020016040519081016040528092919081815260200182805461059890612a0d565b80156105e55780601f106105ba576101008083540402835291602001916105e5565b820191906000526020600020905b8154815290600101906020018083116105c857829003601f168201915b50505050509050919050565b7f9f2df0fed2c77648de5860a4cc508cd0818c85b8b8a1ab4ceeef8d981c8956a661061b81610e9e565b61062785858585610ebb565b5050505050565b6000811161067e5760405162461bcd60e51b815260206004820152601460248201527f4d757374207061737320616d6f756e74203e203000000000000000000000000060448201526064016104e7565b600082815260fb60209081526040808320805473ffffffffffffffffffffffffffffffffffffffff19166001600160a01b038816179055805191820190529081526106ce90849084908490610a81565b505050565b6001600160a01b0385163314806106ef57506106ef853361043f565b6107525760405162461bcd60e51b815260206004820152602e60248201527f455243313135353a2063616c6c6572206973206e6f7420746f6b656e206f776e60448201526d195c881bdc88185c1c1c9bdd995960921b60648201526084016104e7565b6106278585858585611091565b60008281526097602052604090206001015461077a81610e9e565b6106ce8383611300565b6001600160a01b03811633146108025760405162461bcd60e51b815260206004820152602f60248201527f416363657373436f6e74726f6c3a2063616e206f6e6c792072656e6f756e636560448201527f20726f6c657320666f722073656c66000000000000000000000000000000000060648201526084016104e7565b61055982826113a2565b7f65d7a28e3265b37a6474929f336521b332c1681b933f6cb9f3376673440d862a61083681610e9e565b61083e611425565b50565b606081518351146108a65760405162461bcd60e51b815260206004820152602960248201527f455243313135353a206163636f756e747320616e6420696473206c656e677468604482015268040dad2e6dac2e8c6d60bb1b60648201526084016104e7565b6000835167ffffffffffffffff8111156108c2576108c2612351565b6040519080825280602002602001820160405280156108eb578160200160208202803683370190505b50905060005b84518110156109635761093685828151811061090f5761090f612a48565b602002602001015185838151811061092957610929612a48565b6020026020010151610480565b82828151811061094857610948612a48565b602090810291909101015261095c81612a74565b90506108f1565b509392505050565b606080600083116109be5760405162461bcd60e51b815260206004820152600f60248201527f496e76616c696420746f6b656e4964000000000000000000000000000000000060448201526064016104e7565b600083815260fc602052604090206109d590611477565b9150815167ffffffffffffffff8111156109f1576109f1612351565b604051908082528060200260200182016040528015610a1a578160200160208202803683370190505b50905060005b8251811015610a7b57610a4c838281518110610a3e57610a3e612a48565b602002602001015185610480565b828281518110610a5e57610a5e612a48565b602090810291909101015280610a7381612a74565b915050610a20565b50915091565b7f9f2df0fed2c77648de5860a4cc508cd0818c85b8b8a1ab4ceeef8d981c8956a6610aab81610e9e565b6106278585858561148b565b6060806001600160a01b038316610b005760405162461bcd60e51b815260206004820152600d60248201526c24b73b30b634b210313abcb2b960991b60448201526064016104e7565b6001600160a01b038316600090815260fd60205260409020610b2190611477565b9150815167ffffffffffffffff811115610b3d57610b3d612351565b604051908082528060200260200182016040528015610b66578160200160208202803683370190505b50905060005b8251811015610a7b57610b8b8484838151811061092957610929612a48565b828281518110610b9d57610b9d612a48565b602090810291909101015280610bb281612a74565b915050610b6c565b600054610100900460ff1615808015610bda5750600054600160ff909116105b80610bf45750303b158015610bf4575060005460ff166001145b610c665760405162461bcd60e51b815260206004820152602e60248201527f496e697469616c697a61626c653a20636f6e747261637420697320616c72656160448201527f647920696e697469616c697a656400000000000000000000000000000000000060648201526084016104e7565b6000805460ff191660011790558015610c89576000805461ff0019166101001790555b610caa604051806060016040528060238152602001612d0e602391396115b0565b610cb26115e0565b610cba611609565b610cc5600033611300565b610cef7f7804d923f43a17d325d77e781528e0793b2edd9890ab45fc64efd7b4b427744c33611300565b610d197f65d7a28e3265b37a6474929f336521b332c1681b933f6cb9f3376673440d862a33611300565b610d437f9f2df0fed2c77648de5860a4cc508cd0818c85b8b8a1ab4ceeef8d981c8956a633611300565b801561083e576000805461ff0019169055604051600181527f7f26b83ff96e1f2b6a682f133852f6798a09c465da95921460cefb38474024989060200160405180910390a150565b7f65d7a28e3265b37a6474929f336521b332c1681b933f6cb9f3376673440d862a610db581610e9e565b61083e611638565b610559338383611675565b600082815260976020526040902060010154610de381610e9e565b6106ce83836113a2565b6001600160a01b038516331480610e095750610e09853361043f565b610e6c5760405162461bcd60e51b815260206004820152602e60248201527f455243313135353a2063616c6c6572206973206e6f7420746f6b656e206f776e60448201526d195c881bdc88185c1c1c9bdd995960921b60648201526084016104e7565b6106278585858585611756565b60006001600160e01b03198216637965db0b60e01b1480610515575061051582611913565b61083e8133611963565b8051610559906067906020840190612244565b6001600160a01b038416610f1b5760405162461bcd60e51b815260206004820152602160248201527f455243313135353a206d696e7420746f20746865207a65726f206164647265736044820152607360f81b60648201526084016104e7565b8151835114610f7d5760405162461bcd60e51b815260206004820152602860248201527f455243313135353a2069647320616e6420616d6f756e7473206c656e677468206044820152670dad2e6dac2e8c6d60c31b60648201526084016104e7565b33610f8d816000878787876119d8565b60005b845181101561102957838181518110610fab57610fab612a48565b602002602001015160656000878481518110610fc957610fc9612a48565b602002602001015181526020019081526020016000206000886001600160a01b03166001600160a01b0316815260200190815260200160002060008282546110119190612a8f565b9091555081905061102181612a74565b915050610f90565b50846001600160a01b031660006001600160a01b0316826001600160a01b03167f4a39dc06d4c0dbc64b70af90fd698a233a518aa5d07e595d983b8c0526c8f7fb878760405161107a929190612915565b60405180910390a461062781600087878787611b44565b81518351146110f35760405162461bcd60e51b815260206004820152602860248201527f455243313135353a2069647320616e6420616d6f756e7473206c656e677468206044820152670dad2e6dac2e8c6d60c31b60648201526084016104e7565b6001600160a01b0384166111575760405162461bcd60e51b815260206004820152602560248201527f455243313135353a207472616e7366657220746f20746865207a65726f206164604482015264647265737360d81b60648201526084016104e7565b336111668187878787876119d8565b60005b845181101561129257600085828151811061118657611186612a48565b6020026020010151905060008583815181106111a4576111a4612a48565b60209081029190910181015160008481526065835260408082206001600160a01b038e1683529093529190912054909150818110156112385760405162461bcd60e51b815260206004820152602a60248201527f455243313135353a20696e73756666696369656e742062616c616e636520666f60448201526939103a3930b739b332b960b11b60648201526084016104e7565b60008381526065602090815260408083206001600160a01b038e8116855292528083208585039055908b16825281208054849290611277908490612a8f565b925050819055505050508061128b90612a74565b9050611169565b50846001600160a01b0316866001600160a01b0316826001600160a01b03167f4a39dc06d4c0dbc64b70af90fd698a233a518aa5d07e595d983b8c0526c8f7fb87876040516112e2929190612915565b60405180910390a46112f8818787878787611b44565b505050505050565b60008281526097602090815260408083206001600160a01b038516845290915290205460ff166105595760008281526097602090815260408083206001600160a01b03851684529091529020805460ff1916600117905561135e3390565b6001600160a01b0316816001600160a01b0316837f2f8788117e7eff1d82e926ec794901d17c78024a50270940304540a733656f0d60405160405180910390a45050565b60008281526097602090815260408083206001600160a01b038516845290915290205460ff16156105595760008281526097602090815260408083206001600160a01b0385168085529252808320805460ff1916905551339285917ff6391f5c32d9c69d2a47ea670b442974b53935d1edc7fd64eb21e047a839171b9190a45050565b61142d611cf9565b60c9805460ff191690557f5db9ee0a495bf2e6ff9c91a7834c1ba4fdd244a5e8aa4e537bd38aeae4b073aa335b6040516001600160a01b03909116815260200160405180910390a1565b6060600061148483611d4b565b9392505050565b6001600160a01b0384166114eb5760405162461bcd60e51b815260206004820152602160248201527f455243313135353a206d696e7420746f20746865207a65726f206164647265736044820152607360f81b60648201526084016104e7565b3360006114f785611da6565b9050600061150485611da6565b9050611515836000898585896119d8565b60008681526065602090815260408083206001600160a01b038b16845290915281208054879290611547908490612a8f565b909155505060408051878152602081018790526001600160a01b03808a1692600092918716917fc3d58168c5ae7397731d063d5bbf3d657854427343f4c083240f7aacaa2d0f62910160405180910390a46115a783600089898989611df1565b50505050505050565b600054610100900460ff166115d75760405162461bcd60e51b81526004016104e790612aa7565b61083e81611efc565b600054610100900460ff166116075760405162461bcd60e51b81526004016104e790612aa7565b565b600054610100900460ff166116305760405162461bcd60e51b81526004016104e790612aa7565b611607611f2c565b611640611f5f565b60c9805460ff191660011790557f62e78cea01bee320cd4e420270b5ea74000d11b0c9f74754ebdbfc544b05a25861145a3390565b816001600160a01b0316836001600160a01b031614156116e95760405162461bcd60e51b815260206004820152602960248201527f455243313135353a2073657474696e6720617070726f76616c20737461747573604482015268103337b91039b2b63360b91b60648201526084016104e7565b6001600160a01b03838116600081815260666020908152604080832094871680845294825291829020805460ff191686151590811790915591519182527f17307eab39ab6107e8899845ad3d59bd9653f200f220920489ca2b5937696c31910160405180910390a3505050565b6001600160a01b0384166117ba5760405162461bcd60e51b815260206004820152602560248201527f455243313135353a207472616e7366657220746f20746865207a65726f206164604482015264647265737360d81b60648201526084016104e7565b3360006117c685611da6565b905060006117d385611da6565b90506117e38389898585896119d8565b60008681526065602090815260408083206001600160a01b038c168452909152902054858110156118695760405162461bcd60e51b815260206004820152602a60248201527f455243313135353a20696e73756666696369656e742062616c616e636520666f60448201526939103a3930b739b332b960b11b60648201526084016104e7565b60008781526065602090815260408083206001600160a01b038d8116855292528083208985039055908a168252812080548892906118a8908490612a8f565b909155505060408051888152602081018890526001600160a01b03808b16928c821692918816917fc3d58168c5ae7397731d063d5bbf3d657854427343f4c083240f7aacaa2d0f62910160405180910390a4611908848a8a8a8a8a611df1565b505050505050505050565b60006001600160e01b03198216636cdb3d1360e11b148061194457506001600160e01b031982166303a24d0760e21b145b8061051557506301ffc9a760e01b6001600160e01b0319831614610515565b60008281526097602090815260408083206001600160a01b038516845290915290205460ff166105595761199681611fb2565b6119a1836020611fc4565b6040516020016119b2929190612af2565b60408051601f198184030181529082905262461bcd60e51b82526104e7916004016124b0565b60005b83518110156115a75760008382815181106119f8576119f8612a48565b602002602001015190506000858381518110611a1657611a16612a48565b60200260200101519050611a3c60fc60008381526020019081526020016000208861216d565b506001600160a01b038716600090815260fd60205260409020611a5f9082612182565b50600081815260fb60205260409020546001600160a01b0316611a8389898361218e565b15611b2e57806001600160a01b031663ad799e1030898781518110611aaa57611aaa612a48565b60209081029190910101516040516001600160e01b031960e085901b1681526001600160a01b0392831660048201526024810191909152818d166044820152908b1660648201526084810186905260a401600060405180830381600087803b158015611b1557600080fd5b505af1158015611b29573d6000803e3d6000fd5b505050505b5050508080611b3c90612a74565b9150506119db565b6001600160a01b0384163b156112f85760405163bc197c8160e01b81526001600160a01b0385169063bc197c8190611b889089908990889088908890600401612b73565b602060405180830381600087803b158015611ba257600080fd5b505af1925050508015611bd2575060408051601f3d908101601f19168201909252611bcf91810190612bd1565b60015b611c8857611bde612bee565b806308c379a01415611c185750611bf3612c0a565b80611bfe5750611c1a565b8060405162461bcd60e51b81526004016104e791906124b0565b505b60405162461bcd60e51b815260206004820152603460248201527f455243313135353a207472616e7366657220746f206e6f6e2d4552433131353560448201527f526563656976657220696d706c656d656e74657200000000000000000000000060648201526084016104e7565b6001600160e01b0319811663bc197c8160e01b146115a75760405162461bcd60e51b815260206004820152602860248201527f455243313135353a204552433131353552656365697665722072656a656374656044820152676420746f6b656e7360c01b60648201526084016104e7565b60c95460ff166116075760405162461bcd60e51b815260206004820152601460248201527f5061757361626c653a206e6f742070617573656400000000000000000000000060448201526064016104e7565b6060816000018054806020026020016040519081016040528092919081815260200182805480156105e557602002820191906000526020600020905b815481526020019060010190808311611d875750505050509050919050565b60408051600180825281830190925260609160009190602080830190803683370190505090508281600081518110611de057611de0612a48565b602090810291909101015292915050565b6001600160a01b0384163b156112f85760405163f23a6e6160e01b81526001600160a01b0385169063f23a6e6190611e359089908990889088908890600401612c94565b602060405180830381600087803b158015611e4f57600080fd5b505af1925050508015611e7f575060408051601f3d908101601f19168201909252611e7c91810190612bd1565b60015b611e8b57611bde612bee565b6001600160e01b0319811663f23a6e6160e01b146115a75760405162461bcd60e51b815260206004820152602860248201527f455243313135353a204552433131353552656365697665722072656a656374656044820152676420746f6b656e7360c01b60648201526084016104e7565b600054610100900460ff16611f235760405162461bcd60e51b81526004016104e790612aa7565b61083e81610ea8565b600054610100900460ff16611f535760405162461bcd60e51b81526004016104e790612aa7565b60c9805460ff19169055565b60c95460ff16156116075760405162461bcd60e51b815260206004820152601060248201527f5061757361626c653a207061757365640000000000000000000000000000000060448201526064016104e7565b60606105156001600160a01b03831660145b60606000611fd3836002612cd7565b611fde906002612a8f565b67ffffffffffffffff811115611ff657611ff6612351565b6040519080825280601f01601f191660200182016040528015612020576020820181803683370190505b509050600360fc1b8160008151811061203b5761203b612a48565b60200101906001600160f81b031916908160001a905350600f60fb1b8160018151811061206a5761206a612a48565b60200101906001600160f81b031916908160001a905350600061208e846002612cd7565b612099906001612a8f565b90505b600181111561211e577f303132333435363738396162636465660000000000000000000000000000000085600f16601081106120da576120da612a48565b1a60f81b8282815181106120f0576120f0612a48565b60200101906001600160f81b031916908160001a90535060049490941c9361211781612cf6565b905061209c565b5083156114845760405162461bcd60e51b815260206004820181905260248201527f537472696e67733a20686578206c656e67746820696e73756666696369656e7460448201526064016104e7565b6000611484836001600160a01b0384166121f5565b600061148483836121f5565b60006001600160a01b038216158015906121b157506001600160a01b0384163014155b80156121cf5750816001600160a01b0316846001600160a01b031614155b80156121ed5750816001600160a01b0316836001600160a01b031614155b949350505050565b600081815260018301602052604081205461223c57508154600181810184556000848152602080822090930184905584548482528286019093526040902091909155610515565b506000610515565b82805461225090612a0d565b90600052602060002090601f01602090048101928261227257600085556122b8565b82601f1061228b57805160ff19168380011785556122b8565b828001600101855582156122b8579182015b828111156122b857825182559160200191906001019061229d565b506122c49291506122c8565b5090565b5b808211156122c457600081556001016122c9565b6001600160a01b038116811461083e57600080fd5b6000806040838503121561230557600080fd5b8235612310816122dd565b946020939093013593505050565b6001600160e01b03198116811461083e57600080fd5b60006020828403121561234657600080fd5b81356114848161231e565b634e487b7160e01b600052604160045260246000fd5b601f8201601f1916810167ffffffffffffffff8111828210171561238d5761238d612351565b6040525050565b600067ffffffffffffffff8311156123ae576123ae612351565b6040516123c5601f8501601f191660200182612367565b8091508381528484840111156123da57600080fd5b83836020830137600060208583010152509392505050565b60006020828403121561240457600080fd5b813567ffffffffffffffff81111561241b57600080fd5b8201601f8101841361242c57600080fd5b6121ed84823560208401612394565b60006020828403121561244d57600080fd5b5035919050565b60005b8381101561246f578181015183820152602001612457565b8381111561247e576000848401525b50505050565b6000815180845261249c816020860160208601612454565b601f01601f19169290920160200192915050565b6020815260006114846020830184612484565b600067ffffffffffffffff8211156124dd576124dd612351565b5060051b60200190565b600082601f8301126124f857600080fd5b81356020612505826124c3565b6040516125128282612367565b83815260059390931b850182019282810191508684111561253257600080fd5b8286015b8481101561254d5780358352918301918301612536565b509695505050505050565b600082601f83011261256957600080fd5b61148483833560208501612394565b6000806000806080858703121561258e57600080fd5b8435612599816122dd565b9350602085013567ffffffffffffffff808211156125b657600080fd5b6125c2888389016124e7565b945060408701359150808211156125d857600080fd5b6125e4888389016124e7565b935060608701359150808211156125fa57600080fd5b5061260787828801612558565b91505092959194509250565b60008060006060848603121561262857600080fd5b8335612633816122dd565b95602085013595506040909401359392505050565b600080600080600060a0868803121561266057600080fd5b853561266b816122dd565b9450602086013561267b816122dd565b9350604086013567ffffffffffffffff8082111561269857600080fd5b6126a489838a016124e7565b945060608801359150808211156126ba57600080fd5b6126c689838a016124e7565b935060808801359150808211156126dc57600080fd5b506126e988828901612558565b9150509295509295909350565b6000806040838503121561270957600080fd5b82359150602083013561271b816122dd565b809150509250929050565b6000806040838503121561273957600080fd5b823567ffffffffffffffff8082111561275157600080fd5b818501915085601f83011261276557600080fd5b81356020612772826124c3565b60405161277f8282612367565b83815260059390931b850182019282810191508984111561279f57600080fd5b948201945b838610156127c65785356127b7816122dd565b825294820194908201906127a4565b965050860135925050808211156127dc57600080fd5b506127e9858286016124e7565b9150509250929050565b600081518084526020808501945080840160005b8381101561282357815187529582019590820190600101612807565b509495945050505050565b60208152600061148460208301846127f3565b604080825283519082018190526000906020906060840190828701845b828110156128835781516001600160a01b03168452928401929084019060010161285e565b5050508381038285015261289781866127f3565b9695505050505050565b600080600080608085870312156128b757600080fd5b84356128c2816122dd565b93506020850135925060408501359150606085013567ffffffffffffffff8111156128ec57600080fd5b61260787828801612558565b60006020828403121561290a57600080fd5b8135611484816122dd565b60408152600061292860408301856127f3565b828103602084015261293a81856127f3565b95945050505050565b6000806040838503121561295657600080fd5b8235612961816122dd565b91506020830135801515811461271b57600080fd5b6000806040838503121561298957600080fd5b8235612994816122dd565b9150602083013561271b816122dd565b600080600080600060a086880312156129bc57600080fd5b85356129c7816122dd565b945060208601356129d7816122dd565b93506040860135925060608601359150608086013567ffffffffffffffff811115612a0157600080fd5b6126e988828901612558565b600181811c90821680612a2157607f821691505b60208210811415612a4257634e487b7160e01b600052602260045260246000fd5b50919050565b634e487b7160e01b600052603260045260246000fd5b634e487b7160e01b600052601160045260246000fd5b6000600019821415612a8857612a88612a5e565b5060010190565b60008219821115612aa257612aa2612a5e565b500190565b6020808252602b908201527f496e697469616c697a61626c653a20636f6e7472616374206973206e6f74206960408201526a6e697469616c697a696e6760a81b606082015260800190565b7f416363657373436f6e74726f6c3a206163636f756e7420000000000000000000815260008351612b2a816017850160208801612454565b7f206973206d697373696e6720726f6c65200000000000000000000000000000006017918401918201528351612b67816028840160208801612454565b01602801949350505050565b60006001600160a01b03808816835280871660208401525060a06040830152612b9f60a08301866127f3565b8281036060840152612bb181866127f3565b90508281036080840152612bc58185612484565b98975050505050505050565b600060208284031215612be357600080fd5b81516114848161231e565b600060033d1115612c075760046000803e5060005160e01c5b90565b600060443d1015612c185790565b6040516003193d81016004833e81513d67ffffffffffffffff8160248401118184111715612c4857505050505090565b8285019150815181811115612c605750505050505090565b843d8701016020828501011115612c7a5750505050505090565b612c8960208286010187612367565b509095945050505050565b60006001600160a01b03808816835280871660208401525084604083015283606083015260a06080830152612ccc60a0830184612484565b979650505050505050565b6000816000190483118215151615612cf157612cf1612a5e565b500290565b600081612d0557612d05612a5e565b50600019019056fe68747470733a2f2f73746178652e696f2f6170692f76332f746f6b656e732f7b69647da2646970667358221220b4990e50f4eece64f036c9f06cfe0df7cf8296a47934df43b75ebf1d9d6bf97464736f6c63430008090033",
  "devdoc": {
    "custom:security-contact": "info@staxe.io",
    "kind": "dev",
    "methods": {
      "balanceOf(address,uint256)": {
        "details": "See {IERC1155-balanceOf}. Requirements: - `account` cannot be the zero address."
      },
      "balanceOfBatch(address[],uint256[])": {
        "details": "See {IERC1155-balanceOfBatch}. Requirements: - `accounts` and `ids` must have the same length."
      },
      "constructor": {
        "custom:oz-upgrades-unsafe-allow": "constructor"
      },
      "getRoleAdmin(bytes32)": {
        "details": "Returns the admin role that controls `role`. See {grantRole} and {revokeRole}. To change a role's admin, use {_setRoleAdmin}."
      },
      "grantRole(bytes32,address)": {
        "details": "Grants `role` to `account`. If `account` had not been already granted `role`, emits a {RoleGranted} event. Requirements: - the caller must have ``role``'s admin role. May emit a {RoleGranted} event."
      },
      "hasRole(bytes32,address)": {
        "details": "Returns `true` if `account` has been granted `role`."
      },
      "isApprovedForAll(address,address)": {
        "details": "See {IERC1155-isApprovedForAll}."
      },
      "paused()": {
        "details": "Returns true if the contract is paused, and false otherwise."
      },
      "renounceRole(bytes32,address)": {
        "details": "Revokes `role` from the calling account. Roles are often managed via {grantRole} and {revokeRole}: this function's purpose is to provide a mechanism for accounts to lose their privileges if they are compromised (such as when a trusted device is misplaced). If the calling account had been revoked `role`, emits a {RoleRevoked} event. Requirements: - the caller must be `account`. May emit a {RoleRevoked} event."
      },
      "revokeRole(bytes32,address)": {
        "details": "Revokes `role` from `account`. If `account` had been granted `role`, emits a {RoleRevoked} event. Requirements: - the caller must have ``role``'s admin role. May emit a {RoleRevoked} event."
      },
      "safeBatchTransferFrom(address,address,uint256[],uint256[],bytes)": {
        "details": "See {IERC1155-safeBatchTransferFrom}."
      },
      "safeTransferFrom(address,address,uint256,uint256,bytes)": {
        "details": "See {IERC1155-safeTransferFrom}."
      },
      "setApprovalForAll(address,bool)": {
        "details": "See {IERC1155-setApprovalForAll}."
      },
      "uri(uint256)": {
        "details": "See {IERC1155MetadataURI-uri}. This implementation returns the same URI for *all* token types. It relies on the token type ID substitution mechanism https://eips.ethereum.org/EIPS/eip-1155#metadata[defined in the EIP]. Clients calling this function must replace the `\\{id\\}` substring with the actual token type ID."
      }
    },
    "version": 1
  },
  "userdoc": {
    "kind": "user",
    "methods": {},
    "version": 1
  },
  "storageLayout": {
    "storage": [
      {
        "astId": 804,
        "contract": "contracts/v3/StaxeProductionTokenV3.sol:StaxeProductionTokenV3",
        "label": "_initialized",
        "offset": 0,
        "slot": "0",
        "type": "t_uint8"
      },
      {
        "astId": 807,
        "contract": "contracts/v3/StaxeProductionTokenV3.sol:StaxeProductionTokenV3",
        "label": "_initializing",
        "offset": 1,
        "slot": "0",
        "type": "t_bool"
      },
      {
        "astId": 3946,
        "contract": "contracts/v3/StaxeProductionTokenV3.sol:StaxeProductionTokenV3",
        "label": "__gap",
        "offset": 0,
        "slot": "1",
        "type": "t_array(t_uint256)50_storage"
      },
      {
        "astId": 4239,
        "contract": "contracts/v3/StaxeProductionTokenV3.sol:StaxeProductionTokenV3",
        "label": "__gap",
        "offset": 0,
        "slot": "51",
        "type": "t_array(t_uint256)50_storage"
      },
      {
        "astId": 1195,
        "contract": "contracts/v3/StaxeProductionTokenV3.sol:StaxeProductionTokenV3",
        "label": "_balances",
        "offset": 0,
        "slot": "101",
        "type": "t_mapping(t_uint256,t_mapping(t_address,t_uint256))"
      },
      {
        "astId": 1201,
        "contract": "contracts/v3/StaxeProductionTokenV3.sol:StaxeProductionTokenV3",
        "label": "_operatorApprovals",
        "offset": 0,
        "slot": "102",
        "type": "t_mapping(t_address,t_mapping(t_address,t_bool))"
      },
      {
        "astId": 1203,
        "contract": "contracts/v3/StaxeProductionTokenV3.sol:StaxeProductionTokenV3",
        "label": "_uri",
        "offset": 0,
        "slot": "103",
        "type": "t_string_storage"
      },
      {
        "astId": 2410,
        "contract": "contracts/v3/StaxeProductionTokenV3.sol:StaxeProductionTokenV3",
        "label": "__gap",
        "offset": 0,
        "slot": "104",
        "type": "t_array(t_uint256)47_storage"
      },
      {
        "astId": 184,
        "contract": "contracts/v3/StaxeProductionTokenV3.sol:StaxeProductionTokenV3",
        "label": "_roles",
        "offset": 0,
        "slot": "151",
        "type": "t_mapping(t_bytes32,t_struct(RoleData)179_storage)"
      },
      {
        "astId": 479,
        "contract": "contracts/v3/StaxeProductionTokenV3.sol:StaxeProductionTokenV3",
        "label": "__gap",
        "offset": 0,
        "slot": "152",
        "type": "t_array(t_uint256)49_storage"
      },
      {
        "astId": 987,
        "contract": "contracts/v3/StaxeProductionTokenV3.sol:StaxeProductionTokenV3",
        "label": "_paused",
        "offset": 0,
        "slot": "201",
        "type": "t_bool"
      },
      {
        "astId": 1092,
        "contract": "contracts/v3/StaxeProductionTokenV3.sol:StaxeProductionTokenV3",
        "label": "__gap",
        "offset": 0,
        "slot": "202",
        "type": "t_array(t_uint256)49_storage"
      },
      {
        "astId": 17040,
        "contract": "contracts/v3/StaxeProductionTokenV3.sol:StaxeProductionTokenV3",
        "label": "tokenMinter",
        "offset": 0,
        "slot": "251",
        "type": "t_mapping(t_uint256,t_contract(IProductionTokenTrackerV3)20047)"
      },
      {
        "astId": 17045,
        "contract": "contracts/v3/StaxeProductionTokenV3.sol:StaxeProductionTokenV3",
        "label": "tokenOwnersByToken",
        "offset": 0,
        "slot": "252",
        "type": "t_mapping(t_uint256,t_struct(AddressSet)5443_storage)"
      },
      {
        "astId": 17050,
        "contract": "contracts/v3/StaxeProductionTokenV3.sol:StaxeProductionTokenV3",
        "label": "tokenIdsByOwner",
        "offset": 0,
        "slot": "253",
        "type": "t_mapping(t_address,t_struct(UintSet)5600_storage)"
      }
    ],
    "types": {
      "t_address": {
        "encoding": "inplace",
        "label": "address",
        "numberOfBytes": "20"
      },
      "t_array(t_bytes32)dyn_storage": {
        "base": "t_bytes32",
        "encoding": "dynamic_array",
        "label": "bytes32[]",
        "numberOfBytes": "32"
      },
      "t_array(t_uint256)47_storage": {
        "base": "t_uint256",
        "encoding": "inplace",
        "label": "uint256[47]",
        "numberOfBytes": "1504"
      },
      "t_array(t_uint256)49_storage": {
        "base": "t_uint256",
        "encoding": "inplace",
        "label": "uint256[49]",
        "numberOfBytes": "1568"
      },
      "t_array(t_uint256)50_storage": {
        "base": "t_uint256",
        "encoding": "inplace",
        "label": "uint256[50]",
        "numberOfBytes": "1600"
      },
      "t_bool": {
        "encoding": "inplace",
        "label": "bool",
        "numberOfBytes": "1"
      },
      "t_bytes32": {
        "encoding": "inplace",
        "label": "bytes32",
        "numberOfBytes": "32"
      },
      "t_contract(IProductionTokenTrackerV3)20047": {
        "encoding": "inplace",
        "label": "contract IProductionTokenTrackerV3",
        "numberOfBytes": "20"
      },
      "t_mapping(t_address,t_bool)": {
        "encoding": "mapping",
        "key": "t_address",
        "label": "mapping(address => bool)",
        "numberOfBytes": "32",
        "value": "t_bool"
      },
      "t_mapping(t_address,t_mapping(t_address,t_bool))": {
        "encoding": "mapping",
        "key": "t_address",
        "label": "mapping(address => mapping(address => bool))",
        "numberOfBytes": "32",
        "value": "t_mapping(t_address,t_bool)"
      },
      "t_mapping(t_address,t_struct(UintSet)5600_storage)": {
        "encoding": "mapping",
        "key": "t_address",
        "label": "mapping(address => struct EnumerableSetUpgradeable.UintSet)",
        "numberOfBytes": "32",
        "value": "t_struct(UintSet)5600_storage"
      },
      "t_mapping(t_address,t_uint256)": {
        "encoding": "mapping",
        "key": "t_address",
        "label": "mapping(address => uint256)",
        "numberOfBytes": "32",
        "value": "t_uint256"
      },
      "t_mapping(t_bytes32,t_struct(RoleData)179_storage)": {
        "encoding": "mapping",
        "key": "t_bytes32",
        "label": "mapping(bytes32 => struct AccessControlUpgradeable.RoleData)",
        "numberOfBytes": "32",
        "value": "t_struct(RoleData)179_storage"
      },
      "t_mapping(t_bytes32,t_uint256)": {
        "encoding": "mapping",
        "key": "t_bytes32",
        "label": "mapping(bytes32 => uint256)",
        "numberOfBytes": "32",
        "value": "t_uint256"
      },
      "t_mapping(t_uint256,t_contract(IProductionTokenTrackerV3)20047)": {
        "encoding": "mapping",
        "key": "t_uint256",
        "label": "mapping(uint256 => contract IProductionTokenTrackerV3)",
        "numberOfBytes": "32",
        "value": "t_contract(IProductionTokenTrackerV3)20047"
      },
      "t_mapping(t_uint256,t_mapping(t_address,t_uint256))": {
        "encoding": "mapping",
        "key": "t_uint256",
        "label": "mapping(uint256 => mapping(address => uint256))",
        "numberOfBytes": "32",
        "value": "t_mapping(t_address,t_uint256)"
      },
      "t_mapping(t_uint256,t_struct(AddressSet)5443_storage)": {
        "encoding": "mapping",
        "key": "t_uint256",
        "label": "mapping(uint256 => struct EnumerableSetUpgradeable.AddressSet)",
        "numberOfBytes": "32",
        "value": "t_struct(AddressSet)5443_storage"
      },
      "t_string_storage": {
        "encoding": "bytes",
        "label": "string",
        "numberOfBytes": "32"
      },
      "t_struct(AddressSet)5443_storage": {
        "encoding": "inplace",
        "label": "struct EnumerableSetUpgradeable.AddressSet",
        "members": [
          {
            "astId": 5442,
            "contract": "contracts/v3/StaxeProductionTokenV3.sol:StaxeProductionTokenV3",
            "label": "_inner",
            "offset": 0,
            "slot": "0",
            "type": "t_struct(Set)5128_storage"
          }
        ],
        "numberOfBytes": "64"
      },
      "t_struct(RoleData)179_storage": {
        "encoding": "inplace",
        "label": "struct AccessControlUpgradeable.RoleData",
        "members": [
          {
            "astId": 176,
            "contract": "contracts/v3/StaxeProductionTokenV3.sol:StaxeProductionTokenV3",
            "label": "members",
            "offset": 0,
            "slot": "0",
            "type": "t_mapping(t_address,t_bool)"
          },
          {
            "astId": 178,
            "contract": "contracts/v3/StaxeProductionTokenV3.sol:StaxeProductionTokenV3",
            "label": "adminRole",
            "offset": 0,
            "slot": "1",
            "type": "t_bytes32"
          }
        ],
        "numberOfBytes": "64"
      },
      "t_struct(Set)5128_storage": {
        "encoding": "inplace",
        "label": "struct EnumerableSetUpgradeable.Set",
        "members": [
          {
            "astId": 5123,
            "contract": "contracts/v3/StaxeProductionTokenV3.sol:StaxeProductionTokenV3",
            "label": "_values",
            "offset": 0,
            "slot": "0",
            "type": "t_array(t_bytes32)dyn_storage"
          },
          {
            "astId": 5127,
            "contract": "contracts/v3/StaxeProductionTokenV3.sol:StaxeProductionTokenV3",
            "label": "_indexes",
            "offset": 0,
            "slot": "1",
            "type": "t_mapping(t_bytes32,t_uint256)"
          }
        ],
        "numberOfBytes": "64"
      },
      "t_struct(UintSet)5600_storage": {
        "encoding": "inplace",
        "label": "struct EnumerableSetUpgradeable.UintSet",
        "members": [
          {
            "astId": 5599,
            "contract": "contracts/v3/StaxeProductionTokenV3.sol:StaxeProductionTokenV3",
            "label": "_inner",
            "offset": 0,
            "slot": "0",
            "type": "t_struct(Set)5128_storage"
          }
        ],
        "numberOfBytes": "64"
      },
      "t_uint256": {
        "encoding": "inplace",
        "label": "uint256",
        "numberOfBytes": "32"
      },
      "t_uint8": {
        "encoding": "inplace",
        "label": "uint8",
        "numberOfBytes": "1"
      }
    }
  }
}