{
  "address": "0x7A4b2aD8A6f8685975De3290ad3c60B924335E09",
  "abi": [
    {
      "inputs": [
        {
          "internalType": "address",
          "name": "trustedForwarder",
          "type": "address"
        }
      ],
      "stateMutability": "nonpayable",
      "type": "constructor"
    },
    {
      "anonymous": false,
      "inputs": [
        {
          "indexed": true,
          "internalType": "uint256",
          "name": "id",
          "type": "uint256"
        },
        {
          "indexed": true,
          "internalType": "address",
          "name": "buyer",
          "type": "address"
        },
        {
          "indexed": false,
          "internalType": "uint256",
          "name": "amount",
          "type": "uint256"
        },
        {
          "indexed": false,
          "internalType": "uint256",
          "name": "platformShare",
          "type": "uint256"
        }
      ],
      "name": "FundingClaimed",
      "type": "event"
    },
    {
      "anonymous": false,
      "inputs": [
        {
          "indexed": false,
          "internalType": "uint8",
          "name": "version",
          "type": "uint8"
        }
      ],
      "name": "Initialized",
      "type": "event"
    },
    {
      "anonymous": false,
      "inputs": [
        {
          "indexed": true,
          "internalType": "address",
          "name": "previousOwner",
          "type": "address"
        },
        {
          "indexed": true,
          "internalType": "address",
          "name": "newOwner",
          "type": "address"
        }
      ],
      "name": "OwnershipTransferred",
      "type": "event"
    },
    {
      "anonymous": false,
      "inputs": [
        {
          "indexed": true,
          "internalType": "uint256",
          "name": "id",
          "type": "uint256"
        },
        {
          "indexed": true,
          "internalType": "address",
          "name": "buyer",
          "type": "address"
        },
        {
          "indexed": false,
          "internalType": "uint256",
          "name": "amount",
          "type": "uint256"
        }
      ],
      "name": "ProceedsClaimed",
      "type": "event"
    },
    {
      "anonymous": false,
      "inputs": [
        {
          "indexed": true,
          "internalType": "uint256",
          "name": "id",
          "type": "uint256"
        },
        {
          "indexed": true,
          "internalType": "address",
          "name": "creator",
          "type": "address"
        },
        {
          "indexed": false,
          "internalType": "uint256",
          "name": "amount",
          "type": "uint256"
        }
      ],
      "name": "ProceedsDeposited",
      "type": "event"
    },
    {
      "anonymous": false,
      "inputs": [
        {
          "indexed": true,
          "internalType": "uint256",
          "name": "id",
          "type": "uint256"
        },
        {
          "indexed": true,
          "internalType": "address",
          "name": "creator",
          "type": "address"
        },
        {
          "indexed": false,
          "internalType": "uint256",
          "name": "tokenSupply",
          "type": "uint256"
        },
        {
          "indexed": false,
          "internalType": "address",
          "name": "escrow",
          "type": "address"
        }
      ],
      "name": "ProductionMinted",
      "type": "event"
    },
    {
      "anonymous": false,
      "inputs": [
        {
          "indexed": true,
          "internalType": "uint256",
          "name": "id",
          "type": "uint256"
        },
        {
          "indexed": true,
          "internalType": "address",
          "name": "buyer",
          "type": "address"
        },
        {
          "indexed": false,
          "internalType": "uint256",
          "name": "amount",
          "type": "uint256"
        },
        {
          "indexed": false,
          "internalType": "uint256",
          "name": "price",
          "type": "uint256"
        },
        {
          "indexed": false,
          "internalType": "uint16",
          "name": "perkClaimed",
          "type": "uint16"
        }
      ],
      "name": "TokenBought",
      "type": "event"
    },
    {
      "inputs": [
        {
          "internalType": "address",
          "name": "trustedErc20Coin",
          "type": "address"
        }
      ],
      "name": "addTrustedErc20Coin",
      "outputs": [],
      "stateMutability": "nonpayable",
      "type": "function"
    },
    {
      "inputs": [
        {
          "internalType": "address",
          "name": "trustedEscrowFactory",
          "type": "address"
        }
      ],
      "name": "addTrustedEscrowFactory",
      "outputs": [],
      "stateMutability": "nonpayable",
      "type": "function"
    },
    {
      "inputs": [
        {
          "internalType": "uint256",
          "name": "id",
          "type": "uint256"
        }
      ],
      "name": "approve",
      "outputs": [],
      "stateMutability": "nonpayable",
      "type": "function"
    },
    {
      "inputs": [
        {
          "internalType": "uint256",
          "name": "id",
          "type": "uint256"
        },
        {
          "internalType": "address",
          "name": "buyer",
          "type": "address"
        },
        {
          "internalType": "uint256",
          "name": "amount",
          "type": "uint256"
        },
        {
          "internalType": "uint16",
          "name": "perk",
          "type": "uint16"
        }
      ],
      "name": "buyTokensWithCurrency",
      "outputs": [],
      "stateMutability": "payable",
      "type": "function"
    },
    {
      "inputs": [
        {
          "internalType": "uint256",
          "name": "id",
          "type": "uint256"
        },
        {
          "internalType": "address",
          "name": "buyer",
          "type": "address"
        },
        {
          "internalType": "uint256",
          "name": "amount",
          "type": "uint256"
        },
        {
          "internalType": "uint16",
          "name": "perk",
          "type": "uint16"
        }
      ],
      "name": "buyTokensWithFiat",
      "outputs": [],
      "stateMutability": "nonpayable",
      "type": "function"
    },
    {
      "inputs": [
        {
          "internalType": "uint256",
          "name": "id",
          "type": "uint256"
        },
        {
          "internalType": "address",
          "name": "buyer",
          "type": "address"
        },
        {
          "internalType": "uint256",
          "name": "amount",
          "type": "uint256"
        },
        {
          "internalType": "uint16",
          "name": "perk",
          "type": "uint16"
        }
      ],
      "name": "buyTokensWithTokens",
      "outputs": [],
      "stateMutability": "nonpayable",
      "type": "function"
    },
    {
      "inputs": [
        {
          "internalType": "uint256",
          "name": "id",
          "type": "uint256"
        },
        {
          "internalType": "uint256",
          "name": "newCloseDate",
          "type": "uint256"
        }
      ],
      "name": "cancel",
      "outputs": [],
      "stateMutability": "nonpayable",
      "type": "function"
    },
    {
      "inputs": [
        {
          "internalType": "uint256",
          "name": "id",
          "type": "uint256"
        }
      ],
      "name": "close",
      "outputs": [],
      "stateMutability": "nonpayable",
      "type": "function"
    },
    {
      "inputs": [
        {
          "internalType": "uint256",
          "name": "id",
          "type": "uint256"
        }
      ],
      "name": "decline",
      "outputs": [],
      "stateMutability": "nonpayable",
      "type": "function"
    },
    {
      "inputs": [
        {
          "internalType": "uint256",
          "name": "id",
          "type": "uint256"
        }
      ],
      "name": "depositProceedsInCurrency",
      "outputs": [],
      "stateMutability": "payable",
      "type": "function"
    },
    {
      "inputs": [
        {
          "internalType": "uint256",
          "name": "id",
          "type": "uint256"
        },
        {
          "internalType": "uint256",
          "name": "amount",
          "type": "uint256"
        }
      ],
      "name": "depositProceedsInTokens",
      "outputs": [],
      "stateMutability": "nonpayable",
      "type": "function"
    },
    {
      "inputs": [
        {
          "internalType": "uint256",
          "name": "id",
          "type": "uint256"
        }
      ],
      "name": "finishCrowdsale",
      "outputs": [],
      "stateMutability": "nonpayable",
      "type": "function"
    },
    {
      "inputs": [
        {
          "internalType": "uint256",
          "name": "id",
          "type": "uint256"
        }
      ],
      "name": "getProduction",
      "outputs": [
        {
          "components": [
            {
              "internalType": "uint256",
              "name": "id",
              "type": "uint256"
            },
            {
              "components": [
                {
                  "internalType": "uint256",
                  "name": "id",
                  "type": "uint256"
                },
                {
                  "internalType": "address",
                  "name": "creator",
                  "type": "address"
                },
                {
                  "internalType": "uint256",
                  "name": "totalSupply",
                  "type": "uint256"
                },
                {
                  "internalType": "uint256",
                  "name": "organizerTokens",
                  "type": "uint256"
                },
                {
                  "internalType": "uint256",
                  "name": "soldCounter",
                  "type": "uint256"
                },
                {
                  "internalType": "uint256",
                  "name": "maxTokensUnknownBuyer",
                  "type": "uint256"
                },
                {
                  "internalType": "contract IERC20Upgradeable",
                  "name": "currency",
                  "type": "address"
                },
                {
                  "internalType": "enum IProductionEscrowV3.ProductionState",
                  "name": "state",
                  "type": "uint8"
                },
                {
                  "internalType": "string",
                  "name": "dataHash",
                  "type": "string"
                },
                {
                  "internalType": "uint256",
                  "name": "crowdsaleEndDate",
                  "type": "uint256"
                },
                {
                  "internalType": "uint256",
                  "name": "productionEndDate",
                  "type": "uint256"
                },
                {
                  "internalType": "uint8",
                  "name": "platformSharePercentage",
                  "type": "uint8"
                },
                {
                  "internalType": "contract IPerkTrackerV3",
                  "name": "perkTracker",
                  "type": "address"
                },
                {
                  "internalType": "contract IPriceCalculationEngineV3",
                  "name": "priceCalculationEngine",
                  "type": "address"
                }
              ],
              "internalType": "struct IProductionEscrowV3.ProductionData",
              "name": "data",
              "type": "tuple"
            },
            {
              "components": [
                {
                  "internalType": "uint16",
                  "name": "id",
                  "type": "uint16"
                },
                {
                  "internalType": "uint16",
                  "name": "total",
                  "type": "uint16"
                },
                {
                  "internalType": "uint16",
                  "name": "claimed",
                  "type": "uint16"
                },
                {
                  "internalType": "uint256",
                  "name": "minTokensRequired",
                  "type": "uint256"
                }
              ],
              "internalType": "struct IProductionEscrowV3.Perk[]",
              "name": "perks",
              "type": "tuple[]"
            },
            {
              "internalType": "contract IProductionEscrowV3",
              "name": "escrow",
              "type": "address"
            },
            {
              "internalType": "uint256",
              "name": "fundsRaised",
              "type": "uint256"
            },
            {
              "internalType": "uint256",
              "name": "proceedsEarned",
              "type": "uint256"
            },
            {
              "internalType": "uint256",
              "name": "escrowBalance",
              "type": "uint256"
            },
            {
              "internalType": "bool",
              "name": "paused",
              "type": "bool"
            }
          ],
          "internalType": "struct IProductionsV3.Production",
          "name": "",
          "type": "tuple"
        }
      ],
      "stateMutability": "view",
      "type": "function"
    },
    {
      "inputs": [
        {
          "internalType": "address",
          "name": "creator",
          "type": "address"
        }
      ],
      "name": "getProductionIdsByCreator",
      "outputs": [
        {
          "internalType": "uint256[]",
          "name": "",
          "type": "uint256[]"
        }
      ],
      "stateMutability": "view",
      "type": "function"
    },
    {
      "inputs": [
        {
          "internalType": "uint256",
          "name": "id",
          "type": "uint256"
        },
        {
          "internalType": "address",
          "name": "tokenOwner",
          "type": "address"
        }
      ],
      "name": "getTokenOwnerData",
      "outputs": [
        {
          "internalType": "uint256",
          "name": "balance",
          "type": "uint256"
        },
        {
          "components": [
            {
              "internalType": "uint256",
              "name": "tokens",
              "type": "uint256"
            },
            {
              "internalType": "uint256",
              "name": "price",
              "type": "uint256"
            }
          ],
          "internalType": "struct IProductionEscrowV3.Purchase[]",
          "name": "purchases",
          "type": "tuple[]"
        },
        {
          "components": [
            {
              "internalType": "uint16",
              "name": "id",
              "type": "uint16"
            },
            {
              "internalType": "uint16",
              "name": "total",
              "type": "uint16"
            },
            {
              "internalType": "uint16",
              "name": "claimed",
              "type": "uint16"
            },
            {
              "internalType": "uint256",
              "name": "minTokensRequired",
              "type": "uint256"
            }
          ],
          "internalType": "struct IProductionEscrowV3.Perk[]",
          "name": "perksOwned",
          "type": "tuple[]"
        },
        {
          "internalType": "uint256",
          "name": "proceedsClaimed",
          "type": "uint256"
        },
        {
          "internalType": "uint256",
          "name": "proceedsAvailable",
          "type": "uint256"
        }
      ],
      "stateMutability": "view",
      "type": "function"
    },
    {
      "inputs": [
        {
          "internalType": "uint256",
          "name": "id",
          "type": "uint256"
        },
        {
          "internalType": "uint256",
          "name": "amount",
          "type": "uint256"
        }
      ],
      "name": "getTokenPrice",
      "outputs": [
        {
          "internalType": "contract IERC20Upgradeable",
          "name": "",
          "type": "address"
        },
        {
          "internalType": "uint256",
          "name": "",
          "type": "uint256"
        }
      ],
      "stateMutability": "view",
      "type": "function"
    },
    {
      "inputs": [
        {
          "internalType": "uint256",
          "name": "id",
          "type": "uint256"
        },
        {
          "internalType": "uint256",
          "name": "amount",
          "type": "uint256"
        },
        {
          "internalType": "address",
          "name": "buyer",
          "type": "address"
        }
      ],
      "name": "getTokenPriceFor",
      "outputs": [
        {
          "internalType": "contract IERC20Upgradeable",
          "name": "",
          "type": "address"
        },
        {
          "internalType": "uint256",
          "name": "",
          "type": "uint256"
        }
      ],
      "stateMutability": "view",
      "type": "function"
    },
    {
      "inputs": [
        {
          "internalType": "contract IProductionTokenV3",
          "name": "_productionToken",
          "type": "address"
        },
        {
          "internalType": "contract IMembersV3",
          "name": "_members",
          "type": "address"
        },
        {
          "internalType": "contract IWETH",
          "name": "_nativeWrapper",
          "type": "address"
        },
        {
          "internalType": "address",
          "name": "_treasury",
          "type": "address"
        },
        {
          "internalType": "address",
          "name": "_relayer",
          "type": "address"
        }
      ],
      "name": "initialize",
      "outputs": [],
      "stateMutability": "nonpayable",
      "type": "function"
    },
    {
      "inputs": [
        {
          "internalType": "address",
          "name": "candidate",
          "type": "address"
        }
      ],
      "name": "isTrustedErc20Token",
      "outputs": [
        {
          "internalType": "bool",
          "name": "",
          "type": "bool"
        }
      ],
      "stateMutability": "view",
      "type": "function"
    },
    {
      "inputs": [
        {
          "internalType": "address",
          "name": "forwarder",
          "type": "address"
        }
      ],
      "name": "isTrustedForwarder",
      "outputs": [
        {
          "internalType": "bool",
          "name": "",
          "type": "bool"
        }
      ],
      "stateMutability": "view",
      "type": "function"
    },
    {
      "inputs": [],
      "name": "members",
      "outputs": [
        {
          "internalType": "contract IMembersV3",
          "name": "",
          "type": "address"
        }
      ],
      "stateMutability": "view",
      "type": "function"
    },
    {
      "inputs": [
        {
          "internalType": "contract IProductionEscrowV3",
          "name": "escrow",
          "type": "address"
        },
        {
          "internalType": "address",
          "name": "creator",
          "type": "address"
        },
        {
          "internalType": "uint256",
          "name": "totalAmount",
          "type": "uint256"
        }
      ],
      "name": "mintProduction",
      "outputs": [
        {
          "internalType": "uint256",
          "name": "id",
          "type": "uint256"
        }
      ],
      "stateMutability": "nonpayable",
      "type": "function"
    },
    {
      "inputs": [],
      "name": "nativeWrapper",
      "outputs": [
        {
          "internalType": "contract IWETH",
          "name": "",
          "type": "address"
        }
      ],
      "stateMutability": "view",
      "type": "function"
    },
    {
      "inputs": [],
      "name": "owner",
      "outputs": [
        {
          "internalType": "address",
          "name": "",
          "type": "address"
        }
      ],
      "stateMutability": "view",
      "type": "function"
    },
    {
      "inputs": [
        {
          "internalType": "uint256",
          "name": "id",
          "type": "uint256"
        }
      ],
      "name": "pause",
      "outputs": [],
      "stateMutability": "nonpayable",
      "type": "function"
    },
    {
      "inputs": [
        {
          "internalType": "uint256",
          "name": "",
          "type": "uint256"
        }
      ],
      "name": "productionEscrows",
      "outputs": [
        {
          "internalType": "uint256",
          "name": "id",
          "type": "uint256"
        },
        {
          "internalType": "contract IProductionEscrowV3",
          "name": "escrow",
          "type": "address"
        }
      ],
      "stateMutability": "view",
      "type": "function"
    },
    {
      "inputs": [
        {
          "internalType": "address",
          "name": "",
          "type": "address"
        },
        {
          "internalType": "uint256",
          "name": "",
          "type": "uint256"
        }
      ],
      "name": "productionIdsByOwner",
      "outputs": [
        {
          "internalType": "uint256",
          "name": "",
          "type": "uint256"
        }
      ],
      "stateMutability": "view",
      "type": "function"
    },
    {
      "inputs": [],
      "name": "productionToken",
      "outputs": [
        {
          "internalType": "contract IProductionTokenV3",
          "name": "",
          "type": "address"
        }
      ],
      "stateMutability": "view",
      "type": "function"
    },
    {
      "inputs": [
        {
          "internalType": "address",
          "name": "invalidAddress",
          "type": "address"
        }
      ],
      "name": "removeTrustedErc20Coin",
      "outputs": [],
      "stateMutability": "nonpayable",
      "type": "function"
    },
    {
      "inputs": [
        {
          "internalType": "address",
          "name": "invalidAddress",
          "type": "address"
        }
      ],
      "name": "removeTrustedEscrowFactory",
      "outputs": [],
      "stateMutability": "nonpayable",
      "type": "function"
    },
    {
      "inputs": [],
      "name": "renounceOwnership",
      "outputs": [],
      "stateMutability": "nonpayable",
      "type": "function"
    },
    {
      "inputs": [],
      "name": "router",
      "outputs": [
        {
          "internalType": "contract ISwapRouter",
          "name": "",
          "type": "address"
        }
      ],
      "stateMutability": "view",
      "type": "function"
    },
    {
      "inputs": [
        {
          "internalType": "address",
          "name": "_relayer",
          "type": "address"
        }
      ],
      "name": "setRelayer",
      "outputs": [],
      "stateMutability": "nonpayable",
      "type": "function"
    },
    {
      "inputs": [
        {
          "internalType": "uint256",
          "name": "id",
          "type": "uint256"
        }
      ],
      "name": "transferFunding",
      "outputs": [],
      "stateMutability": "nonpayable",
      "type": "function"
    },
    {
      "inputs": [
        {
          "internalType": "address",
          "name": "newOwner",
          "type": "address"
        }
      ],
      "name": "transferOwnership",
      "outputs": [],
      "stateMutability": "nonpayable",
      "type": "function"
    },
    {
      "inputs": [
        {
          "internalType": "uint256",
          "name": "id",
          "type": "uint256"
        }
      ],
      "name": "transferProceeds",
      "outputs": [],
      "stateMutability": "nonpayable",
      "type": "function"
    },
    {
      "inputs": [],
      "name": "treasury",
      "outputs": [
        {
          "internalType": "address",
          "name": "",
          "type": "address"
        }
      ],
      "stateMutability": "view",
      "type": "function"
    },
    {
      "inputs": [
        {
          "internalType": "address",
          "name": "",
          "type": "address"
        }
      ],
      "name": "trustedErc20Coins",
      "outputs": [
        {
          "internalType": "bool",
          "name": "",
          "type": "bool"
        }
      ],
      "stateMutability": "view",
      "type": "function"
    },
    {
      "inputs": [
        {
          "internalType": "address",
          "name": "",
          "type": "address"
        }
      ],
      "name": "trustedEscrowFactories",
      "outputs": [
        {
          "internalType": "bool",
          "name": "",
          "type": "bool"
        }
      ],
      "stateMutability": "view",
      "type": "function"
    },
    {
      "inputs": [
        {
          "internalType": "uint256",
          "name": "id",
          "type": "uint256"
        }
      ],
      "name": "unpause",
      "outputs": [],
      "stateMutability": "nonpayable",
      "type": "function"
    },
    {
      "stateMutability": "payable",
      "type": "receive"
    }
  ],
  "transactionHash": "0xa0b025e97a1d764759b02738c94002a1babe9b92c238ac25fea5453937317c53",
  "args": [
    "0x06Da36862E87D70878B01d91FdFAAcc04407C59B"
  ],
  "numDeployments": 1,
  "solcInputHash": "df4ac18ce0570d62bffd09e9232f4746",
  "bytecode": "0x60a06040523480156200001157600080fd5b506040516200473d3803806200473d833981016040819052620000349162000114565b6001600160a01b0381166080526200004b62000052565b5062000146565b600054610100900460ff1615620000bf5760405162461bcd60e51b815260206004820152602760248201527f496e697469616c697a61626c653a20636f6e747261637420697320696e697469604482015266616c697a696e6760c81b606482015260840160405180910390fd5b60005460ff908116101562000112576000805460ff191660ff9081179091556040519081527f7f26b83ff96e1f2b6a682f133852f6798a09c465da95921460cefb38474024989060200160405180910390a15b565b6000602082840312156200012757600080fd5b81516001600160a01b03811681146200013f57600080fd5b9392505050565b6080516145d462000169600039600081816103f3015261346d01526145d46000f3fe60806040526004361061023e5760003560e01c80638e20d8411161012e578063c3d6de82116100ab578063f09e090b1161006f578063f09e090b1461079d578063f2fde38b146107bd578063f850d012146107dd578063f887ea401461080a578063fabc1cbc1461083257600080fd5b8063c3d6de821461070a578063c7a4a53c1461072a578063cf1213ba1461073d578063cf2626991461075d578063d3a598491461077d57600080fd5b8063b10fee08116100f2578063b10fee0814610630578063b5ff36d314610650578063b759f954146106aa578063bdd4d18d146106ca578063c0c6e16e146106ea57600080fd5b80638e20d8411461058c5780638f3cd58b146105ac57806393057ba6146105dd578063a0355f4e146105fd578063af9ab6351461061d57600080fd5b80635c7d40c6116101bc5780636fdd1064116101805780636fdd1064146104e9578063715018a61461051957806372259f1e1461052e5780637ec08d181461054e5780638da5cb5b1461056e57600080fd5b80635c7d40c61461042357806361d027b31461045c5780636548e9bc1461047c5780636dc656f21461049c5780636f265d0c146104bc57600080fd5b80631459457a116102035780631459457a1461031757806314b487aa14610337578063452c402d146103775780634b390d7f146103b6578063572b6c05146103d657600080fd5b8062efa8951461024a5780630283ae2e1461026c5780630aebeb4e1461029f5780630b48a8b8146102bf578063136439dd146102f757600080fd5b3661024557005b600080fd5b34801561025657600080fd5b5061026a610265366004613a26565b610852565b005b34801561027857600080fd5b5061028c610287366004613a5d565b610941565b6040519081526020015b60405180910390f35b3480156102ab57600080fd5b5061026a6102ba366004613a89565b610972565b3480156102cb57600080fd5b5060d1546102df906001600160a01b031681565b6040516001600160a01b039091168152602001610296565b34801561030357600080fd5b5061026a610312366004613a89565b610a6e565b34801561032357600080fd5b5061026a610332366004613aa2565b610b15565b34801561034357600080fd5b50610367610352366004613b13565b60ca6020526000908152604090205460ff1681565b6040519015158152602001610296565b34801561038357600080fd5b50610397610392366004613b30565b610cf7565b604080516001600160a01b039093168352602083019190915201610296565b3480156103c257600080fd5b5061026a6103d1366004613b13565b610f30565b3480156103e257600080fd5b506103676103f1366004613b13565b7f00000000000000000000000000000000000000000000000000000000000000006001600160a01b0390811691161490565b34801561042f57600080fd5b5061036761043e366004613b13565b6001600160a01b0316600090815260cb602052604090205460ff1690565b34801561046857600080fd5b5060d0546102df906001600160a01b031681565b34801561048857600080fd5b5061026a610497366004613b13565b610f59565b3480156104a857600080fd5b506103976104b7366004613a26565b610f83565b3480156104c857600080fd5b506104dc6104d7366004613b13565b611081565b6040516102969190613b69565b3480156104f557600080fd5b50610367610504366004613b13565b60cb6020526000908152604090205460ff1681565b34801561052557600080fd5b5061026a6110ed565b34801561053a57600080fd5b5060ce546102df906001600160a01b031681565b34801561055a57600080fd5b5061026a610569366004613a89565b611101565b34801561057a57600080fd5b506065546001600160a01b03166102df565b34801561059857600080fd5b5061026a6105a7366004613a26565b61117c565b3480156105b857600080fd5b506105cc6105c7366004613bad565b61145e565b604051610296959493929190613c43565b3480156105e957600080fd5b5061028c6105f8366004613cba565b6116a3565b34801561060957600080fd5b5061026a610618366004613a89565b611957565b61026a61062b366004613d0b565b6119d2565b34801561063c57600080fd5b5061026a61064b366004613b13565b611e4c565b34801561065c57600080fd5b5061068d61066b366004613a89565b60cc60205260009081526040902080546001909101546001600160a01b031682565b604080519283526001600160a01b03909116602083015201610296565b3480156106b657600080fd5b5061026a6106c5366004613a89565b611e75565b3480156106d657600080fd5b5060cf546102df906001600160a01b031681565b3480156106f657600080fd5b5061026a610705366004613b13565b611ef0565b34801561071657600080fd5b5061026a610725366004613d0b565b611f1c565b61026a610738366004613a89565b611ff1565b34801561074957600080fd5b5061026a610758366004613d0b565b6121e4565b34801561076957600080fd5b5061026a610778366004613b13565b6123a2565b34801561078957600080fd5b5061026a610798366004613a89565b6123ce565b3480156107a957600080fd5b5061026a6107b8366004613a89565b612532565b3480156107c957600080fd5b5061026a6107d8366004613b13565b61267f565b3480156107e957600080fd5b506107fd6107f8366004613a89565b6126f5565b6040516102969190613de5565b34801561081657600080fd5b506102df735615cdab10dc425a742d643d949a7f474c01abc481565b34801561083e57600080fd5b5061026a61084d366004613a89565b61293d565b61085a6129b8565b600082815260cc602052604090205482906108aa5760405162461bcd60e51b8152602060048201526019602482015260008051602061457f83398151915260448201526064015b60405180910390fd5b600083815260cc60205260409020600101546001600160a01b03166398590ef96108d2612a12565b6040516001600160e01b031960e084901b1681526001600160a01b03909116600482015260248101859052604401600060405180830381600087803b15801561091a57600080fd5b505af115801561092e573d6000803e3d6000fd5b505050505061093d6001609755565b5050565b60cd602052816000526040600020818154811061095d57600080fd5b90600052602060002001600091509150505481565b61097a6129b8565b600081815260cc602052604090205481906109c55760405162461bcd60e51b8152602060048201526019602482015260008051602061457f83398151915260448201526064016108a1565b600082815260cc60205260409020600101546001600160a01b0316639e6d77d06109ed612a12565b60d25460d05460405160e085901b6001600160e01b03191681526001600160a01b039384166004820152918316331460248301529190911660448201526064015b600060405180830381600087803b158015610a4857600080fd5b505af1158015610a5c573d6000803e3d6000fd5b5050505050610a6b6001609755565b50565b610a766129b8565b600081815260cc60205260409020548190610ac15760405162461bcd60e51b8152602060048201526019602482015260008051602061457f83398151915260448201526064016108a1565b600082815260cc60205260409020600101546001600160a01b03166376a67a51610ae9612a12565b6040516001600160e01b031960e084901b1681526001600160a01b039091166004820152602401610a2e565b600054610100900460ff1615808015610b355750600054600160ff909116105b80610b4f5750303b158015610b4f575060005460ff166001145b610bc15760405162461bcd60e51b815260206004820152602e60248201527f496e697469616c697a61626c653a20636f6e747261637420697320616c72656160448201527f647920696e697469616c697a656400000000000000000000000000000000000060648201526084016108a1565b6000805460ff191660011790558015610be4576000805461ff0019166101001790555b610bec612a28565b610bf4612a9b565b6001600160a01b038316610c4a5760405162461bcd60e51b815260206004820152601e60248201527f5472656173757279206d7573742062652076616c69642061646472657373000060448201526064016108a1565b60ce80546001600160a01b03199081166001600160a01b038981169190911790925560cf8054821688841617905560d18054821687841617905560d08054821686841617905560d2805490911691841691909117905560c9805460010190558015610cef576000805461ff0019169055604051600181527f7f26b83ff96e1f2b6a682f133852f6798a09c465da95921460cefb38474024989060200160405180910390a15b505050505050565b600083815260cc602052604081205481908590610d445760405162461bcd60e51b8152602060048201526019602482015260008051602061457f83398151915260448201526064016108a1565b836001600160a01b038116610d9b5760405162461bcd60e51b815260206004820152601b60248201527f4275796572206d7573742062652076616c69642061646472657373000000000060448201526064016108a1565b610da3612a12565b6001600160a01b0316816001600160a01b03161480610e4d575060cf546001600160a01b031663cee2a9cf610dd6612a12565b6040516001600160e01b031960e084901b1681526001600160a01b03909116600482015260240160206040518083038186803b158015610e1557600080fd5b505afa158015610e29573d6000803e3d6000fd5b505050506040513d601f19601f82011682018060405250810190610e4d9190613f5e565b610e8f5760405162461bcd60e51b815260206004820152601360248201527224b73b30b634b2103a37b5b2b710313abcb2b960691b60448201526064016108a1565b600087815260cc6020526040908190206001015490516321f8c83960e21b8152600481018890526001600160a01b038781166024830152909116906387e320e490604401604080518083038186803b158015610eea57600080fd5b505afa158015610efe573d6000803e3d6000fd5b505050506040513d601f19601f82011682018060405250810190610f229190613f90565b935093505050935093915050565b610f38612b0e565b6001600160a01b0316600090815260ca60205260409020805460ff19169055565b610f61612b0e565b60d280546001600160a01b0319166001600160a01b0392909216919091179055565b600082815260cc602052604081205481908490610fd05760405162461bcd60e51b8152602060048201526019602482015260008051602061457f83398151915260448201526064016108a1565b600085815260cc60205260409020600101546001600160a01b03166387e320e485610ff9612a12565b6040516001600160e01b031960e085901b16815260048101929092526001600160a01b03166024820152604401604080518083038186803b15801561103d57600080fd5b505afa158015611051573d6000803e3d6000fd5b505050506040513d601f19601f820116820180604052508101906110759190613f90565b92509250509250929050565b6001600160a01b038116600090815260cd60209081526040918290208054835181840281018401909452808452606093928301828280156110e157602002820191906000526020600020905b8154815260200190600101908083116110cd575b50505050509050919050565b6110f5612b0e565b6110ff6000612b87565b565b6111096129b8565b600081815260cc602052604090205481906111545760405162461bcd60e51b8152602060048201526019602482015260008051602061457f83398151915260448201526064016108a1565b600082815260cc60205260409020600101546001600160a01b031663201dfbce6109ed612a12565b6111846129b8565b600082815260cc602052604090205482906111cf5760405162461bcd60e51b8152602060048201526019602482015260008051602061457f83398151915260448201526064016108a1565b600083815260cc6020526040808220600101548151639b54a81760e01b815291516001600160a01b0390911691639b54a8179160048083019286929190829003018186803b15801561122057600080fd5b505afa158015611234573d6000803e3d6000fd5b505050506040513d6000823e601f3d908101601f1916820160405261125c91908101906141f7565b60c08101516020820151604051636eb1769f60e11b81526001600160a01b0391821660048201523060248201529293509091859183169063dd62ed3e9060440160206040518083038186803b1580156112b457600080fd5b505afa1580156112c8573d6000803e3d6000fd5b505050506040513d601f19601f820116820180604052508101906112ec919061422c565b101561133a5760405162461bcd60e51b815260206004820152601660248201527f496e73756666696369656e7420616c6c6f77616e63650000000000000000000060448201526064016108a1565b6020820151611355906001600160a01b038316903087612bd9565b600085815260cc602052604090206001015461137e906001600160a01b03838116911686612c44565b600085815260cc60205260409020600101546001600160a01b031663bd55db3a6113a6612a12565b6040516001600160e01b031960e084901b1681526001600160a01b03909116600482015260248101879052604401600060405180830381600087803b1580156113ee57600080fd5b505af1158015611402573d6000803e3d6000fd5b5050505061140e612a12565b6001600160a01b0316857f07c5b0ee196554c56f6c71c243649abee344214e9147a7c9c81673b0f0657d518660405161144991815260200190565b60405180910390a350505061093d6001609755565b600082815260cc602052604081205460609081908390819087906114b25760405162461bcd60e51b8152602060048201526019602482015260008051602061457f83398151915260448201526064016108a1565b866001600160a01b0381166115095760405162461bcd60e51b815260206004820152601b60248201527f4275796572206d7573742062652076616c69642061646472657373000000000060448201526064016108a1565b611511612a12565b6001600160a01b0316816001600160a01b031614806115bb575060cf546001600160a01b031663cee2a9cf611544612a12565b6040516001600160e01b031960e084901b1681526001600160a01b03909116600482015260240160206040518083038186803b15801561158357600080fd5b505afa158015611597573d6000803e3d6000fd5b505050506040513d601f19601f820116820180604052508101906115bb9190613f5e565b6115fd5760405162461bcd60e51b815260206004820152601360248201527224b73b30b634b2103a37b5b2b710313abcb2b960691b60448201526064016108a1565b600089815260cc6020526040908190206001015490516341c0bf8d60e11b81526001600160a01b038a81166004830152909116906383817f1a9060240160006040518083038186803b15801561165257600080fd5b505afa158015611666573d6000803e3d6000fd5b505050506040513d6000823e601f3d908101601f1916820160405261168e9190810190614327565b939d929c50909a509850909650945050505050565b60006116ad6129b8565b60ca60006116b9612a12565b6001600160a01b0316815260208101919091526040016000205460ff166117225760405162461bcd60e51b815260206004820152601860248201527f556e7472757374656420457363726f7720466163746f7279000000000000000060448201526064016108a1565b60cb6000856001600160a01b0316639b54a8176040518163ffffffff1660e01b815260040160006040518083038186803b15801561175f57600080fd5b505afa158015611773573d6000803e3d6000fd5b505050506040513d6000823e601f3d908101601f1916820160405261179b91908101906141f7565b60c001516001600160a01b0316815260208101919091526040016000205460ff166118085760405162461bcd60e51b815260206004820152601360248201527f556e6b6e6f776e20455243323020746f6b656e0000000000000000000000000060448201526064016108a1565b5060c954604080518381526001600160a01b03868116602083015285169183917f9d94293606bd346fb9292dbec161dbbb0a0369bfb381ecc98a5c1dd08d8b8723910160405180910390a36040805180820182528281526001600160a01b038087166020808401918252600086815260cc9091529390932091518255915160019091018054919092166001600160a01b03199091161790556118ae60c980546001019055565b60ce546040516323a36d2b60e01b81526001600160a01b0386811660048301526024820184905260448201859052909116906323a36d2b90606401600060405180830381600087803b15801561190357600080fd5b505af1158015611917573d6000803e3d6000fd5b5050506001600160a01b038416600090815260cd6020908152604082208054600181018255908352912001829055506119506001609755565b9392505050565b61195f6129b8565b600081815260cc602052604090205481906119aa5760405162461bcd60e51b8152602060048201526019602482015260008051602061457f83398151915260448201526064016108a1565b600082815260cc60205260409020600101546001600160a01b03166310e29cf9610ae9612a12565b6119da6129b8565b600084815260cc60205260409020548490611a255760405162461bcd60e51b8152602060048201526019602482015260008051602061457f83398151915260448201526064016108a1565b836001600160a01b038116611a7c5760405162461bcd60e51b815260206004820152601b60248201527f4275796572206d7573742062652076616c69642061646472657373000000000060448201526064016108a1565b611a84612a12565b6001600160a01b0316816001600160a01b03161480611b2e575060cf546001600160a01b031663cee2a9cf611ab7612a12565b6040516001600160e01b031960e084901b1681526001600160a01b03909116600482015260240160206040518083038186803b158015611af657600080fd5b505afa158015611b0a573d6000803e3d6000fd5b505050506040513d601f19601f82011682018060405250810190611b2e9190613f5e565b611b705760405162461bcd60e51b815260206004820152601360248201527224b73b30b634b2103a37b5b2b710313abcb2b960691b60448201526064016108a1565b60008411611bb75760405162461bcd60e51b815260206004820152601460248201527304d757374207061737320616d6f756e74203e20360641b60448201526064016108a1565b60003411611c075760405162461bcd60e51b815260206004820152601760248201527f4d7573742070617373206d73672e76616c7565203e203000000000000000000060448201526064016108a1565b600086815260cc602090815260409182902060010154825163aaa5ad6160e01b815292516001600160a01b0390911692839263aaa5ad6192600480840193829003018186803b158015611c5957600080fd5b505afa158015611c6d573d6000803e3d6000fd5b505050506040513d601f19601f82011682018060405250810190611c91919061422c565b851115611ce05760405162461bcd60e51b815260206004820152601e60248201527f43616e6e6f7420627579206d6f7265207468616e20617661696c61626c65000060448201526064016108a1565b6040516321f8c83960e21b8152600481018690526001600160a01b03878116602483015260009182918416906387e320e490604401604080518083038186803b158015611d2c57600080fd5b505afa158015611d40573d6000803e3d6000fd5b505050506040513d601f19601f82011682018060405250810190611d649190613f90565b91509150611d73828285612c79565b50604080518881526020810183905261ffff88168183015290516001600160a01b038a16918b917ffc30850f2040b53a580f146e0f19adff30f013111447180caa350a0a36f2422d9181900360600190a36040516327674bef60e21b81526001600160a01b038981166004830152602482018990526044820183905261ffff88166064830152841690639d9d2fbc90608401600060405180830381600087803b158015611e1f57600080fd5b505af1158015611e33573d6000803e3d6000fd5b505050505050505050611e466001609755565b50505050565b611e54612b0e565b6001600160a01b0316600090815260cb60205260409020805460ff19169055565b611e7d6129b8565b600081815260cc60205260409020548190611ec85760405162461bcd60e51b8152602060048201526019602482015260008051602061457f83398151915260448201526064016108a1565b600082815260cc60205260409020600101546001600160a01b031663daea85c5610ae9612a12565b611ef8612b0e565b6001600160a01b0316600090815260ca60205260409020805460ff19166001179055565b611f246129b8565b600084815260cc60205260409020548490611f6f5760405162461bcd60e51b8152602060048201526019602482015260008051602061457f83398151915260448201526064016108a1565b60d2546001600160a01b03163314611fd95760405162461bcd60e51b815260206004820152602760248201527f43616e206f6e6c792062652063616c6c65642066726f6d2074727573746564206044820152663932b630bcb2b960c91b60648201526084016108a1565b611fe68584338786612e33565b50611e466001609755565b611ff96129b8565b600081815260cc602052604090205481906120445760405162461bcd60e51b8152602060048201526019602482015260008051602061457f83398151915260448201526064016108a1565b600082815260cc6020526040808220600101548151639b54a81760e01b815291516001600160a01b0390911691639b54a8179160048083019286929190829003018186803b15801561209557600080fd5b505afa1580156120a9573d6000803e3d6000fd5b505050506040513d6000823e601f3d908101601f191682016040526120d191908101906141f7565b60c0810151600085815260cc602052604081206001015492935090916121019083906001600160a01b03166131a2565b905061210b612a12565b6001600160a01b0316857f07c5b0ee196554c56f6c71c243649abee344214e9147a7c9c81673b0f0657d518360405161214691815260200190565b60405180910390a3600085815260cc60205260409020600101546001600160a01b031663bd55db3a612176612a12565b6040516001600160e01b031960e084901b1681526001600160a01b03909116600482015260248101849052604401600060405180830381600087803b1580156121be57600080fd5b505af11580156121d2573d6000803e3d6000fd5b5050505050505050610a6b6001609755565b6121ec6129b8565b600084815260cc602052604090205484906122375760405162461bcd60e51b8152602060048201526019602482015260008051602061457f83398151915260448201526064016108a1565b836001600160a01b03811661228e5760405162461bcd60e51b815260206004820152601b60248201527f4275796572206d7573742062652076616c69642061646472657373000000000060448201526064016108a1565b612296612a12565b6001600160a01b0316816001600160a01b03161480612340575060cf546001600160a01b031663cee2a9cf6122c9612a12565b6040516001600160e01b031960e084901b1681526001600160a01b03909116600482015260240160206040518083038186803b15801561230857600080fd5b505afa15801561231c573d6000803e3d6000fd5b505050506040513d601f19601f820116820180604052508101906123409190613f5e565b6123825760405162461bcd60e51b815260206004820152601360248201527224b73b30b634b2103a37b5b2b710313abcb2b960691b60448201526064016108a1565b612396868561238f612a12565b8887612e33565b5050611e466001609755565b6123aa612b0e565b6001600160a01b0316600090815260cb60205260409020805460ff19166001179055565b6123d66129b8565b600081815260cc602052604090205481906124215760405162461bcd60e51b8152602060048201526019602482015260008051602061457f83398151915260448201526064016108a1565b600082815260cc602052604081206001015481906001600160a01b0316631d29572761244b612a12565b60d05460405160e084901b6001600160e01b03191681526001600160a01b039283166004820152911660248201526044016040805180830381600087803b15801561249557600080fd5b505af11580156124a9573d6000803e3d6000fd5b505050506040513d601f19601f820116820180604052508101906124cd9190614424565b915091506124d9612a12565b6001600160a01b0316847f96c7a1d0f5191e2cdf0ba542b0283e6377d7f923f837e043c9f66fbdfcb03ff3848460405161251d929190918252602082015260400190565b60405180910390a3505050610a6b6001609755565b61253a6129b8565b600081815260cc602052604090205481906125855760405162461bcd60e51b8152602060048201526019602482015260008051602061457f83398151915260448201526064016108a1565b600082815260cc60205260408120600101546001600160a01b031663fc33962c6125ad612a12565b6040516001600160e01b031960e084901b1681526001600160a01b039091166004820152602401602060405180830381600087803b1580156125ee57600080fd5b505af1158015612602573d6000803e3d6000fd5b505050506040513d601f19601f82011682018060405250810190612626919061422c565b9050612630612a12565b6001600160a01b0316837f59ef3b0aa7753fe308ca62cf762e6595575b067925f4c6a9e8c52351e0bfa5888360405161266b91815260200190565b60405180910390a35050610a6b6001609755565b612687612b0e565b6001600160a01b0381166126ec5760405162461bcd60e51b815260206004820152602660248201527f4f776e61626c653a206e6577206f776e657220697320746865207a65726f206160448201526564647265737360d01b60648201526084016108a1565b610a6b81612b87565b6126fd613929565b600082815260cc602052604090205461271f5761271982613300565b92915050565b600082815260cc602052604080822060010154815163e36e196960e01b815291518392839283926001600160a01b039091169163e36e19699160048083019286929190829003018186803b15801561277657600080fd5b505afa15801561278a573d6000803e3d6000fd5b505050506040513d6000823e601f3d908101601f191682016040526127b29190810190614448565b60c084015160008b815260cc60205260408082206001015490516370a0823160e01b81526001600160a01b039182166004820152969a5094985092965090945090929116906370a082319060240160206040518083038186803b15801561281857600080fd5b505afa15801561282c573d6000803e3d6000fd5b505050506040513d601f19601f82011682018060405250810190612850919061422c565b600088815260cc60209081526040808320600101548151635c975abb60e01b8152915194955092936001600160a01b0390931692635c975abb92600480840193919291829003018186803b1580156128a757600080fd5b505afa1580156128bb573d6000803e3d6000fd5b505050506040513d601f19601f820116820180604052508101906128df9190613f5e565b60408051610100810182528a8152602080820199909952808201979097526000998a5260cc90975295909720600101546001600160a01b03166060850152608084019290925260a083015260c082015290151560e082015292915050565b6129456129b8565b600081815260cc602052604090205481906129905760405162461bcd60e51b8152602060048201526019602482015260008051602061457f83398151915260448201526064016108a1565b600082815260cc60205260409020600101546001600160a01b03166357b001f9610ae9612a12565b60026097541415612a0b5760405162461bcd60e51b815260206004820152601f60248201527f5265656e7472616e637947756172643a207265656e7472616e742063616c6c0060448201526064016108a1565b6002609755565b6000612a1c613469565b905090565b6001609755565b600054610100900460ff16612a935760405162461bcd60e51b815260206004820152602b60248201527f496e697469616c697a61626c653a20636f6e7472616374206973206e6f74206960448201526a6e697469616c697a696e6760a81b60648201526084016108a1565b6110ff6134ae565b600054610100900460ff16612b065760405162461bcd60e51b815260206004820152602b60248201527f496e697469616c697a61626c653a20636f6e7472616374206973206e6f74206960448201526a6e697469616c697a696e6760a81b60648201526084016108a1565b6110ff613529565b612b16612a12565b6001600160a01b0316612b316065546001600160a01b031690565b6001600160a01b0316146110ff5760405162461bcd60e51b815260206004820181905260248201527f4f776e61626c653a2063616c6c6572206973206e6f7420746865206f776e657260448201526064016108a1565b606580546001600160a01b038381166001600160a01b0319831681179093556040519116919082907f8be0079c531659141344cd1fd0a4f28419497f9722a3daafe3b4186f6b6457e090600090a35050565b6040516001600160a01b0380851660248301528316604482015260648101829052611e469085906323b872dd60e01b906084015b60408051601f198184030181529190526020810180516001600160e01b03166001600160e01b031990931692909217909152613594565b6040516001600160a01b038316602482015260448101829052612c7490849063a9059cbb60e01b90606401612c0d565b505050565b604080516101008101825260d1546001600160a01b039081168083528682166020840152610bb8938301939093528316606082015242608082015260a081018490523460c08201819052600060e0830181905292612cec91735615cdab10dc425a742d643d949a7f474c01abc490613666565b604051631b67c43360e31b8152735615cdab10dc425a742d643d949a7f474c01abc49063db3e219890612d239084906004016144bc565b602060405180830381600087803b158015612d3d57600080fd5b505af1158015612d51573d6000803e3d6000fd5b505050506040513d601f19601f82011682018060405250810190612d75919061422c565b915034821015612e2b576000612d8b833461452a565b60d154909150612dba906001600160a01b0316735615cdab10dc425a742d643d949a7f474c01abc46000613666565b60d154604051632e1a7d4d60e01b8152600481018390526001600160a01b0390911690632e1a7d4d90602401600060405180830381600087803b158015612e0057600080fd5b505af1158015612e14573d6000803e3d6000fd5b50505050612e29612e23612a12565b82613766565b505b509392505050565b60008411612e7a5760405162461bcd60e51b815260206004820152601460248201527304d757374207061737320616d6f756e74203e20360641b60448201526064016108a1565b600085815260cc602090815260409182902060010154825163aaa5ad6160e01b815292516001600160a01b0390911692839263aaa5ad6192600480840193829003018186803b158015612ecc57600080fd5b505afa158015612ee0573d6000803e3d6000fd5b505050506040513d601f19601f82011682018060405250810190612f04919061422c565b851115612f535760405162461bcd60e51b815260206004820152601e60248201527f43616e6e6f7420627579206d6f7265207468616e20617661696c61626c65000060448201526064016108a1565b6040516321f8c83960e21b8152600481018690526001600160a01b03848116602483015260009182918416906387e320e490604401604080518083038186803b158015612f9f57600080fd5b505afa158015612fb3573d6000803e3d6000fd5b505050506040513d601f19601f82011682018060405250810190612fd79190613f90565b604051636eb1769f60e11b81526001600160a01b038981166004830152306024830152929450909250829184169063dd62ed3e9060440160206040518083038186803b15801561302657600080fd5b505afa15801561303a573d6000803e3d6000fd5b505050506040513d601f19601f8201168201806040525081019061305e919061422c565b10156130ac5760405162461bcd60e51b815260206004820152601660248201527f496e73756666696369656e7420616c6c6f77616e63650000000000000000000060448201526064016108a1565b604080518881526020810183905261ffff86168183015290516001600160a01b038716918a917ffc30850f2040b53a580f146e0f19adff30f013111447180caa350a0a36f2422d9181900360600190a36131116001600160a01b038316873084612bd9565b6131256001600160a01b0383168483612c44565b6040516327674bef60e21b81526001600160a01b038681166004830152602482018990526044820183905261ffff86166064830152841690639d9d2fbc90608401600060405180830381600087803b15801561318057600080fd5b505af1158015613194573d6000803e3d6000fd5b505050505050505050505050565b604080516101008101825260d1546001600160a01b039081168083528582166020840152610bb88385015290841660608301524260808301523460a08301819052600060c0840181905260e084018190528451630d0e30db60e41b81529451909463d0e30db092916004808301928892919082900301818588803b15801561322957600080fd5b505af115801561323d573d6000803e3d6000fd5b505060d15461326f93506001600160a01b03169150735615cdab10dc425a742d643d949a7f474c01abc4905034613666565b60405163414bf38960e01b8152735615cdab10dc425a742d643d949a7f474c01abc49063414bf389906132a69084906004016144bc565b602060405180830381600087803b1580156132c057600080fd5b505af11580156132d4573d6000803e3d6000fd5b505050506040513d601f19601f820116820180604052508101906132f8919061422c565b949350505050565b613308613929565b604051806101000160405280838152602001604051806101c0016040528085815260200160006001600160a01b031681526020016000815260200160008152602001600081526020016000815260200160006001600160a01b031681526020016000600681111561337b5761337b613d55565b81526020016040518060200160405280600081525081526020016000815260200160008152602001600060ff16815260200160006001600160a01b0316815260200160006001600160a01b03168152508152602001600067ffffffffffffffff8111156133ea576133ea613fbe565b60405190808252806020026020018201604052801561343c57816020015b6040805160808101825260008082526020808301829052928201819052606082015282526000199092019101816134085790505b50815260006020820181905260408201819052606082018190526080820181905260a09091015292915050565b60007f00000000000000000000000000000000000000000000000000000000000000006001600160a01b03163314156134a9575060131936013560601c90565b503390565b600054610100900460ff166135195760405162461bcd60e51b815260206004820152602b60248201527f496e697469616c697a61626c653a20636f6e7472616374206973206e6f74206960448201526a6e697469616c697a696e6760a81b60648201526084016108a1565b6110ff613524612a12565b612b87565b600054610100900460ff16612a215760405162461bcd60e51b815260206004820152602b60248201527f496e697469616c697a61626c653a20636f6e7472616374206973206e6f74206960448201526a6e697469616c697a696e6760a81b60648201526084016108a1565b60006135e9826040518060400160405280602081526020017f5361666545524332303a206c6f772d6c6576656c2063616c6c206661696c6564815250856001600160a01b03166138099092919063ffffffff16565b805190915015612c7457808060200190518101906136079190613f5e565b612c745760405162461bcd60e51b815260206004820152602a60248201527f5361666545524332303a204552433230206f7065726174696f6e20646964206e6044820152691bdd081cdd58d8d9595960b21b60648201526084016108a1565b604080516001600160a01b038481166024830152604480830185905283518084039091018152606490920183526020820180516001600160e01b031663095ea7b360e01b17905291516000928392908716916136c2919061454f565b6000604051808303816000865af19150503d80600081146136ff576040519150601f19603f3d011682016040523d82523d6000602084013e613704565b606091505b509150915081801561372e57508051158061372e57508080602001905181019061372e9190613f5e565b61375f5760405162461bcd60e51b8152602060048201526002602482015261534160f01b60448201526064016108a1565b5050505050565b604080516000808252602082019092526001600160a01b038416908390604051613790919061454f565b60006040518083038185875af1925050503d80600081146137cd576040519150601f19603f3d011682016040523d82523d6000602084013e6137d2565b606091505b5050905080612c745760405162461bcd60e51b815260206004820152600360248201526253544560e81b60448201526064016108a1565b60606132f8848460008585600080866001600160a01b03168587604051613830919061454f565b60006040518083038185875af1925050503d806000811461386d576040519150601f19603f3d011682016040523d82523d6000602084013e613872565b606091505b50915091506138838783838761388e565b979650505050505050565b606083156138fa5782516138f3576001600160a01b0385163b6138f35760405162461bcd60e51b815260206004820152601d60248201527f416464726573733a2063616c6c20746f206e6f6e2d636f6e747261637400000060448201526064016108a1565b50816132f8565b6132f8838381511561390f5781518083602001fd5b8060405162461bcd60e51b81526004016108a1919061456b565b6040518061010001604052806000815260200161394461397f565b81526020016060815260200160006001600160a01b031681526020016000815260200160008152602001600081526020016000151581525090565b604051806101c001604052806000815260200160006001600160a01b031681526020016000815260200160008152602001600081526020016000815260200160006001600160a01b03168152602001600060068111156139e1576139e1613d55565b8152602001606081526020016000815260200160008152602001600060ff16815260200160006001600160a01b0316815260200160006001600160a01b031681525090565b60008060408385031215613a3957600080fd5b50508035926020909101359150565b6001600160a01b0381168114610a6b57600080fd5b60008060408385031215613a7057600080fd5b8235613a7b81613a48565b946020939093013593505050565b600060208284031215613a9b57600080fd5b5035919050565b600080600080600060a08688031215613aba57600080fd5b8535613ac581613a48565b94506020860135613ad581613a48565b93506040860135613ae581613a48565b92506060860135613af581613a48565b91506080860135613b0581613a48565b809150509295509295909350565b600060208284031215613b2557600080fd5b813561195081613a48565b600080600060608486031215613b4557600080fd5b83359250602084013591506040840135613b5e81613a48565b809150509250925092565b6020808252825182820181905260009190848201906040850190845b81811015613ba157835183529284019291840191600101613b85565b50909695505050505050565b60008060408385031215613bc057600080fd5b823591506020830135613bd281613a48565b809150509250929050565b600081518084526020808501945080840160005b83811015613c38578151805161ffff9081168952848201518116858a0152604080830151909116908901526060908101519088015260809096019590820190600101613bf1565b509495945050505050565b600060a08201878352602060a08185015281885180845260c086019150828a01935060005b81811015613c8f578451805184528401518484015293830193604090920191600101613c68565b50508481036040860152613ca38189613bdd565b606086019790975250505050608001529392505050565b600080600060608486031215613ccf57600080fd5b8335613cda81613a48565b92506020840135613cea81613a48565b929592945050506040919091013590565b61ffff81168114610a6b57600080fd5b60008060008060808587031215613d2157600080fd5b843593506020850135613d3381613a48565b9250604085013591506060850135613d4a81613cfb565b939692955090935050565b634e487b7160e01b600052602160045260246000fd5b60078110613d8957634e487b7160e01b600052602160045260246000fd5b9052565b60005b83811015613da8578181015183820152602001613d90565b83811115611e465750506000910152565b60008151808452613dd1816020860160208601613d8d565b601f01601f19169290920160200192915050565b6020815260006101208351602084015260208401516101008060408601528151838601526020820151610140613e25818801836001600160a01b03169052565b6040840151610160888101919091526060850151610180808a019190915260808601516101a0808b019190915260a08701516101c0808c019190915260c08801516001600160a01b03166101e08c015260e08801519550613e8a6102008c0187613d6b565b868801519550806102208c015250613ea66102e08b0186613db9565b978701516102408b0152928601516102608a01529085015160ff166102808901528401516001600160a01b039081166102a089015290840151166102c0870152506040860151858403601f1901606087015292613f038185613bdd565b93505060608601519150613f2260808601836001600160a01b03169052565b608086015160a086015260a086015160c086015260c086015160e086015260e08601519150613f548186018315159052565b5090949350505050565b600060208284031215613f7057600080fd5b8151801515811461195057600080fd5b8051613f8b81613a48565b919050565b60008060408385031215613fa357600080fd5b8251613fae81613a48565b6020939093015192949293505050565b634e487b7160e01b600052604160045260246000fd5b6040516101c0810167ffffffffffffffff81118282101715613ff857613ff8613fbe565b60405290565b6040516080810167ffffffffffffffff81118282101715613ff857613ff8613fbe565b6040805190810167ffffffffffffffff81118282101715613ff857613ff8613fbe565b604051601f8201601f1916810167ffffffffffffffff8111828210171561406d5761406d613fbe565b604052919050565b805160078110613f8b57600080fd5b600082601f83011261409557600080fd5b815167ffffffffffffffff8111156140af576140af613fbe565b6140c2601f8201601f1916602001614044565b8181528460208386010111156140d757600080fd5b6132f8826020830160208701613d8d565b805160ff81168114613f8b57600080fd5b60006101c0828403121561410c57600080fd5b614114613fd4565b90508151815261412660208301613f80565b602082015260408201516040820152606082015160608201526080820151608082015260a082015160a082015261415f60c08301613f80565b60c082015261417060e08301614075565b60e08201526101008083015167ffffffffffffffff81111561419157600080fd5b61419d85828601614084565b8284015250506101208083015181830152506101408083015181830152506101606141c98184016140e8565b908201526101806141db838201613f80565b908201526101a06141ed838201613f80565b9082015292915050565b60006020828403121561420957600080fd5b815167ffffffffffffffff81111561422057600080fd5b6132f8848285016140f9565b60006020828403121561423e57600080fd5b5051919050565b600067ffffffffffffffff82111561425f5761425f613fbe565b5060051b60200190565b600082601f83011261427a57600080fd5b8151602061428f61428a83614245565b614044565b82815260079290921b840181019181810190868411156142ae57600080fd5b8286015b8481101561431c57608081890312156142cb5760008081fd5b6142d3613ffe565b81516142de81613cfb565b8152818501516142ed81613cfb565b8186015260408281015161430081613cfb565b90820152606082810151908201528352918301916080016142b2565b509695505050505050565b600080600080600060a0868803121561433f57600080fd5b8551945060208087015167ffffffffffffffff8082111561435f57600080fd5b818901915089601f83011261437357600080fd5b815161438161428a82614245565b81815260069190911b8301840190848101908c8311156143a057600080fd5b938501935b828510156143e3576040858e0312156143be5760008081fd5b6143c6614021565b8551815286860151878201528252604090940193908501906143a5565b60408c015190995094505050808311156143fc57600080fd5b505061440a88828901614269565b606088015160809098015196999598509695949350505050565b6000806040838503121561443757600080fd5b505080516020909101519092909150565b6000806000806080858703121561445e57600080fd5b845167ffffffffffffffff8082111561447657600080fd5b614482888389016140f9565b9550602087015191508082111561449857600080fd5b506144a587828801614269565b604087015160609097015195989097509350505050565b610100810161271982846001600160a01b0380825116835280602083015116602084015262ffffff60408301511660408401528060608301511660608401526080820151608084015260a082015160a084015260c082015160c08401528060e08301511660e0840152505050565b60008282101561454a57634e487b7160e01b600052601160045260246000fd5b500390565b60008251614561818460208701613d8d565b9190910192915050565b6020815260006119506020830184613db956fe50726f64756374696f6e20646f6573206e6f7420657869737400000000000000a26469706673582212203b5b613f0fadf44af9e2292fc4b301c266606f622cffbb39da2542b00056f75b64736f6c63430008090033",
  "devdoc": {
    "custom:security-contact": "info@staxe.io",
    "kind": "dev",
    "methods": {
      "constructor": {
        "custom:oz-upgrades-unsafe-allow": "constructor"
      },
      "owner()": {
        "details": "Returns the address of the current owner."
      },
      "renounceOwnership()": {
        "details": "Leaves the contract without owner. It will not be possible to call `onlyOwner` functions anymore. Can only be called by the current owner. NOTE: Renouncing ownership will leave the contract without an owner, thereby removing any functionality that is only available to the owner."
      },
      "transferOwnership(address)": {
        "details": "Transfers ownership of the contract to a new account (`newOwner`). Can only be called by the current owner."
      }
    },
    "version": 1
  },
  "userdoc": {
    "kind": "user",
    "methods": {},
    "version": 1
  },
  "storageLayout": {
    "storage": [
      {
        "astId": 804,
        "contract": "contracts/v3/StaxeProductionsV3.sol:StaxeProductionsV3",
        "label": "_initialized",
        "offset": 0,
        "slot": "0",
        "type": "t_uint8"
      },
      {
        "astId": 807,
        "contract": "contracts/v3/StaxeProductionsV3.sol:StaxeProductionsV3",
        "label": "_initializing",
        "offset": 1,
        "slot": "0",
        "type": "t_bool"
      },
      {
        "astId": 3946,
        "contract": "contracts/v3/StaxeProductionsV3.sol:StaxeProductionsV3",
        "label": "__gap",
        "offset": 0,
        "slot": "1",
        "type": "t_array(t_uint256)50_storage"
      },
      {
        "astId": 796,
        "contract": "contracts/v3/StaxeProductionsV3.sol:StaxeProductionsV3",
        "label": "__gap",
        "offset": 0,
        "slot": "51",
        "type": "t_array(t_uint256)50_storage"
      },
      {
        "astId": 589,
        "contract": "contracts/v3/StaxeProductionsV3.sol:StaxeProductionsV3",
        "label": "_owner",
        "offset": 0,
        "slot": "101",
        "type": "t_address"
      },
      {
        "astId": 709,
        "contract": "contracts/v3/StaxeProductionsV3.sol:StaxeProductionsV3",
        "label": "__gap",
        "offset": 0,
        "slot": "102",
        "type": "t_array(t_uint256)49_storage"
      },
      {
        "astId": 1107,
        "contract": "contracts/v3/StaxeProductionsV3.sol:StaxeProductionsV3",
        "label": "_status",
        "offset": 0,
        "slot": "151",
        "type": "t_uint256"
      },
      {
        "astId": 1165,
        "contract": "contracts/v3/StaxeProductionsV3.sol:StaxeProductionsV3",
        "label": "__gap",
        "offset": 0,
        "slot": "152",
        "type": "t_array(t_uint256)49_storage"
      },
      {
        "astId": 17776,
        "contract": "contracts/v3/StaxeProductionsV3.sol:StaxeProductionsV3",
        "label": "tokenIds",
        "offset": 0,
        "slot": "201",
        "type": "t_struct(Counter)3953_storage"
      },
      {
        "astId": 17780,
        "contract": "contracts/v3/StaxeProductionsV3.sol:StaxeProductionsV3",
        "label": "trustedEscrowFactories",
        "offset": 0,
        "slot": "202",
        "type": "t_mapping(t_address,t_bool)"
      },
      {
        "astId": 17784,
        "contract": "contracts/v3/StaxeProductionsV3.sol:StaxeProductionsV3",
        "label": "trustedErc20Coins",
        "offset": 0,
        "slot": "203",
        "type": "t_mapping(t_address,t_bool)"
      },
      {
        "astId": 17795,
        "contract": "contracts/v3/StaxeProductionsV3.sol:StaxeProductionsV3",
        "label": "productionEscrows",
        "offset": 0,
        "slot": "204",
        "type": "t_mapping(t_uint256,t_struct(Escrow)20132_storage)"
      },
      {
        "astId": 17800,
        "contract": "contracts/v3/StaxeProductionsV3.sol:StaxeProductionsV3",
        "label": "productionIdsByOwner",
        "offset": 0,
        "slot": "205",
        "type": "t_mapping(t_address,t_array(t_uint256)dyn_storage)"
      },
      {
        "astId": 17803,
        "contract": "contracts/v3/StaxeProductionsV3.sol:StaxeProductionsV3",
        "label": "productionToken",
        "offset": 0,
        "slot": "206",
        "type": "t_contract(IProductionTokenV3)20075"
      },
      {
        "astId": 17806,
        "contract": "contracts/v3/StaxeProductionsV3.sol:StaxeProductionsV3",
        "label": "members",
        "offset": 0,
        "slot": "207",
        "type": "t_contract(IMembersV3)19737"
      },
      {
        "astId": 17808,
        "contract": "contracts/v3/StaxeProductionsV3.sol:StaxeProductionsV3",
        "label": "treasury",
        "offset": 0,
        "slot": "208",
        "type": "t_address"
      },
      {
        "astId": 17811,
        "contract": "contracts/v3/StaxeProductionsV3.sol:StaxeProductionsV3",
        "label": "nativeWrapper",
        "offset": 0,
        "slot": "209",
        "type": "t_contract(IWETH)20482"
      },
      {
        "astId": 17813,
        "contract": "contracts/v3/StaxeProductionsV3.sol:StaxeProductionsV3",
        "label": "relayer",
        "offset": 0,
        "slot": "210",
        "type": "t_address"
      }
    ],
    "types": {
      "t_address": {
        "encoding": "inplace",
        "label": "address",
        "numberOfBytes": "20"
      },
      "t_array(t_uint256)49_storage": {
        "base": "t_uint256",
        "encoding": "inplace",
        "label": "uint256[49]",
        "numberOfBytes": "1568"
      },
      "t_array(t_uint256)50_storage": {
        "base": "t_uint256",
        "encoding": "inplace",
        "label": "uint256[50]",
        "numberOfBytes": "1600"
      },
      "t_array(t_uint256)dyn_storage": {
        "base": "t_uint256",
        "encoding": "dynamic_array",
        "label": "uint256[]",
        "numberOfBytes": "32"
      },
      "t_bool": {
        "encoding": "inplace",
        "label": "bool",
        "numberOfBytes": "1"
      },
      "t_contract(IMembersV3)19737": {
        "encoding": "inplace",
        "label": "contract IMembersV3",
        "numberOfBytes": "20"
      },
      "t_contract(IProductionEscrowV3)20029": {
        "encoding": "inplace",
        "label": "contract IProductionEscrowV3",
        "numberOfBytes": "20"
      },
      "t_contract(IProductionTokenV3)20075": {
        "encoding": "inplace",
        "label": "contract IProductionTokenV3",
        "numberOfBytes": "20"
      },
      "t_contract(IWETH)20482": {
        "encoding": "inplace",
        "label": "contract IWETH",
        "numberOfBytes": "20"
      },
      "t_mapping(t_address,t_array(t_uint256)dyn_storage)": {
        "encoding": "mapping",
        "key": "t_address",
        "label": "mapping(address => uint256[])",
        "numberOfBytes": "32",
        "value": "t_array(t_uint256)dyn_storage"
      },
      "t_mapping(t_address,t_bool)": {
        "encoding": "mapping",
        "key": "t_address",
        "label": "mapping(address => bool)",
        "numberOfBytes": "32",
        "value": "t_bool"
      },
      "t_mapping(t_uint256,t_struct(Escrow)20132_storage)": {
        "encoding": "mapping",
        "key": "t_uint256",
        "label": "mapping(uint256 => struct IProductionsV3.Escrow)",
        "numberOfBytes": "32",
        "value": "t_struct(Escrow)20132_storage"
      },
      "t_struct(Counter)3953_storage": {
        "encoding": "inplace",
        "label": "struct CountersUpgradeable.Counter",
        "members": [
          {
            "astId": 3952,
            "contract": "contracts/v3/StaxeProductionsV3.sol:StaxeProductionsV3",
            "label": "_value",
            "offset": 0,
            "slot": "0",
            "type": "t_uint256"
          }
        ],
        "numberOfBytes": "32"
      },
      "t_struct(Escrow)20132_storage": {
        "encoding": "inplace",
        "label": "struct IProductionsV3.Escrow",
        "members": [
          {
            "astId": 20128,
            "contract": "contracts/v3/StaxeProductionsV3.sol:StaxeProductionsV3",
            "label": "id",
            "offset": 0,
            "slot": "0",
            "type": "t_uint256"
          },
          {
            "astId": 20131,
            "contract": "contracts/v3/StaxeProductionsV3.sol:StaxeProductionsV3",
            "label": "escrow",
            "offset": 0,
            "slot": "1",
            "type": "t_contract(IProductionEscrowV3)20029"
          }
        ],
        "numberOfBytes": "64"
      },
      "t_uint256": {
        "encoding": "inplace",
        "label": "uint256",
        "numberOfBytes": "32"
      },
      "t_uint8": {
        "encoding": "inplace",
        "label": "uint8",
        "numberOfBytes": "1"
      }
    }
  }
}