{
  "address": "0xdAAef88CFA8FB60D7EDC51Ba47a66B63e5419e12",
  "abi": [
    {
      "inputs": [
        {
          "internalType": "address",
          "name": "trustedForwarder",
          "type": "address"
        }
      ],
      "stateMutability": "nonpayable",
      "type": "constructor"
    },
    {
      "anonymous": false,
      "inputs": [
        {
          "indexed": true,
          "internalType": "uint256",
          "name": "id",
          "type": "uint256"
        },
        {
          "indexed": true,
          "internalType": "address",
          "name": "buyer",
          "type": "address"
        },
        {
          "indexed": false,
          "internalType": "uint256",
          "name": "amount",
          "type": "uint256"
        },
        {
          "indexed": false,
          "internalType": "uint256",
          "name": "platformShare",
          "type": "uint256"
        }
      ],
      "name": "FundingClaimed",
      "type": "event"
    },
    {
      "anonymous": false,
      "inputs": [
        {
          "indexed": false,
          "internalType": "uint8",
          "name": "version",
          "type": "uint8"
        }
      ],
      "name": "Initialized",
      "type": "event"
    },
    {
      "anonymous": false,
      "inputs": [
        {
          "indexed": true,
          "internalType": "address",
          "name": "previousOwner",
          "type": "address"
        },
        {
          "indexed": true,
          "internalType": "address",
          "name": "newOwner",
          "type": "address"
        }
      ],
      "name": "OwnershipTransferred",
      "type": "event"
    },
    {
      "anonymous": false,
      "inputs": [
        {
          "indexed": true,
          "internalType": "uint256",
          "name": "id",
          "type": "uint256"
        },
        {
          "indexed": true,
          "internalType": "address",
          "name": "buyer",
          "type": "address"
        },
        {
          "indexed": false,
          "internalType": "uint256",
          "name": "amount",
          "type": "uint256"
        }
      ],
      "name": "ProceedsClaimed",
      "type": "event"
    },
    {
      "anonymous": false,
      "inputs": [
        {
          "indexed": true,
          "internalType": "uint256",
          "name": "id",
          "type": "uint256"
        },
        {
          "indexed": true,
          "internalType": "address",
          "name": "creator",
          "type": "address"
        },
        {
          "indexed": false,
          "internalType": "uint256",
          "name": "amount",
          "type": "uint256"
        }
      ],
      "name": "ProceedsDeposited",
      "type": "event"
    },
    {
      "anonymous": false,
      "inputs": [
        {
          "indexed": true,
          "internalType": "uint256",
          "name": "id",
          "type": "uint256"
        },
        {
          "indexed": true,
          "internalType": "address",
          "name": "creator",
          "type": "address"
        },
        {
          "indexed": false,
          "internalType": "uint256",
          "name": "tokenSupply",
          "type": "uint256"
        },
        {
          "indexed": false,
          "internalType": "address",
          "name": "escrow",
          "type": "address"
        }
      ],
      "name": "ProductionMinted",
      "type": "event"
    },
    {
      "anonymous": false,
      "inputs": [
        {
          "indexed": true,
          "internalType": "uint256",
          "name": "id",
          "type": "uint256"
        },
        {
          "indexed": true,
          "internalType": "address",
          "name": "buyer",
          "type": "address"
        },
        {
          "indexed": false,
          "internalType": "uint256",
          "name": "amount",
          "type": "uint256"
        },
        {
          "indexed": false,
          "internalType": "uint256",
          "name": "price",
          "type": "uint256"
        },
        {
          "indexed": false,
          "internalType": "uint16",
          "name": "perkClaimed",
          "type": "uint16"
        }
      ],
      "name": "TokenBought",
      "type": "event"
    },
    {
      "inputs": [
        {
          "internalType": "address",
          "name": "trustedErc20Coin",
          "type": "address"
        }
      ],
      "name": "addTrustedErc20Coin",
      "outputs": [],
      "stateMutability": "nonpayable",
      "type": "function"
    },
    {
      "inputs": [
        {
          "internalType": "address",
          "name": "trustedEscrowFactory",
          "type": "address"
        }
      ],
      "name": "addTrustedEscrowFactory",
      "outputs": [],
      "stateMutability": "nonpayable",
      "type": "function"
    },
    {
      "inputs": [
        {
          "internalType": "uint256",
          "name": "id",
          "type": "uint256"
        }
      ],
      "name": "approve",
      "outputs": [],
      "stateMutability": "nonpayable",
      "type": "function"
    },
    {
      "inputs": [
        {
          "internalType": "uint256",
          "name": "id",
          "type": "uint256"
        },
        {
          "internalType": "address",
          "name": "buyer",
          "type": "address"
        },
        {
          "internalType": "uint256",
          "name": "amount",
          "type": "uint256"
        },
        {
          "internalType": "uint16",
          "name": "perk",
          "type": "uint16"
        }
      ],
      "name": "buyTokensWithCurrency",
      "outputs": [],
      "stateMutability": "payable",
      "type": "function"
    },
    {
      "inputs": [
        {
          "internalType": "uint256",
          "name": "id",
          "type": "uint256"
        },
        {
          "internalType": "address",
          "name": "buyer",
          "type": "address"
        },
        {
          "internalType": "uint256",
          "name": "amount",
          "type": "uint256"
        },
        {
          "internalType": "uint16",
          "name": "perk",
          "type": "uint16"
        }
      ],
      "name": "buyTokensWithFiat",
      "outputs": [],
      "stateMutability": "nonpayable",
      "type": "function"
    },
    {
      "inputs": [
        {
          "internalType": "uint256",
          "name": "id",
          "type": "uint256"
        },
        {
          "internalType": "address",
          "name": "buyer",
          "type": "address"
        },
        {
          "internalType": "uint256",
          "name": "amount",
          "type": "uint256"
        },
        {
          "internalType": "uint16",
          "name": "perk",
          "type": "uint16"
        }
      ],
      "name": "buyTokensWithTokens",
      "outputs": [],
      "stateMutability": "nonpayable",
      "type": "function"
    },
    {
      "inputs": [
        {
          "internalType": "uint256",
          "name": "id",
          "type": "uint256"
        },
        {
          "internalType": "uint256",
          "name": "newCloseDate",
          "type": "uint256"
        }
      ],
      "name": "cancel",
      "outputs": [],
      "stateMutability": "nonpayable",
      "type": "function"
    },
    {
      "inputs": [
        {
          "internalType": "uint256",
          "name": "id",
          "type": "uint256"
        }
      ],
      "name": "close",
      "outputs": [],
      "stateMutability": "nonpayable",
      "type": "function"
    },
    {
      "inputs": [
        {
          "internalType": "uint256",
          "name": "id",
          "type": "uint256"
        }
      ],
      "name": "decline",
      "outputs": [],
      "stateMutability": "nonpayable",
      "type": "function"
    },
    {
      "inputs": [
        {
          "internalType": "uint256",
          "name": "id",
          "type": "uint256"
        }
      ],
      "name": "depositProceedsInCurrency",
      "outputs": [],
      "stateMutability": "payable",
      "type": "function"
    },
    {
      "inputs": [
        {
          "internalType": "uint256",
          "name": "id",
          "type": "uint256"
        },
        {
          "internalType": "uint256",
          "name": "amount",
          "type": "uint256"
        }
      ],
      "name": "depositProceedsInTokens",
      "outputs": [],
      "stateMutability": "nonpayable",
      "type": "function"
    },
    {
      "inputs": [
        {
          "internalType": "uint256",
          "name": "id",
          "type": "uint256"
        }
      ],
      "name": "finishCrowdsale",
      "outputs": [],
      "stateMutability": "nonpayable",
      "type": "function"
    },
    {
      "inputs": [
        {
          "internalType": "uint256",
          "name": "id",
          "type": "uint256"
        }
      ],
      "name": "getProduction",
      "outputs": [
        {
          "components": [
            {
              "internalType": "uint256",
              "name": "id",
              "type": "uint256"
            },
            {
              "components": [
                {
                  "internalType": "uint256",
                  "name": "id",
                  "type": "uint256"
                },
                {
                  "internalType": "address",
                  "name": "creator",
                  "type": "address"
                },
                {
                  "internalType": "uint256",
                  "name": "totalSupply",
                  "type": "uint256"
                },
                {
                  "internalType": "uint256",
                  "name": "organizerTokens",
                  "type": "uint256"
                },
                {
                  "internalType": "uint256",
                  "name": "soldCounter",
                  "type": "uint256"
                },
                {
                  "internalType": "uint256",
                  "name": "maxTokensUnknownBuyer",
                  "type": "uint256"
                },
                {
                  "internalType": "contract IERC20Upgradeable",
                  "name": "currency",
                  "type": "address"
                },
                {
                  "internalType": "enum IProductionEscrowV3.ProductionState",
                  "name": "state",
                  "type": "uint8"
                },
                {
                  "internalType": "string",
                  "name": "dataHash",
                  "type": "string"
                },
                {
                  "internalType": "uint256",
                  "name": "crowdsaleEndDate",
                  "type": "uint256"
                },
                {
                  "internalType": "uint256",
                  "name": "productionEndDate",
                  "type": "uint256"
                },
                {
                  "internalType": "uint8",
                  "name": "platformSharePercentage",
                  "type": "uint8"
                },
                {
                  "internalType": "contract IPerkTrackerV3",
                  "name": "perkTracker",
                  "type": "address"
                },
                {
                  "internalType": "contract IPriceCalculationEngineV3",
                  "name": "priceCalculationEngine",
                  "type": "address"
                }
              ],
              "internalType": "struct IProductionEscrowV3.ProductionData",
              "name": "data",
              "type": "tuple"
            },
            {
              "components": [
                {
                  "internalType": "uint16",
                  "name": "id",
                  "type": "uint16"
                },
                {
                  "internalType": "uint16",
                  "name": "total",
                  "type": "uint16"
                },
                {
                  "internalType": "uint16",
                  "name": "claimed",
                  "type": "uint16"
                },
                {
                  "internalType": "uint256",
                  "name": "minTokensRequired",
                  "type": "uint256"
                }
              ],
              "internalType": "struct IProductionEscrowV3.Perk[]",
              "name": "perks",
              "type": "tuple[]"
            },
            {
              "internalType": "contract IProductionEscrowV3",
              "name": "escrow",
              "type": "address"
            },
            {
              "internalType": "uint256",
              "name": "fundsRaised",
              "type": "uint256"
            },
            {
              "internalType": "uint256",
              "name": "proceedsEarned",
              "type": "uint256"
            },
            {
              "internalType": "uint256",
              "name": "escrowBalance",
              "type": "uint256"
            },
            {
              "internalType": "bool",
              "name": "paused",
              "type": "bool"
            }
          ],
          "internalType": "struct IProductionsV3.Production",
          "name": "",
          "type": "tuple"
        }
      ],
      "stateMutability": "view",
      "type": "function"
    },
    {
      "inputs": [
        {
          "internalType": "address",
          "name": "creator",
          "type": "address"
        }
      ],
      "name": "getProductionIdsByCreator",
      "outputs": [
        {
          "internalType": "uint256[]",
          "name": "",
          "type": "uint256[]"
        }
      ],
      "stateMutability": "view",
      "type": "function"
    },
    {
      "inputs": [
        {
          "internalType": "uint256",
          "name": "id",
          "type": "uint256"
        },
        {
          "internalType": "address",
          "name": "tokenOwner",
          "type": "address"
        }
      ],
      "name": "getTokenOwnerData",
      "outputs": [
        {
          "internalType": "uint256",
          "name": "balance",
          "type": "uint256"
        },
        {
          "components": [
            {
              "internalType": "uint256",
              "name": "tokens",
              "type": "uint256"
            },
            {
              "internalType": "uint256",
              "name": "price",
              "type": "uint256"
            }
          ],
          "internalType": "struct IProductionEscrowV3.Purchase[]",
          "name": "purchases",
          "type": "tuple[]"
        },
        {
          "components": [
            {
              "internalType": "uint16",
              "name": "id",
              "type": "uint16"
            },
            {
              "internalType": "uint16",
              "name": "total",
              "type": "uint16"
            },
            {
              "internalType": "uint16",
              "name": "claimed",
              "type": "uint16"
            },
            {
              "internalType": "uint256",
              "name": "minTokensRequired",
              "type": "uint256"
            }
          ],
          "internalType": "struct IProductionEscrowV3.Perk[]",
          "name": "perksOwned",
          "type": "tuple[]"
        },
        {
          "internalType": "uint256",
          "name": "proceedsClaimed",
          "type": "uint256"
        },
        {
          "internalType": "uint256",
          "name": "proceedsAvailable",
          "type": "uint256"
        }
      ],
      "stateMutability": "view",
      "type": "function"
    },
    {
      "inputs": [
        {
          "internalType": "uint256",
          "name": "id",
          "type": "uint256"
        },
        {
          "internalType": "uint256",
          "name": "amount",
          "type": "uint256"
        }
      ],
      "name": "getTokenPrice",
      "outputs": [
        {
          "internalType": "contract IERC20Upgradeable",
          "name": "",
          "type": "address"
        },
        {
          "internalType": "uint256",
          "name": "",
          "type": "uint256"
        }
      ],
      "stateMutability": "view",
      "type": "function"
    },
    {
      "inputs": [
        {
          "internalType": "uint256",
          "name": "id",
          "type": "uint256"
        },
        {
          "internalType": "uint256",
          "name": "amount",
          "type": "uint256"
        },
        {
          "internalType": "address",
          "name": "buyer",
          "type": "address"
        }
      ],
      "name": "getTokenPriceFor",
      "outputs": [
        {
          "internalType": "contract IERC20Upgradeable",
          "name": "",
          "type": "address"
        },
        {
          "internalType": "uint256",
          "name": "",
          "type": "uint256"
        }
      ],
      "stateMutability": "view",
      "type": "function"
    },
    {
      "inputs": [
        {
          "internalType": "contract IProductionTokenV3",
          "name": "_productionToken",
          "type": "address"
        },
        {
          "internalType": "contract IMembersV3",
          "name": "_members",
          "type": "address"
        },
        {
          "internalType": "contract IWETH",
          "name": "_nativeWrapper",
          "type": "address"
        },
        {
          "internalType": "address",
          "name": "_treasury",
          "type": "address"
        },
        {
          "internalType": "address",
          "name": "_relayer",
          "type": "address"
        }
      ],
      "name": "initialize",
      "outputs": [],
      "stateMutability": "nonpayable",
      "type": "function"
    },
    {
      "inputs": [
        {
          "internalType": "address",
          "name": "candidate",
          "type": "address"
        }
      ],
      "name": "isTrustedErc20Token",
      "outputs": [
        {
          "internalType": "bool",
          "name": "",
          "type": "bool"
        }
      ],
      "stateMutability": "view",
      "type": "function"
    },
    {
      "inputs": [
        {
          "internalType": "address",
          "name": "forwarder",
          "type": "address"
        }
      ],
      "name": "isTrustedForwarder",
      "outputs": [
        {
          "internalType": "bool",
          "name": "",
          "type": "bool"
        }
      ],
      "stateMutability": "view",
      "type": "function"
    },
    {
      "inputs": [],
      "name": "members",
      "outputs": [
        {
          "internalType": "contract IMembersV3",
          "name": "",
          "type": "address"
        }
      ],
      "stateMutability": "view",
      "type": "function"
    },
    {
      "inputs": [
        {
          "internalType": "contract IProductionEscrowV3",
          "name": "escrow",
          "type": "address"
        },
        {
          "internalType": "address",
          "name": "creator",
          "type": "address"
        },
        {
          "internalType": "uint256",
          "name": "totalAmount",
          "type": "uint256"
        }
      ],
      "name": "mintProduction",
      "outputs": [
        {
          "internalType": "uint256",
          "name": "id",
          "type": "uint256"
        }
      ],
      "stateMutability": "nonpayable",
      "type": "function"
    },
    {
      "inputs": [],
      "name": "nativeWrapper",
      "outputs": [
        {
          "internalType": "contract IWETH",
          "name": "",
          "type": "address"
        }
      ],
      "stateMutability": "view",
      "type": "function"
    },
    {
      "inputs": [],
      "name": "owner",
      "outputs": [
        {
          "internalType": "address",
          "name": "",
          "type": "address"
        }
      ],
      "stateMutability": "view",
      "type": "function"
    },
    {
      "inputs": [
        {
          "internalType": "uint256",
          "name": "id",
          "type": "uint256"
        }
      ],
      "name": "pause",
      "outputs": [],
      "stateMutability": "nonpayable",
      "type": "function"
    },
    {
      "inputs": [
        {
          "internalType": "uint256",
          "name": "",
          "type": "uint256"
        }
      ],
      "name": "productionEscrows",
      "outputs": [
        {
          "internalType": "uint256",
          "name": "id",
          "type": "uint256"
        },
        {
          "internalType": "contract IProductionEscrowV3",
          "name": "escrow",
          "type": "address"
        }
      ],
      "stateMutability": "view",
      "type": "function"
    },
    {
      "inputs": [
        {
          "internalType": "address",
          "name": "",
          "type": "address"
        },
        {
          "internalType": "uint256",
          "name": "",
          "type": "uint256"
        }
      ],
      "name": "productionIdsByOwner",
      "outputs": [
        {
          "internalType": "uint256",
          "name": "",
          "type": "uint256"
        }
      ],
      "stateMutability": "view",
      "type": "function"
    },
    {
      "inputs": [],
      "name": "productionToken",
      "outputs": [
        {
          "internalType": "contract IProductionTokenV3",
          "name": "",
          "type": "address"
        }
      ],
      "stateMutability": "view",
      "type": "function"
    },
    {
      "inputs": [
        {
          "internalType": "address",
          "name": "invalidAddress",
          "type": "address"
        }
      ],
      "name": "removeTrustedErc20Coin",
      "outputs": [],
      "stateMutability": "nonpayable",
      "type": "function"
    },
    {
      "inputs": [
        {
          "internalType": "address",
          "name": "invalidAddress",
          "type": "address"
        }
      ],
      "name": "removeTrustedEscrowFactory",
      "outputs": [],
      "stateMutability": "nonpayable",
      "type": "function"
    },
    {
      "inputs": [],
      "name": "renounceOwnership",
      "outputs": [],
      "stateMutability": "nonpayable",
      "type": "function"
    },
    {
      "inputs": [],
      "name": "router",
      "outputs": [
        {
          "internalType": "contract ISwapRouter",
          "name": "",
          "type": "address"
        }
      ],
      "stateMutability": "view",
      "type": "function"
    },
    {
      "inputs": [
        {
          "internalType": "address",
          "name": "_relayer",
          "type": "address"
        }
      ],
      "name": "setRelayer",
      "outputs": [],
      "stateMutability": "nonpayable",
      "type": "function"
    },
    {
      "inputs": [
        {
          "internalType": "uint256",
          "name": "id",
          "type": "uint256"
        }
      ],
      "name": "transferFunding",
      "outputs": [],
      "stateMutability": "nonpayable",
      "type": "function"
    },
    {
      "inputs": [
        {
          "internalType": "address",
          "name": "newOwner",
          "type": "address"
        }
      ],
      "name": "transferOwnership",
      "outputs": [],
      "stateMutability": "nonpayable",
      "type": "function"
    },
    {
      "inputs": [
        {
          "internalType": "uint256",
          "name": "id",
          "type": "uint256"
        }
      ],
      "name": "transferProceeds",
      "outputs": [],
      "stateMutability": "nonpayable",
      "type": "function"
    },
    {
      "inputs": [],
      "name": "treasury",
      "outputs": [
        {
          "internalType": "address",
          "name": "",
          "type": "address"
        }
      ],
      "stateMutability": "view",
      "type": "function"
    },
    {
      "inputs": [
        {
          "internalType": "address",
          "name": "",
          "type": "address"
        }
      ],
      "name": "trustedErc20Coins",
      "outputs": [
        {
          "internalType": "bool",
          "name": "",
          "type": "bool"
        }
      ],
      "stateMutability": "view",
      "type": "function"
    },
    {
      "inputs": [
        {
          "internalType": "address",
          "name": "",
          "type": "address"
        }
      ],
      "name": "trustedEscrowFactories",
      "outputs": [
        {
          "internalType": "bool",
          "name": "",
          "type": "bool"
        }
      ],
      "stateMutability": "view",
      "type": "function"
    },
    {
      "inputs": [
        {
          "internalType": "uint256",
          "name": "id",
          "type": "uint256"
        }
      ],
      "name": "unpause",
      "outputs": [],
      "stateMutability": "nonpayable",
      "type": "function"
    },
    {
      "stateMutability": "payable",
      "type": "receive"
    }
  ],
  "transactionHash": "0x5319f18f7d827f45a90b6dc68e5341fb6d26d4135e1e3ea4ce3378fec176200a",
  "args": [
    "0xFAeD55c1A54525bcf6a91e59D86577088E4db77D"
  ],
  "numDeployments": 1,
  "solcInputHash": "d6de8f2af357cf894957ed518c63c248",
  "bytecode": "0x60a06040523480156200001157600080fd5b5060405162004e8e38038062004e8e833981016040819052620000349162000182565b6001600160a01b0381166080526200004b62000052565b50620001b4565b6200005e60ff62000061565b50565b60008054610100900460ff1615620000fa578160ff1660011480156200009a575062000098306200017360201b62002f261760201c565b155b620000f25760405162461bcd60e51b815260206004820152602e602482015260008051602062004e6e83398151915260448201526d191e481a5b9a5d1a585b1a5e995960921b60648201526084015b60405180910390fd5b506000919050565b60005460ff808416911610620001595760405162461bcd60e51b815260206004820152602e602482015260008051602062004e6e83398151915260448201526d191e481a5b9a5d1a585b1a5e995960921b6064820152608401620000e9565b506000805460ff191660ff92909216919091179055600190565b6001600160a01b03163b151590565b6000602082840312156200019557600080fd5b81516001600160a01b0381168114620001ad57600080fd5b9392505050565b608051614c97620001d7600039600081816103f30152613a8b0152614c976000f3fe60806040526004361061023e5760003560e01c80638e20d8411161012e578063c3d6de82116100ab578063f09e090b1161006f578063f09e090b1461079d578063f2fde38b146107bd578063f850d012146107dd578063f887ea401461080a578063fabc1cbc1461083257600080fd5b8063c3d6de821461070a578063c7a4a53c1461072a578063cf1213ba1461073d578063cf2626991461075d578063d3a598491461077d57600080fd5b8063b10fee08116100f2578063b10fee0814610630578063b5ff36d314610650578063b759f954146106aa578063bdd4d18d146106ca578063c0c6e16e146106ea57600080fd5b80638e20d8411461058c5780638f3cd58b146105ac57806393057ba6146105dd578063a0355f4e146105fd578063af9ab6351461061d57600080fd5b80635c7d40c6116101bc5780636fdd1064116101805780636fdd1064146104e9578063715018a61461051957806372259f1e1461052e5780637ec08d181461054e5780638da5cb5b1461056e57600080fd5b80635c7d40c61461042357806361d027b31461045c5780636548e9bc1461047c5780636dc656f21461049c5780636f265d0c146104bc57600080fd5b80631459457a116102035780631459457a1461031757806314b487aa14610337578063452c402d146103775780634b390d7f146103b6578063572b6c05146103d657600080fd5b8062efa8951461024a5780630283ae2e1461026c5780630aebeb4e1461029f5780630b48a8b8146102bf578063136439dd146102f757600080fd5b3661024557005b600080fd5b34801561025657600080fd5b5061026a6102653660046140ae565b610852565b005b34801561027857600080fd5b5061028c6102873660046140e5565b61097a565b6040519081526020015b60405180910390f35b3480156102ab57600080fd5b5061026a6102ba366004614111565b6109ab565b3480156102cb57600080fd5b5060d1546102df906001600160a01b031681565b6040516001600160a01b039091168152602001610296565b34801561030357600080fd5b5061026a610312366004614111565b610ae0565b34801561032357600080fd5b5061026a61033236600461412a565b610bc5565b34801561034357600080fd5b5061036761035236600461419b565b60ca6020526000908152604090205460ff1681565b6040519015158152602001610296565b34801561038357600080fd5b506103976103923660046141b8565b610cfc565b604080516001600160a01b039093168352602083019190915201610296565b3480156103c257600080fd5b5061026a6103d136600461419b565b610f35565b3480156103e257600080fd5b506103676103f136600461419b565b7f00000000000000000000000000000000000000000000000000000000000000006001600160a01b0390811691161490565b34801561042f57600080fd5b5061036761043e36600461419b565b6001600160a01b0316600090815260cb602052604090205460ff1690565b34801561046857600080fd5b5060d0546102df906001600160a01b031681565b34801561048857600080fd5b5061026a61049736600461419b565b610fbd565b3480156104a857600080fd5b506103976104b73660046140ae565b611046565b3480156104c857600080fd5b506104dc6104d736600461419b565b611144565b60405161029691906141f1565b3480156104f557600080fd5b5061036761050436600461419b565b60cb6020526000908152604090205460ff1681565b34801561052557600080fd5b5061026a6111b0565b34801561053a57600080fd5b5060ce546102df906001600160a01b031681565b34801561055a57600080fd5b5061026a610569366004614111565b611223565b34801561057a57600080fd5b506065546001600160a01b03166102df565b34801561059857600080fd5b5061026a6105a73660046140ae565b6112dc565b3480156105b857600080fd5b506105cc6105c7366004614235565b6115fb565b6040516102969594939291906142cb565b3480156105e957600080fd5b5061028c6105f8366004614342565b611840565b34801561060957600080fd5b5061026a610618366004614111565b611b2e565b61026a61062b366004614393565b611be7565b34801561063c57600080fd5b5061026a61064b36600461419b565b61209a565b34801561065c57600080fd5b5061068d61066b366004614111565b60cc60205260009081526040902080546001909101546001600160a01b031682565b604080519283526001600160a01b03909116602083015201610296565b3480156106b657600080fd5b5061026a6106c5366004614111565b612122565b3480156106d657600080fd5b5060cf546102df906001600160a01b031681565b3480156106f657600080fd5b5061026a61070536600461419b565b6121db565b34801561071657600080fd5b5061026a610725366004614393565b612266565b61026a610738366004614111565b61237a565b34801561074957600080fd5b5061026a610758366004614393565b6125a9565b34801561076957600080fd5b5061026a61077836600461419b565b612799565b34801561078957600080fd5b5061026a610798366004614111565b612824565b3480156107a957600080fd5b5061026a6107b8366004614111565b6129c4565b3480156107c957600080fd5b5061026a6107d836600461419b565b612b4d565b3480156107e957600080fd5b506107fd6107f8366004614111565b612c25565b604051610296919061446d565b34801561081657600080fd5b506102df73e592427a0aece92de3edee1f18e0157c0586156481565b34801561083e57600080fd5b5061026a61084d366004614111565b612e6d565b600260975414156108985760405162461bcd60e51b815260206004820152601f6024820152600080516020614c0283398151915260448201526064015b60405180910390fd5b6002609755600082815260cc602052604090205482906108e85760405162461bcd60e51b81526020600482015260196024820152600080516020614c22833981519152604482015260640161088f565b600083815260cc60205260409020600101546001600160a01b03166398590ef9610910612f35565b6040516001600160e01b031960e084901b1681526001600160a01b03909116600482015260248101859052604401600060405180830381600087803b15801561095857600080fd5b505af115801561096c573d6000803e3d6000fd5b505060016097555050505050565b60cd602052816000526040600020818154811061099657600080fd5b90600052602060002001600091509150505481565b600260975414156109ec5760405162461bcd60e51b815260206004820152601f6024820152600080516020614c02833981519152604482015260640161088f565b6002609755600081815260cc60205260409020548190610a3c5760405162461bcd60e51b81526020600482015260196024820152600080516020614c22833981519152604482015260640161088f565b600082815260cc60205260409020600101546001600160a01b0316639e6d77d0610a64612f35565b60d25460d05460405160e085901b6001600160e01b03191681526001600160a01b039384166004820152918316331460248301529190911660448201526064015b600060405180830381600087803b158015610abf57600080fd5b505af1158015610ad3573d6000803e3d6000fd5b5050600160975550505050565b60026097541415610b215760405162461bcd60e51b815260206004820152601f6024820152600080516020614c02833981519152604482015260640161088f565b6002609755600081815260cc60205260409020548190610b715760405162461bcd60e51b81526020600482015260196024820152600080516020614c22833981519152604482015260640161088f565b600082815260cc60205260409020600101546001600160a01b03166376a67a51610b99612f35565b6040516001600160e01b031960e084901b1681526001600160a01b039091166004820152602401610aa5565b6000610bd16001612f44565b90508015610be9576000805461ff0019166101001790555b610bf161305f565b610bf96130d2565b6001600160a01b038316610c4f5760405162461bcd60e51b815260206004820152601e60248201527f5472656173757279206d7573742062652076616c696420616464726573730000604482015260640161088f565b60ce80546001600160a01b03199081166001600160a01b038981169190911790925560cf8054821688841617905560d18054821687841617905560d08054821686841617905560d2805490911691841691909117905560c9805460010190558015610cf4576000805461ff0019169055604051600181527f7f26b83ff96e1f2b6a682f133852f6798a09c465da95921460cefb38474024989060200160405180910390a15b505050505050565b600083815260cc602052604081205481908590610d495760405162461bcd60e51b81526020600482015260196024820152600080516020614c22833981519152604482015260640161088f565b836001600160a01b038116610da05760405162461bcd60e51b815260206004820152601b60248201527f4275796572206d7573742062652076616c696420616464726573730000000000604482015260640161088f565b610da8612f35565b6001600160a01b0316816001600160a01b03161480610e52575060cf546001600160a01b031663cee2a9cf610ddb612f35565b6040516001600160e01b031960e084901b1681526001600160a01b03909116600482015260240160206040518083038186803b158015610e1a57600080fd5b505afa158015610e2e573d6000803e3d6000fd5b505050506040513d601f19601f82011682018060405250810190610e5291906145e6565b610e945760405162461bcd60e51b815260206004820152601360248201527224b73b30b634b2103a37b5b2b710313abcb2b960691b604482015260640161088f565b600087815260cc6020526040908190206001015490516321f8c83960e21b8152600481018890526001600160a01b038781166024830152909116906387e320e490604401604080518083038186803b158015610eef57600080fd5b505afa158015610f03573d6000803e3d6000fd5b505050506040513d601f19601f82011682018060405250810190610f279190614613565b935093505050935093915050565b610f3d612f35565b6001600160a01b0316610f586065546001600160a01b031690565b6001600160a01b031614610f9c5760405162461bcd60e51b81526020600482018190526024820152600080516020614c42833981519152604482015260640161088f565b6001600160a01b0316600090815260ca60205260409020805460ff19169055565b610fc5612f35565b6001600160a01b0316610fe06065546001600160a01b031690565b6001600160a01b0316146110245760405162461bcd60e51b81526020600482018190526024820152600080516020614c42833981519152604482015260640161088f565b60d280546001600160a01b0319166001600160a01b0392909216919091179055565b600082815260cc6020526040812054819084906110935760405162461bcd60e51b81526020600482015260196024820152600080516020614c22833981519152604482015260640161088f565b600085815260cc60205260409020600101546001600160a01b03166387e320e4856110bc612f35565b6040516001600160e01b031960e085901b16815260048101929092526001600160a01b03166024820152604401604080518083038186803b15801561110057600080fd5b505afa158015611114573d6000803e3d6000fd5b505050506040513d601f19601f820116820180604052508101906111389190614613565b92509250509250929050565b6001600160a01b038116600090815260cd60209081526040918290208054835181840281018401909452808452606093928301828280156111a457602002820191906000526020600020905b815481526020019060010190808311611190575b50505050509050919050565b6111b8612f35565b6001600160a01b03166111d36065546001600160a01b031690565b6001600160a01b0316146112175760405162461bcd60e51b81526020600482018190526024820152600080516020614c42833981519152604482015260640161088f565b6112216000613145565b565b600260975414156112645760405162461bcd60e51b815260206004820152601f6024820152600080516020614c02833981519152604482015260640161088f565b6002609755600081815260cc602052604090205481906112b45760405162461bcd60e51b81526020600482015260196024820152600080516020614c22833981519152604482015260640161088f565b600082815260cc60205260409020600101546001600160a01b031663201dfbce610a64612f35565b6002609754141561131d5760405162461bcd60e51b815260206004820152601f6024820152600080516020614c02833981519152604482015260640161088f565b6002609755600082815260cc6020526040902054829061136d5760405162461bcd60e51b81526020600482015260196024820152600080516020614c22833981519152604482015260640161088f565b600083815260cc6020526040808220600101548151639b54a81760e01b815291516001600160a01b0390911691639b54a8179160048083019286929190829003018186803b1580156113be57600080fd5b505afa1580156113d2573d6000803e3d6000fd5b505050506040513d6000823e601f3d908101601f191682016040526113fa919081019061487a565b60c08101516020820151604051636eb1769f60e11b81526001600160a01b0391821660048201523060248201529293509091859183169063dd62ed3e9060440160206040518083038186803b15801561145257600080fd5b505afa158015611466573d6000803e3d6000fd5b505050506040513d601f19601f8201168201806040525081019061148a91906148af565b10156114d85760405162461bcd60e51b815260206004820152601660248201527f496e73756666696369656e7420616c6c6f77616e636500000000000000000000604482015260640161088f565b60208201516114f3906001600160a01b038316903087613197565b600085815260cc602052604090206001015461151c906001600160a01b03838116911686613208565b600085815260cc60205260409020600101546001600160a01b031663bd55db3a611544612f35565b6040516001600160e01b031960e084901b1681526001600160a01b03909116600482015260248101879052604401600060405180830381600087803b15801561158c57600080fd5b505af11580156115a0573d6000803e3d6000fd5b505050506115ac612f35565b6001600160a01b0316857f07c5b0ee196554c56f6c71c243649abee344214e9147a7c9c81673b0f0657d51866040516115e791815260200190565b60405180910390a350506001609755505050565b600082815260cc6020526040812054606090819083908190879061164f5760405162461bcd60e51b81526020600482015260196024820152600080516020614c22833981519152604482015260640161088f565b866001600160a01b0381166116a65760405162461bcd60e51b815260206004820152601b60248201527f4275796572206d7573742062652076616c696420616464726573730000000000604482015260640161088f565b6116ae612f35565b6001600160a01b0316816001600160a01b03161480611758575060cf546001600160a01b031663cee2a9cf6116e1612f35565b6040516001600160e01b031960e084901b1681526001600160a01b03909116600482015260240160206040518083038186803b15801561172057600080fd5b505afa158015611734573d6000803e3d6000fd5b505050506040513d601f19601f8201168201806040525081019061175891906145e6565b61179a5760405162461bcd60e51b815260206004820152601360248201527224b73b30b634b2103a37b5b2b710313abcb2b960691b604482015260640161088f565b600089815260cc6020526040908190206001015490516341c0bf8d60e11b81526001600160a01b038a81166004830152909116906383817f1a9060240160006040518083038186803b1580156117ef57600080fd5b505afa158015611803573d6000803e3d6000fd5b505050506040513d6000823e601f3d908101601f1916820160405261182b91908101906149aa565b939d929c50909a509850909650945050505050565b6000600260975414156118835760405162461bcd60e51b815260206004820152601f6024820152600080516020614c02833981519152604482015260640161088f565b600260975560ca6000611894612f35565b6001600160a01b0316815260208101919091526040016000205460ff166118fd5760405162461bcd60e51b815260206004820152601860248201527f556e7472757374656420457363726f7720466163746f72790000000000000000604482015260640161088f565b60cb6000856001600160a01b0316639b54a8176040518163ffffffff1660e01b815260040160006040518083038186803b15801561193a57600080fd5b505afa15801561194e573d6000803e3d6000fd5b505050506040513d6000823e601f3d908101601f19168201604052611976919081019061487a565b60c001516001600160a01b0316815260208101919091526040016000205460ff166119e35760405162461bcd60e51b815260206004820152601360248201527f556e6b6e6f776e20455243323020746f6b656e00000000000000000000000000604482015260640161088f565b5060c954604080518381526001600160a01b03868116602083015285169183917f9d94293606bd346fb9292dbec161dbbb0a0369bfb381ecc98a5c1dd08d8b8723910160405180910390a36040805180820182528281526001600160a01b038087166020808401918252600086815260cc9091529390932091518255915160019091018054919092166001600160a01b0319909116179055611a8960c980546001019055565b60ce546040516323a36d2b60e01b81526001600160a01b0386811660048301526024820184905260448201859052909116906323a36d2b90606401600060405180830381600087803b158015611ade57600080fd5b505af1158015611af2573d6000803e3d6000fd5b5050506001600160a01b03909316600090815260cd60209081526040822080546001818101835591845291909220018290556097559392505050565b60026097541415611b6f5760405162461bcd60e51b815260206004820152601f6024820152600080516020614c02833981519152604482015260640161088f565b6002609755600081815260cc60205260409020548190611bbf5760405162461bcd60e51b81526020600482015260196024820152600080516020614c22833981519152604482015260640161088f565b600082815260cc60205260409020600101546001600160a01b03166310e29cf9610b99612f35565b60026097541415611c285760405162461bcd60e51b815260206004820152601f6024820152600080516020614c02833981519152604482015260640161088f565b6002609755600084815260cc60205260409020548490611c785760405162461bcd60e51b81526020600482015260196024820152600080516020614c22833981519152604482015260640161088f565b836001600160a01b038116611ccf5760405162461bcd60e51b815260206004820152601b60248201527f4275796572206d7573742062652076616c696420616464726573730000000000604482015260640161088f565b611cd7612f35565b6001600160a01b0316816001600160a01b03161480611d81575060cf546001600160a01b031663cee2a9cf611d0a612f35565b6040516001600160e01b031960e084901b1681526001600160a01b03909116600482015260240160206040518083038186803b158015611d4957600080fd5b505afa158015611d5d573d6000803e3d6000fd5b505050506040513d601f19601f82011682018060405250810190611d8191906145e6565b611dc35760405162461bcd60e51b815260206004820152601360248201527224b73b30b634b2103a37b5b2b710313abcb2b960691b604482015260640161088f565b60008411611e0a5760405162461bcd60e51b815260206004820152601460248201527304d757374207061737320616d6f756e74203e20360641b604482015260640161088f565b60003411611e5a5760405162461bcd60e51b815260206004820152601760248201527f4d7573742070617373206d73672e76616c7565203e2030000000000000000000604482015260640161088f565b600086815260cc602090815260409182902060010154825163aaa5ad6160e01b815292516001600160a01b0390911692839263aaa5ad6192600480840193829003018186803b158015611eac57600080fd5b505afa158015611ec0573d6000803e3d6000fd5b505050506040513d601f19601f82011682018060405250810190611ee491906148af565b851115611f335760405162461bcd60e51b815260206004820152601e60248201527f43616e6e6f7420627579206d6f7265207468616e20617661696c61626c650000604482015260640161088f565b6040516321f8c83960e21b8152600481018690526001600160a01b03878116602483015260009182918416906387e320e490604401604080518083038186803b158015611f7f57600080fd5b505afa158015611f93573d6000803e3d6000fd5b505050506040513d601f19601f82011682018060405250810190611fb79190614613565b91509150611fc682828561323d565b50604080518881526020810183905261ffff88168183015290516001600160a01b038a16918b917ffc30850f2040b53a580f146e0f19adff30f013111447180caa350a0a36f2422d9181900360600190a36040516327674bef60e21b81526001600160a01b038981166004830152602482018990526044820183905261ffff88166064830152841690639d9d2fbc90608401600060405180830381600087803b15801561207257600080fd5b505af1158015612086573d6000803e3d6000fd5b505060016097555050505050505050505050565b6120a2612f35565b6001600160a01b03166120bd6065546001600160a01b031690565b6001600160a01b0316146121015760405162461bcd60e51b81526020600482018190526024820152600080516020614c42833981519152604482015260640161088f565b6001600160a01b0316600090815260cb60205260409020805460ff19169055565b600260975414156121635760405162461bcd60e51b815260206004820152601f6024820152600080516020614c02833981519152604482015260640161088f565b6002609755600081815260cc602052604090205481906121b35760405162461bcd60e51b81526020600482015260196024820152600080516020614c22833981519152604482015260640161088f565b600082815260cc60205260409020600101546001600160a01b031663daea85c5610b99612f35565b6121e3612f35565b6001600160a01b03166121fe6065546001600160a01b031690565b6001600160a01b0316146122425760405162461bcd60e51b81526020600482018190526024820152600080516020614c42833981519152604482015260640161088f565b6001600160a01b0316600090815260ca60205260409020805460ff19166001179055565b600260975414156122a75760405162461bcd60e51b815260206004820152601f6024820152600080516020614c02833981519152604482015260640161088f565b6002609755600084815260cc602052604090205484906122f75760405162461bcd60e51b81526020600482015260196024820152600080516020614c22833981519152604482015260640161088f565b60d2546001600160a01b031633146123615760405162461bcd60e51b815260206004820152602760248201527f43616e206f6e6c792062652063616c6c65642066726f6d2074727573746564206044820152663932b630bcb2b960c91b606482015260840161088f565b61236e8584338786613451565b50506001609755505050565b600260975414156123bb5760405162461bcd60e51b815260206004820152601f6024820152600080516020614c02833981519152604482015260640161088f565b6002609755600081815260cc6020526040902054819061240b5760405162461bcd60e51b81526020600482015260196024820152600080516020614c22833981519152604482015260640161088f565b600082815260cc6020526040808220600101548151639b54a81760e01b815291516001600160a01b0390911691639b54a8179160048083019286929190829003018186803b15801561245c57600080fd5b505afa158015612470573d6000803e3d6000fd5b505050506040513d6000823e601f3d908101601f19168201604052612498919081019061487a565b60c0810151600085815260cc602052604081206001015492935090916124c89083906001600160a01b03166137c0565b90506124d2612f35565b6001600160a01b0316857f07c5b0ee196554c56f6c71c243649abee344214e9147a7c9c81673b0f0657d518360405161250d91815260200190565b60405180910390a3600085815260cc60205260409020600101546001600160a01b031663bd55db3a61253d612f35565b6040516001600160e01b031960e084901b1681526001600160a01b03909116600482015260248101849052604401600060405180830381600087803b15801561258557600080fd5b505af1158015612599573d6000803e3d6000fd5b5050600160975550505050505050565b600260975414156125ea5760405162461bcd60e51b815260206004820152601f6024820152600080516020614c02833981519152604482015260640161088f565b6002609755600084815260cc6020526040902054849061263a5760405162461bcd60e51b81526020600482015260196024820152600080516020614c22833981519152604482015260640161088f565b836001600160a01b0381166126915760405162461bcd60e51b815260206004820152601b60248201527f4275796572206d7573742062652076616c696420616464726573730000000000604482015260640161088f565b612699612f35565b6001600160a01b0316816001600160a01b03161480612743575060cf546001600160a01b031663cee2a9cf6126cc612f35565b6040516001600160e01b031960e084901b1681526001600160a01b03909116600482015260240160206040518083038186803b15801561270b57600080fd5b505afa15801561271f573d6000803e3d6000fd5b505050506040513d601f19601f8201168201806040525081019061274391906145e6565b6127855760405162461bcd60e51b815260206004820152601360248201527224b73b30b634b2103a37b5b2b710313abcb2b960691b604482015260640161088f565b610ad38685612792612f35565b8887613451565b6127a1612f35565b6001600160a01b03166127bc6065546001600160a01b031690565b6001600160a01b0316146128005760405162461bcd60e51b81526020600482018190526024820152600080516020614c42833981519152604482015260640161088f565b6001600160a01b0316600090815260cb60205260409020805460ff19166001179055565b600260975414156128655760405162461bcd60e51b815260206004820152601f6024820152600080516020614c02833981519152604482015260640161088f565b6002609755600081815260cc602052604090205481906128b55760405162461bcd60e51b81526020600482015260196024820152600080516020614c22833981519152604482015260640161088f565b600082815260cc602052604081206001015481906001600160a01b0316631d2957276128df612f35565b60d05460405160e084901b6001600160e01b03191681526001600160a01b039283166004820152911660248201526044016040805180830381600087803b15801561292957600080fd5b505af115801561293d573d6000803e3d6000fd5b505050506040513d601f19601f820116820180604052508101906129619190614aa7565b9150915061296d612f35565b6001600160a01b0316847f96c7a1d0f5191e2cdf0ba542b0283e6377d7f923f837e043c9f66fbdfcb03ff384846040516129b1929190918252602082015260400190565b60405180910390a3505060016097555050565b60026097541415612a055760405162461bcd60e51b815260206004820152601f6024820152600080516020614c02833981519152604482015260640161088f565b6002609755600081815260cc60205260409020548190612a555760405162461bcd60e51b81526020600482015260196024820152600080516020614c22833981519152604482015260640161088f565b600082815260cc60205260408120600101546001600160a01b031663fc33962c612a7d612f35565b6040516001600160e01b031960e084901b1681526001600160a01b039091166004820152602401602060405180830381600087803b158015612abe57600080fd5b505af1158015612ad2573d6000803e3d6000fd5b505050506040513d601f19601f82011682018060405250810190612af691906148af565b9050612b00612f35565b6001600160a01b0316837f59ef3b0aa7753fe308ca62cf762e6595575b067925f4c6a9e8c52351e0bfa58883604051612b3b91815260200190565b60405180910390a35050600160975550565b612b55612f35565b6001600160a01b0316612b706065546001600160a01b031690565b6001600160a01b031614612bb45760405162461bcd60e51b81526020600482018190526024820152600080516020614c42833981519152604482015260640161088f565b6001600160a01b038116612c195760405162461bcd60e51b815260206004820152602660248201527f4f776e61626c653a206e6577206f776e657220697320746865207a65726f206160448201526564647265737360d01b606482015260840161088f565b612c2281613145565b50565b612c2d613fb1565b600082815260cc6020526040902054612c4f57612c498261391e565b92915050565b600082815260cc602052604080822060010154815163e36e196960e01b815291518392839283926001600160a01b039091169163e36e19699160048083019286929190829003018186803b158015612ca657600080fd5b505afa158015612cba573d6000803e3d6000fd5b505050506040513d6000823e601f3d908101601f19168201604052612ce29190810190614acb565b60c084015160008b815260cc60205260408082206001015490516370a0823160e01b81526001600160a01b039182166004820152969a5094985092965090945090929116906370a082319060240160206040518083038186803b158015612d4857600080fd5b505afa158015612d5c573d6000803e3d6000fd5b505050506040513d601f19601f82011682018060405250810190612d8091906148af565b600088815260cc60209081526040808320600101548151635c975abb60e01b8152915194955092936001600160a01b0390931692635c975abb92600480840193919291829003018186803b158015612dd757600080fd5b505afa158015612deb573d6000803e3d6000fd5b505050506040513d601f19601f82011682018060405250810190612e0f91906145e6565b60408051610100810182528a8152602080820199909952808201979097526000998a5260cc90975295909720600101546001600160a01b03166060850152608084019290925260a083015260c082015290151560e082015292915050565b60026097541415612eae5760405162461bcd60e51b815260206004820152601f6024820152600080516020614c02833981519152604482015260640161088f565b6002609755600081815260cc60205260409020548190612efe5760405162461bcd60e51b81526020600482015260196024820152600080516020614c22833981519152604482015260640161088f565b600082815260cc60205260409020600101546001600160a01b03166357b001f9610b99612f35565b6001600160a01b03163b151590565b6000612f3f613a87565b905090565b60008054610100900460ff1615612fd2578160ff166001148015612f675750303b155b612fca5760405162461bcd60e51b815260206004820152602e60248201527f496e697469616c697a61626c653a20636f6e747261637420697320616c72656160448201526d191e481a5b9a5d1a585b1a5e995960921b606482015260840161088f565b506000919050565b60005460ff8084169116106130405760405162461bcd60e51b815260206004820152602e60248201527f496e697469616c697a61626c653a20636f6e747261637420697320616c72656160448201526d191e481a5b9a5d1a585b1a5e995960921b606482015260840161088f565b506000805460ff191660ff92909216919091179055600190565b919050565b600054610100900460ff166130ca5760405162461bcd60e51b815260206004820152602b60248201527f496e697469616c697a61626c653a20636f6e7472616374206973206e6f74206960448201526a6e697469616c697a696e6760a81b606482015260840161088f565b611221613acc565b600054610100900460ff1661313d5760405162461bcd60e51b815260206004820152602b60248201527f496e697469616c697a61626c653a20636f6e7472616374206973206e6f74206960448201526a6e697469616c697a696e6760a81b606482015260840161088f565b611221613b47565b606580546001600160a01b038381166001600160a01b0319831681179093556040519116919082907f8be0079c531659141344cd1fd0a4f28419497f9722a3daafe3b4186f6b6457e090600090a35050565b6040516001600160a01b03808516602483015283166044820152606481018290526132029085906323b872dd60e01b906084015b60408051601f198184030181529190526020810180516001600160e01b03166001600160e01b031990931692909217909152613bb9565b50505050565b6040516001600160a01b03831660248201526044810182905261323890849063a9059cbb60e01b906064016131cb565b505050565b604080516101008101825260d1546001600160a01b039081168083528682166020840152610bb883850152908416606083015242608083015260a082018590523460c08301819052600060e084018190528451630d0e30db60e41b81529451909463d0e30db092916004808301928892919082900301818588803b1580156132c457600080fd5b505af11580156132d8573d6000803e3d6000fd5b505060d15461330a93506001600160a01b0316915073e592427a0aece92de3edee1f18e0157c05861564905034613c8b565b604051631b67c43360e31b815273e592427a0aece92de3edee1f18e0157c058615649063db3e219890613341908490600401614b3f565b602060405180830381600087803b15801561335b57600080fd5b505af115801561336f573d6000803e3d6000fd5b505050506040513d601f19601f8201168201806040525081019061339391906148af565b9150348210156134495760006133a98334614bad565b60d1549091506133d8906001600160a01b031673e592427a0aece92de3edee1f18e0157c058615646000613c8b565b60d154604051632e1a7d4d60e01b8152600481018390526001600160a01b0390911690632e1a7d4d90602401600060405180830381600087803b15801561341e57600080fd5b505af1158015613432573d6000803e3d6000fd5b50505050613447613441612f35565b82613d8b565b505b509392505050565b600084116134985760405162461bcd60e51b815260206004820152601460248201527304d757374207061737320616d6f756e74203e20360641b604482015260640161088f565b600085815260cc602090815260409182902060010154825163aaa5ad6160e01b815292516001600160a01b0390911692839263aaa5ad6192600480840193829003018186803b1580156134ea57600080fd5b505afa1580156134fe573d6000803e3d6000fd5b505050506040513d601f19601f8201168201806040525081019061352291906148af565b8511156135715760405162461bcd60e51b815260206004820152601e60248201527f43616e6e6f7420627579206d6f7265207468616e20617661696c61626c650000604482015260640161088f565b6040516321f8c83960e21b8152600481018690526001600160a01b03848116602483015260009182918416906387e320e490604401604080518083038186803b1580156135bd57600080fd5b505afa1580156135d1573d6000803e3d6000fd5b505050506040513d601f19601f820116820180604052508101906135f59190614613565b604051636eb1769f60e11b81526001600160a01b038981166004830152306024830152929450909250829184169063dd62ed3e9060440160206040518083038186803b15801561364457600080fd5b505afa158015613658573d6000803e3d6000fd5b505050506040513d601f19601f8201168201806040525081019061367c91906148af565b10156136ca5760405162461bcd60e51b815260206004820152601660248201527f496e73756666696369656e7420616c6c6f77616e636500000000000000000000604482015260640161088f565b604080518881526020810183905261ffff86168183015290516001600160a01b038716918a917ffc30850f2040b53a580f146e0f19adff30f013111447180caa350a0a36f2422d9181900360600190a361372f6001600160a01b038316873084613197565b6137436001600160a01b0383168483613208565b6040516327674bef60e21b81526001600160a01b038681166004830152602482018990526044820183905261ffff86166064830152841690639d9d2fbc90608401600060405180830381600087803b15801561379e57600080fd5b505af11580156137b2573d6000803e3d6000fd5b505050505050505050505050565b604080516101008101825260d1546001600160a01b039081168083528582166020840152610bb88385015290841660608301524260808301523460a08301819052600060c0840181905260e084018190528451630d0e30db60e41b81529451909463d0e30db092916004808301928892919082900301818588803b15801561384757600080fd5b505af115801561385b573d6000803e3d6000fd5b505060d15461388d93506001600160a01b0316915073e592427a0aece92de3edee1f18e0157c05861564905034613c8b565b60405163414bf38960e01b815273e592427a0aece92de3edee1f18e0157c058615649063414bf389906138c4908490600401614b3f565b602060405180830381600087803b1580156138de57600080fd5b505af11580156138f2573d6000803e3d6000fd5b505050506040513d601f19601f8201168201806040525081019061391691906148af565b949350505050565b613926613fb1565b604051806101000160405280838152602001604051806101c0016040528085815260200160006001600160a01b031681526020016000815260200160008152602001600081526020016000815260200160006001600160a01b0316815260200160006006811115613999576139996143dd565b81526020016040518060200160405280600081525081526020016000815260200160008152602001600060ff16815260200160006001600160a01b0316815260200160006001600160a01b03168152508152602001600067ffffffffffffffff811115613a0857613a08614641565b604051908082528060200260200182016040528015613a5a57816020015b604080516080810182526000808252602080830182905292820181905260608201528252600019909201910181613a265790505b50815260006020820181905260408201819052606082018190526080820181905260a09091015292915050565b60007f00000000000000000000000000000000000000000000000000000000000000006001600160a01b0316331415613ac7575060131936013560601c90565b503390565b600054610100900460ff16613b375760405162461bcd60e51b815260206004820152602b60248201527f496e697469616c697a61626c653a20636f6e7472616374206973206e6f74206960448201526a6e697469616c697a696e6760a81b606482015260840161088f565b611221613b42612f35565b613145565b600054610100900460ff16613bb25760405162461bcd60e51b815260206004820152602b60248201527f496e697469616c697a61626c653a20636f6e7472616374206973206e6f74206960448201526a6e697469616c697a696e6760a81b606482015260840161088f565b6001609755565b6000613c0e826040518060400160405280602081526020017f5361666545524332303a206c6f772d6c6576656c2063616c6c206661696c6564815250856001600160a01b0316613e2e9092919063ffffffff16565b8051909150156132385780806020019051810190613c2c91906145e6565b6132385760405162461bcd60e51b815260206004820152602a60248201527f5361666545524332303a204552433230206f7065726174696f6e20646964206e6044820152691bdd081cdd58d8d9595960b21b606482015260840161088f565b604080516001600160a01b038481166024830152604480830185905283518084039091018152606490920183526020820180516001600160e01b031663095ea7b360e01b1790529151600092839290871691613ce79190614bd2565b6000604051808303816000865af19150503d8060008114613d24576040519150601f19603f3d011682016040523d82523d6000602084013e613d29565b606091505b5091509150818015613d53575080511580613d53575080806020019051810190613d5391906145e6565b613d845760405162461bcd60e51b8152602060048201526002602482015261534160f01b604482015260640161088f565b5050505050565b604080516000808252602082019092526001600160a01b038416908390604051613db59190614bd2565b60006040518083038185875af1925050503d8060008114613df2576040519150601f19603f3d011682016040523d82523d6000602084013e613df7565b606091505b50509050806132385760405162461bcd60e51b815260206004820152600360248201526253544560e81b604482015260640161088f565b6060613e3d8484600085613e47565b90505b9392505050565b606082471015613ea85760405162461bcd60e51b815260206004820152602660248201527f416464726573733a20696e73756666696369656e742062616c616e636520666f6044820152651c8818d85b1b60d21b606482015260840161088f565b6001600160a01b0385163b613eff5760405162461bcd60e51b815260206004820152601d60248201527f416464726573733a2063616c6c20746f206e6f6e2d636f6e7472616374000000604482015260640161088f565b600080866001600160a01b03168587604051613f1b9190614bd2565b60006040518083038185875af1925050503d8060008114613f58576040519150601f19603f3d011682016040523d82523d6000602084013e613f5d565b606091505b5091509150613f6d828286613f78565b979650505050505050565b60608315613f87575081613e40565b825115613f975782518084602001fd5b8160405162461bcd60e51b815260040161088f9190614bee565b60405180610100016040528060008152602001613fcc614007565b81526020016060815260200160006001600160a01b031681526020016000815260200160008152602001600081526020016000151581525090565b604051806101c001604052806000815260200160006001600160a01b031681526020016000815260200160008152602001600081526020016000815260200160006001600160a01b0316815260200160006006811115614069576140696143dd565b8152602001606081526020016000815260200160008152602001600060ff16815260200160006001600160a01b0316815260200160006001600160a01b031681525090565b600080604083850312156140c157600080fd5b50508035926020909101359150565b6001600160a01b0381168114612c2257600080fd5b600080604083850312156140f857600080fd5b8235614103816140d0565b946020939093013593505050565b60006020828403121561412357600080fd5b5035919050565b600080600080600060a0868803121561414257600080fd5b853561414d816140d0565b9450602086013561415d816140d0565b9350604086013561416d816140d0565b9250606086013561417d816140d0565b9150608086013561418d816140d0565b809150509295509295909350565b6000602082840312156141ad57600080fd5b8135613e40816140d0565b6000806000606084860312156141cd57600080fd5b833592506020840135915060408401356141e6816140d0565b809150509250925092565b6020808252825182820181905260009190848201906040850190845b818110156142295783518352928401929184019160010161420d565b50909695505050505050565b6000806040838503121561424857600080fd5b82359150602083013561425a816140d0565b809150509250929050565b600081518084526020808501945080840160005b838110156142c0578151805161ffff9081168952848201518116858a0152604080830151909116908901526060908101519088015260809096019590820190600101614279565b509495945050505050565b600060a08201878352602060a08185015281885180845260c086019150828a01935060005b818110156143175784518051845284015184840152938301936040909201916001016142f0565b5050848103604086015261432b8189614265565b606086019790975250505050608001529392505050565b60008060006060848603121561435757600080fd5b8335614362816140d0565b92506020840135614372816140d0565b929592945050506040919091013590565b61ffff81168114612c2257600080fd5b600080600080608085870312156143a957600080fd5b8435935060208501356143bb816140d0565b92506040850135915060608501356143d281614383565b939692955090935050565b634e487b7160e01b600052602160045260246000fd5b6007811061441157634e487b7160e01b600052602160045260246000fd5b9052565b60005b83811015614430578181015183820152602001614418565b838111156132025750506000910152565b60008151808452614459816020860160208601614415565b601f01601f19169290920160200192915050565b60208152600061012083516020840152602084015161010080604086015281518386015260208201516101406144ad818801836001600160a01b03169052565b6040840151610160888101919091526060850151610180808a019190915260808601516101a0808b019190915260a08701516101c0808c019190915260c08801516001600160a01b03166101e08c015260e088015195506145126102008c01876143f3565b868801519550806102208c01525061452e6102e08b0186614441565b978701516102408b0152928601516102608a01529085015160ff166102808901528401516001600160a01b039081166102a089015290840151166102c0870152506040860151858403601f190160608701529261458b8185614265565b935050606086015191506145aa60808601836001600160a01b03169052565b608086015160a086015260a086015160c086015260c086015160e086015260e086015191506145dc8186018315159052565b5090949350505050565b6000602082840312156145f857600080fd5b81518015158114613e4057600080fd5b805161305a816140d0565b6000806040838503121561462657600080fd5b8251614631816140d0565b6020939093015192949293505050565b634e487b7160e01b600052604160045260246000fd5b6040516101c0810167ffffffffffffffff8111828210171561467b5761467b614641565b60405290565b6040516080810167ffffffffffffffff8111828210171561467b5761467b614641565b6040805190810167ffffffffffffffff8111828210171561467b5761467b614641565b604051601f8201601f1916810167ffffffffffffffff811182821017156146f0576146f0614641565b604052919050565b80516007811061305a57600080fd5b600082601f83011261471857600080fd5b815167ffffffffffffffff81111561473257614732614641565b614745601f8201601f19166020016146c7565b81815284602083860101111561475a57600080fd5b613916826020830160208701614415565b805160ff8116811461305a57600080fd5b60006101c0828403121561478f57600080fd5b614797614657565b9050815181526147a960208301614608565b602082015260408201516040820152606082015160608201526080820151608082015260a082015160a08201526147e260c08301614608565b60c08201526147f360e083016146f8565b60e08201526101008083015167ffffffffffffffff81111561481457600080fd5b61482085828601614707565b82840152505061012080830151818301525061014080830151818301525061016061484c81840161476b565b9082015261018061485e838201614608565b908201526101a0614870838201614608565b9082015292915050565b60006020828403121561488c57600080fd5b815167ffffffffffffffff8111156148a357600080fd5b6139168482850161477c565b6000602082840312156148c157600080fd5b5051919050565b600067ffffffffffffffff8211156148e2576148e2614641565b5060051b60200190565b600082601f8301126148fd57600080fd5b8151602061491261490d836148c8565b6146c7565b82815260079290921b8401810191818101908684111561493157600080fd5b8286015b8481101561499f576080818903121561494e5760008081fd5b614956614681565b815161496181614383565b81528185015161497081614383565b8186015260408281015161498381614383565b9082015260608281015190820152835291830191608001614935565b509695505050505050565b600080600080600060a086880312156149c257600080fd5b8551945060208087015167ffffffffffffffff808211156149e257600080fd5b818901915089601f8301126149f657600080fd5b8151614a0461490d826148c8565b81815260069190911b8301840190848101908c831115614a2357600080fd5b938501935b82851015614a66576040858e031215614a415760008081fd5b614a496146a4565b855181528686015187820152825260409094019390850190614a28565b60408c01519099509450505080831115614a7f57600080fd5b5050614a8d888289016148ec565b606088015160809098015196999598509695949350505050565b60008060408385031215614aba57600080fd5b505080516020909101519092909150565b60008060008060808587031215614ae157600080fd5b845167ffffffffffffffff80821115614af957600080fd5b614b058883890161477c565b95506020870151915080821115614b1b57600080fd5b50614b28878288016148ec565b604087015160609097015195989097509350505050565b6101008101612c4982846001600160a01b0380825116835280602083015116602084015262ffffff60408301511660408401528060608301511660608401526080820151608084015260a082015160a084015260c082015160c08401528060e08301511660e0840152505050565b600082821015614bcd57634e487b7160e01b600052601160045260246000fd5b500390565b60008251614be4818460208701614415565b9190910192915050565b602081526000613e40602083018461444156fe5265656e7472616e637947756172643a207265656e7472616e742063616c6c0050726f64756374696f6e20646f6573206e6f74206578697374000000000000004f776e61626c653a2063616c6c6572206973206e6f7420746865206f776e6572a2646970667358221220af9cf061970aaafc39acd21a87ac9e5e4ae74d827c315694ae1ed309214c401264736f6c63430008090033496e697469616c697a61626c653a20636f6e747261637420697320616c726561",
  "devdoc": {
    "custom:security-contact": "info@staxe.io",
    "kind": "dev",
    "methods": {
      "constructor": {
        "custom:oz-upgrades-unsafe-allow": "constructor"
      },
      "owner()": {
        "details": "Returns the address of the current owner."
      },
      "renounceOwnership()": {
        "details": "Leaves the contract without owner. It will not be possible to call `onlyOwner` functions anymore. Can only be called by the current owner. NOTE: Renouncing ownership will leave the contract without an owner, thereby removing any functionality that is only available to the owner."
      },
      "transferOwnership(address)": {
        "details": "Transfers ownership of the contract to a new account (`newOwner`). Can only be called by the current owner."
      }
    },
    "version": 1
  },
  "userdoc": {
    "kind": "user",
    "methods": {},
    "version": 1
  },
  "storageLayout": {
    "storage": [
      {
        "astId": 800,
        "contract": "contracts/v3/StaxeProductionsV3.sol:StaxeProductionsV3",
        "label": "_initialized",
        "offset": 0,
        "slot": "0",
        "type": "t_uint8"
      },
      {
        "astId": 803,
        "contract": "contracts/v3/StaxeProductionsV3.sol:StaxeProductionsV3",
        "label": "_initializing",
        "offset": 1,
        "slot": "0",
        "type": "t_bool"
      },
      {
        "astId": 3750,
        "contract": "contracts/v3/StaxeProductionsV3.sol:StaxeProductionsV3",
        "label": "__gap",
        "offset": 0,
        "slot": "1",
        "type": "t_array(t_uint256)50_storage"
      },
      {
        "astId": 792,
        "contract": "contracts/v3/StaxeProductionsV3.sol:StaxeProductionsV3",
        "label": "__gap",
        "offset": 0,
        "slot": "51",
        "type": "t_array(t_uint256)50_storage"
      },
      {
        "astId": 593,
        "contract": "contracts/v3/StaxeProductionsV3.sol:StaxeProductionsV3",
        "label": "_owner",
        "offset": 0,
        "slot": "101",
        "type": "t_address"
      },
      {
        "astId": 705,
        "contract": "contracts/v3/StaxeProductionsV3.sol:StaxeProductionsV3",
        "label": "__gap",
        "offset": 0,
        "slot": "102",
        "type": "t_array(t_uint256)49_storage"
      },
      {
        "astId": 1060,
        "contract": "contracts/v3/StaxeProductionsV3.sol:StaxeProductionsV3",
        "label": "_status",
        "offset": 0,
        "slot": "151",
        "type": "t_uint256"
      },
      {
        "astId": 1104,
        "contract": "contracts/v3/StaxeProductionsV3.sol:StaxeProductionsV3",
        "label": "__gap",
        "offset": 0,
        "slot": "152",
        "type": "t_array(t_uint256)49_storage"
      },
      {
        "astId": 15465,
        "contract": "contracts/v3/StaxeProductionsV3.sol:StaxeProductionsV3",
        "label": "tokenIds",
        "offset": 0,
        "slot": "201",
        "type": "t_struct(Counter)3757_storage"
      },
      {
        "astId": 15469,
        "contract": "contracts/v3/StaxeProductionsV3.sol:StaxeProductionsV3",
        "label": "trustedEscrowFactories",
        "offset": 0,
        "slot": "202",
        "type": "t_mapping(t_address,t_bool)"
      },
      {
        "astId": 15473,
        "contract": "contracts/v3/StaxeProductionsV3.sol:StaxeProductionsV3",
        "label": "trustedErc20Coins",
        "offset": 0,
        "slot": "203",
        "type": "t_mapping(t_address,t_bool)"
      },
      {
        "astId": 15484,
        "contract": "contracts/v3/StaxeProductionsV3.sol:StaxeProductionsV3",
        "label": "productionEscrows",
        "offset": 0,
        "slot": "204",
        "type": "t_mapping(t_uint256,t_struct(Escrow)17829_storage)"
      },
      {
        "astId": 15489,
        "contract": "contracts/v3/StaxeProductionsV3.sol:StaxeProductionsV3",
        "label": "productionIdsByOwner",
        "offset": 0,
        "slot": "205",
        "type": "t_mapping(t_address,t_array(t_uint256)dyn_storage)"
      },
      {
        "astId": 15492,
        "contract": "contracts/v3/StaxeProductionsV3.sol:StaxeProductionsV3",
        "label": "productionToken",
        "offset": 0,
        "slot": "206",
        "type": "t_contract(IProductionTokenV3)17772"
      },
      {
        "astId": 15495,
        "contract": "contracts/v3/StaxeProductionsV3.sol:StaxeProductionsV3",
        "label": "members",
        "offset": 0,
        "slot": "207",
        "type": "t_contract(IMembersV3)17434"
      },
      {
        "astId": 15497,
        "contract": "contracts/v3/StaxeProductionsV3.sol:StaxeProductionsV3",
        "label": "treasury",
        "offset": 0,
        "slot": "208",
        "type": "t_address"
      },
      {
        "astId": 15500,
        "contract": "contracts/v3/StaxeProductionsV3.sol:StaxeProductionsV3",
        "label": "nativeWrapper",
        "offset": 0,
        "slot": "209",
        "type": "t_contract(IWETH)18179"
      },
      {
        "astId": 15502,
        "contract": "contracts/v3/StaxeProductionsV3.sol:StaxeProductionsV3",
        "label": "relayer",
        "offset": 0,
        "slot": "210",
        "type": "t_address"
      }
    ],
    "types": {
      "t_address": {
        "encoding": "inplace",
        "label": "address",
        "numberOfBytes": "20"
      },
      "t_array(t_uint256)49_storage": {
        "base": "t_uint256",
        "encoding": "inplace",
        "label": "uint256[49]",
        "numberOfBytes": "1568"
      },
      "t_array(t_uint256)50_storage": {
        "base": "t_uint256",
        "encoding": "inplace",
        "label": "uint256[50]",
        "numberOfBytes": "1600"
      },
      "t_array(t_uint256)dyn_storage": {
        "base": "t_uint256",
        "encoding": "dynamic_array",
        "label": "uint256[]",
        "numberOfBytes": "32"
      },
      "t_bool": {
        "encoding": "inplace",
        "label": "bool",
        "numberOfBytes": "1"
      },
      "t_contract(IMembersV3)17434": {
        "encoding": "inplace",
        "label": "contract IMembersV3",
        "numberOfBytes": "20"
      },
      "t_contract(IProductionEscrowV3)17726": {
        "encoding": "inplace",
        "label": "contract IProductionEscrowV3",
        "numberOfBytes": "20"
      },
      "t_contract(IProductionTokenV3)17772": {
        "encoding": "inplace",
        "label": "contract IProductionTokenV3",
        "numberOfBytes": "20"
      },
      "t_contract(IWETH)18179": {
        "encoding": "inplace",
        "label": "contract IWETH",
        "numberOfBytes": "20"
      },
      "t_mapping(t_address,t_array(t_uint256)dyn_storage)": {
        "encoding": "mapping",
        "key": "t_address",
        "label": "mapping(address => uint256[])",
        "numberOfBytes": "32",
        "value": "t_array(t_uint256)dyn_storage"
      },
      "t_mapping(t_address,t_bool)": {
        "encoding": "mapping",
        "key": "t_address",
        "label": "mapping(address => bool)",
        "numberOfBytes": "32",
        "value": "t_bool"
      },
      "t_mapping(t_uint256,t_struct(Escrow)17829_storage)": {
        "encoding": "mapping",
        "key": "t_uint256",
        "label": "mapping(uint256 => struct IProductionsV3.Escrow)",
        "numberOfBytes": "32",
        "value": "t_struct(Escrow)17829_storage"
      },
      "t_struct(Counter)3757_storage": {
        "encoding": "inplace",
        "label": "struct CountersUpgradeable.Counter",
        "members": [
          {
            "astId": 3756,
            "contract": "contracts/v3/StaxeProductionsV3.sol:StaxeProductionsV3",
            "label": "_value",
            "offset": 0,
            "slot": "0",
            "type": "t_uint256"
          }
        ],
        "numberOfBytes": "32"
      },
      "t_struct(Escrow)17829_storage": {
        "encoding": "inplace",
        "label": "struct IProductionsV3.Escrow",
        "members": [
          {
            "astId": 17825,
            "contract": "contracts/v3/StaxeProductionsV3.sol:StaxeProductionsV3",
            "label": "id",
            "offset": 0,
            "slot": "0",
            "type": "t_uint256"
          },
          {
            "astId": 17828,
            "contract": "contracts/v3/StaxeProductionsV3.sol:StaxeProductionsV3",
            "label": "escrow",
            "offset": 0,
            "slot": "1",
            "type": "t_contract(IProductionEscrowV3)17726"
          }
        ],
        "numberOfBytes": "64"
      },
      "t_uint256": {
        "encoding": "inplace",
        "label": "uint256",
        "numberOfBytes": "32"
      },
      "t_uint8": {
        "encoding": "inplace",
        "label": "uint8",
        "numberOfBytes": "1"
      }
    }
  }
}