{
  "address": "0x70604d2d4999a1fFd7BB3D3Cbb700D2015a8c567",
  "abi": [
    {
      "inputs": [
        {
          "internalType": "contract IProductionsV3",
          "name": "_productions",
          "type": "address"
        },
        {
          "internalType": "contract IMembersV3",
          "name": "_members",
          "type": "address"
        },
        {
          "internalType": "contract IPriceCalculationEngineV3",
          "name": "_priceCalculationEngine",
          "type": "address"
        }
      ],
      "stateMutability": "nonpayable",
      "type": "constructor"
    },
    {
      "anonymous": false,
      "inputs": [
        {
          "indexed": true,
          "internalType": "uint256",
          "name": "id",
          "type": "uint256"
        },
        {
          "indexed": true,
          "internalType": "address",
          "name": "creator",
          "type": "address"
        },
        {
          "indexed": false,
          "internalType": "uint256",
          "name": "tokenSupply",
          "type": "uint256"
        },
        {
          "indexed": false,
          "internalType": "address",
          "name": "escrow",
          "type": "address"
        }
      ],
      "name": "ProductionCreated",
      "type": "event"
    },
    {
      "inputs": [
        {
          "components": [
            {
              "internalType": "uint256",
              "name": "totalSupply",
              "type": "uint256"
            },
            {
              "internalType": "uint256",
              "name": "organizerTokens",
              "type": "uint256"
            },
            {
              "internalType": "uint256",
              "name": "tokenPrice",
              "type": "uint256"
            },
            {
              "internalType": "address",
              "name": "currency",
              "type": "address"
            },
            {
              "internalType": "uint256",
              "name": "maxTokensUnknownBuyer",
              "type": "uint256"
            },
            {
              "components": [
                {
                  "internalType": "uint16",
                  "name": "total",
                  "type": "uint16"
                },
                {
                  "internalType": "uint256",
                  "name": "minTokensRequired",
                  "type": "uint256"
                }
              ],
              "internalType": "struct StaxeProductionsFactoryV3.CreatePerk[]",
              "name": "perks",
              "type": "tuple[]"
            },
            {
              "internalType": "string",
              "name": "dataHash",
              "type": "string"
            },
            {
              "internalType": "uint256",
              "name": "crowdsaleEndDate",
              "type": "uint256"
            },
            {
              "internalType": "uint256",
              "name": "productionEndDate",
              "type": "uint256"
            },
            {
              "internalType": "uint8",
              "name": "platformSharePercentage",
              "type": "uint8"
            },
            {
              "internalType": "address",
              "name": "perkTracker",
              "type": "address"
            }
          ],
          "internalType": "struct StaxeProductionsFactoryV3.CreateProduction",
          "name": "data",
          "type": "tuple"
        }
      ],
      "name": "createProduction",
      "outputs": [],
      "stateMutability": "nonpayable",
      "type": "function"
    }
  ],
  "transactionHash": "0xa320dcb3be1b14491bfb6eac783eaf23ac993651cac4dd97eae6eb7c69d5297b",
  "args": [
    "0x8Fd010c29913640bC5BA1d9Af8176f260DDdACA5",
    "0x10659Ad96C3fd76707c81cF959e273EACd1e0B2f",
    "0xE4D340949444F9D69Fb79674ab412f0A1987dDcF"
  ],
  "numDeployments": 1,
  "solcInputHash": "d6de8f2af357cf894957ed518c63c248",
  "bytecode": "0x608060405234801561001057600080fd5b5060405161585738038061585783398101604081905261002f91610089565b600080546001600160a01b039485166001600160a01b0319918216179091556001805493851693821693909317909255600280549190931691161790556100d6565b6001600160a01b038116811461008657600080fd5b50565b60008060006060848603121561009e57600080fd5b83516100a981610071565b60208501519093506100ba81610071565b60408501519092506100cb81610071565b809150509250925092565b615772806100e56000396000f3fe60806040523480156200001157600080fd5b50600436106200002e5760003560e01c8063ac3bb44a1462000033575b600080fd5b6200004a62000044366004620005be565b6200004c565b005b6001546040516341676f1560e01b81523360048201526001600160a01b03909116906341676f159060240160206040518083038186803b1580156200009057600080fd5b505afa158015620000a5573d6000803e3d6000fd5b505050506040513d601f19601f82011682018060405250810190620000cb919062000604565b6200011c5760405162461bcd60e51b815260206004820152601060248201527f4e6f7420616e206f7267616e697a657200000000000000000000000000000000604482015260640160405180910390fd5b60006200012d60a083018362000628565b905067ffffffffffffffff8111156200014a576200014a6200067c565b6040519080825280602002602001820160405280156200019e57816020015b604080516080810182526000808252602080830182905292820181905260608201528252600019909201910181620001695790505b50905060005b81518161ffff16101562000273576000620001c360a085018562000628565b8361ffff16818110620001da57620001da62000692565b905060400201803603810190620001f29190620006a8565b905060405180608001604052808360016200020e91906200072e565b61ffff168152602001826000015161ffff168152602001600061ffff1681526020018260200151815250838361ffff168151811062000251576200025162000692565b60200260200101819052505080806200026a9062000757565b915050620001a4565b506000604051806101c0016040528060008152602001336001600160a01b0316815260200184600001358152602001846020013581526020016000815260200184608001358152602001846060016020810190620002d291906200077c565b6001600160a01b0316815260200160018152602001620002f660c0860186620007a7565b8080601f01602080910402602001604051908101604052809392919081815260200183838082843760009201919091525050509082525060e0850135602082015261010085013560408201526060016200035961014086016101208701620007f1565b60ff16815260200162000375610160860161014087016200077c565b6001600160a01b0390811682526002548116602090920191909152600154604080519394506000938593879392890135921690620003b390620005b0565b620003c29493929190620008f1565b604051809103906000f080158015620003df573d6000803e3d6000fd5b5060005460405163f2fde38b60e01b81526001600160a01b03918216600482015291925082169063f2fde38b90602401600060405180830381600087803b1580156200042a57600080fd5b505af11580156200043f573d6000803e3d6000fd5b50600092506200045b915050610160860161014087016200077c565b6001600160a01b031614620004cf576101808201516040516339d3ad7760e01b81526001600160a01b038381166004830152909116906339d3ad7790602401600060405180830381600087803b158015620004b557600080fd5b505af1158015620004ca573d6000803e3d6000fd5b505050505b60008054604051634982bdd360e11b81526001600160a01b03848116600483015233602483015287356044830152909116906393057ba690606401602060405180830381600087803b1580156200052557600080fd5b505af11580156200053a573d6000803e3d6000fd5b505050506040513d601f19601f8201168201806040525081019062000560919062000a3e565b60408051873581526001600160a01b0385166020820152919250339183917f3456760ea9dedbb2f1547f379062707350387eb715c468c5b3f4ca6f5d041d73910160405180910390a35050505050565b614ce48062000a5983390190565b600060208284031215620005d157600080fd5b813567ffffffffffffffff811115620005e957600080fd5b82016101608185031215620005fd57600080fd5b9392505050565b6000602082840312156200061757600080fd5b81518015158114620005fd57600080fd5b6000808335601e198436030181126200064057600080fd5b83018035915067ffffffffffffffff8211156200065c57600080fd5b6020019150600681901b36038213156200067557600080fd5b9250929050565b634e487b7160e01b600052604160045260246000fd5b634e487b7160e01b600052603260045260246000fd5b600060408284031215620006bb57600080fd5b6040516040810181811067ffffffffffffffff82111715620006ed57634e487b7160e01b600052604160045260246000fd5b604052823561ffff811681146200070357600080fd5b81526020928301359281019290925250919050565b634e487b7160e01b600052601160045260246000fd5b600061ffff8083168185168083038211156200074e576200074e62000718565b01949350505050565b600061ffff8083168181141562000772576200077262000718565b6001019392505050565b6000602082840312156200078f57600080fd5b81356001600160a01b0381168114620005fd57600080fd5b6000808335601e19843603018112620007bf57600080fd5b83018035915067ffffffffffffffff821115620007db57600080fd5b6020019150368190038213156200067557600080fd5b6000602082840312156200080457600080fd5b813560ff81168114620005fd57600080fd5b600781106200083557634e487b7160e01b600052602160045260246000fd5b9052565b6000815180845260005b81811015620008615760208185018101518683018201520162000843565b8181111562000874576000602083870101525b50601f01601f19169290920160200192915050565b600081518084526020808501945080840160005b83811015620008e6578151805161ffff9081168952848201518116858a01526040808301519091169089015260609081015190880152608090960195908201906001016200089d565b509495945050505050565b6080815284516080820152600060208601516200091960a08401826001600160a01b03169052565b50604086015160c0830152606086015160e08301526080860151610100818185015260a08801519150610120828186015260c0890151925061014062000969818701856001600160a01b03169052565b60e08a01519350610160620009818188018662000816565b838b015194506101c093506101808481890152620009a461024089018762000839565b9550838c015193506101a084818a0152838d0151868a0152828d01519550620009d36101e08a018760ff169052565b908c01516001600160a01b039081166102008a0152908c0151908116610220890152935062000a0192505050565b50828103602084015262000a16818762000889565b91505083604083015262000a3560608301846001600160a01b03169052565b95945050505050565b60006020828403121562000a5157600080fd5b505191905056fe60c06040523480156200001157600080fd5b5060405162004ce438038062004ce483398101604081905262000034916200058f565b6200003f336200023a565b6000805460ff60a01b19169055835160019081556020850151600280546001600160a01b039283166001600160a01b03199182161790915560408701516003556060870151600455608087015160055560a0870151600690815560c088015160078054919094169281168317845560e0890151899594909390926001600160a81b03199092161790600160a01b908490811115620000e157620000e16200070a565b02179055506101008201518051620001049160078401916020909101906200028a565b5061012082015160088201556101408201516009820155610160820151600a8201805461018085015160ff9093166001600160a81b0319909116176101006001600160a01b03938416021790556101a090920151600b90910180546001600160a01b0319169190921617905560005b83518161ffff1610156200021e57600d848261ffff16815181106200019c576200019c62000720565b6020908102919091018101518254600181810185556000948552938390208251600290920201805493830151604084015161ffff9081166401000000000261ffff60201b19928216620100000263ffffffff19909716919094161794909417939093161782556060015191015580620002158162000736565b91505062000173565b506080919091526001600160a01b031660a05250620007a49050565b600080546001600160a01b038381166001600160a01b0319831681178455604051919092169283917f8be0079c531659141344cd1fd0a4f28419497f9722a3daafe3b4186f6b6457e09190a35050565b828054620002989062000767565b90600052602060002090601f016020900481019282620002bc576000855562000307565b82601f10620002d757805160ff191683800117855562000307565b8280016001018555821562000307579182015b8281111562000307578251825591602001919060010190620002ea565b506200031592915062000319565b5090565b5b808211156200031557600081556001016200031a565b634e487b7160e01b600052604160045260246000fd5b604051608081016001600160401b03811182821017156200036b576200036b62000330565b60405290565b6040516101c081016001600160401b03811182821017156200036b576200036b62000330565b604051601f8201601f191681016001600160401b0381118282101715620003c257620003c262000330565b604052919050565b80516001600160a01b0381168114620003e257600080fd5b919050565b805160078110620003e257600080fd5b600082601f8301126200040957600080fd5b81516001600160401b0381111562000425576200042562000330565b60206200043b601f8301601f1916820162000397565b82815285828487010111156200045057600080fd5b60005b838110156200047057858101830151828201840152820162000453565b83811115620004825760008385840101525b5095945050505050565b805160ff81168114620003e257600080fd5b805161ffff81168114620003e257600080fd5b600082601f830112620004c357600080fd5b815160206001600160401b03821115620004e157620004e162000330565b620004f1818360051b0162000397565b82815260079290921b840181019181810190868411156200051157600080fd5b8286015b84811015620005845760808189031215620005305760008081fd5b6200053a62000346565b62000545826200049e565b8152620005548583016200049e565b858201526040620005678184016200049e565b908201526060828101519082015283529183019160800162000515565b509695505050505050565b60008060008060808587031215620005a657600080fd5b84516001600160401b0380821115620005be57600080fd5b908601906101c08289031215620005d457600080fd5b620005de62000371565b82518152620005f060208401620003ca565b602082015260408301516040820152606083015160608201526080830151608082015260a083015160a08201526200062b60c08401620003ca565b60c08201526200063e60e08401620003e7565b60e082015261010080840151838111156200065857600080fd5b620006668b828701620003f7565b828401525050610120808401518183015250610140808401518183015250610160620006948185016200048c565b90820152610180620006a8848201620003ca565b908201526101a0620006bc848201620003ca565b908201526020880151909650915080821115620006d857600080fd5b50620006e787828801620004b1565b93505060408501519150620006ff60608601620003ca565b905092959194509250565b634e487b7160e01b600052602160045260246000fd5b634e487b7160e01b600052603260045260246000fd5b600061ffff808316818114156200075d57634e487b7160e01b600052601160045260246000fd5b6001019392505050565b600181811c908216806200077c57607f821691505b602082108114156200079e57634e487b7160e01b600052602260045260246000fd5b50919050565b60805160a0516144cd620008176000396000818161048001528181610638015281816107b201528181610d4d01528181610fd30152818161164b01528181611b490152818161232d015281816125b701528181612c0f0152612ec10152600081816102ea01526114b601526144cd6000f3fe608060405234801561001057600080fd5b50600436106101f05760003560e01c80639b54a8171161010f578063bdd4d18d116100a2578063e36e196911610071578063e36e1969146104e8578063f23a6e6114610500578063f2fde38b14610513578063fc33962c1461052657600080fd5b8063bdd4d18d1461047b578063bf89662d146104a2578063cedd9b53146104af578063daea85c5146104d557600080fd5b8063accff552116100de578063accff552146103dd578063ad799e1014610420578063bc197c8114610433578063bd55db3a1461046857600080fd5b80639b54a8171461039a5780639d9d2fbc146103af5780639e6d77d0146103c2578063aaa5ad61146103d557600080fd5b80636681b9fd1161018757806383817f1a1161015657806383817f1a1461030c57806387e320e4146103305780638da5cb5b1461036257806398590ef91461038757600080fd5b80636681b9fd146102c1578063715018a6146102ca57806376a67a51146102d25780637ff9b596146102e557600080fd5b80632af2bfd7116101c35780632af2bfd71461026d57806357b001f91461028f5780635c202a4c146102a25780635c975abb146102b957600080fd5b806301ffc9a7146101f557806310e29cf91461021d5780631d29572714610232578063201dfbce1461025a575b600080fd5b61020861020336600461390b565b610539565b60405190151581526020015b60405180910390f35b61023061022b36600461394a565b610570565b005b610245610240366004613967565b610717565b60408051928352602083019190915201610214565b6102306102683660046139ae565b610933565b610275610b40565b6040516102149e9d9c9b9a99989796959493929190613a89565b61023061029d36600461394a565b610c3f565b6102ab60125481565b604051908152602001610214565b610208610e19565b6102ab60115481565b610230610e74565b6102306102e036600461394a565b610ec8565b6102ab7f000000000000000000000000000000000000000000000000000000000000000081565b61031f61031a36600461394a565b61109b565b604051610214959493929190613ba1565b61034361033e366004613c18565b611484565b604080516001600160a01b039093168352602083019190915201610214565b6000546001600160a01b03165b6040516001600160a01b039091168152602001610214565b610230610395366004613c3d565b61153d565b6103a2611871565b6040516102149190613d5b565b6102306103bd366004613d6e565b6119df565b6102306103d03660046139ae565b611da5565b6102ab611f57565b6103f06103eb366004613dbf565b611fcb565b604051610214949392919061ffff9485168152928416602084015292166040820152606081019190915260800190565b61023061042e366004613dd8565b612011565b61044f610441366004613eba565b600098975050505050505050565b6040516001600160e01b03199091168152602001610214565b610230610476366004613c3d565b612295565b61036f7f000000000000000000000000000000000000000000000000000000000000000081565b6016546102089060ff1681565b6104c26104bd366004613c3d565b6124ad565b60405161ffff9091168152602001610214565b6102306104e336600461394a565b6124f4565b6104f0612691565b6040516102149493929190613f79565b61044f61050e366004613fb2565b6128b5565b61023061052136600461394a565b612a91565b6102ab61053436600461394a565b612b4a565b60006301ffc9a760e01b6001600160e01b03198316148061056a5750630271189760e51b6001600160e01b03198316145b92915050565b600180600754600160a01b900460ff166006811115610591576105916139f9565b146105d15760405162461bcd60e51b8152602060048201526015602482015260008051602061445883398151915260448201526064015b60405180910390fd5b6000546001600160a01b031633146106195760405162461bcd60e51b8152602060048201819052602482015260008051602061447883398151915260448201526064016105c8565b604051630da431c960e31b81526001600160a01b0383811660048301527f00000000000000000000000000000000000000000000000000000000000000001690636d218e489060240160206040518083038186803b15801561067a57600080fd5b505afa15801561068e573d6000803e3d6000fd5b505050506040513d601f19601f820116820180604052508101906106b2919061402e565b6106bb57600080fd5b7f576026e1931f5d22bd4e8daa2b9a1d285267e6b24a2e9108498eaaa709d30b8c60016004846040516106f09392919061404b565b60405180910390a1600780546004919060ff60a01b1916600160a01b835b02179055505050565b600080600280600754600160a01b900460ff16600681111561073b5761073b6139f9565b146107765760405162461bcd60e51b8152602060048201526015602482015260008051602061445883398151915260448201526064016105c8565b8461078081612e7d565b8061082c575060165460ff16801561082c5750604051630da431c960e31b81526001600160a01b0382811660048301527f00000000000000000000000000000000000000000000000000000000000000001690636d218e489060240160206040518083038186803b1580156107f457600080fd5b505afa158015610808573d6000803e3d6000fd5b505050506040513d601f19601f8201168201806040525081019061082c919061402e565b61088c5760405162461bcd60e51b815260206004820152602b60248201527f43616e206f6e6c792062652063616c6c65642066726f6d2063726561746f722060448201526a6f722064656c656761746560a81b60648201526084016105c8565b6000546001600160a01b031633146108d45760405162461bcd60e51b8152602060048201819052602482015260008051602061447883398151915260448201526064016105c8565b6108dc610e19565b1561091c5760405162461bcd60e51b815260206004820152601060248201526f14185d5cd8589b194e881c185d5cd95960821b60448201526064016105c8565b6109268686612f3d565b9097909650945050505050565b600280600754600160a01b900460ff166006811115610954576109546139f9565b1461098f5760405162461bcd60e51b8152602060048201526015602482015260008051602061445883398151915260448201526064016105c8565b6000546001600160a01b031633146109d75760405162461bcd60e51b8152602060048201819052602482015260008051602061447883398151915260448201526064016105c8565b6109df610e19565b15610a1f5760405162461bcd60e51b815260206004820152601060248201526f14185d5cd8589b194e881c185d5cd95960821b60448201526064016105c8565b600954158015610a335750610a3384612e7d565b80610a64575060095415801590610a4c57506009544210155b8015610a645750610a5c84612e7d565b80610a645750825b610ad65760405162461bcd60e51b815260206004820152603860248201527f43616e6e6f742062652066696e6973686564206265666f72652066696e69736860448201527f2064617465206f72206f6e6c792062792063726561746f72000000000000000060648201526084016105c8565b7f576026e1931f5d22bd4e8daa2b9a1d285267e6b24a2e9108498eaaa709d30b8c6002600386604051610b0b9392919061404b565b60405180910390a1600780546003919060ff60a01b1916600160a01b835b0217905550610b388483612f3d565b505050505050565b600180546002546003546004546005546006546007546008805497986001600160a01b0397881698969795969495939493831693600160a01b90930460ff1692909190610b8c9061407d565b80601f0160208091040260200160405190810160405280929190818152602001828054610bb89061407d565b8015610c055780601f10610bda57610100808354040283529160200191610c05565b820191906000526020600020905b815481529060010190602001808311610be857829003601f168201915b50505060088401546009850154600a860154600b909601549495919490935060ff821692506001600160a01b03610100909204821691168e565b6000546001600160a01b03163314610c875760405162461bcd60e51b8152602060048201819052602482015260008051602061447883398151915260448201526064016105c8565b600280600754600160a01b900460ff166006811115610ca857610ca86139f9565b14610ce35760405162461bcd60e51b8152602060048201526015602482015260008051602061445883398151915260448201526064016105c8565b610ceb610e19565b610d2e5760405162461bcd60e51b815260206004820152601460248201527314185d5cd8589b194e881b9bdd081c185d5cd95960621b60448201526064016105c8565b604051630da431c960e31b81526001600160a01b0383811660048301527f00000000000000000000000000000000000000000000000000000000000000001690636d218e489060240160206040518083038186803b158015610d8f57600080fd5b505afa158015610da3573d6000803e3d6000fd5b505050506040513d601f19601f82011682018060405250810190610dc7919061402e565b610e0d5760405162461bcd60e51b815260206004820152601760248201527621b0b63632b91036bab9ba1031329030b8383937bb32b960491b60448201526064016105c8565b610e15613070565b5050565b600080546001600160a01b03163314610e625760405162461bcd60e51b8152602060048201819052602482015260008051602061447883398151915260448201526064016105c8565b600054600160a01b900460ff16905090565b6000546001600160a01b03163314610ebc5760405162461bcd60e51b8152602060048201819052602482015260008051602061447883398151915260448201526064016105c8565b610ec66000613108565b565b6000546001600160a01b03163314610f105760405162461bcd60e51b8152602060048201819052602482015260008051602061447883398151915260448201526064016105c8565b600280600754600160a01b900460ff166006811115610f3157610f316139f9565b14610f6c5760405162461bcd60e51b8152602060048201526015602482015260008051602061445883398151915260448201526064016105c8565b610f74610e19565b15610fb45760405162461bcd60e51b815260206004820152601060248201526f14185d5cd8589b194e881c185d5cd95960821b60448201526064016105c8565b604051630da431c960e31b81526001600160a01b0383811660048301527f00000000000000000000000000000000000000000000000000000000000000001690636d218e489060240160206040518083038186803b15801561101557600080fd5b505afa158015611029573d6000803e3d6000fd5b505050506040513d601f19601f8201168201806040525081019061104d919061402e565b6110935760405162461bcd60e51b815260206004820152601760248201527621b0b63632b91036bab9ba1031329030b8383937bb32b960491b60448201526064016105c8565b610e15613165565b601054600154604051627eeac760e11b81526001600160a01b0384811660048301526024820192909252600092606092839285928392169062fdd58e9060440160206040518083038186803b1580156110f357600080fd5b505afa158015611107573d6000803e3d6000fd5b505050506040513d601f19601f8201168201806040525081019061112b91906140b8565b6001600160a01b0387166000908152600e60209081526040808320805482518185028101850190935280835294995092939092918301828280156111b657602002820191906000526020600020906000905b82829054906101000a900461ffff1661ffff168152602001906002019060208260010104928301926001038202915080841161117d5790505b505050506001600160a01b0389166000908152600f60205260408120929350916111e091506131e8565b9050805167ffffffffffffffff8111156111fc576111fc6140d1565b60405190808252806020026020018201604052801561124e57816020015b60408051608081018252600080825260208083018290529282018190526060820152825260001990920191018161121a5790505b50945060005b81518161ffff16101561136f576000828261ffff1681518110611279576112796140e7565b602002602001015190506000600d6001836112949190614113565b61ffff16815481106112a8576112a86140e7565b60009182526020808320604080516080810182526002909402909101805461ffff8082168652620100008204811694860194909452640100000000900490921690830152600101546060820152915061130183876131fc565b905060405180608001604052808461ffff168152602001836020015161ffff1681526020018261ffff1681526020018360600151815250898561ffff168151811061134e5761134e6140e7565b6020026020010181905250505050808061136790614136565b915050611254565b506001600160a01b03881660009081526013602052604090205460055490945061139a5760006113d7565b6001600160a01b0388166000908152601460205260409020546005546012546113c3908a614158565b6113cd9190614177565b6113d79190614199565b925086601560008a6001600160a01b03166001600160a01b0316815260200190815260200160002086868683805480602002602001604051908101604052809291908181526020016000905b8282101561146957838290600052602060002090600202016040518060400160405290816000820154815260200160018201548152505081526020019060010190611423565b50505050935096509650965096509650505091939590929450565b600c546040516316b9575360e21b815260009182916001600160a01b0390911690635ae55d4c906114e29030906001907f0000000000000000000000000000000000000000000000000000000000000000908a908a90600401614250565b604080518083038186803b1580156114f957600080fd5b505afa15801561150d573d6000803e3d6000fd5b505050506040513d601f19601f820116820180604052508101906115319190614384565b915091505b9250929050565b6000546001600160a01b031633146115855760405162461bcd60e51b8152602060048201819052602482015260008051602061447883398151915260448201526064016105c8565b600280600754600160a01b900460ff1660068111156115a6576115a66139f9565b146115e15760405162461bcd60e51b8152602060048201526015602482015260008051602061445883398151915260448201526064016105c8565b6115e9610e19565b61162c5760405162461bcd60e51b815260206004820152601460248201527314185d5cd8589b194e881b9bdd081c185d5cd95960621b60448201526064016105c8565b604051630da431c960e31b81526001600160a01b0384811660048301527f00000000000000000000000000000000000000000000000000000000000000001690636d218e489060240160206040518083038186803b15801561168d57600080fd5b505afa1580156116a1573d6000803e3d6000fd5b505050506040513d601f19601f820116820180604052508101906116c5919061402e565b61170b5760405162461bcd60e51b815260206004820152601760248201527621b0b63632b91036bab9ba1031329030b8383937bb32b960491b60448201526064016105c8565b6117184262278d006143b2565b8210156117675760405162461bcd60e51b815260206004820152601d60248201527f526566756e6420706572696f64206e6f74206c6f6e6720656e6f75676800000060448201526064016105c8565b7f576026e1931f5d22bd4e8daa2b9a1d285267e6b24a2e9108498eaaa709d30b8c600260038560405161179c9392919061404b565b60405180910390a160078054600360a01b60ff60a01b19821617909155600a8390556016805460ff191660011790556040516370a0823160e01b81523060048201526001600160a01b039091169060009082906370a082319060240160206040518083038186803b15801561181057600080fd5b505afa158015611824573d6000803e3d6000fd5b505050506040513d601f19601f8201168201806040525081019061184891906140b8565b9050806012600082825461185c91906143b2565b9091555061186a9050613070565b5050505050565b611879613864565b604080516101c0810182526001805482526002546001600160a01b03908116602084015260035493830193909352600454606083015260055460808301526006805460a084015260075493841660c08401529192909160e0840191600160a01b900460ff16908111156118ee576118ee6139f9565b60068111156118ff576118ff6139f9565b81526020016007820180546119139061407d565b80601f016020809104026020016040519081016040528092919081815260200182805461193f9061407d565b801561198c5780601f106119615761010080835404028352916020019161198c565b820191906000526020600020905b81548152906001019060200180831161196f57829003601f168201915b50505091835250506008820154602082015260098201546040820152600a82015460ff811660608301526001600160a01b0361010090910481166080830152600b9092015490911660a090910152919050565b600280600754600160a01b900460ff166006811115611a0057611a006139f9565b14611a3b5760405162461bcd60e51b8152602060048201526015602482015260008051602061445883398151915260448201526064016105c8565b611a43610e19565b15611a835760405162461bcd60e51b815260206004820152601060248201526f14185d5cd8589b194e881c185d5cd95960821b60448201526064016105c8565b6000546001600160a01b03163314611acb5760405162461bcd60e51b8152602060048201819052602482015260008051602061447883398151915260448201526064016105c8565b600554600354611adb9190614199565b841115611b2a5760405162461bcd60e51b815260206004820152601b60248201527f4e6f7420656e6f75676820746f6b656e7320617661696c61626c65000000000060448201526064016105c8565b60405163cee2a9cf60e01b81526001600160a01b0386811660048301527f0000000000000000000000000000000000000000000000000000000000000000169063cee2a9cf9060240160206040518083038186803b158015611b8b57600080fd5b505afa158015611b9f573d6000803e3d6000fd5b505050506040513d601f19601f82011682018060405250810190611bc3919061402e565b80611bd057506006548411155b80611bdb5750600654155b611c3b5760405162461bcd60e51b815260206004820152602b60248201527f4e6565647320696e766573746f7220726f6c6520746f2062757920616d6f756e60448201526a74206f6620746f6b656e7360a81b60648201526084016105c8565b611c46858584613261565b8260116000828254611c5891906143b2565b9091555050604080516001600160a01b03871681526020810186905290810184905261ffff831660608201527f7d4ca136516fc19227d5eb2803a1ee09fd6f86fef531acaa28f1500fdf2c6abb9060800160405180910390a18360016004016000828254611cc691906143b2565b9091555050601054600154604051637921219560e11b81523060048201526001600160a01b03888116602483015260448201929092526064810187905260a06084820152600060a482015291169063f242432a9060c401600060405180830381600087803b158015611d3757600080fd5b505af1158015611d4b573d6000803e3d6000fd5b505050506001600160a01b0394909416600090815260156020908152604080832081518083019092529581528082019485528554600180820188559684529190922091516002909102909101908155915191909201555050565b600380600754600160a01b900460ff166006811115611dc657611dc66139f9565b14611e015760405162461bcd60e51b8152602060048201526015602482015260008051602061445883398151915260448201526064016105c8565b6000546001600160a01b03163314611e495760405162461bcd60e51b8152602060048201819052602482015260008051602061447883398151915260448201526064016105c8565b600a54158015611e5d5750611e5d84612e7d565b80611e8e5750600a5415801590611e765750600a544210155b8015611e8e5750611e8684612e7d565b80611e8e5750825b611f005760405162461bcd60e51b815260206004820152603560248201527f43616e6e6f7420626520636c6f736564206265666f726520636c6f736520646160448201527f7465206f72206f6e6c792062792063726561746f72000000000000000000000060648201526084016105c8565b7f576026e1931f5d22bd4e8daa2b9a1d285267e6b24a2e9108498eaaa709d30b8c6003600686604051611f359392919061404b565b60405180910390a1600780546006919060ff60a01b1916600160a01b83610b29565b6000600280600754600160a01b900460ff166006811115611f7a57611f7a6139f9565b14611fb55760405162461bcd60e51b8152602060048201526015602482015260008051602061445883398151915260448201526064016105c8565b600554600354611fc59190614199565b91505090565b600d8181548110611fdb57600080fd5b60009182526020909120600290910201805460019091015461ffff80831693506201000083048116926401000000009004169084565b6010546001600160a01b0316331461206b5760405162461bcd60e51b815260206004820152601d60248201527f556e6b6e6f776e20746f6b656e20636f6e74726163742073656e64657200000060448201526064016105c8565b60015484146120bc5760405162461bcd60e51b815260206004820152601060248201527f496e76616c696420746f6b656e2069640000000000000000000000000000000060448201526064016105c8565b6000811161210c5760405162461bcd60e51b815260206004820152601e60248201527f546f6b656e7320746f207472616e73666572206d757374206265203e2030000060448201526064016105c8565b601054600154604051627eeac760e11b81526000926001600160a01b03169162fdd58e916121529188916004016001600160a01b03929092168252602082015260400190565b60206040518083038186803b15801561216a57600080fd5b505afa15801561217e573d6000803e3d6000fd5b505050506040513d601f19601f820116820180604052508101906121a291906140b8565b9050818110156121fe5760405162461bcd60e51b815260206004820152602160248201527f496e73756666696369656e742062616c616e636520666f72207472616e7366656044820152603960f91b60648201526084016105c8565b6001600160a01b03841660009081526014602052604081205482906122239085614158565b61222d9190614177565b6001600160a01b03861660009081526014602052604081208054929350839290919061225a908490614199565b90915550506001600160a01b038416600090815260146020526040812080548392906122879084906143b2565b909155505050505050505050565b600380600754600160a01b900460ff1660068111156122b6576122b66139f9565b146122f15760405162461bcd60e51b8152602060048201526015602482015260008051602061445883398151915260448201526064016105c8565b826122fb81612e7d565b806123a7575060165460ff1680156123a75750604051630da431c960e31b81526001600160a01b0382811660048301527f00000000000000000000000000000000000000000000000000000000000000001690636d218e489060240160206040518083038186803b15801561236f57600080fd5b505afa158015612383573d6000803e3d6000fd5b505050506040513d601f19601f820116820180604052508101906123a7919061402e565b6124075760405162461bcd60e51b815260206004820152602b60248201527f43616e206f6e6c792062652063616c6c65642066726f6d2063726561746f722060448201526a6f722064656c656761746560a81b60648201526084016105c8565b6000546001600160a01b0316331461244f5760405162461bcd60e51b8152602060048201819052602482015260008051602061447883398151915260448201526064016105c8565b604080518481526001600160a01b03861660208201527f57da78579f402bda9a94ba7ca3c2f2ddcad9e106acef9ef6799220f200fe6ff0910160405180910390a182601260008282546124a291906143b2565b909155505050505050565b600e60205281600052604060002081815481106124c957600080fd5b9060005260206000209060109182820401919006600202915091509054906101000a900461ffff1681565b600180600754600160a01b900460ff166006811115612515576125156139f9565b146125505760405162461bcd60e51b8152602060048201526015602482015260008051602061445883398151915260448201526064016105c8565b6000546001600160a01b031633146125985760405162461bcd60e51b8152602060048201819052602482015260008051602061447883398151915260448201526064016105c8565b604051630da431c960e31b81526001600160a01b0383811660048301527f00000000000000000000000000000000000000000000000000000000000000001690636d218e489060240160206040518083038186803b1580156125f957600080fd5b505afa15801561260d573d6000803e3d6000fd5b505050506040513d601f19601f82011682018060405250810190612631919061402e565b61263a57600080fd5b7f576026e1931f5d22bd4e8daa2b9a1d285267e6b24a2e9108498eaaa709d30b8c600160028460405161266f9392919061404b565b60405180910390a1600780546002919060ff60a01b1916600160a01b8361070e565b612699613864565b601154601254604080516101c0810182526001805482526002546001600160a01b0390811660208401526003549383019390935260045460608084019190915260055460808401526006805460a085015260075494851660c0850152909560009586959394600d94929391929091869160e0840191600160a01b90910460ff1690811115612729576127296139f9565b600681111561273a5761273a6139f9565b815260200160078201805461274e9061407d565b80601f016020809104026020016040519081016040528092919081815260200182805461277a9061407d565b80156127c75780601f1061279c576101008083540402835291602001916127c7565b820191906000526020600020905b8154815290600101906020018083116127aa57829003601f168201915b505050918352505060088201546020808301919091526009830154604080840191909152600a84015460ff811660608501526001600160a01b0361010090910481166080850152600b9094015490931660a09092019190915285548251818302810183019093528083529296509091859160009084015b828210156128a15760008481526020908190206040805160808101825260028602909201805461ffff808216855262010000820481168587015264010000000090910416918301919091526001908101546060830152908352909201910161283e565b505050509250935093509350935090919293565b6000600180600754600160a01b900460ff1660068111156128d8576128d86139f9565b146129135760405162461bcd60e51b8152602060048201526015602482015260008051602061445883398151915260448201526064016105c8565b600154156129635760405162461bcd60e51b815260206004820152601160248201527f546f6b656e20616c72656164792073657400000000000000000000000000000060448201526064016105c8565b60035485146129b45760405162461bcd60e51b815260206004820152601360248201527f57726f6e6720616d6f756e74206d696e7465640000000000000000000000000060448201526064016105c8565b60018690556010805473ffffffffffffffffffffffffffffffffffffffff19163317905560045415612a7d576010546002546004805460408051602081018252600081529051637921219560e11b81526001600160a01b039586169563f242432a95612a2b95309592909116938e939091016143ca565b600060405180830381600087803b158015612a4557600080fd5b505af1158015612a59573d6000803e3d6000fd5b5050505060016003015460016004016000828254612a7791906143b2565b90915550505b5063f23a6e6160e01b979650505050505050565b6000546001600160a01b03163314612ad95760405162461bcd60e51b8152602060048201819052602482015260008051602061447883398151915260448201526064016105c8565b6001600160a01b038116612b3e5760405162461bcd60e51b815260206004820152602660248201527f4f776e61626c653a206e6577206f776e657220697320746865207a65726f206160448201526564647265737360d01b60648201526084016105c8565b612b4781613108565b50565b6000600380600754600160a01b900460ff166006811115612b6d57612b6d6139f9565b14612ba85760405162461bcd60e51b8152602060048201526015602482015260008051602061445883398151915260448201526064016105c8565b6000546001600160a01b03163314612bf05760405162461bcd60e51b8152602060048201819052602482015260008051602061447883398151915260448201526064016105c8565b60405163cee2a9cf60e01b81526001600160a01b0384811660048301527f0000000000000000000000000000000000000000000000000000000000000000169063cee2a9cf9060240160206040518083038186803b158015612c5157600080fd5b505afa158015612c65573d6000803e3d6000fd5b505050506040513d601f19601f82011682018060405250810190612c89919061402e565b612cdf5760405162461bcd60e51b815260206004820152602160248201527f4f6e6c7920696e766573746f72732063616e20636c61696d2070726f636565646044820152607360f81b60648201526084016105c8565b601054600154604051627eeac760e11b81526000926001600160a01b03169162fdd58e91612d259188916004016001600160a01b03929092168252602082015260400190565b60206040518083038186803b158015612d3d57600080fd5b505afa158015612d51573d6000803e3d6000fd5b505050506040513d601f19601f82011682018060405250810190612d7591906140b8565b6001600160a01b0385166000908152601460205260409020546005546012549293509091612da39084614158565b612dad9190614177565b612db79190614199565b6001600160a01b038516600090815260136020526040812080549295508592909190612de49084906143b2565b90915550506001600160a01b03841660009081526014602052604081208054859290612e119084906143b2565b90915550508215612e7657604080518481526001600160a01b03861660208201527f7ae234f282e32d9045ebb99a2727e371aabe9285ae8f3888388543d61ffea922910160405180910390a16007546001600160a01b0316612e748186866134ee565b505b5050919050565b6002546000906001600160a01b038381169116148061056a575060025460405163d8d9a39160e01b81526001600160a01b03848116600483015291821660248201527f00000000000000000000000000000000000000000000000000000000000000009091169063d8d9a3919060440160206040518083038186803b158015612f0557600080fd5b505afa158015612f19573d6000803e3d6000fd5b505050506040513d601f19601f8201168201806040525081019061056a919061402e565b6007546040516370a0823160e01b815230600482015260009182916001600160a01b0390911690829082906370a082319060240160206040518083038186803b158015612f8957600080fd5b505afa158015612f9d573d6000803e3d6000fd5b505050506040513d601f19601f82011682018060405250810190612fc191906140b8565b600b54909150606490612fd79060ff1683614158565b612fe19190614177565b9250612fed8382614199565b60408051828152602081018690526001600160a01b0389168183015290519195507ff2eab73588c8e9161f6a438fe2a8b08c31f71f570c0c8ca9c9d200ea098f7455919081900360600190a1600254613053906001600160a01b038481169116866134ee565b6130676001600160a01b03831686856134ee565b50509250929050565b613078610e19565b6130bb5760405162461bcd60e51b815260206004820152601460248201527314185d5cd8589b194e881b9bdd081c185d5cd95960621b60448201526064016105c8565b6000805460ff60a01b191690557f5db9ee0a495bf2e6ff9c91a7834c1ba4fdd244a5e8aa4e537bd38aeae4b073aa335b6040516001600160a01b03909116815260200160405180910390a1565b600080546001600160a01b0383811673ffffffffffffffffffffffffffffffffffffffff19831681178455604051919092169283917f8be0079c531659141344cd1fd0a4f28419497f9722a3daafe3b4186f6b6457e09190a35050565b61316d610e19565b156131ad5760405162461bcd60e51b815260206004820152601060248201526f14185d5cd8589b194e881c185d5cd95960821b60448201526064016105c8565b6000805460ff60a01b1916600160a01b1790557f62e78cea01bee320cd4e420270b5ea74000d11b0c9f74754ebdbfc544b05a2586130eb3390565b606060006131f58361355a565b9392505050565b6000805b82518161ffff16101561325a578361ffff16838261ffff1681518110613228576132286140e7565b602002602001015161ffff16141561324857613245600183614402565b91505b8061325281614136565b915050613200565b5092915050565b61ffff811661326f57505050565b600d5461ffff821611156132c55760405162461bcd60e51b815260206004820152600e60248201527f496e76616c6964207065726b496400000000000000000000000000000000000060448201526064016105c8565b6000600d6132d4600184614113565b61ffff16815481106132e8576132e86140e7565b60009182526020909120600290910201805490915061ffff6401000000008204811662010000909204161161335f5760405162461bcd60e51b815260206004820152601260248201527f5065726b206e6f7420617661696c61626c65000000000000000000000000000060448201526064016105c8565b82816001015411156133b35760405162461bcd60e51b815260206004820152601a60248201527f4e6f7420656e6f75676820746f6b656e7320746f20636c61696d00000000000060448201526064016105c8565b805460019082906004906133d4908490640100000000900461ffff16614402565b825461ffff91821661010093840a90810290830219909116179092556001600160a01b0387166000818152600e602090815260408083208054600181018255908452828420601082040180548b89166002600f9485160290980a8881029902191697909717909655928252939093529091206134519250906135b6565b50600b5461010090046001600160a01b0316156134e857600b5460015460405163396d6e9f60e21b81526001600160a01b038781166004830152602482019290925261ffff8516604482015260648101869052610100909204169063e5b5ba7c90608401600060405180830381600087803b1580156134cf57600080fd5b505af11580156134e3573d6000803e3d6000fd5b505050505b50505050565b604080516001600160a01b038416602482015260448082018490528251808303909101815260649091019091526020810180517bffffffffffffffffffffffffffffffffffffffffffffffffffffffff1663a9059cbb60e01b1790526135559084906135c2565b505050565b6060816000018054806020026020016040519081016040528092919081815260200182805480156135aa57602002820191906000526020600020905b815481526020019060010190808311613596575b50505050509050919050565b60006131f58383613694565b6000613617826040518060400160405280602081526020017f5361666545524332303a206c6f772d6c6576656c2063616c6c206661696c6564815250856001600160a01b03166136e39092919063ffffffff16565b8051909150156135555780806020019051810190613635919061402e565b6135555760405162461bcd60e51b815260206004820152602a60248201527f5361666545524332303a204552433230206f7065726174696f6e20646964206e6044820152691bdd081cdd58d8d9595960b21b60648201526084016105c8565b60008181526001830160205260408120546136db5750815460018181018455600084815260208082209093018490558454848252828601909352604090209190915561056a565b50600061056a565b60606136f284846000856136fa565b949350505050565b60608247101561375b5760405162461bcd60e51b815260206004820152602660248201527f416464726573733a20696e73756666696369656e742062616c616e636520666f6044820152651c8818d85b1b60d21b60648201526084016105c8565b6001600160a01b0385163b6137b25760405162461bcd60e51b815260206004820152601d60248201527f416464726573733a2063616c6c20746f206e6f6e2d636f6e747261637400000060448201526064016105c8565b600080866001600160a01b031685876040516137ce9190614428565b60006040518083038185875af1925050503d806000811461380b576040519150601f19603f3d011682016040523d82523d6000602084013e613810565b606091505b509150915061382082828661382b565b979650505050505050565b6060831561383a5750816131f5565b82511561384a5782518084602001fd5b8160405162461bcd60e51b81526004016105c89190614444565b604051806101c001604052806000815260200160006001600160a01b031681526020016000815260200160008152602001600081526020016000815260200160006001600160a01b03168152602001600060068111156138c6576138c66139f9565b8152602001606081526020016000815260200160008152602001600060ff16815260200160006001600160a01b0316815260200160006001600160a01b031681525090565b60006020828403121561391d57600080fd5b81356001600160e01b0319811681146131f557600080fd5b6001600160a01b0381168114612b4757600080fd5b60006020828403121561395c57600080fd5b81356131f581613935565b6000806040838503121561397a57600080fd5b823561398581613935565b9150602083013561399581613935565b809150509250929050565b8015158114612b4757600080fd5b6000806000606084860312156139c357600080fd5b83356139ce81613935565b925060208401356139de816139a0565b915060408401356139ee81613935565b809150509250925092565b634e487b7160e01b600052602160045260246000fd5b60078110613a2d57634e487b7160e01b600052602160045260246000fd5b9052565b60005b83811015613a4c578181015183820152602001613a34565b838111156134e85750506000910152565b60008151808452613a75816020860160208601613a31565b601f01601f19169290920160200192915050565b8e81526001600160a01b038e1660208201528c60408201528b60608201528a60808201528960a08201526001600160a01b03891660c0820152613acf60e0820189613a0f565b6101c06101008201526000613ae86101c0830189613a5d565b90508661012083015285610140830152613b0861016083018660ff169052565b6001600160a01b0384166101808301526001600160a01b0383166101a08301529f9e505050505050505050505050505050565b600081518084526020808501945080840160005b83811015613b96578151805161ffff9081168952848201518116858a0152604080830151909116908901526060908101519088015260809096019590820190600101613b4f565b509495945050505050565b600060a08201878352602060a08185015281885180845260c086019150828a01935060005b81811015613bed578451805184528401518484015293830193604090920191600101613bc6565b50508481036040860152613c018189613b3b565b606086019790975250505050608001529392505050565b60008060408385031215613c2b57600080fd5b82359150602083013561399581613935565b60008060408385031215613c5057600080fd5b8235613c5b81613935565b946020939093013593505050565b60006101c0825184526020830151613c8c60208601826001600160a01b03169052565b5060408301516040850152606083015160608501526080830151608085015260a083015160a085015260c0830151613ccf60c08601826001600160a01b03169052565b5060e0830151613ce260e0860182613a0f565b50610100808401518282870152613cfb83870182613a5d565b9250505061012080840151818601525061014080840151818601525061016080840151613d2c8287018260ff169052565b5050610180838101516001600160a01b03908116918601919091526101a0938401511692909301919091525090565b6020815260006131f56020830184613c69565b60008060008060808587031215613d8457600080fd5b8435613d8f81613935565b93506020850135925060408501359150606085013561ffff81168114613db457600080fd5b939692955090935050565b600060208284031215613dd157600080fd5b5035919050565b600080600080600060a08688031215613df057600080fd5b8535613dfb81613935565b9450602086013593506040860135613e1281613935565b92506060860135613e2281613935565b949793965091946080013592915050565b60008083601f840112613e4557600080fd5b50813567ffffffffffffffff811115613e5d57600080fd5b6020830191508360208260051b850101111561153657600080fd5b60008083601f840112613e8a57600080fd5b50813567ffffffffffffffff811115613ea257600080fd5b60208301915083602082850101111561153657600080fd5b60008060008060008060008060a0898b031215613ed657600080fd5b8835613ee181613935565b97506020890135613ef181613935565b9650604089013567ffffffffffffffff80821115613f0e57600080fd5b613f1a8c838d01613e33565b909850965060608b0135915080821115613f3357600080fd5b613f3f8c838d01613e33565b909650945060808b0135915080821115613f5857600080fd5b50613f658b828c01613e78565b999c989b5096995094979396929594505050565b608081526000613f8c6080830187613c69565b8281036020840152613f9e8187613b3b565b604084019590955250506060015292915050565b60008060008060008060a08789031215613fcb57600080fd5b8635613fd681613935565b95506020870135613fe681613935565b94506040870135935060608701359250608087013567ffffffffffffffff81111561401057600080fd5b61401c89828a01613e78565b979a9699509497509295939492505050565b60006020828403121561404057600080fd5b81516131f5816139a0565b606081016140598286613a0f565b6140666020830185613a0f565b6001600160a01b0383166040830152949350505050565b600181811c9082168061409157607f821691505b602082108114156140b257634e487b7160e01b600052602260045260246000fd5b50919050565b6000602082840312156140ca57600080fd5b5051919050565b634e487b7160e01b600052604160045260246000fd5b634e487b7160e01b600052603260045260246000fd5b634e487b7160e01b600052601160045260246000fd5b600061ffff8381169083168181101561412e5761412e6140fd565b039392505050565b600061ffff8083168181141561414e5761414e6140fd565b6001019392505050565b6000816000190483118215151615614172576141726140fd565b500290565b60008261419457634e487b7160e01b600052601260045260246000fd5b500490565b6000828210156141ab576141ab6140fd565b500390565b8054600090600181811c90808316806141ca57607f831692505b60208084108214156141ec57634e487b7160e01b600052602260045260246000fd5b83885260208801828015614207576001811461421857614243565b60ff19871682528282019750614243565b60008981526020902060005b8781101561423d57815484820152908601908401614224565b83019850505b5050505050505092915050565b60006001600160a01b03808816835260a06020840152865460a084015261428160018801546001600160a01b031690565b6001600160a01b03811660c085015250600287015460e084015260038701546101008401526004870154610120840152600587015461014084015260068701546001600160a01b03828216166101608501526142e7610180850160ff8360a01c16613a0f565b506101c0806101a0850152614303610260850160078a016141b0565b60088901549185019190915260098801546101e0850152600a88015460ff8116610200860152906143456102208601848460081c166001600160a01b03169052565b600b8901546001600160a01b03908116610240870152604086018990526060860188905286166080860152925061437a915050565b9695505050505050565b6000806040838503121561439757600080fd5b82516143a281613935565b6020939093015192949293505050565b600082198211156143c5576143c56140fd565b500190565b60006001600160a01b03808816835280871660208401525084604083015283606083015260a0608083015261382060a0830184613a5d565b600061ffff80831681851680830382111561441f5761441f6140fd565b01949350505050565b6000825161443a818460208701613a31565b9190910192915050565b6020815260006131f56020830184613a5d56fe4e6f7420696e20726571756972656420737461746500000000000000000000004f776e61626c653a2063616c6c6572206973206e6f7420746865206f776e6572a26469706673582212203d8ea64c0990223a704a9d7d571ae4775a90e042609f2e344a086097db6fa8d464736f6c63430008090033a2646970667358221220988752a1a5fa70cd5e36510ca19454f9d4e9ad33f1313c0c695b4f6e5e0cf49464736f6c63430008090033",
  "devdoc": {
    "kind": "dev",
    "methods": {},
    "version": 1
  },
  "userdoc": {
    "kind": "user",
    "methods": {},
    "version": 1
  },
  "storageLayout": {
    "storage": [
      {
        "astId": 15221,
        "contract": "contracts/v3/StaxeProductionsFactoryV3.sol:StaxeProductionsFactoryV3",
        "label": "productions",
        "offset": 0,
        "slot": "0",
        "type": "t_contract(IProductionsV3)18025"
      },
      {
        "astId": 15224,
        "contract": "contracts/v3/StaxeProductionsFactoryV3.sol:StaxeProductionsFactoryV3",
        "label": "members",
        "offset": 0,
        "slot": "1",
        "type": "t_contract(IMembersV3)17434"
      },
      {
        "astId": 15227,
        "contract": "contracts/v3/StaxeProductionsFactoryV3.sol:StaxeProductionsFactoryV3",
        "label": "priceCalculationEngine",
        "offset": 0,
        "slot": "2",
        "type": "t_contract(IPriceCalculationEngineV3)17480"
      }
    ],
    "types": {
      "t_contract(IMembersV3)17434": {
        "encoding": "inplace",
        "label": "contract IMembersV3",
        "numberOfBytes": "20"
      },
      "t_contract(IPriceCalculationEngineV3)17480": {
        "encoding": "inplace",
        "label": "contract IPriceCalculationEngineV3",
        "numberOfBytes": "20"
      },
      "t_contract(IProductionsV3)18025": {
        "encoding": "inplace",
        "label": "contract IProductionsV3",
        "numberOfBytes": "20"
      }
    }
  }
}