{
  "address": "0xA1dDF398a2d405f7219f8aeADe3F7191f60583bd",
  "abi": [
    {
      "inputs": [
        {
          "internalType": "address",
          "name": "_trustedForwarder",
          "type": "address"
        }
      ],
      "stateMutability": "nonpayable",
      "type": "constructor"
    },
    {
      "anonymous": false,
      "inputs": [
        {
          "indexed": true,
          "internalType": "address",
          "name": "owner",
          "type": "address"
        },
        {
          "indexed": true,
          "internalType": "address",
          "name": "spender",
          "type": "address"
        },
        {
          "indexed": false,
          "internalType": "uint256",
          "name": "value",
          "type": "uint256"
        }
      ],
      "name": "Approval",
      "type": "event"
    },
    {
      "anonymous": false,
      "inputs": [
        {
          "indexed": true,
          "internalType": "address",
          "name": "buyer",
          "type": "address"
        },
        {
          "indexed": false,
          "internalType": "uint256",
          "name": "tokenAmount",
          "type": "uint256"
        },
        {
          "indexed": false,
          "internalType": "address",
          "name": "tokenAddress",
          "type": "address"
        }
      ],
      "name": "Deposit",
      "type": "event"
    },
    {
      "anonymous": false,
      "inputs": [
        {
          "indexed": false,
          "internalType": "uint8",
          "name": "version",
          "type": "uint8"
        }
      ],
      "name": "Initialized",
      "type": "event"
    },
    {
      "anonymous": false,
      "inputs": [
        {
          "indexed": true,
          "internalType": "address",
          "name": "previousOwner",
          "type": "address"
        },
        {
          "indexed": true,
          "internalType": "address",
          "name": "newOwner",
          "type": "address"
        }
      ],
      "name": "OwnershipTransferred",
      "type": "event"
    },
    {
      "anonymous": false,
      "inputs": [
        {
          "indexed": false,
          "internalType": "address",
          "name": "account",
          "type": "address"
        }
      ],
      "name": "Paused",
      "type": "event"
    },
    {
      "anonymous": false,
      "inputs": [
        {
          "indexed": true,
          "internalType": "address",
          "name": "buyer",
          "type": "address"
        },
        {
          "indexed": true,
          "internalType": "uint256",
          "name": "tokenId",
          "type": "uint256"
        },
        {
          "indexed": false,
          "internalType": "uint256",
          "name": "numTokens",
          "type": "uint256"
        },
        {
          "indexed": false,
          "internalType": "uint16",
          "name": "perkId",
          "type": "uint16"
        },
        {
          "indexed": false,
          "internalType": "address",
          "name": "paymentToken",
          "type": "address"
        },
        {
          "indexed": false,
          "internalType": "uint256",
          "name": "price",
          "type": "uint256"
        }
      ],
      "name": "PurchaseExecuted",
      "type": "event"
    },
    {
      "anonymous": false,
      "inputs": [
        {
          "indexed": true,
          "internalType": "address",
          "name": "buyer",
          "type": "address"
        },
        {
          "indexed": true,
          "internalType": "uint256",
          "name": "tokenId",
          "type": "uint256"
        },
        {
          "indexed": false,
          "internalType": "uint256",
          "name": "numTokens",
          "type": "uint256"
        },
        {
          "indexed": false,
          "internalType": "uint16",
          "name": "perkId",
          "type": "uint16"
        }
      ],
      "name": "PurchasePlaced",
      "type": "event"
    },
    {
      "anonymous": false,
      "inputs": [
        {
          "indexed": true,
          "internalType": "address",
          "name": "from",
          "type": "address"
        },
        {
          "indexed": true,
          "internalType": "address",
          "name": "to",
          "type": "address"
        },
        {
          "indexed": false,
          "internalType": "uint256",
          "name": "value",
          "type": "uint256"
        }
      ],
      "name": "Transfer",
      "type": "event"
    },
    {
      "anonymous": false,
      "inputs": [
        {
          "indexed": false,
          "internalType": "address",
          "name": "account",
          "type": "address"
        }
      ],
      "name": "Unpaused",
      "type": "event"
    },
    {
      "inputs": [
        {
          "internalType": "address",
          "name": "owner",
          "type": "address"
        },
        {
          "internalType": "address",
          "name": "spender",
          "type": "address"
        }
      ],
      "name": "allowance",
      "outputs": [
        {
          "internalType": "uint256",
          "name": "",
          "type": "uint256"
        }
      ],
      "stateMutability": "view",
      "type": "function"
    },
    {
      "inputs": [
        {
          "internalType": "address",
          "name": "spender",
          "type": "address"
        },
        {
          "internalType": "uint256",
          "name": "amount",
          "type": "uint256"
        }
      ],
      "name": "approve",
      "outputs": [
        {
          "internalType": "bool",
          "name": "",
          "type": "bool"
        }
      ],
      "stateMutability": "nonpayable",
      "type": "function"
    },
    {
      "inputs": [
        {
          "internalType": "address",
          "name": "account",
          "type": "address"
        }
      ],
      "name": "balanceOf",
      "outputs": [
        {
          "internalType": "uint256",
          "name": "",
          "type": "uint256"
        }
      ],
      "stateMutability": "view",
      "type": "function"
    },
    {
      "inputs": [],
      "name": "decimals",
      "outputs": [
        {
          "internalType": "uint8",
          "name": "",
          "type": "uint8"
        }
      ],
      "stateMutability": "view",
      "type": "function"
    },
    {
      "inputs": [
        {
          "internalType": "address",
          "name": "spender",
          "type": "address"
        },
        {
          "internalType": "uint256",
          "name": "subtractedValue",
          "type": "uint256"
        }
      ],
      "name": "decreaseAllowance",
      "outputs": [
        {
          "internalType": "bool",
          "name": "",
          "type": "bool"
        }
      ],
      "stateMutability": "nonpayable",
      "type": "function"
    },
    {
      "inputs": [
        {
          "internalType": "address",
          "name": "buyer",
          "type": "address"
        },
        {
          "internalType": "uint256",
          "name": "tokenAmount",
          "type": "uint256"
        },
        {
          "internalType": "address",
          "name": "tokenAddress",
          "type": "address"
        }
      ],
      "name": "depositTo",
      "outputs": [],
      "stateMutability": "nonpayable",
      "type": "function"
    },
    {
      "inputs": [
        {
          "internalType": "address",
          "name": "spender",
          "type": "address"
        },
        {
          "internalType": "uint256",
          "name": "addedValue",
          "type": "uint256"
        }
      ],
      "name": "increaseAllowance",
      "outputs": [
        {
          "internalType": "bool",
          "name": "",
          "type": "bool"
        }
      ],
      "stateMutability": "nonpayable",
      "type": "function"
    },
    {
      "inputs": [
        {
          "internalType": "contract IProductionsV3",
          "name": "_productions",
          "type": "address"
        },
        {
          "internalType": "contract IERC20Upgradeable",
          "name": "_wrappedToken",
          "type": "address"
        }
      ],
      "name": "initialize",
      "outputs": [],
      "stateMutability": "nonpayable",
      "type": "function"
    },
    {
      "inputs": [
        {
          "internalType": "address",
          "name": "forwarder",
          "type": "address"
        }
      ],
      "name": "isTrustedForwarder",
      "outputs": [
        {
          "internalType": "bool",
          "name": "",
          "type": "bool"
        }
      ],
      "stateMutability": "view",
      "type": "function"
    },
    {
      "inputs": [],
      "name": "name",
      "outputs": [
        {
          "internalType": "string",
          "name": "",
          "type": "string"
        }
      ],
      "stateMutability": "view",
      "type": "function"
    },
    {
      "inputs": [],
      "name": "owner",
      "outputs": [
        {
          "internalType": "address",
          "name": "",
          "type": "address"
        }
      ],
      "stateMutability": "view",
      "type": "function"
    },
    {
      "inputs": [],
      "name": "pause",
      "outputs": [],
      "stateMutability": "nonpayable",
      "type": "function"
    },
    {
      "inputs": [],
      "name": "paused",
      "outputs": [
        {
          "internalType": "bool",
          "name": "",
          "type": "bool"
        }
      ],
      "stateMutability": "view",
      "type": "function"
    },
    {
      "inputs": [
        {
          "internalType": "uint256",
          "name": "tokenId",
          "type": "uint256"
        },
        {
          "internalType": "uint256",
          "name": "numTokens",
          "type": "uint256"
        },
        {
          "internalType": "uint16",
          "name": "perkId",
          "type": "uint16"
        }
      ],
      "name": "placePurchase",
      "outputs": [],
      "stateMutability": "nonpayable",
      "type": "function"
    },
    {
      "inputs": [
        {
          "internalType": "uint256",
          "name": "tokenId",
          "type": "uint256"
        },
        {
          "internalType": "uint256",
          "name": "numTokens",
          "type": "uint256"
        },
        {
          "internalType": "uint16",
          "name": "perkId",
          "type": "uint16"
        }
      ],
      "name": "purchase",
      "outputs": [],
      "stateMutability": "nonpayable",
      "type": "function"
    },
    {
      "inputs": [],
      "name": "renounceOwnership",
      "outputs": [],
      "stateMutability": "nonpayable",
      "type": "function"
    },
    {
      "inputs": [],
      "name": "symbol",
      "outputs": [
        {
          "internalType": "string",
          "name": "",
          "type": "string"
        }
      ],
      "stateMutability": "view",
      "type": "function"
    },
    {
      "inputs": [],
      "name": "totalSupply",
      "outputs": [
        {
          "internalType": "uint256",
          "name": "",
          "type": "uint256"
        }
      ],
      "stateMutability": "view",
      "type": "function"
    },
    {
      "inputs": [
        {
          "internalType": "address",
          "name": "to",
          "type": "address"
        },
        {
          "internalType": "uint256",
          "name": "amount",
          "type": "uint256"
        }
      ],
      "name": "transfer",
      "outputs": [
        {
          "internalType": "bool",
          "name": "",
          "type": "bool"
        }
      ],
      "stateMutability": "nonpayable",
      "type": "function"
    },
    {
      "inputs": [
        {
          "internalType": "address",
          "name": "from",
          "type": "address"
        },
        {
          "internalType": "address",
          "name": "to",
          "type": "address"
        },
        {
          "internalType": "uint256",
          "name": "amount",
          "type": "uint256"
        }
      ],
      "name": "transferFrom",
      "outputs": [
        {
          "internalType": "bool",
          "name": "",
          "type": "bool"
        }
      ],
      "stateMutability": "nonpayable",
      "type": "function"
    },
    {
      "inputs": [
        {
          "internalType": "address",
          "name": "newOwner",
          "type": "address"
        }
      ],
      "name": "transferOwnership",
      "outputs": [],
      "stateMutability": "nonpayable",
      "type": "function"
    },
    {
      "inputs": [],
      "name": "unpause",
      "outputs": [],
      "stateMutability": "nonpayable",
      "type": "function"
    },
    {
      "inputs": [
        {
          "internalType": "uint256",
          "name": "amount",
          "type": "uint256"
        }
      ],
      "name": "withdraw",
      "outputs": [],
      "stateMutability": "nonpayable",
      "type": "function"
    },
    {
      "inputs": [],
      "name": "withdrawAll",
      "outputs": [],
      "stateMutability": "nonpayable",
      "type": "function"
    }
  ],
  "transactionHash": "0xc1dfa41046efcf2dbda1e7045c9e18bd6d3830ec6bfd076059d95d360b823634",
  "args": [
    "0x20ACE310642Ed8F97E62082f3f21B2B7a066bf74"
  ],
  "numDeployments": 1,
  "solcInputHash": "d6de8f2af357cf894957ed518c63c248",
  "bytecode": "0x60a06040523480156200001157600080fd5b5060405162002df538038062002df5833981016040819052620000349162000182565b6001600160a01b0381166080526200004b62000052565b50620001b4565b6200005e60ff62000061565b50565b60008054610100900460ff1615620000fa578160ff1660011480156200009a575062000098306200017360201b620012a91760201c565b155b620000f25760405162461bcd60e51b815260206004820152602e602482015260008051602062002dd583398151915260448201526d191e481a5b9a5d1a585b1a5e995960921b60648201526084015b60405180910390fd5b506000919050565b60005460ff808416911610620001595760405162461bcd60e51b815260206004820152602e602482015260008051602062002dd583398151915260448201526d191e481a5b9a5d1a585b1a5e995960921b6064820152608401620000e9565b506000805460ff191660ff92909216919091179055600190565b6001600160a01b03163b151590565b6000602082840312156200019557600080fd5b81516001600160a01b0381168114620001ad57600080fd5b9392505050565b608051612bfe620001d7600039600081816102830152611f3c0152612bfe6000f3fe608060405234801561001057600080fd5b50600436106101985760003560e01c806370a08231116100e3578063a457c2d71161008c578063c5eac02211610066578063c5eac0221461035b578063dd62ed3e1461036e578063f2fde38b146103a757600080fd5b8063a457c2d714610322578063a9059cbb14610335578063ac06b27d1461034857600080fd5b8063853828b6116100bd578063853828b6146102f75780638da5cb5b146102ff57806395d89b411461031a57600080fd5b806370a08231146102be578063715018a6146102e75780638456cb59146102ef57600080fd5b8063313ce56711610145578063485cc9551161011f578063485cc95514610260578063572b6c05146102735780635c975abb146102b357600080fd5b8063313ce5671461022b57806339509351146102455780633f4ba83a1461025857600080fd5b806320acd9f31161017657806320acd9f3146101f057806323b872dd146102055780632e1a7d4d1461021857600080fd5b806306fdde031461019d578063095ea7b3146101bb57806318160ddd146101de575b600080fd5b6101a56103ba565b6040516101b291906124a6565b60405180910390f35b6101ce6101c93660046124ee565b61044c565b60405190151581526020016101b2565b6035545b6040519081526020016101b2565b6102036101fe36600461251a565b61046e565b005b6101ce61021336600461255c565b61061d565b61020361022636600461259d565b61064d565b6102336107cd565b60405160ff90911681526020016101b2565b6101ce6102533660046124ee565b610850565b6102036108a2565b61020361026e3660046125b6565b610925565b6101ce6102813660046125ef565b7f00000000000000000000000000000000000000000000000000000000000000006001600160a01b0390811691161490565b60c95460ff166101ce565b6101e26102cc3660046125ef565b6001600160a01b031660009081526033602052604090205490565b610203610a46565b610203610ac9565b610203610b4a565b6097546040516001600160a01b0390911681526020016101b2565b6101a5610c47565b6101ce6103303660046124ee565b610c56565b6101ce6103433660046124ee565b610d00565b61020361035636600461261c565b610d18565b61020361036936600461261c565b610f0c565b6101e261037c3660046125b6565b6001600160a01b03918216600090815260346020908152604080832093909416825291909152205490565b6102036103b53660046125ef565b6111bf565b6060603680546103c99061264a565b80601f01602080910402602001604051908101604052809291908181526020018280546103f59061264a565b80156104425780601f1061041757610100808354040283529160200191610442565b820191906000526020600020905b81548152906001019060200180831161042557829003601f168201915b5050505050905090565b6000806104576112b8565b90506104648185856112c2565b5060019392505050565b600260fb5414156104c65760405162461bcd60e51b815260206004820152601f60248201527f5265656e7472616e637947756172643a207265656e7472616e742063616c6c0060448201526064015b60405180910390fd5b600260fb5560c95460ff16156105115760405162461bcd60e51b815260206004820152601060248201526f14185d5cd8589b194e881c185d5cd95960821b60448201526064016104bd565b61012e546001600160a01b0382811691161461056f5760405162461bcd60e51b815260206004820152601260248201527f496e76616c696420746f6b656e2073656e74000000000000000000000000000060448201526064016104bd565b8061058d61057b6112b8565b6001600160a01b0383169030866113e6565b6105978484611484565b6001600160a01b038416600090815261012f602052604090205415610612576001600160a01b038416600090815261012f60205260408120805460018201546002909201546105ed9288929161ffff1685611564565b90508015610610576001600160a01b038516600090815261012f60205260408120555b505b5050600160fb555050565b6000806106286112b8565b905061063585828561180a565b610640858585611896565b60019150505b9392505050565b600260fb5414156106a05760405162461bcd60e51b815260206004820152601f60248201527f5265656e7472616e637947756172643a207265656e7472616e742063616c6c0060448201526064016104bd565b600260fb5560c95460ff16156106eb5760405162461bcd60e51b815260206004820152601060248201526f14185d5cd8589b194e881c185d5cd95960821b60448201526064016104bd565b6000811161073b5760405162461bcd60e51b815260206004820152601260248201527f416d6f756e74206d757374206265203e2030000000000000000000000000000060448201526064016104bd565b806107476102cc6112b8565b10156107955760405162461bcd60e51b815260206004820152601760248201527f42616c616e6365206e6f74206869676820656e6f75676800000000000000000060448201526064016104bd565b6107a66107a06112b8565b82611a64565b6107c56107b16112b8565b61012e546001600160a01b03169083611bb2565b50600160fb55565b61012e546040805163313ce56760e01b815290516000926001600160a01b03169163313ce567916004808301926020929190829003018186803b15801561081357600080fd5b505afa158015610827573d6000803e3d6000fd5b505050506040513d601f19601f8201168201806040525081019061084b9190612696565b905090565b60008061085b6112b8565b905061046481858561089385896001600160a01b03918216600090815260346020908152604080832093909416825291909152205490565b61089d91906126c7565b6112c2565b6108aa6112b8565b6001600160a01b03166108c56097546001600160a01b031690565b6001600160a01b03161461091b5760405162461bcd60e51b815260206004820181905260248201527f4f776e61626c653a2063616c6c6572206973206e6f7420746865206f776e657260448201526064016104bd565b610923611be2565b565b60006109316001611c84565b90508015610949576000805461ff0019166101001790555b610951611d9f565b6109ac6040518060400160405280601481526020017f5374617865205772617070657220546f6b656e73000000000000000000000000815250604051806040016040528060048152602001630aea6a8b60e31b815250611dce565b6109b4611dff565b6109bc611e2e565b61012d80546001600160a01b0380861673ffffffffffffffffffffffffffffffffffffffff199283161790925561012e8054928516929091169190911790558015610a41576000805461ff0019169055604051600181527f7f26b83ff96e1f2b6a682f133852f6798a09c465da95921460cefb38474024989060200160405180910390a15b505050565b610a4e6112b8565b6001600160a01b0316610a696097546001600160a01b031690565b6001600160a01b031614610abf5760405162461bcd60e51b815260206004820181905260248201527f4f776e61626c653a2063616c6c6572206973206e6f7420746865206f776e657260448201526064016104bd565b6109236000611e5d565b610ad16112b8565b6001600160a01b0316610aec6097546001600160a01b031690565b6001600160a01b031614610b425760405162461bcd60e51b815260206004820181905260248201527f4f776e61626c653a2063616c6c6572206973206e6f7420746865206f776e657260448201526064016104bd565b610923611ebc565b600260fb541415610b9d5760405162461bcd60e51b815260206004820152601f60248201527f5265656e7472616e637947756172643a207265656e7472616e742063616c6c0060448201526064016104bd565b600260fb5560c95460ff1615610be85760405162461bcd60e51b815260206004820152601060248201526f14185d5cd8589b194e881c185d5cd95960821b60448201526064016104bd565b6000610bf56102cc6112b8565b9050600081116107955760405162461bcd60e51b815260206004820152601360248201527f4e6f7468696e6720746f2077697468647261770000000000000000000000000060448201526064016104bd565b6060603780546103c99061264a565b600080610c616112b8565b6001600160a01b0381811660009081526034602090815260408083209389168352929052205490915083811015610ce85760405162461bcd60e51b815260206004820152602560248201527f45524332303a2064656372656173656420616c6c6f77616e63652062656c6f77604482015264207a65726f60d81b60648201526084016104bd565b610cf582868684036112c2565b506001949350505050565b600080610d0b6112b8565b9050610464818585611896565b600260fb541415610d6b5760405162461bcd60e51b815260206004820152601f60248201527f5265656e7472616e637947756172643a207265656e7472616e742063616c6c0060448201526064016104bd565b600260fb5560c95460ff1615610db65760405162461bcd60e51b815260206004820152601060248201526f14185d5cd8589b194e881c185d5cd95960821b60448201526064016104bd565b61012d54604051637c28680960e11b8152600481018590526002916001600160a01b03169063f850d0129060240160006040518083038186803b158015610dfc57600080fd5b505afa158015610e10573d6000803e3d6000fd5b505050506040513d6000823e601f3d908101601f19168201604052610e389190810190612a0c565b6020015160e001516006811115610e5157610e516126df565b14610eaa5760405162461bcd60e51b815260206004820152602360248201527f50726f75646374696f6e206e6f74206f70656e20666f7220746f6b656e2073616044820152626c657360e81b60648201526084016104bd565b81610ef75760405162461bcd60e51b815260206004820152601b60248201527f496e76616c696420746f6b656e206e756d62657220746f20627579000000000060448201526064016104bd565b610612610f026112b8565b8484846001611564565b600260fb541415610f5f5760405162461bcd60e51b815260206004820152601f60248201527f5265656e7472616e637947756172643a207265656e7472616e742063616c6c0060448201526064016104bd565b600260fb5560c95460ff1615610faa5760405162461bcd60e51b815260206004820152601060248201526f14185d5cd8589b194e881c185d5cd95960821b60448201526064016104bd565b61012d54604051637c28680960e11b8152600481018590526002916001600160a01b03169063f850d0129060240160006040518083038186803b158015610ff057600080fd5b505afa158015611004573d6000803e3d6000fd5b505050506040513d6000823e601f3d908101601f1916820160405261102c9190810190612a0c565b6020015160e001516006811115611045576110456126df565b1461109e5760405162461bcd60e51b815260206004820152602360248201527f50726f75646374696f6e206e6f74206f70656e20666f7220746f6b656e2073616044820152626c657360e81b60648201526084016104bd565b816110eb5760405162461bcd60e51b815260206004820152601b60248201527f496e76616c696420746f6b656e206e756d62657220746f20627579000000000060448201526064016104bd565b826110f46112b8565b6001600160a01b03167fb40a497791d49e425c65dd377a2d47f0d5f55231b0e46298e368a1efbba422f2848460405161113b92919091825261ffff16602082015260400190565b60405180910390a360405180606001604052808481526020018381526020018261ffff1681525061012f600061116f6112b8565b6001600160a01b03168152602080820192909252604090810160002083518155918301516001808401919091559201516002909101805461ffff191661ffff90921691909117905560fb55505050565b6111c76112b8565b6001600160a01b03166111e26097546001600160a01b031690565b6001600160a01b0316146112385760405162461bcd60e51b815260206004820181905260248201527f4f776e61626c653a2063616c6c6572206973206e6f7420746865206f776e657260448201526064016104bd565b6001600160a01b03811661129d5760405162461bcd60e51b815260206004820152602660248201527f4f776e61626c653a206e6577206f776e657220697320746865207a65726f206160448201526564647265737360d01b60648201526084016104bd565b6112a681611e5d565b50565b6001600160a01b03163b151590565b600061084b611f38565b6001600160a01b0383166113245760405162461bcd60e51b8152602060048201526024808201527f45524332303a20617070726f76652066726f6d20746865207a65726f206164646044820152637265737360e01b60648201526084016104bd565b6001600160a01b0382166113855760405162461bcd60e51b815260206004820152602260248201527f45524332303a20617070726f766520746f20746865207a65726f206164647265604482015261737360f01b60648201526084016104bd565b6001600160a01b0383811660008181526034602090815260408083209487168084529482529182902085905590518481527f8c5be1e5ebec7d5bd14f71427d1e84f3dd0314c0f7b2291e5b200ac8c7c3b925910160405180910390a3505050565b6040516001600160a01b038085166024830152831660448201526064810182905261147e9085906323b872dd60e01b906084015b60408051601f198184030181529190526020810180517bffffffffffffffffffffffffffffffffffffffffffffffffffffffff167fffffffff0000000000000000000000000000000000000000000000000000000090931692909217909152611f7d565b50505050565b6001600160a01b0382166114da5760405162461bcd60e51b815260206004820152601f60248201527f45524332303a206d696e7420746f20746865207a65726f20616464726573730060448201526064016104bd565b80603560008282546114ec91906126c7565b90915550506001600160a01b038216600090815260336020526040812080548392906115199084906126c7565b90915550506040518181526001600160a01b038316906000907fddf252ad1be2c89b69c2b068fc378daa952ba7f163c4a11628f55a4df523b3ef9060200160405180910390a35b5050565b61012d5460405163452c402d60e01b815260048101869052602481018590526001600160a01b038781166044830152600092839283929091169063452c402d90606401604080518083038186803b1580156115be57600080fd5b505afa1580156115d2573d6000803e3d6000fd5b505050506040513d601f19601f820116820180604052508101906115f69190612ae8565b61012e5491935091506001600160a01b038084169116146116595760405162461bcd60e51b815260206004820152601860248201527f496e76616c6964207061796d656e742063757272656e6379000000000000000060448201526064016104bd565b831580611684575080611681896001600160a01b031660009081526033602052604090205490565b10155b6116d05760405162461bcd60e51b815260206004820152600f60248201527f42616c616e636520746f6f206c6f77000000000000000000000000000000000060448201526064016104bd565b806116f0896001600160a01b031660009081526033602052604090205490565b106117fa576040805187815261ffff871660208201526001600160a01b038481168284015260608201849052915189928b16917fd1c01ada2fbad06c5f2e73d966e962a1edab820c9b262b846fc9d2899a42e3ed919081900360800190a36117588882611a64565b61012d5461012e54611777916001600160a01b0391821691168361204f565b61012d5460405163678909dd60e11b8152600481018990526001600160a01b038a811660248301526044820189905261ffff881660648301529091169063cf1213ba90608401600060405180830381600087803b1580156117d757600080fd5b505af11580156117eb573d6000803e3d6000fd5b50505050600192505050611801565b6000925050505b95945050505050565b6001600160a01b03838116600090815260346020908152604080832093861683529290522054600019811461147e57818110156118895760405162461bcd60e51b815260206004820152601d60248201527f45524332303a20696e73756666696369656e7420616c6c6f77616e636500000060448201526064016104bd565b61147e84848484036112c2565b6001600160a01b0383166118fa5760405162461bcd60e51b815260206004820152602560248201527f45524332303a207472616e736665722066726f6d20746865207a65726f206164604482015264647265737360d81b60648201526084016104bd565b6001600160a01b03821661195c5760405162461bcd60e51b815260206004820152602360248201527f45524332303a207472616e7366657220746f20746865207a65726f206164647260448201526265737360e81b60648201526084016104bd565b6001600160a01b038316600090815260336020526040902054818110156119d45760405162461bcd60e51b815260206004820152602660248201527f45524332303a207472616e7366657220616d6f756e7420657863656564732062604482015265616c616e636560d01b60648201526084016104bd565b6001600160a01b03808516600090815260336020526040808220858503905591851681529081208054849290611a0b9084906126c7565b92505081905550826001600160a01b0316846001600160a01b03167fddf252ad1be2c89b69c2b068fc378daa952ba7f163c4a11628f55a4df523b3ef84604051611a5791815260200190565b60405180910390a361147e565b6001600160a01b038216611ac45760405162461bcd60e51b815260206004820152602160248201527f45524332303a206275726e2066726f6d20746865207a65726f206164647265736044820152607360f81b60648201526084016104bd565b6001600160a01b03821660009081526033602052604090205481811015611b385760405162461bcd60e51b815260206004820152602260248201527f45524332303a206275726e20616d6f756e7420657863656564732062616c616e604482015261636560f01b60648201526084016104bd565b6001600160a01b0383166000908152603360205260408120838303905560358054849290611b67908490612b16565b90915550506040518281526000906001600160a01b038516907fddf252ad1be2c89b69c2b068fc378daa952ba7f163c4a11628f55a4df523b3ef9060200160405180910390a3505050565b6040516001600160a01b038316602482015260448101829052610a4190849063a9059cbb60e01b9060640161141a565b60c95460ff16611c345760405162461bcd60e51b815260206004820152601460248201527f5061757361626c653a206e6f742070617573656400000000000000000000000060448201526064016104bd565b60c9805460ff191690557f5db9ee0a495bf2e6ff9c91a7834c1ba4fdd244a5e8aa4e537bd38aeae4b073aa611c676112b8565b6040516001600160a01b03909116815260200160405180910390a1565b60008054610100900460ff1615611d12578160ff166001148015611ca75750303b155b611d0a5760405162461bcd60e51b815260206004820152602e60248201527f496e697469616c697a61626c653a20636f6e747261637420697320616c72656160448201526d191e481a5b9a5d1a585b1a5e995960921b60648201526084016104bd565b506000919050565b60005460ff808416911610611d805760405162461bcd60e51b815260206004820152602e60248201527f496e697469616c697a61626c653a20636f6e747261637420697320616c72656160448201526d191e481a5b9a5d1a585b1a5e995960921b60648201526084016104bd565b506000805460ff191660ff92909216919091179055600190565b919050565b600054610100900460ff16611dc65760405162461bcd60e51b81526004016104bd90612b2d565b61092361217a565b600054610100900460ff16611df55760405162461bcd60e51b81526004016104bd90612b2d565b61156082826121b1565b600054610100900460ff16611e265760405162461bcd60e51b81526004016104bd90612b2d565b6109236121ff565b600054610100900460ff16611e555760405162461bcd60e51b81526004016104bd90612b2d565b610923612232565b609780546001600160a01b0383811673ffffffffffffffffffffffffffffffffffffffff19831681179093556040519116919082907f8be0079c531659141344cd1fd0a4f28419497f9722a3daafe3b4186f6b6457e090600090a35050565b60c95460ff1615611f025760405162461bcd60e51b815260206004820152601060248201526f14185d5cd8589b194e881c185d5cd95960821b60448201526064016104bd565b60c9805460ff191660011790557f62e78cea01bee320cd4e420270b5ea74000d11b0c9f74754ebdbfc544b05a258611c676112b8565b60007f00000000000000000000000000000000000000000000000000000000000000006001600160a01b0316331415611f78575060131936013560601c90565b503390565b6000611fd2826040518060400160405280602081526020017f5361666545524332303a206c6f772d6c6576656c2063616c6c206661696c6564815250856001600160a01b03166122609092919063ffffffff16565b805190915015610a415780806020019051810190611ff09190612b78565b610a415760405162461bcd60e51b815260206004820152602a60248201527f5361666545524332303a204552433230206f7065726174696f6e20646964206e6044820152691bdd081cdd58d8d9595960b21b60648201526084016104bd565b8015806120d85750604051636eb1769f60e11b81523060048201526001600160a01b03838116602483015284169063dd62ed3e9060440160206040518083038186803b15801561209e57600080fd5b505afa1580156120b2573d6000803e3d6000fd5b505050506040513d601f19601f820116820180604052508101906120d69190612b93565b155b61214a5760405162461bcd60e51b815260206004820152603660248201527f5361666545524332303a20617070726f76652066726f6d206e6f6e2d7a65726f60448201527f20746f206e6f6e2d7a65726f20616c6c6f77616e63650000000000000000000060648201526084016104bd565b6040516001600160a01b038316602482015260448101829052610a4190849063095ea7b360e01b9060640161141a565b600054610100900460ff166121a15760405162461bcd60e51b81526004016104bd90612b2d565b6109236121ac6112b8565b611e5d565b600054610100900460ff166121d85760405162461bcd60e51b81526004016104bd90612b2d565b81516121eb9060369060208501906123e1565b508051610a419060379060208401906123e1565b600054610100900460ff166122265760405162461bcd60e51b81526004016104bd90612b2d565b60c9805460ff19169055565b600054610100900460ff166122595760405162461bcd60e51b81526004016104bd90612b2d565b600160fb55565b606061226f8484600085612277565b949350505050565b6060824710156122d85760405162461bcd60e51b815260206004820152602660248201527f416464726573733a20696e73756666696369656e742062616c616e636520666f6044820152651c8818d85b1b60d21b60648201526084016104bd565b6001600160a01b0385163b61232f5760405162461bcd60e51b815260206004820152601d60248201527f416464726573733a2063616c6c20746f206e6f6e2d636f6e747261637400000060448201526064016104bd565b600080866001600160a01b0316858760405161234b9190612bac565b60006040518083038185875af1925050503d8060008114612388576040519150601f19603f3d011682016040523d82523d6000602084013e61238d565b606091505b509150915061239d8282866123a8565b979650505050505050565b606083156123b7575081610646565b8251156123c75782518084602001fd5b8160405162461bcd60e51b81526004016104bd91906124a6565b8280546123ed9061264a565b90600052602060002090601f01602090048101928261240f5760008555612455565b82601f1061242857805160ff1916838001178555612455565b82800160010185558215612455579182015b8281111561245557825182559160200191906001019061243a565b50612461929150612465565b5090565b5b808211156124615760008155600101612466565b60005b8381101561249557818101518382015260200161247d565b8381111561147e5750506000910152565b60208152600082518060208401526124c581604085016020870161247a565b601f01601f19169190910160400192915050565b6001600160a01b03811681146112a657600080fd5b6000806040838503121561250157600080fd5b823561250c816124d9565b946020939093013593505050565b60008060006060848603121561252f57600080fd5b833561253a816124d9565b9250602084013591506040840135612551816124d9565b809150509250925092565b60008060006060848603121561257157600080fd5b833561257c816124d9565b9250602084013561258c816124d9565b929592945050506040919091013590565b6000602082840312156125af57600080fd5b5035919050565b600080604083850312156125c957600080fd5b82356125d4816124d9565b915060208301356125e4816124d9565b809150509250929050565b60006020828403121561260157600080fd5b8135610646816124d9565b61ffff811681146112a657600080fd5b60008060006060848603121561263157600080fd5b833592506020840135915060408401356125518161260c565b600181811c9082168061265e57607f821691505b6020821081141561267f57634e487b7160e01b600052602260045260246000fd5b50919050565b805160ff81168114611d9a57600080fd5b6000602082840312156126a857600080fd5b61064682612685565b634e487b7160e01b600052601160045260246000fd5b600082198211156126da576126da6126b1565b500190565b634e487b7160e01b600052602160045260246000fd5b634e487b7160e01b600052604160045260246000fd5b6040516101c0810167ffffffffffffffff8111828210171561272f5761272f6126f5565b60405290565b6040516080810167ffffffffffffffff8111828210171561272f5761272f6126f5565b604051610100810167ffffffffffffffff8111828210171561272f5761272f6126f5565b604051601f8201601f1916810167ffffffffffffffff811182821017156127a5576127a56126f5565b604052919050565b8051611d9a816124d9565b805160078110611d9a57600080fd5b600082601f8301126127d857600080fd5b815167ffffffffffffffff8111156127f2576127f26126f5565b612805601f8201601f191660200161277c565b81815284602083860101111561281a57600080fd5b61226f82602083016020870161247a565b60006101c0828403121561283e57600080fd5b61284661270b565b905081518152612858602083016127ad565b602082015260408201516040820152606082015160608201526080820151608082015260a082015160a082015261289160c083016127ad565b60c08201526128a260e083016127b8565b60e08201526101008083015167ffffffffffffffff8111156128c357600080fd5b6128cf858286016127c7565b8284015250506101208083015181830152506101408083015181830152506101606128fb818401612685565b9082015261018061290d8382016127ad565b908201526101a061291f8382016127ad565b9082015292915050565b600082601f83011261293a57600080fd5b8151602067ffffffffffffffff821115612956576129566126f5565b612964818360051b0161277c565b82815260079290921b8401810191818101908684111561298357600080fd5b8286015b848110156129f157608081890312156129a05760008081fd5b6129a8612735565b81516129b38161260c565b8152818501516129c28161260c565b818601526040828101516129d58161260c565b9082015260608281015190820152835291830191608001612987565b509695505050505050565b80518015158114611d9a57600080fd5b600060208284031215612a1e57600080fd5b815167ffffffffffffffff80821115612a3657600080fd5b908301906101008286031215612a4b57600080fd5b612a53612758565b82518152602083015182811115612a6957600080fd5b612a758782860161282b565b602083015250604083015182811115612a8d57600080fd5b612a9987828601612929565b604083015250612aab606084016127ad565b60608201526080830151608082015260a083015160a082015260c083015160c0820152612ada60e084016129fc565b60e082015295945050505050565b60008060408385031215612afb57600080fd5b8251612b06816124d9565b6020939093015192949293505050565b600082821015612b2857612b286126b1565b500390565b6020808252602b908201527f496e697469616c697a61626c653a20636f6e7472616374206973206e6f74206960408201526a6e697469616c697a696e6760a81b606082015260800190565b600060208284031215612b8a57600080fd5b610646826129fc565b600060208284031215612ba557600080fd5b5051919050565b60008251612bbe81846020870161247a565b919091019291505056fea2646970667358221220d2f5202d500cd42ab05d178c67e3a69c82c8c3118332c6e50464f7b17af014ba64736f6c63430008090033496e697469616c697a61626c653a20636f6e747261637420697320616c726561",
  "devdoc": {
    "custom:security-contact": "info@staxe.io",
    "kind": "dev",
    "methods": {
      "allowance(address,address)": {
        "details": "See {IERC20-allowance}."
      },
      "approve(address,uint256)": {
        "details": "See {IERC20-approve}. NOTE: If `amount` is the maximum `uint256`, the allowance is not updated on `transferFrom`. This is semantically equivalent to an infinite approval. Requirements: - `spender` cannot be the zero address."
      },
      "balanceOf(address)": {
        "details": "See {IERC20-balanceOf}."
      },
      "constructor": {
        "custom:oz-upgrades-unsafe-allow": "constructor"
      },
      "decimals()": {
        "details": "Returns the number of decimals used to get its user representation. For example, if `decimals` equals `2`, a balance of `505` tokens should be displayed to a user as `5.05` (`505 / 10 ** 2`). Tokens usually opt for a value of 18, imitating the relationship between Ether and Wei. This is the value {ERC20} uses, unless this function is overridden; NOTE: This information is only used for _display_ purposes: it in no way affects any of the arithmetic of the contract, including {IERC20-balanceOf} and {IERC20-transfer}."
      },
      "decreaseAllowance(address,uint256)": {
        "details": "Atomically decreases the allowance granted to `spender` by the caller. This is an alternative to {approve} that can be used as a mitigation for problems described in {IERC20-approve}. Emits an {Approval} event indicating the updated allowance. Requirements: - `spender` cannot be the zero address. - `spender` must have allowance for the caller of at least `subtractedValue`."
      },
      "increaseAllowance(address,uint256)": {
        "details": "Atomically increases the allowance granted to `spender` by the caller. This is an alternative to {approve} that can be used as a mitigation for problems described in {IERC20-approve}. Emits an {Approval} event indicating the updated allowance. Requirements: - `spender` cannot be the zero address."
      },
      "name()": {
        "details": "Returns the name of the token."
      },
      "owner()": {
        "details": "Returns the address of the current owner."
      },
      "paused()": {
        "details": "Returns true if the contract is paused, and false otherwise."
      },
      "renounceOwnership()": {
        "details": "Leaves the contract without owner. It will not be possible to call `onlyOwner` functions anymore. Can only be called by the current owner. NOTE: Renouncing ownership will leave the contract without an owner, thereby removing any functionality that is only available to the owner."
      },
      "symbol()": {
        "details": "Returns the symbol of the token, usually a shorter version of the name."
      },
      "totalSupply()": {
        "details": "See {IERC20-totalSupply}."
      },
      "transfer(address,uint256)": {
        "details": "See {IERC20-transfer}. Requirements: - `to` cannot be the zero address. - the caller must have a balance of at least `amount`."
      },
      "transferFrom(address,address,uint256)": {
        "details": "See {IERC20-transferFrom}. Emits an {Approval} event indicating the updated allowance. This is not required by the EIP. See the note at the beginning of {ERC20}. NOTE: Does not update the allowance if the current allowance is the maximum `uint256`. Requirements: - `from` and `to` cannot be the zero address. - `from` must have a balance of at least `amount`. - the caller must have allowance for ``from``'s tokens of at least `amount`."
      },
      "transferOwnership(address)": {
        "details": "Transfers ownership of the contract to a new account (`newOwner`). Can only be called by the current owner."
      }
    },
    "version": 1
  },
  "userdoc": {
    "kind": "user",
    "methods": {},
    "version": 1
  },
  "storageLayout": {
    "storage": [
      {
        "astId": 800,
        "contract": "contracts/v3/StaxePurchaseProxyV3.sol:StaxePurchaseProxyV3",
        "label": "_initialized",
        "offset": 0,
        "slot": "0",
        "type": "t_uint8"
      },
      {
        "astId": 803,
        "contract": "contracts/v3/StaxePurchaseProxyV3.sol:StaxePurchaseProxyV3",
        "label": "_initializing",
        "offset": 1,
        "slot": "0",
        "type": "t_bool"
      },
      {
        "astId": 3750,
        "contract": "contracts/v3/StaxePurchaseProxyV3.sol:StaxePurchaseProxyV3",
        "label": "__gap",
        "offset": 0,
        "slot": "1",
        "type": "t_array(t_uint256)50_storage"
      },
      {
        "astId": 2547,
        "contract": "contracts/v3/StaxePurchaseProxyV3.sol:StaxePurchaseProxyV3",
        "label": "_balances",
        "offset": 0,
        "slot": "51",
        "type": "t_mapping(t_address,t_uint256)"
      },
      {
        "astId": 2553,
        "contract": "contracts/v3/StaxePurchaseProxyV3.sol:StaxePurchaseProxyV3",
        "label": "_allowances",
        "offset": 0,
        "slot": "52",
        "type": "t_mapping(t_address,t_mapping(t_address,t_uint256))"
      },
      {
        "astId": 2555,
        "contract": "contracts/v3/StaxePurchaseProxyV3.sol:StaxePurchaseProxyV3",
        "label": "_totalSupply",
        "offset": 0,
        "slot": "53",
        "type": "t_uint256"
      },
      {
        "astId": 2557,
        "contract": "contracts/v3/StaxePurchaseProxyV3.sol:StaxePurchaseProxyV3",
        "label": "_name",
        "offset": 0,
        "slot": "54",
        "type": "t_string_storage"
      },
      {
        "astId": 2559,
        "contract": "contracts/v3/StaxePurchaseProxyV3.sol:StaxePurchaseProxyV3",
        "label": "_symbol",
        "offset": 0,
        "slot": "55",
        "type": "t_string_storage"
      },
      {
        "astId": 3138,
        "contract": "contracts/v3/StaxePurchaseProxyV3.sol:StaxePurchaseProxyV3",
        "label": "__gap",
        "offset": 0,
        "slot": "56",
        "type": "t_array(t_uint256)45_storage"
      },
      {
        "astId": 792,
        "contract": "contracts/v3/StaxePurchaseProxyV3.sol:StaxePurchaseProxyV3",
        "label": "__gap",
        "offset": 0,
        "slot": "101",
        "type": "t_array(t_uint256)50_storage"
      },
      {
        "astId": 593,
        "contract": "contracts/v3/StaxePurchaseProxyV3.sol:StaxePurchaseProxyV3",
        "label": "_owner",
        "offset": 0,
        "slot": "151",
        "type": "t_address"
      },
      {
        "astId": 705,
        "contract": "contracts/v3/StaxePurchaseProxyV3.sol:StaxePurchaseProxyV3",
        "label": "__gap",
        "offset": 0,
        "slot": "152",
        "type": "t_array(t_uint256)49_storage"
      },
      {
        "astId": 956,
        "contract": "contracts/v3/StaxePurchaseProxyV3.sol:StaxePurchaseProxyV3",
        "label": "_paused",
        "offset": 0,
        "slot": "201",
        "type": "t_bool"
      },
      {
        "astId": 1045,
        "contract": "contracts/v3/StaxePurchaseProxyV3.sol:StaxePurchaseProxyV3",
        "label": "__gap",
        "offset": 0,
        "slot": "202",
        "type": "t_array(t_uint256)49_storage"
      },
      {
        "astId": 1060,
        "contract": "contracts/v3/StaxePurchaseProxyV3.sol:StaxePurchaseProxyV3",
        "label": "_status",
        "offset": 0,
        "slot": "251",
        "type": "t_uint256"
      },
      {
        "astId": 1104,
        "contract": "contracts/v3/StaxePurchaseProxyV3.sol:StaxePurchaseProxyV3",
        "label": "__gap",
        "offset": 0,
        "slot": "252",
        "type": "t_array(t_uint256)49_storage"
      },
      {
        "astId": 16920,
        "contract": "contracts/v3/StaxePurchaseProxyV3.sol:StaxePurchaseProxyV3",
        "label": "productions",
        "offset": 0,
        "slot": "301",
        "type": "t_contract(IProductionsV3)18025"
      },
      {
        "astId": 16923,
        "contract": "contracts/v3/StaxePurchaseProxyV3.sol:StaxePurchaseProxyV3",
        "label": "wrappedToken",
        "offset": 0,
        "slot": "302",
        "type": "t_contract(IERC20Upgradeable)3217"
      },
      {
        "astId": 16928,
        "contract": "contracts/v3/StaxePurchaseProxyV3.sol:StaxePurchaseProxyV3",
        "label": "purchases",
        "offset": 0,
        "slot": "303",
        "type": "t_mapping(t_address,t_struct(Purchase)18066_storage)"
      }
    ],
    "types": {
      "t_address": {
        "encoding": "inplace",
        "label": "address",
        "numberOfBytes": "20"
      },
      "t_array(t_uint256)45_storage": {
        "base": "t_uint256",
        "encoding": "inplace",
        "label": "uint256[45]",
        "numberOfBytes": "1440"
      },
      "t_array(t_uint256)49_storage": {
        "base": "t_uint256",
        "encoding": "inplace",
        "label": "uint256[49]",
        "numberOfBytes": "1568"
      },
      "t_array(t_uint256)50_storage": {
        "base": "t_uint256",
        "encoding": "inplace",
        "label": "uint256[50]",
        "numberOfBytes": "1600"
      },
      "t_bool": {
        "encoding": "inplace",
        "label": "bool",
        "numberOfBytes": "1"
      },
      "t_contract(IERC20Upgradeable)3217": {
        "encoding": "inplace",
        "label": "contract IERC20Upgradeable",
        "numberOfBytes": "20"
      },
      "t_contract(IProductionsV3)18025": {
        "encoding": "inplace",
        "label": "contract IProductionsV3",
        "numberOfBytes": "20"
      },
      "t_mapping(t_address,t_mapping(t_address,t_uint256))": {
        "encoding": "mapping",
        "key": "t_address",
        "label": "mapping(address => mapping(address => uint256))",
        "numberOfBytes": "32",
        "value": "t_mapping(t_address,t_uint256)"
      },
      "t_mapping(t_address,t_struct(Purchase)18066_storage)": {
        "encoding": "mapping",
        "key": "t_address",
        "label": "mapping(address => struct IPurchaseProxyV3.Purchase)",
        "numberOfBytes": "32",
        "value": "t_struct(Purchase)18066_storage"
      },
      "t_mapping(t_address,t_uint256)": {
        "encoding": "mapping",
        "key": "t_address",
        "label": "mapping(address => uint256)",
        "numberOfBytes": "32",
        "value": "t_uint256"
      },
      "t_string_storage": {
        "encoding": "bytes",
        "label": "string",
        "numberOfBytes": "32"
      },
      "t_struct(Purchase)18066_storage": {
        "encoding": "inplace",
        "label": "struct IPurchaseProxyV3.Purchase",
        "members": [
          {
            "astId": 18061,
            "contract": "contracts/v3/StaxePurchaseProxyV3.sol:StaxePurchaseProxyV3",
            "label": "tokenId",
            "offset": 0,
            "slot": "0",
            "type": "t_uint256"
          },
          {
            "astId": 18063,
            "contract": "contracts/v3/StaxePurchaseProxyV3.sol:StaxePurchaseProxyV3",
            "label": "numTokens",
            "offset": 0,
            "slot": "1",
            "type": "t_uint256"
          },
          {
            "astId": 18065,
            "contract": "contracts/v3/StaxePurchaseProxyV3.sol:StaxePurchaseProxyV3",
            "label": "perkId",
            "offset": 0,
            "slot": "2",
            "type": "t_uint16"
          }
        ],
        "numberOfBytes": "96"
      },
      "t_uint16": {
        "encoding": "inplace",
        "label": "uint16",
        "numberOfBytes": "2"
      },
      "t_uint256": {
        "encoding": "inplace",
        "label": "uint256",
        "numberOfBytes": "32"
      },
      "t_uint8": {
        "encoding": "inplace",
        "label": "uint8",
        "numberOfBytes": "1"
      }
    }
  }
}