{
  "address": "0xF694080e3dAf84B5A4a9A6dDf9c049b5FA952D42",
  "abi": [
    {
      "inputs": [
        {
          "internalType": "address",
          "name": "trustedForwarder",
          "type": "address"
        }
      ],
      "stateMutability": "nonpayable",
      "type": "constructor"
    },
    {
      "anonymous": false,
      "inputs": [
        {
          "indexed": true,
          "internalType": "uint256",
          "name": "id",
          "type": "uint256"
        },
        {
          "indexed": true,
          "internalType": "address",
          "name": "buyer",
          "type": "address"
        },
        {
          "indexed": false,
          "internalType": "uint256",
          "name": "amount",
          "type": "uint256"
        },
        {
          "indexed": false,
          "internalType": "uint256",
          "name": "platformShare",
          "type": "uint256"
        }
      ],
      "name": "FundingClaimed",
      "type": "event"
    },
    {
      "anonymous": false,
      "inputs": [
        {
          "indexed": false,
          "internalType": "uint8",
          "name": "version",
          "type": "uint8"
        }
      ],
      "name": "Initialized",
      "type": "event"
    },
    {
      "anonymous": false,
      "inputs": [
        {
          "indexed": true,
          "internalType": "address",
          "name": "previousOwner",
          "type": "address"
        },
        {
          "indexed": true,
          "internalType": "address",
          "name": "newOwner",
          "type": "address"
        }
      ],
      "name": "OwnershipTransferred",
      "type": "event"
    },
    {
      "anonymous": false,
      "inputs": [
        {
          "indexed": true,
          "internalType": "uint256",
          "name": "id",
          "type": "uint256"
        },
        {
          "indexed": true,
          "internalType": "address",
          "name": "buyer",
          "type": "address"
        },
        {
          "indexed": false,
          "internalType": "uint256",
          "name": "amount",
          "type": "uint256"
        }
      ],
      "name": "ProceedsClaimed",
      "type": "event"
    },
    {
      "anonymous": false,
      "inputs": [
        {
          "indexed": true,
          "internalType": "uint256",
          "name": "id",
          "type": "uint256"
        },
        {
          "indexed": true,
          "internalType": "address",
          "name": "creator",
          "type": "address"
        },
        {
          "indexed": false,
          "internalType": "uint256",
          "name": "amount",
          "type": "uint256"
        }
      ],
      "name": "ProceedsDeposited",
      "type": "event"
    },
    {
      "anonymous": false,
      "inputs": [
        {
          "indexed": true,
          "internalType": "uint256",
          "name": "id",
          "type": "uint256"
        },
        {
          "indexed": true,
          "internalType": "address",
          "name": "creator",
          "type": "address"
        },
        {
          "indexed": false,
          "internalType": "uint256",
          "name": "tokenSupply",
          "type": "uint256"
        },
        {
          "indexed": false,
          "internalType": "address",
          "name": "escrow",
          "type": "address"
        }
      ],
      "name": "ProductionMinted",
      "type": "event"
    },
    {
      "anonymous": false,
      "inputs": [
        {
          "indexed": true,
          "internalType": "uint256",
          "name": "id",
          "type": "uint256"
        },
        {
          "indexed": true,
          "internalType": "address",
          "name": "buyer",
          "type": "address"
        },
        {
          "indexed": false,
          "internalType": "uint256",
          "name": "amount",
          "type": "uint256"
        },
        {
          "indexed": false,
          "internalType": "uint256",
          "name": "price",
          "type": "uint256"
        },
        {
          "indexed": false,
          "internalType": "uint16",
          "name": "perkClaimed",
          "type": "uint16"
        }
      ],
      "name": "TokenBought",
      "type": "event"
    },
    {
      "inputs": [
        {
          "internalType": "address",
          "name": "trustedErc20Coin",
          "type": "address"
        }
      ],
      "name": "addTrustedErc20Coin",
      "outputs": [],
      "stateMutability": "nonpayable",
      "type": "function"
    },
    {
      "inputs": [
        {
          "internalType": "address",
          "name": "trustedEscrowFactory",
          "type": "address"
        }
      ],
      "name": "addTrustedEscrowFactory",
      "outputs": [],
      "stateMutability": "nonpayable",
      "type": "function"
    },
    {
      "inputs": [
        {
          "internalType": "uint256",
          "name": "id",
          "type": "uint256"
        }
      ],
      "name": "approve",
      "outputs": [],
      "stateMutability": "nonpayable",
      "type": "function"
    },
    {
      "inputs": [
        {
          "internalType": "uint256",
          "name": "id",
          "type": "uint256"
        },
        {
          "internalType": "address",
          "name": "buyer",
          "type": "address"
        },
        {
          "internalType": "uint256",
          "name": "amount",
          "type": "uint256"
        },
        {
          "internalType": "uint16",
          "name": "perk",
          "type": "uint16"
        }
      ],
      "name": "buyTokensWithCurrency",
      "outputs": [],
      "stateMutability": "payable",
      "type": "function"
    },
    {
      "inputs": [
        {
          "internalType": "uint256",
          "name": "id",
          "type": "uint256"
        },
        {
          "internalType": "address",
          "name": "buyer",
          "type": "address"
        },
        {
          "internalType": "uint256",
          "name": "amount",
          "type": "uint256"
        },
        {
          "internalType": "uint16",
          "name": "perk",
          "type": "uint16"
        }
      ],
      "name": "buyTokensWithFiat",
      "outputs": [],
      "stateMutability": "nonpayable",
      "type": "function"
    },
    {
      "inputs": [
        {
          "internalType": "uint256",
          "name": "id",
          "type": "uint256"
        },
        {
          "internalType": "address",
          "name": "buyer",
          "type": "address"
        },
        {
          "internalType": "uint256",
          "name": "amount",
          "type": "uint256"
        },
        {
          "internalType": "uint16",
          "name": "perk",
          "type": "uint16"
        }
      ],
      "name": "buyTokensWithTokens",
      "outputs": [],
      "stateMutability": "nonpayable",
      "type": "function"
    },
    {
      "inputs": [
        {
          "internalType": "uint256",
          "name": "id",
          "type": "uint256"
        },
        {
          "internalType": "uint256",
          "name": "newCloseDate",
          "type": "uint256"
        }
      ],
      "name": "cancel",
      "outputs": [],
      "stateMutability": "nonpayable",
      "type": "function"
    },
    {
      "inputs": [
        {
          "internalType": "uint256",
          "name": "id",
          "type": "uint256"
        }
      ],
      "name": "close",
      "outputs": [],
      "stateMutability": "nonpayable",
      "type": "function"
    },
    {
      "inputs": [
        {
          "internalType": "uint256",
          "name": "id",
          "type": "uint256"
        }
      ],
      "name": "decline",
      "outputs": [],
      "stateMutability": "nonpayable",
      "type": "function"
    },
    {
      "inputs": [
        {
          "internalType": "uint256",
          "name": "id",
          "type": "uint256"
        }
      ],
      "name": "depositProceedsInCurrency",
      "outputs": [],
      "stateMutability": "payable",
      "type": "function"
    },
    {
      "inputs": [
        {
          "internalType": "uint256",
          "name": "id",
          "type": "uint256"
        },
        {
          "internalType": "uint256",
          "name": "amount",
          "type": "uint256"
        }
      ],
      "name": "depositProceedsInTokens",
      "outputs": [],
      "stateMutability": "nonpayable",
      "type": "function"
    },
    {
      "inputs": [
        {
          "internalType": "uint256",
          "name": "id",
          "type": "uint256"
        }
      ],
      "name": "finishCrowdsale",
      "outputs": [],
      "stateMutability": "nonpayable",
      "type": "function"
    },
    {
      "inputs": [
        {
          "internalType": "uint256",
          "name": "id",
          "type": "uint256"
        }
      ],
      "name": "getProduction",
      "outputs": [
        {
          "components": [
            {
              "internalType": "uint256",
              "name": "id",
              "type": "uint256"
            },
            {
              "components": [
                {
                  "internalType": "uint256",
                  "name": "id",
                  "type": "uint256"
                },
                {
                  "internalType": "address",
                  "name": "creator",
                  "type": "address"
                },
                {
                  "internalType": "uint256",
                  "name": "totalSupply",
                  "type": "uint256"
                },
                {
                  "internalType": "uint256",
                  "name": "organizerTokens",
                  "type": "uint256"
                },
                {
                  "internalType": "uint256",
                  "name": "soldCounter",
                  "type": "uint256"
                },
                {
                  "internalType": "uint256",
                  "name": "maxTokensUnknownBuyer",
                  "type": "uint256"
                },
                {
                  "internalType": "contract IERC20Upgradeable",
                  "name": "currency",
                  "type": "address"
                },
                {
                  "internalType": "enum IProductionEscrowV3.ProductionState",
                  "name": "state",
                  "type": "uint8"
                },
                {
                  "internalType": "string",
                  "name": "dataHash",
                  "type": "string"
                },
                {
                  "internalType": "uint256",
                  "name": "crowdsaleEndDate",
                  "type": "uint256"
                },
                {
                  "internalType": "uint256",
                  "name": "productionEndDate",
                  "type": "uint256"
                },
                {
                  "internalType": "uint8",
                  "name": "platformSharePercentage",
                  "type": "uint8"
                },
                {
                  "internalType": "contract IPerkTrackerV3",
                  "name": "perkTracker",
                  "type": "address"
                },
                {
                  "internalType": "contract IPriceCalculationEngineV3",
                  "name": "priceCalculationEngine",
                  "type": "address"
                }
              ],
              "internalType": "struct IProductionEscrowV3.ProductionData",
              "name": "data",
              "type": "tuple"
            },
            {
              "components": [
                {
                  "internalType": "uint16",
                  "name": "id",
                  "type": "uint16"
                },
                {
                  "internalType": "uint16",
                  "name": "total",
                  "type": "uint16"
                },
                {
                  "internalType": "uint16",
                  "name": "claimed",
                  "type": "uint16"
                },
                {
                  "internalType": "uint256",
                  "name": "minTokensRequired",
                  "type": "uint256"
                }
              ],
              "internalType": "struct IProductionEscrowV3.Perk[]",
              "name": "perks",
              "type": "tuple[]"
            },
            {
              "internalType": "contract IProductionEscrowV3",
              "name": "escrow",
              "type": "address"
            },
            {
              "internalType": "uint256",
              "name": "fundsRaised",
              "type": "uint256"
            },
            {
              "internalType": "uint256",
              "name": "proceedsEarned",
              "type": "uint256"
            },
            {
              "internalType": "uint256",
              "name": "escrowBalance",
              "type": "uint256"
            },
            {
              "internalType": "bool",
              "name": "paused",
              "type": "bool"
            }
          ],
          "internalType": "struct IProductionsV3.Production",
          "name": "",
          "type": "tuple"
        }
      ],
      "stateMutability": "view",
      "type": "function"
    },
    {
      "inputs": [
        {
          "internalType": "address",
          "name": "creator",
          "type": "address"
        }
      ],
      "name": "getProductionIdsByCreator",
      "outputs": [
        {
          "internalType": "uint256[]",
          "name": "",
          "type": "uint256[]"
        }
      ],
      "stateMutability": "view",
      "type": "function"
    },
    {
      "inputs": [
        {
          "internalType": "uint256",
          "name": "id",
          "type": "uint256"
        },
        {
          "internalType": "address",
          "name": "tokenOwner",
          "type": "address"
        }
      ],
      "name": "getTokenOwnerData",
      "outputs": [
        {
          "internalType": "uint256",
          "name": "balance",
          "type": "uint256"
        },
        {
          "components": [
            {
              "internalType": "uint256",
              "name": "tokens",
              "type": "uint256"
            },
            {
              "internalType": "uint256",
              "name": "price",
              "type": "uint256"
            }
          ],
          "internalType": "struct IProductionEscrowV3.Purchase[]",
          "name": "purchases",
          "type": "tuple[]"
        },
        {
          "components": [
            {
              "internalType": "uint16",
              "name": "id",
              "type": "uint16"
            },
            {
              "internalType": "uint16",
              "name": "total",
              "type": "uint16"
            },
            {
              "internalType": "uint16",
              "name": "claimed",
              "type": "uint16"
            },
            {
              "internalType": "uint256",
              "name": "minTokensRequired",
              "type": "uint256"
            }
          ],
          "internalType": "struct IProductionEscrowV3.Perk[]",
          "name": "perksOwned",
          "type": "tuple[]"
        },
        {
          "internalType": "uint256",
          "name": "proceedsClaimed",
          "type": "uint256"
        },
        {
          "internalType": "uint256",
          "name": "proceedsAvailable",
          "type": "uint256"
        }
      ],
      "stateMutability": "view",
      "type": "function"
    },
    {
      "inputs": [
        {
          "internalType": "uint256",
          "name": "id",
          "type": "uint256"
        },
        {
          "internalType": "uint256",
          "name": "amount",
          "type": "uint256"
        }
      ],
      "name": "getTokenPrice",
      "outputs": [
        {
          "internalType": "contract IERC20Upgradeable",
          "name": "",
          "type": "address"
        },
        {
          "internalType": "uint256",
          "name": "",
          "type": "uint256"
        }
      ],
      "stateMutability": "view",
      "type": "function"
    },
    {
      "inputs": [
        {
          "internalType": "uint256",
          "name": "id",
          "type": "uint256"
        },
        {
          "internalType": "uint256",
          "name": "amount",
          "type": "uint256"
        },
        {
          "internalType": "address",
          "name": "buyer",
          "type": "address"
        }
      ],
      "name": "getTokenPriceFor",
      "outputs": [
        {
          "internalType": "contract IERC20Upgradeable",
          "name": "",
          "type": "address"
        },
        {
          "internalType": "uint256",
          "name": "",
          "type": "uint256"
        }
      ],
      "stateMutability": "view",
      "type": "function"
    },
    {
      "inputs": [
        {
          "internalType": "contract IProductionTokenV3",
          "name": "_productionToken",
          "type": "address"
        },
        {
          "internalType": "contract IMembersV3",
          "name": "_members",
          "type": "address"
        },
        {
          "internalType": "contract IWETH",
          "name": "_nativeWrapper",
          "type": "address"
        },
        {
          "internalType": "address",
          "name": "_treasury",
          "type": "address"
        },
        {
          "internalType": "address",
          "name": "_relayer",
          "type": "address"
        }
      ],
      "name": "initialize",
      "outputs": [],
      "stateMutability": "nonpayable",
      "type": "function"
    },
    {
      "inputs": [
        {
          "internalType": "address",
          "name": "forwarder",
          "type": "address"
        }
      ],
      "name": "isTrustedForwarder",
      "outputs": [
        {
          "internalType": "bool",
          "name": "",
          "type": "bool"
        }
      ],
      "stateMutability": "view",
      "type": "function"
    },
    {
      "inputs": [],
      "name": "members",
      "outputs": [
        {
          "internalType": "contract IMembersV3",
          "name": "",
          "type": "address"
        }
      ],
      "stateMutability": "view",
      "type": "function"
    },
    {
      "inputs": [
        {
          "internalType": "contract IProductionEscrowV3",
          "name": "escrow",
          "type": "address"
        },
        {
          "internalType": "address",
          "name": "creator",
          "type": "address"
        },
        {
          "internalType": "uint256",
          "name": "totalAmount",
          "type": "uint256"
        }
      ],
      "name": "mintProduction",
      "outputs": [
        {
          "internalType": "uint256",
          "name": "id",
          "type": "uint256"
        }
      ],
      "stateMutability": "nonpayable",
      "type": "function"
    },
    {
      "inputs": [],
      "name": "nativeWrapper",
      "outputs": [
        {
          "internalType": "contract IWETH",
          "name": "",
          "type": "address"
        }
      ],
      "stateMutability": "view",
      "type": "function"
    },
    {
      "inputs": [],
      "name": "owner",
      "outputs": [
        {
          "internalType": "address",
          "name": "",
          "type": "address"
        }
      ],
      "stateMutability": "view",
      "type": "function"
    },
    {
      "inputs": [
        {
          "internalType": "uint256",
          "name": "id",
          "type": "uint256"
        }
      ],
      "name": "pause",
      "outputs": [],
      "stateMutability": "nonpayable",
      "type": "function"
    },
    {
      "inputs": [
        {
          "internalType": "uint256",
          "name": "",
          "type": "uint256"
        }
      ],
      "name": "productionEscrows",
      "outputs": [
        {
          "internalType": "uint256",
          "name": "id",
          "type": "uint256"
        },
        {
          "internalType": "contract IProductionEscrowV3",
          "name": "escrow",
          "type": "address"
        }
      ],
      "stateMutability": "view",
      "type": "function"
    },
    {
      "inputs": [
        {
          "internalType": "address",
          "name": "",
          "type": "address"
        },
        {
          "internalType": "uint256",
          "name": "",
          "type": "uint256"
        }
      ],
      "name": "productionIdsByOwner",
      "outputs": [
        {
          "internalType": "uint256",
          "name": "",
          "type": "uint256"
        }
      ],
      "stateMutability": "view",
      "type": "function"
    },
    {
      "inputs": [],
      "name": "productionToken",
      "outputs": [
        {
          "internalType": "contract IProductionTokenV3",
          "name": "",
          "type": "address"
        }
      ],
      "stateMutability": "view",
      "type": "function"
    },
    {
      "inputs": [
        {
          "internalType": "address",
          "name": "invalidAddress",
          "type": "address"
        }
      ],
      "name": "removeTrustedErc20Coin",
      "outputs": [],
      "stateMutability": "nonpayable",
      "type": "function"
    },
    {
      "inputs": [
        {
          "internalType": "address",
          "name": "invalidAddress",
          "type": "address"
        }
      ],
      "name": "removeTrustedEscrowFactory",
      "outputs": [],
      "stateMutability": "nonpayable",
      "type": "function"
    },
    {
      "inputs": [],
      "name": "renounceOwnership",
      "outputs": [],
      "stateMutability": "nonpayable",
      "type": "function"
    },
    {
      "inputs": [],
      "name": "router",
      "outputs": [
        {
          "internalType": "contract ISwapRouter",
          "name": "",
          "type": "address"
        }
      ],
      "stateMutability": "view",
      "type": "function"
    },
    {
      "inputs": [
        {
          "internalType": "address",
          "name": "_relayer",
          "type": "address"
        }
      ],
      "name": "setRelayer",
      "outputs": [],
      "stateMutability": "nonpayable",
      "type": "function"
    },
    {
      "inputs": [
        {
          "internalType": "uint256",
          "name": "id",
          "type": "uint256"
        }
      ],
      "name": "transferFunding",
      "outputs": [],
      "stateMutability": "nonpayable",
      "type": "function"
    },
    {
      "inputs": [
        {
          "internalType": "address",
          "name": "newOwner",
          "type": "address"
        }
      ],
      "name": "transferOwnership",
      "outputs": [],
      "stateMutability": "nonpayable",
      "type": "function"
    },
    {
      "inputs": [
        {
          "internalType": "uint256",
          "name": "id",
          "type": "uint256"
        }
      ],
      "name": "transferProceeds",
      "outputs": [],
      "stateMutability": "nonpayable",
      "type": "function"
    },
    {
      "inputs": [],
      "name": "treasury",
      "outputs": [
        {
          "internalType": "address",
          "name": "",
          "type": "address"
        }
      ],
      "stateMutability": "view",
      "type": "function"
    },
    {
      "inputs": [
        {
          "internalType": "address",
          "name": "",
          "type": "address"
        }
      ],
      "name": "trustedErc20Coins",
      "outputs": [
        {
          "internalType": "bool",
          "name": "",
          "type": "bool"
        }
      ],
      "stateMutability": "view",
      "type": "function"
    },
    {
      "inputs": [
        {
          "internalType": "address",
          "name": "",
          "type": "address"
        }
      ],
      "name": "trustedEscrowFactories",
      "outputs": [
        {
          "internalType": "bool",
          "name": "",
          "type": "bool"
        }
      ],
      "stateMutability": "view",
      "type": "function"
    },
    {
      "inputs": [
        {
          "internalType": "uint256",
          "name": "id",
          "type": "uint256"
        }
      ],
      "name": "unpause",
      "outputs": [],
      "stateMutability": "nonpayable",
      "type": "function"
    },
    {
      "stateMutability": "payable",
      "type": "receive"
    }
  ],
  "transactionHash": "0x0052a6fb54a811d1e034621f3cc41eae618d3846ed9eadd27fcbe4b55045c870",
  "args": [
    "0x43415f3c26771ED52eE5160Ce67AC6f6ad547616"
  ],
  "numDeployments": 1,
  "solcInputHash": "16fa5a17a842ab7a1fdba292100cd1d5",
  "bytecode": "0x60a06040523480156200001157600080fd5b5060405162004cdb38038062004cdb833981016040819052620000349162000046565b6001600160a01b031660805262000078565b6000602082840312156200005957600080fd5b81516001600160a01b03811681146200007157600080fd5b9392505050565b608051614c406200009b600039600081816103e80152613a340152614c406000f3fe6080604052600436106102335760003560e01c80638e20d8411161012e578063c3d6de82116100ab578063f09e090b1161006f578063f09e090b14610759578063f2fde38b14610779578063f850d01214610799578063f887ea40146107c6578063fabc1cbc146107ee57600080fd5b8063c3d6de82146106c6578063c7a4a53c146106e6578063cf1213ba146106f9578063cf26269914610719578063d3a598491461073957600080fd5b8063b10fee08116100f2578063b10fee08146105ec578063b5ff36d31461060c578063b759f95414610666578063bdd4d18d14610686578063c0c6e16e146106a657600080fd5b80638e20d841146105485780638f3cd58b1461056857806393057ba614610599578063a0355f4e146105b9578063af9ab635146105d957600080fd5b8063572b6c05116101bc5780636fdd1064116101805780636fdd1064146104a5578063715018a6146104d557806372259f1e146104ea5780637ec08d181461050a5780638da5cb5b1461052a57600080fd5b8063572b6c05146103cb57806361d027b3146104185780636548e9bc146104385780636dc656f2146104585780636f265d0c1461047857600080fd5b8063136439dd11610203578063136439dd146102ec5780631459457a1461030c57806314b487aa1461032c578063452c402d1461036c5780634b390d7f146103ab57600080fd5b8062efa8951461023f5780630283ae2e146102615780630aebeb4e146102945780630b48a8b8146102b457600080fd5b3661023a57005b600080fd5b34801561024b57600080fd5b5061025f61025a366004614057565b61080e565b005b34801561026d57600080fd5b5061028161027c36600461408e565b610936565b6040519081526020015b60405180910390f35b3480156102a057600080fd5b5061025f6102af3660046140ba565b610967565b3480156102c057600080fd5b5060d1546102d4906001600160a01b031681565b6040516001600160a01b03909116815260200161028b565b3480156102f857600080fd5b5061025f6103073660046140ba565b610a9c565b34801561031857600080fd5b5061025f6103273660046140d3565b610b81565b34801561033857600080fd5b5061035c610347366004614144565b60ca6020526000908152604090205460ff1681565b604051901515815260200161028b565b34801561037857600080fd5b5061038c610387366004614161565b610cb8565b604080516001600160a01b03909316835260208301919091520161028b565b3480156103b757600080fd5b5061025f6103c6366004614144565b610ef1565b3480156103d757600080fd5b5061035c6103e6366004614144565b7f00000000000000000000000000000000000000000000000000000000000000006001600160a01b0390811691161490565b34801561042457600080fd5b5060d0546102d4906001600160a01b031681565b34801561044457600080fd5b5061025f610453366004614144565b610f79565b34801561046457600080fd5b5061038c610473366004614057565b611002565b34801561048457600080fd5b50610498610493366004614144565b611100565b60405161028b919061419a565b3480156104b157600080fd5b5061035c6104c0366004614144565b60cb6020526000908152604090205460ff1681565b3480156104e157600080fd5b5061025f61116c565b3480156104f657600080fd5b5060ce546102d4906001600160a01b031681565b34801561051657600080fd5b5061025f6105253660046140ba565b6111df565b34801561053657600080fd5b506065546001600160a01b03166102d4565b34801561055457600080fd5b5061025f610563366004614057565b611298565b34801561057457600080fd5b506105886105833660046141de565b6115b7565b60405161028b959493929190614274565b3480156105a557600080fd5b506102816105b43660046142eb565b6117fc565b3480156105c557600080fd5b5061025f6105d43660046140ba565b611aea565b61025f6105e736600461433c565b611ba3565b3480156105f857600080fd5b5061025f610607366004614144565b612056565b34801561061857600080fd5b506106496106273660046140ba565b60cc60205260009081526040902080546001909101546001600160a01b031682565b604080519283526001600160a01b0390911660208301520161028b565b34801561067257600080fd5b5061025f6106813660046140ba565b6120de565b34801561069257600080fd5b5060cf546102d4906001600160a01b031681565b3480156106b257600080fd5b5061025f6106c1366004614144565b612197565b3480156106d257600080fd5b5061025f6106e136600461433c565b612222565b61025f6106f43660046140ba565b612336565b34801561070557600080fd5b5061025f61071436600461433c565b612565565b34801561072557600080fd5b5061025f610734366004614144565b612755565b34801561074557600080fd5b5061025f6107543660046140ba565b6127e0565b34801561076557600080fd5b5061025f6107743660046140ba565b612980565b34801561078557600080fd5b5061025f610794366004614144565b612b09565b3480156107a557600080fd5b506107b96107b43660046140ba565b612be1565b60405161028b9190614416565b3480156107d257600080fd5b506102d473e592427a0aece92de3edee1f18e0157c0586156481565b3480156107fa57600080fd5b5061025f6108093660046140ba565b612e29565b600260975414156108545760405162461bcd60e51b815260206004820152601f6024820152600080516020614bab83398151915260448201526064015b60405180910390fd5b6002609755600082815260cc602052604090205482906108a45760405162461bcd60e51b81526020600482015260196024820152600080516020614bcb833981519152604482015260640161084b565b600083815260cc60205260409020600101546001600160a01b03166398590ef96108cc612ede565b6040516001600160e01b031960e084901b1681526001600160a01b03909116600482015260248101859052604401600060405180830381600087803b15801561091457600080fd5b505af1158015610928573d6000803e3d6000fd5b505060016097555050505050565b60cd602052816000526040600020818154811061095257600080fd5b90600052602060002001600091509150505481565b600260975414156109a85760405162461bcd60e51b815260206004820152601f6024820152600080516020614bab833981519152604482015260640161084b565b6002609755600081815260cc602052604090205481906109f85760405162461bcd60e51b81526020600482015260196024820152600080516020614bcb833981519152604482015260640161084b565b600082815260cc60205260409020600101546001600160a01b0316639e6d77d0610a20612ede565b60d25460d05460405160e085901b6001600160e01b03191681526001600160a01b039384166004820152918316331460248301529190911660448201526064015b600060405180830381600087803b158015610a7b57600080fd5b505af1158015610a8f573d6000803e3d6000fd5b5050600160975550505050565b60026097541415610add5760405162461bcd60e51b815260206004820152601f6024820152600080516020614bab833981519152604482015260640161084b565b6002609755600081815260cc60205260409020548190610b2d5760405162461bcd60e51b81526020600482015260196024820152600080516020614bcb833981519152604482015260640161084b565b600082815260cc60205260409020600101546001600160a01b03166376a67a51610b55612ede565b6040516001600160e01b031960e084901b1681526001600160a01b039091166004820152602401610a61565b6000610b8d6001612eed565b90508015610ba5576000805461ff0019166101001790555b6001600160a01b038316610bfb5760405162461bcd60e51b815260206004820152601e60248201527f5472656173757279206d7573742062652076616c696420616464726573730000604482015260640161084b565b60ce80546001600160a01b03199081166001600160a01b038981169190911790925560cf8054821688841617905560d18054821687841617905560d08054821686841617905560d2805490911691841691909117905560c980546001019055610c62613008565b610c6a61307b565b8015610cb0576000805461ff0019169055604051600181527f7f26b83ff96e1f2b6a682f133852f6798a09c465da95921460cefb38474024989060200160405180910390a15b505050505050565b600083815260cc602052604081205481908590610d055760405162461bcd60e51b81526020600482015260196024820152600080516020614bcb833981519152604482015260640161084b565b836001600160a01b038116610d5c5760405162461bcd60e51b815260206004820152601b60248201527f4275796572206d7573742062652076616c696420616464726573730000000000604482015260640161084b565b610d64612ede565b6001600160a01b0316816001600160a01b03161480610e0e575060cf546001600160a01b031663cee2a9cf610d97612ede565b6040516001600160e01b031960e084901b1681526001600160a01b03909116600482015260240160206040518083038186803b158015610dd657600080fd5b505afa158015610dea573d6000803e3d6000fd5b505050506040513d601f19601f82011682018060405250810190610e0e919061458f565b610e505760405162461bcd60e51b815260206004820152601360248201527224b73b30b634b2103a37b5b2b710313abcb2b960691b604482015260640161084b565b600087815260cc6020526040908190206001015490516321f8c83960e21b8152600481018890526001600160a01b038781166024830152909116906387e320e490604401604080518083038186803b158015610eab57600080fd5b505afa158015610ebf573d6000803e3d6000fd5b505050506040513d601f19601f82011682018060405250810190610ee391906145bc565b935093505050935093915050565b610ef9612ede565b6001600160a01b0316610f146065546001600160a01b031690565b6001600160a01b031614610f585760405162461bcd60e51b81526020600482018190526024820152600080516020614beb833981519152604482015260640161084b565b6001600160a01b0316600090815260ca60205260409020805460ff19169055565b610f81612ede565b6001600160a01b0316610f9c6065546001600160a01b031690565b6001600160a01b031614610fe05760405162461bcd60e51b81526020600482018190526024820152600080516020614beb833981519152604482015260640161084b565b60d280546001600160a01b0319166001600160a01b0392909216919091179055565b600082815260cc60205260408120548190849061104f5760405162461bcd60e51b81526020600482015260196024820152600080516020614bcb833981519152604482015260640161084b565b600085815260cc60205260409020600101546001600160a01b03166387e320e485611078612ede565b6040516001600160e01b031960e085901b16815260048101929092526001600160a01b03166024820152604401604080518083038186803b1580156110bc57600080fd5b505afa1580156110d0573d6000803e3d6000fd5b505050506040513d601f19601f820116820180604052508101906110f491906145bc565b92509250509250929050565b6001600160a01b038116600090815260cd602090815260409182902080548351818402810184019094528084526060939283018282801561116057602002820191906000526020600020905b81548152602001906001019080831161114c575b50505050509050919050565b611174612ede565b6001600160a01b031661118f6065546001600160a01b031690565b6001600160a01b0316146111d35760405162461bcd60e51b81526020600482018190526024820152600080516020614beb833981519152604482015260640161084b565b6111dd60006130ee565b565b600260975414156112205760405162461bcd60e51b815260206004820152601f6024820152600080516020614bab833981519152604482015260640161084b565b6002609755600081815260cc602052604090205481906112705760405162461bcd60e51b81526020600482015260196024820152600080516020614bcb833981519152604482015260640161084b565b600082815260cc60205260409020600101546001600160a01b031663201dfbce610a20612ede565b600260975414156112d95760405162461bcd60e51b815260206004820152601f6024820152600080516020614bab833981519152604482015260640161084b565b6002609755600082815260cc602052604090205482906113295760405162461bcd60e51b81526020600482015260196024820152600080516020614bcb833981519152604482015260640161084b565b600083815260cc6020526040808220600101548151639b54a81760e01b815291516001600160a01b0390911691639b54a8179160048083019286929190829003018186803b15801561137a57600080fd5b505afa15801561138e573d6000803e3d6000fd5b505050506040513d6000823e601f3d908101601f191682016040526113b69190810190614823565b60c08101516020820151604051636eb1769f60e11b81526001600160a01b0391821660048201523060248201529293509091859183169063dd62ed3e9060440160206040518083038186803b15801561140e57600080fd5b505afa158015611422573d6000803e3d6000fd5b505050506040513d601f19601f820116820180604052508101906114469190614858565b10156114945760405162461bcd60e51b815260206004820152601660248201527f496e73756666696369656e7420616c6c6f77616e636500000000000000000000604482015260640161084b565b60208201516114af906001600160a01b038316903087613140565b600085815260cc60205260409020600101546114d8906001600160a01b038381169116866131b1565b600085815260cc60205260409020600101546001600160a01b031663bd55db3a611500612ede565b6040516001600160e01b031960e084901b1681526001600160a01b03909116600482015260248101879052604401600060405180830381600087803b15801561154857600080fd5b505af115801561155c573d6000803e3d6000fd5b50505050611568612ede565b6001600160a01b0316857f07c5b0ee196554c56f6c71c243649abee344214e9147a7c9c81673b0f0657d51866040516115a391815260200190565b60405180910390a350506001609755505050565b600082815260cc6020526040812054606090819083908190879061160b5760405162461bcd60e51b81526020600482015260196024820152600080516020614bcb833981519152604482015260640161084b565b866001600160a01b0381166116625760405162461bcd60e51b815260206004820152601b60248201527f4275796572206d7573742062652076616c696420616464726573730000000000604482015260640161084b565b61166a612ede565b6001600160a01b0316816001600160a01b03161480611714575060cf546001600160a01b031663cee2a9cf61169d612ede565b6040516001600160e01b031960e084901b1681526001600160a01b03909116600482015260240160206040518083038186803b1580156116dc57600080fd5b505afa1580156116f0573d6000803e3d6000fd5b505050506040513d601f19601f82011682018060405250810190611714919061458f565b6117565760405162461bcd60e51b815260206004820152601360248201527224b73b30b634b2103a37b5b2b710313abcb2b960691b604482015260640161084b565b600089815260cc6020526040908190206001015490516341c0bf8d60e11b81526001600160a01b038a81166004830152909116906383817f1a9060240160006040518083038186803b1580156117ab57600080fd5b505afa1580156117bf573d6000803e3d6000fd5b505050506040513d6000823e601f3d908101601f191682016040526117e79190810190614953565b939d929c50909a509850909650945050505050565b60006002609754141561183f5760405162461bcd60e51b815260206004820152601f6024820152600080516020614bab833981519152604482015260640161084b565b600260975560ca6000611850612ede565b6001600160a01b0316815260208101919091526040016000205460ff166118b95760405162461bcd60e51b815260206004820152601860248201527f556e7472757374656420457363726f7720466163746f72790000000000000000604482015260640161084b565b60cb6000856001600160a01b0316639b54a8176040518163ffffffff1660e01b815260040160006040518083038186803b1580156118f657600080fd5b505afa15801561190a573d6000803e3d6000fd5b505050506040513d6000823e601f3d908101601f191682016040526119329190810190614823565b60c001516001600160a01b0316815260208101919091526040016000205460ff1661199f5760405162461bcd60e51b815260206004820152601360248201527f556e6b6e6f776e20455243323020746f6b656e00000000000000000000000000604482015260640161084b565b5060c954604080518381526001600160a01b03868116602083015285169183917f9d94293606bd346fb9292dbec161dbbb0a0369bfb381ecc98a5c1dd08d8b8723910160405180910390a36040805180820182528281526001600160a01b038087166020808401918252600086815260cc9091529390932091518255915160019091018054919092166001600160a01b0319909116179055611a4560c980546001019055565b60ce546040516323a36d2b60e01b81526001600160a01b0386811660048301526024820184905260448201859052909116906323a36d2b90606401600060405180830381600087803b158015611a9a57600080fd5b505af1158015611aae573d6000803e3d6000fd5b5050506001600160a01b03909316600090815260cd60209081526040822080546001818101835591845291909220018290556097559392505050565b60026097541415611b2b5760405162461bcd60e51b815260206004820152601f6024820152600080516020614bab833981519152604482015260640161084b565b6002609755600081815260cc60205260409020548190611b7b5760405162461bcd60e51b81526020600482015260196024820152600080516020614bcb833981519152604482015260640161084b565b600082815260cc60205260409020600101546001600160a01b03166310e29cf9610b55612ede565b60026097541415611be45760405162461bcd60e51b815260206004820152601f6024820152600080516020614bab833981519152604482015260640161084b565b6002609755600084815260cc60205260409020548490611c345760405162461bcd60e51b81526020600482015260196024820152600080516020614bcb833981519152604482015260640161084b565b836001600160a01b038116611c8b5760405162461bcd60e51b815260206004820152601b60248201527f4275796572206d7573742062652076616c696420616464726573730000000000604482015260640161084b565b611c93612ede565b6001600160a01b0316816001600160a01b03161480611d3d575060cf546001600160a01b031663cee2a9cf611cc6612ede565b6040516001600160e01b031960e084901b1681526001600160a01b03909116600482015260240160206040518083038186803b158015611d0557600080fd5b505afa158015611d19573d6000803e3d6000fd5b505050506040513d601f19601f82011682018060405250810190611d3d919061458f565b611d7f5760405162461bcd60e51b815260206004820152601360248201527224b73b30b634b2103a37b5b2b710313abcb2b960691b604482015260640161084b565b60008411611dc65760405162461bcd60e51b815260206004820152601460248201527304d757374207061737320616d6f756e74203e20360641b604482015260640161084b565b60003411611e165760405162461bcd60e51b815260206004820152601760248201527f4d7573742070617373206d73672e76616c7565203e2030000000000000000000604482015260640161084b565b600086815260cc602090815260409182902060010154825163aaa5ad6160e01b815292516001600160a01b0390911692839263aaa5ad6192600480840193829003018186803b158015611e6857600080fd5b505afa158015611e7c573d6000803e3d6000fd5b505050506040513d601f19601f82011682018060405250810190611ea09190614858565b851115611eef5760405162461bcd60e51b815260206004820152601e60248201527f43616e6e6f7420627579206d6f7265207468616e20617661696c61626c650000604482015260640161084b565b6040516321f8c83960e21b8152600481018690526001600160a01b03878116602483015260009182918416906387e320e490604401604080518083038186803b158015611f3b57600080fd5b505afa158015611f4f573d6000803e3d6000fd5b505050506040513d601f19601f82011682018060405250810190611f7391906145bc565b91509150611f828282856131e6565b50604080518881526020810183905261ffff88168183015290516001600160a01b038a16918b917ffc30850f2040b53a580f146e0f19adff30f013111447180caa350a0a36f2422d9181900360600190a36040516327674bef60e21b81526001600160a01b038981166004830152602482018990526044820183905261ffff88166064830152841690639d9d2fbc90608401600060405180830381600087803b15801561202e57600080fd5b505af1158015612042573d6000803e3d6000fd5b505060016097555050505050505050505050565b61205e612ede565b6001600160a01b03166120796065546001600160a01b031690565b6001600160a01b0316146120bd5760405162461bcd60e51b81526020600482018190526024820152600080516020614beb833981519152604482015260640161084b565b6001600160a01b0316600090815260cb60205260409020805460ff19169055565b6002609754141561211f5760405162461bcd60e51b815260206004820152601f6024820152600080516020614bab833981519152604482015260640161084b565b6002609755600081815260cc6020526040902054819061216f5760405162461bcd60e51b81526020600482015260196024820152600080516020614bcb833981519152604482015260640161084b565b600082815260cc60205260409020600101546001600160a01b031663daea85c5610b55612ede565b61219f612ede565b6001600160a01b03166121ba6065546001600160a01b031690565b6001600160a01b0316146121fe5760405162461bcd60e51b81526020600482018190526024820152600080516020614beb833981519152604482015260640161084b565b6001600160a01b0316600090815260ca60205260409020805460ff19166001179055565b600260975414156122635760405162461bcd60e51b815260206004820152601f6024820152600080516020614bab833981519152604482015260640161084b565b6002609755600084815260cc602052604090205484906122b35760405162461bcd60e51b81526020600482015260196024820152600080516020614bcb833981519152604482015260640161084b565b60d2546001600160a01b0316331461231d5760405162461bcd60e51b815260206004820152602760248201527f43616e206f6e6c792062652063616c6c65642066726f6d2074727573746564206044820152663932b630bcb2b960c91b606482015260840161084b565b61232a85843387866133fa565b50506001609755505050565b600260975414156123775760405162461bcd60e51b815260206004820152601f6024820152600080516020614bab833981519152604482015260640161084b565b6002609755600081815260cc602052604090205481906123c75760405162461bcd60e51b81526020600482015260196024820152600080516020614bcb833981519152604482015260640161084b565b600082815260cc6020526040808220600101548151639b54a81760e01b815291516001600160a01b0390911691639b54a8179160048083019286929190829003018186803b15801561241857600080fd5b505afa15801561242c573d6000803e3d6000fd5b505050506040513d6000823e601f3d908101601f191682016040526124549190810190614823565b60c0810151600085815260cc602052604081206001015492935090916124849083906001600160a01b0316613769565b905061248e612ede565b6001600160a01b0316857f07c5b0ee196554c56f6c71c243649abee344214e9147a7c9c81673b0f0657d51836040516124c991815260200190565b60405180910390a3600085815260cc60205260409020600101546001600160a01b031663bd55db3a6124f9612ede565b6040516001600160e01b031960e084901b1681526001600160a01b03909116600482015260248101849052604401600060405180830381600087803b15801561254157600080fd5b505af1158015612555573d6000803e3d6000fd5b5050600160975550505050505050565b600260975414156125a65760405162461bcd60e51b815260206004820152601f6024820152600080516020614bab833981519152604482015260640161084b565b6002609755600084815260cc602052604090205484906125f65760405162461bcd60e51b81526020600482015260196024820152600080516020614bcb833981519152604482015260640161084b565b836001600160a01b03811661264d5760405162461bcd60e51b815260206004820152601b60248201527f4275796572206d7573742062652076616c696420616464726573730000000000604482015260640161084b565b612655612ede565b6001600160a01b0316816001600160a01b031614806126ff575060cf546001600160a01b031663cee2a9cf612688612ede565b6040516001600160e01b031960e084901b1681526001600160a01b03909116600482015260240160206040518083038186803b1580156126c757600080fd5b505afa1580156126db573d6000803e3d6000fd5b505050506040513d601f19601f820116820180604052508101906126ff919061458f565b6127415760405162461bcd60e51b815260206004820152601360248201527224b73b30b634b2103a37b5b2b710313abcb2b960691b604482015260640161084b565b610a8f868561274e612ede565b88876133fa565b61275d612ede565b6001600160a01b03166127786065546001600160a01b031690565b6001600160a01b0316146127bc5760405162461bcd60e51b81526020600482018190526024820152600080516020614beb833981519152604482015260640161084b565b6001600160a01b0316600090815260cb60205260409020805460ff19166001179055565b600260975414156128215760405162461bcd60e51b815260206004820152601f6024820152600080516020614bab833981519152604482015260640161084b565b6002609755600081815260cc602052604090205481906128715760405162461bcd60e51b81526020600482015260196024820152600080516020614bcb833981519152604482015260640161084b565b600082815260cc602052604081206001015481906001600160a01b0316631d29572761289b612ede565b60d05460405160e084901b6001600160e01b03191681526001600160a01b039283166004820152911660248201526044016040805180830381600087803b1580156128e557600080fd5b505af11580156128f9573d6000803e3d6000fd5b505050506040513d601f19601f8201168201806040525081019061291d9190614a50565b91509150612929612ede565b6001600160a01b0316847f96c7a1d0f5191e2cdf0ba542b0283e6377d7f923f837e043c9f66fbdfcb03ff3848460405161296d929190918252602082015260400190565b60405180910390a3505060016097555050565b600260975414156129c15760405162461bcd60e51b815260206004820152601f6024820152600080516020614bab833981519152604482015260640161084b565b6002609755600081815260cc60205260409020548190612a115760405162461bcd60e51b81526020600482015260196024820152600080516020614bcb833981519152604482015260640161084b565b600082815260cc60205260408120600101546001600160a01b031663fc33962c612a39612ede565b6040516001600160e01b031960e084901b1681526001600160a01b039091166004820152602401602060405180830381600087803b158015612a7a57600080fd5b505af1158015612a8e573d6000803e3d6000fd5b505050506040513d601f19601f82011682018060405250810190612ab29190614858565b9050612abc612ede565b6001600160a01b0316837f59ef3b0aa7753fe308ca62cf762e6595575b067925f4c6a9e8c52351e0bfa58883604051612af791815260200190565b60405180910390a35050600160975550565b612b11612ede565b6001600160a01b0316612b2c6065546001600160a01b031690565b6001600160a01b031614612b705760405162461bcd60e51b81526020600482018190526024820152600080516020614beb833981519152604482015260640161084b565b6001600160a01b038116612bd55760405162461bcd60e51b815260206004820152602660248201527f4f776e61626c653a206e6577206f776e657220697320746865207a65726f206160448201526564647265737360d01b606482015260840161084b565b612bde816130ee565b50565b612be9613f5a565b600082815260cc6020526040902054612c0b57612c05826138c7565b92915050565b600082815260cc602052604080822060010154815163e36e196960e01b815291518392839283926001600160a01b039091169163e36e19699160048083019286929190829003018186803b158015612c6257600080fd5b505afa158015612c76573d6000803e3d6000fd5b505050506040513d6000823e601f3d908101601f19168201604052612c9e9190810190614a74565b60c084015160008b815260cc60205260408082206001015490516370a0823160e01b81526001600160a01b039182166004820152969a5094985092965090945090929116906370a082319060240160206040518083038186803b158015612d0457600080fd5b505afa158015612d18573d6000803e3d6000fd5b505050506040513d601f19601f82011682018060405250810190612d3c9190614858565b600088815260cc60209081526040808320600101548151635c975abb60e01b8152915194955092936001600160a01b0390931692635c975abb92600480840193919291829003018186803b158015612d9357600080fd5b505afa158015612da7573d6000803e3d6000fd5b505050506040513d601f19601f82011682018060405250810190612dcb919061458f565b60408051610100810182528a8152602080820199909952808201979097526000998a5260cc90975295909720600101546001600160a01b03166060850152608084019290925260a083015260c082015290151560e082015292915050565b60026097541415612e6a5760405162461bcd60e51b815260206004820152601f6024820152600080516020614bab833981519152604482015260640161084b565b6002609755600081815260cc60205260409020548190612eba5760405162461bcd60e51b81526020600482015260196024820152600080516020614bcb833981519152604482015260640161084b565b600082815260cc60205260409020600101546001600160a01b03166357b001f9610b555b6000612ee8613a30565b905090565b60008054610100900460ff1615612f7b578160ff166001148015612f105750303b155b612f735760405162461bcd60e51b815260206004820152602e60248201527f496e697469616c697a61626c653a20636f6e747261637420697320616c72656160448201526d191e481a5b9a5d1a585b1a5e995960921b606482015260840161084b565b506000919050565b60005460ff808416911610612fe95760405162461bcd60e51b815260206004820152602e60248201527f496e697469616c697a61626c653a20636f6e747261637420697320616c72656160448201526d191e481a5b9a5d1a585b1a5e995960921b606482015260840161084b565b506000805460ff191660ff92909216919091179055600190565b919050565b600054610100900460ff166130735760405162461bcd60e51b815260206004820152602b60248201527f496e697469616c697a61626c653a20636f6e7472616374206973206e6f74206960448201526a6e697469616c697a696e6760a81b606482015260840161084b565b6111dd613a75565b600054610100900460ff166130e65760405162461bcd60e51b815260206004820152602b60248201527f496e697469616c697a61626c653a20636f6e7472616374206973206e6f74206960448201526a6e697469616c697a696e6760a81b606482015260840161084b565b6111dd613af0565b606580546001600160a01b038381166001600160a01b0319831681179093556040519116919082907f8be0079c531659141344cd1fd0a4f28419497f9722a3daafe3b4186f6b6457e090600090a35050565b6040516001600160a01b03808516602483015283166044820152606481018290526131ab9085906323b872dd60e01b906084015b60408051601f198184030181529190526020810180516001600160e01b03166001600160e01b031990931692909217909152613b62565b50505050565b6040516001600160a01b0383166024820152604481018290526131e190849063a9059cbb60e01b90606401613174565b505050565b604080516101008101825260d1546001600160a01b039081168083528682166020840152610bb883850152908416606083015242608083015260a082018590523460c08301819052600060e084018190528451630d0e30db60e41b81529451909463d0e30db092916004808301928892919082900301818588803b15801561326d57600080fd5b505af1158015613281573d6000803e3d6000fd5b505060d1546132b393506001600160a01b0316915073e592427a0aece92de3edee1f18e0157c05861564905034613c34565b604051631b67c43360e31b815273e592427a0aece92de3edee1f18e0157c058615649063db3e2198906132ea908490600401614ae8565b602060405180830381600087803b15801561330457600080fd5b505af1158015613318573d6000803e3d6000fd5b505050506040513d601f19601f8201168201806040525081019061333c9190614858565b9150348210156133f25760006133528334614b56565b60d154909150613381906001600160a01b031673e592427a0aece92de3edee1f18e0157c058615646000613c34565b60d154604051632e1a7d4d60e01b8152600481018390526001600160a01b0390911690632e1a7d4d90602401600060405180830381600087803b1580156133c757600080fd5b505af11580156133db573d6000803e3d6000fd5b505050506133f06133ea612ede565b82613d34565b505b509392505050565b600084116134415760405162461bcd60e51b815260206004820152601460248201527304d757374207061737320616d6f756e74203e20360641b604482015260640161084b565b600085815260cc602090815260409182902060010154825163aaa5ad6160e01b815292516001600160a01b0390911692839263aaa5ad6192600480840193829003018186803b15801561349357600080fd5b505afa1580156134a7573d6000803e3d6000fd5b505050506040513d601f19601f820116820180604052508101906134cb9190614858565b85111561351a5760405162461bcd60e51b815260206004820152601e60248201527f43616e6e6f7420627579206d6f7265207468616e20617661696c61626c650000604482015260640161084b565b6040516321f8c83960e21b8152600481018690526001600160a01b03848116602483015260009182918416906387e320e490604401604080518083038186803b15801561356657600080fd5b505afa15801561357a573d6000803e3d6000fd5b505050506040513d601f19601f8201168201806040525081019061359e91906145bc565b604051636eb1769f60e11b81526001600160a01b038981166004830152306024830152929450909250829184169063dd62ed3e9060440160206040518083038186803b1580156135ed57600080fd5b505afa158015613601573d6000803e3d6000fd5b505050506040513d601f19601f820116820180604052508101906136259190614858565b10156136735760405162461bcd60e51b815260206004820152601660248201527f496e73756666696369656e7420616c6c6f77616e636500000000000000000000604482015260640161084b565b604080518881526020810183905261ffff86168183015290516001600160a01b038716918a917ffc30850f2040b53a580f146e0f19adff30f013111447180caa350a0a36f2422d9181900360600190a36136d86001600160a01b038316873084613140565b6136ec6001600160a01b03831684836131b1565b6040516327674bef60e21b81526001600160a01b038681166004830152602482018990526044820183905261ffff86166064830152841690639d9d2fbc90608401600060405180830381600087803b15801561374757600080fd5b505af115801561375b573d6000803e3d6000fd5b505050505050505050505050565b604080516101008101825260d1546001600160a01b039081168083528582166020840152610bb88385015290841660608301524260808301523460a08301819052600060c0840181905260e084018190528451630d0e30db60e41b81529451909463d0e30db092916004808301928892919082900301818588803b1580156137f057600080fd5b505af1158015613804573d6000803e3d6000fd5b505060d15461383693506001600160a01b0316915073e592427a0aece92de3edee1f18e0157c05861564905034613c34565b60405163414bf38960e01b815273e592427a0aece92de3edee1f18e0157c058615649063414bf3899061386d908490600401614ae8565b602060405180830381600087803b15801561388757600080fd5b505af115801561389b573d6000803e3d6000fd5b505050506040513d601f19601f820116820180604052508101906138bf9190614858565b949350505050565b6138cf613f5a565b604051806101000160405280838152602001604051806101c0016040528085815260200160006001600160a01b031681526020016000815260200160008152602001600081526020016000815260200160006001600160a01b031681526020016000600681111561394257613942614386565b81526020016040518060200160405280600081525081526020016000815260200160008152602001600060ff16815260200160006001600160a01b0316815260200160006001600160a01b03168152508152602001600067ffffffffffffffff8111156139b1576139b16145ea565b604051908082528060200260200182016040528015613a0357816020015b6040805160808101825260008082526020808301829052928201819052606082015282526000199092019101816139cf5790505b50815260006020820181905260408201819052606082018190526080820181905260a09091015292915050565b60007f00000000000000000000000000000000000000000000000000000000000000006001600160a01b0316331415613a70575060131936013560601c90565b503390565b600054610100900460ff16613ae05760405162461bcd60e51b815260206004820152602b60248201527f496e697469616c697a61626c653a20636f6e7472616374206973206e6f74206960448201526a6e697469616c697a696e6760a81b606482015260840161084b565b6111dd613aeb612ede565b6130ee565b600054610100900460ff16613b5b5760405162461bcd60e51b815260206004820152602b60248201527f496e697469616c697a61626c653a20636f6e7472616374206973206e6f74206960448201526a6e697469616c697a696e6760a81b606482015260840161084b565b6001609755565b6000613bb7826040518060400160405280602081526020017f5361666545524332303a206c6f772d6c6576656c2063616c6c206661696c6564815250856001600160a01b0316613dd79092919063ffffffff16565b8051909150156131e15780806020019051810190613bd5919061458f565b6131e15760405162461bcd60e51b815260206004820152602a60248201527f5361666545524332303a204552433230206f7065726174696f6e20646964206e6044820152691bdd081cdd58d8d9595960b21b606482015260840161084b565b604080516001600160a01b038481166024830152604480830185905283518084039091018152606490920183526020820180516001600160e01b031663095ea7b360e01b1790529151600092839290871691613c909190614b7b565b6000604051808303816000865af19150503d8060008114613ccd576040519150601f19603f3d011682016040523d82523d6000602084013e613cd2565b606091505b5091509150818015613cfc575080511580613cfc575080806020019051810190613cfc919061458f565b613d2d5760405162461bcd60e51b8152602060048201526002602482015261534160f01b604482015260640161084b565b5050505050565b604080516000808252602082019092526001600160a01b038416908390604051613d5e9190614b7b565b60006040518083038185875af1925050503d8060008114613d9b576040519150601f19603f3d011682016040523d82523d6000602084013e613da0565b606091505b50509050806131e15760405162461bcd60e51b815260206004820152600360248201526253544560e81b604482015260640161084b565b6060613de68484600085613df0565b90505b9392505050565b606082471015613e515760405162461bcd60e51b815260206004820152602660248201527f416464726573733a20696e73756666696369656e742062616c616e636520666f6044820152651c8818d85b1b60d21b606482015260840161084b565b6001600160a01b0385163b613ea85760405162461bcd60e51b815260206004820152601d60248201527f416464726573733a2063616c6c20746f206e6f6e2d636f6e7472616374000000604482015260640161084b565b600080866001600160a01b03168587604051613ec49190614b7b565b60006040518083038185875af1925050503d8060008114613f01576040519150601f19603f3d011682016040523d82523d6000602084013e613f06565b606091505b5091509150613f16828286613f21565b979650505050505050565b60608315613f30575081613de9565b825115613f405782518084602001fd5b8160405162461bcd60e51b815260040161084b9190614b97565b60405180610100016040528060008152602001613f75613fb0565b81526020016060815260200160006001600160a01b031681526020016000815260200160008152602001600081526020016000151581525090565b604051806101c001604052806000815260200160006001600160a01b031681526020016000815260200160008152602001600081526020016000815260200160006001600160a01b031681526020016000600681111561401257614012614386565b8152602001606081526020016000815260200160008152602001600060ff16815260200160006001600160a01b0316815260200160006001600160a01b031681525090565b6000806040838503121561406a57600080fd5b50508035926020909101359150565b6001600160a01b0381168114612bde57600080fd5b600080604083850312156140a157600080fd5b82356140ac81614079565b946020939093013593505050565b6000602082840312156140cc57600080fd5b5035919050565b600080600080600060a086880312156140eb57600080fd5b85356140f681614079565b9450602086013561410681614079565b9350604086013561411681614079565b9250606086013561412681614079565b9150608086013561413681614079565b809150509295509295909350565b60006020828403121561415657600080fd5b8135613de981614079565b60008060006060848603121561417657600080fd5b8335925060208401359150604084013561418f81614079565b809150509250925092565b6020808252825182820181905260009190848201906040850190845b818110156141d2578351835292840192918401916001016141b6565b50909695505050505050565b600080604083850312156141f157600080fd5b82359150602083013561420381614079565b809150509250929050565b600081518084526020808501945080840160005b83811015614269578151805161ffff9081168952848201518116858a0152604080830151909116908901526060908101519088015260809096019590820190600101614222565b509495945050505050565b600060a08201878352602060a08185015281885180845260c086019150828a01935060005b818110156142c0578451805184528401518484015293830193604090920191600101614299565b505084810360408601526142d4818961420e565b606086019790975250505050608001529392505050565b60008060006060848603121561430057600080fd5b833561430b81614079565b9250602084013561431b81614079565b929592945050506040919091013590565b61ffff81168114612bde57600080fd5b6000806000806080858703121561435257600080fd5b84359350602085013561436481614079565b925060408501359150606085013561437b8161432c565b939692955090935050565b634e487b7160e01b600052602160045260246000fd5b600781106143ba57634e487b7160e01b600052602160045260246000fd5b9052565b60005b838110156143d95781810151838201526020016143c1565b838111156131ab5750506000910152565b600081518084526144028160208601602086016143be565b601f01601f19169290920160200192915050565b6020815260006101208351602084015260208401516101008060408601528151838601526020820151610140614456818801836001600160a01b03169052565b6040840151610160888101919091526060850151610180808a019190915260808601516101a0808b019190915260a08701516101c0808c019190915260c08801516001600160a01b03166101e08c015260e088015195506144bb6102008c018761439c565b868801519550806102208c0152506144d76102e08b01866143ea565b978701516102408b0152928601516102608a01529085015160ff166102808901528401516001600160a01b039081166102a089015290840151166102c0870152506040860151858403601f1901606087015292614534818561420e565b9350506060860151915061455360808601836001600160a01b03169052565b608086015160a086015260a086015160c086015260c086015160e086015260e086015191506145858186018315159052565b5090949350505050565b6000602082840312156145a157600080fd5b81518015158114613de957600080fd5b805161300381614079565b600080604083850312156145cf57600080fd5b82516145da81614079565b6020939093015192949293505050565b634e487b7160e01b600052604160045260246000fd5b6040516101c0810167ffffffffffffffff81118282101715614624576146246145ea565b60405290565b6040516080810167ffffffffffffffff81118282101715614624576146246145ea565b6040805190810167ffffffffffffffff81118282101715614624576146246145ea565b604051601f8201601f1916810167ffffffffffffffff81118282101715614699576146996145ea565b604052919050565b80516007811061300357600080fd5b600082601f8301126146c157600080fd5b815167ffffffffffffffff8111156146db576146db6145ea565b6146ee601f8201601f1916602001614670565b81815284602083860101111561470357600080fd5b6138bf8260208301602087016143be565b805160ff8116811461300357600080fd5b60006101c0828403121561473857600080fd5b614740614600565b905081518152614752602083016145b1565b602082015260408201516040820152606082015160608201526080820151608082015260a082015160a082015261478b60c083016145b1565b60c082015261479c60e083016146a1565b60e08201526101008083015167ffffffffffffffff8111156147bd57600080fd5b6147c9858286016146b0565b8284015250506101208083015181830152506101408083015181830152506101606147f5818401614714565b908201526101806148078382016145b1565b908201526101a06148198382016145b1565b9082015292915050565b60006020828403121561483557600080fd5b815167ffffffffffffffff81111561484c57600080fd5b6138bf84828501614725565b60006020828403121561486a57600080fd5b5051919050565b600067ffffffffffffffff82111561488b5761488b6145ea565b5060051b60200190565b600082601f8301126148a657600080fd5b815160206148bb6148b683614871565b614670565b82815260079290921b840181019181810190868411156148da57600080fd5b8286015b8481101561494857608081890312156148f75760008081fd5b6148ff61462a565b815161490a8161432c565b8152818501516149198161432c565b8186015260408281015161492c8161432c565b90820152606082810151908201528352918301916080016148de565b509695505050505050565b600080600080600060a0868803121561496b57600080fd5b8551945060208087015167ffffffffffffffff8082111561498b57600080fd5b818901915089601f83011261499f57600080fd5b81516149ad6148b682614871565b81815260069190911b8301840190848101908c8311156149cc57600080fd5b938501935b82851015614a0f576040858e0312156149ea5760008081fd5b6149f261464d565b8551815286860151878201528252604090940193908501906149d1565b60408c01519099509450505080831115614a2857600080fd5b5050614a3688828901614895565b606088015160809098015196999598509695949350505050565b60008060408385031215614a6357600080fd5b505080516020909101519092909150565b60008060008060808587031215614a8a57600080fd5b845167ffffffffffffffff80821115614aa257600080fd5b614aae88838901614725565b95506020870151915080821115614ac457600080fd5b50614ad187828801614895565b604087015160609097015195989097509350505050565b6101008101612c0582846001600160a01b0380825116835280602083015116602084015262ffffff60408301511660408401528060608301511660608401526080820151608084015260a082015160a084015260c082015160c08401528060e08301511660e0840152505050565b600082821015614b7657634e487b7160e01b600052601160045260246000fd5b500390565b60008251614b8d8184602087016143be565b9190910192915050565b602081526000613de960208301846143ea56fe5265656e7472616e637947756172643a207265656e7472616e742063616c6c0050726f64756374696f6e20646f6573206e6f74206578697374000000000000004f776e61626c653a2063616c6c6572206973206e6f7420746865206f776e6572a264697066735822122022415fab53596bae07a86a8cac2bf8c986c8e4d1b9ada751336c993f447bd78364736f6c63430008090033",
  "devdoc": {
    "custom:security-contact": "info@staxe.io",
    "kind": "dev",
    "methods": {
      "owner()": {
        "details": "Returns the address of the current owner."
      },
      "renounceOwnership()": {
        "details": "Leaves the contract without owner. It will not be possible to call `onlyOwner` functions anymore. Can only be called by the current owner. NOTE: Renouncing ownership will leave the contract without an owner, thereby removing any functionality that is only available to the owner."
      },
      "transferOwnership(address)": {
        "details": "Transfers ownership of the contract to a new account (`newOwner`). Can only be called by the current owner."
      }
    },
    "version": 1
  },
  "userdoc": {
    "kind": "user",
    "methods": {},
    "version": 1
  },
  "storageLayout": {
    "storage": [
      {
        "astId": 800,
        "contract": "contracts/v3/StaxeProductionsV3.sol:StaxeProductionsV3",
        "label": "_initialized",
        "offset": 0,
        "slot": "0",
        "type": "t_uint8"
      },
      {
        "astId": 803,
        "contract": "contracts/v3/StaxeProductionsV3.sol:StaxeProductionsV3",
        "label": "_initializing",
        "offset": 1,
        "slot": "0",
        "type": "t_bool"
      },
      {
        "astId": 3114,
        "contract": "contracts/v3/StaxeProductionsV3.sol:StaxeProductionsV3",
        "label": "__gap",
        "offset": 0,
        "slot": "1",
        "type": "t_array(t_uint256)50_storage"
      },
      {
        "astId": 792,
        "contract": "contracts/v3/StaxeProductionsV3.sol:StaxeProductionsV3",
        "label": "__gap",
        "offset": 0,
        "slot": "51",
        "type": "t_array(t_uint256)50_storage"
      },
      {
        "astId": 593,
        "contract": "contracts/v3/StaxeProductionsV3.sol:StaxeProductionsV3",
        "label": "_owner",
        "offset": 0,
        "slot": "101",
        "type": "t_address"
      },
      {
        "astId": 705,
        "contract": "contracts/v3/StaxeProductionsV3.sol:StaxeProductionsV3",
        "label": "__gap",
        "offset": 0,
        "slot": "102",
        "type": "t_array(t_uint256)49_storage"
      },
      {
        "astId": 1060,
        "contract": "contracts/v3/StaxeProductionsV3.sol:StaxeProductionsV3",
        "label": "_status",
        "offset": 0,
        "slot": "151",
        "type": "t_uint256"
      },
      {
        "astId": 1104,
        "contract": "contracts/v3/StaxeProductionsV3.sol:StaxeProductionsV3",
        "label": "__gap",
        "offset": 0,
        "slot": "152",
        "type": "t_array(t_uint256)49_storage"
      },
      {
        "astId": 14830,
        "contract": "contracts/v3/StaxeProductionsV3.sol:StaxeProductionsV3",
        "label": "tokenIds",
        "offset": 0,
        "slot": "201",
        "type": "t_struct(Counter)3121_storage"
      },
      {
        "astId": 14834,
        "contract": "contracts/v3/StaxeProductionsV3.sol:StaxeProductionsV3",
        "label": "trustedEscrowFactories",
        "offset": 0,
        "slot": "202",
        "type": "t_mapping(t_address,t_bool)"
      },
      {
        "astId": 14838,
        "contract": "contracts/v3/StaxeProductionsV3.sol:StaxeProductionsV3",
        "label": "trustedErc20Coins",
        "offset": 0,
        "slot": "203",
        "type": "t_mapping(t_address,t_bool)"
      },
      {
        "astId": 14849,
        "contract": "contracts/v3/StaxeProductionsV3.sol:StaxeProductionsV3",
        "label": "productionEscrows",
        "offset": 0,
        "slot": "204",
        "type": "t_mapping(t_uint256,t_struct(Escrow)16828_storage)"
      },
      {
        "astId": 14854,
        "contract": "contracts/v3/StaxeProductionsV3.sol:StaxeProductionsV3",
        "label": "productionIdsByOwner",
        "offset": 0,
        "slot": "205",
        "type": "t_mapping(t_address,t_array(t_uint256)dyn_storage)"
      },
      {
        "astId": 14857,
        "contract": "contracts/v3/StaxeProductionsV3.sol:StaxeProductionsV3",
        "label": "productionToken",
        "offset": 0,
        "slot": "206",
        "type": "t_contract(IProductionTokenV3)16771"
      },
      {
        "astId": 14860,
        "contract": "contracts/v3/StaxeProductionsV3.sol:StaxeProductionsV3",
        "label": "members",
        "offset": 0,
        "slot": "207",
        "type": "t_contract(IMembersV3)16433"
      },
      {
        "astId": 14862,
        "contract": "contracts/v3/StaxeProductionsV3.sol:StaxeProductionsV3",
        "label": "treasury",
        "offset": 0,
        "slot": "208",
        "type": "t_address"
      },
      {
        "astId": 14865,
        "contract": "contracts/v3/StaxeProductionsV3.sol:StaxeProductionsV3",
        "label": "nativeWrapper",
        "offset": 0,
        "slot": "209",
        "type": "t_contract(IWETH)17094"
      },
      {
        "astId": 14867,
        "contract": "contracts/v3/StaxeProductionsV3.sol:StaxeProductionsV3",
        "label": "relayer",
        "offset": 0,
        "slot": "210",
        "type": "t_address"
      }
    ],
    "types": {
      "t_address": {
        "encoding": "inplace",
        "label": "address",
        "numberOfBytes": "20"
      },
      "t_array(t_uint256)49_storage": {
        "base": "t_uint256",
        "encoding": "inplace",
        "label": "uint256[49]",
        "numberOfBytes": "1568"
      },
      "t_array(t_uint256)50_storage": {
        "base": "t_uint256",
        "encoding": "inplace",
        "label": "uint256[50]",
        "numberOfBytes": "1600"
      },
      "t_array(t_uint256)dyn_storage": {
        "base": "t_uint256",
        "encoding": "dynamic_array",
        "label": "uint256[]",
        "numberOfBytes": "32"
      },
      "t_bool": {
        "encoding": "inplace",
        "label": "bool",
        "numberOfBytes": "1"
      },
      "t_contract(IMembersV3)16433": {
        "encoding": "inplace",
        "label": "contract IMembersV3",
        "numberOfBytes": "20"
      },
      "t_contract(IProductionEscrowV3)16725": {
        "encoding": "inplace",
        "label": "contract IProductionEscrowV3",
        "numberOfBytes": "20"
      },
      "t_contract(IProductionTokenV3)16771": {
        "encoding": "inplace",
        "label": "contract IProductionTokenV3",
        "numberOfBytes": "20"
      },
      "t_contract(IWETH)17094": {
        "encoding": "inplace",
        "label": "contract IWETH",
        "numberOfBytes": "20"
      },
      "t_mapping(t_address,t_array(t_uint256)dyn_storage)": {
        "encoding": "mapping",
        "key": "t_address",
        "label": "mapping(address => uint256[])",
        "numberOfBytes": "32",
        "value": "t_array(t_uint256)dyn_storage"
      },
      "t_mapping(t_address,t_bool)": {
        "encoding": "mapping",
        "key": "t_address",
        "label": "mapping(address => bool)",
        "numberOfBytes": "32",
        "value": "t_bool"
      },
      "t_mapping(t_uint256,t_struct(Escrow)16828_storage)": {
        "encoding": "mapping",
        "key": "t_uint256",
        "label": "mapping(uint256 => struct IProductionsV3.Escrow)",
        "numberOfBytes": "32",
        "value": "t_struct(Escrow)16828_storage"
      },
      "t_struct(Counter)3121_storage": {
        "encoding": "inplace",
        "label": "struct CountersUpgradeable.Counter",
        "members": [
          {
            "astId": 3120,
            "contract": "contracts/v3/StaxeProductionsV3.sol:StaxeProductionsV3",
            "label": "_value",
            "offset": 0,
            "slot": "0",
            "type": "t_uint256"
          }
        ],
        "numberOfBytes": "32"
      },
      "t_struct(Escrow)16828_storage": {
        "encoding": "inplace",
        "label": "struct IProductionsV3.Escrow",
        "members": [
          {
            "astId": 16824,
            "contract": "contracts/v3/StaxeProductionsV3.sol:StaxeProductionsV3",
            "label": "id",
            "offset": 0,
            "slot": "0",
            "type": "t_uint256"
          },
          {
            "astId": 16827,
            "contract": "contracts/v3/StaxeProductionsV3.sol:StaxeProductionsV3",
            "label": "escrow",
            "offset": 0,
            "slot": "1",
            "type": "t_contract(IProductionEscrowV3)16725"
          }
        ],
        "numberOfBytes": "64"
      },
      "t_uint256": {
        "encoding": "inplace",
        "label": "uint256",
        "numberOfBytes": "32"
      },
      "t_uint8": {
        "encoding": "inplace",
        "label": "uint8",
        "numberOfBytes": "1"
      }
    }
  }
}