{
  "address": "0x191b934e3a49Cc1D42202fe9c14C483120c5c9b1",
  "abi": [
    {
      "inputs": [],
      "stateMutability": "nonpayable",
      "type": "constructor"
    },
    {
      "anonymous": false,
      "inputs": [
        {
          "indexed": true,
          "internalType": "address",
          "name": "account",
          "type": "address"
        },
        {
          "indexed": true,
          "internalType": "address",
          "name": "operator",
          "type": "address"
        },
        {
          "indexed": false,
          "internalType": "bool",
          "name": "approved",
          "type": "bool"
        }
      ],
      "name": "ApprovalForAll",
      "type": "event"
    },
    {
      "anonymous": false,
      "inputs": [
        {
          "indexed": false,
          "internalType": "uint8",
          "name": "version",
          "type": "uint8"
        }
      ],
      "name": "Initialized",
      "type": "event"
    },
    {
      "anonymous": false,
      "inputs": [
        {
          "indexed": false,
          "internalType": "address",
          "name": "account",
          "type": "address"
        }
      ],
      "name": "Paused",
      "type": "event"
    },
    {
      "anonymous": false,
      "inputs": [
        {
          "indexed": true,
          "internalType": "bytes32",
          "name": "role",
          "type": "bytes32"
        },
        {
          "indexed": true,
          "internalType": "bytes32",
          "name": "previousAdminRole",
          "type": "bytes32"
        },
        {
          "indexed": true,
          "internalType": "bytes32",
          "name": "newAdminRole",
          "type": "bytes32"
        }
      ],
      "name": "RoleAdminChanged",
      "type": "event"
    },
    {
      "anonymous": false,
      "inputs": [
        {
          "indexed": true,
          "internalType": "bytes32",
          "name": "role",
          "type": "bytes32"
        },
        {
          "indexed": true,
          "internalType": "address",
          "name": "account",
          "type": "address"
        },
        {
          "indexed": true,
          "internalType": "address",
          "name": "sender",
          "type": "address"
        }
      ],
      "name": "RoleGranted",
      "type": "event"
    },
    {
      "anonymous": false,
      "inputs": [
        {
          "indexed": true,
          "internalType": "bytes32",
          "name": "role",
          "type": "bytes32"
        },
        {
          "indexed": true,
          "internalType": "address",
          "name": "account",
          "type": "address"
        },
        {
          "indexed": true,
          "internalType": "address",
          "name": "sender",
          "type": "address"
        }
      ],
      "name": "RoleRevoked",
      "type": "event"
    },
    {
      "anonymous": false,
      "inputs": [
        {
          "indexed": true,
          "internalType": "address",
          "name": "operator",
          "type": "address"
        },
        {
          "indexed": true,
          "internalType": "address",
          "name": "from",
          "type": "address"
        },
        {
          "indexed": true,
          "internalType": "address",
          "name": "to",
          "type": "address"
        },
        {
          "indexed": false,
          "internalType": "uint256[]",
          "name": "ids",
          "type": "uint256[]"
        },
        {
          "indexed": false,
          "internalType": "uint256[]",
          "name": "values",
          "type": "uint256[]"
        }
      ],
      "name": "TransferBatch",
      "type": "event"
    },
    {
      "anonymous": false,
      "inputs": [
        {
          "indexed": true,
          "internalType": "address",
          "name": "operator",
          "type": "address"
        },
        {
          "indexed": true,
          "internalType": "address",
          "name": "from",
          "type": "address"
        },
        {
          "indexed": true,
          "internalType": "address",
          "name": "to",
          "type": "address"
        },
        {
          "indexed": false,
          "internalType": "uint256",
          "name": "id",
          "type": "uint256"
        },
        {
          "indexed": false,
          "internalType": "uint256",
          "name": "value",
          "type": "uint256"
        }
      ],
      "name": "TransferSingle",
      "type": "event"
    },
    {
      "anonymous": false,
      "inputs": [
        {
          "indexed": false,
          "internalType": "string",
          "name": "value",
          "type": "string"
        },
        {
          "indexed": true,
          "internalType": "uint256",
          "name": "id",
          "type": "uint256"
        }
      ],
      "name": "URI",
      "type": "event"
    },
    {
      "anonymous": false,
      "inputs": [
        {
          "indexed": false,
          "internalType": "address",
          "name": "account",
          "type": "address"
        }
      ],
      "name": "Unpaused",
      "type": "event"
    },
    {
      "inputs": [],
      "name": "DEFAULT_ADMIN_ROLE",
      "outputs": [
        {
          "internalType": "bytes32",
          "name": "",
          "type": "bytes32"
        }
      ],
      "stateMutability": "view",
      "type": "function"
    },
    {
      "inputs": [],
      "name": "MINTER_ROLE",
      "outputs": [
        {
          "internalType": "bytes32",
          "name": "",
          "type": "bytes32"
        }
      ],
      "stateMutability": "view",
      "type": "function"
    },
    {
      "inputs": [],
      "name": "PAUSER_ROLE",
      "outputs": [
        {
          "internalType": "bytes32",
          "name": "",
          "type": "bytes32"
        }
      ],
      "stateMutability": "view",
      "type": "function"
    },
    {
      "inputs": [],
      "name": "URI_SETTER_ROLE",
      "outputs": [
        {
          "internalType": "bytes32",
          "name": "",
          "type": "bytes32"
        }
      ],
      "stateMutability": "view",
      "type": "function"
    },
    {
      "inputs": [
        {
          "internalType": "address",
          "name": "account",
          "type": "address"
        },
        {
          "internalType": "uint256",
          "name": "id",
          "type": "uint256"
        }
      ],
      "name": "balanceOf",
      "outputs": [
        {
          "internalType": "uint256",
          "name": "",
          "type": "uint256"
        }
      ],
      "stateMutability": "view",
      "type": "function"
    },
    {
      "inputs": [
        {
          "internalType": "address[]",
          "name": "accounts",
          "type": "address[]"
        },
        {
          "internalType": "uint256[]",
          "name": "ids",
          "type": "uint256[]"
        }
      ],
      "name": "balanceOfBatch",
      "outputs": [
        {
          "internalType": "uint256[]",
          "name": "",
          "type": "uint256[]"
        }
      ],
      "stateMutability": "view",
      "type": "function"
    },
    {
      "inputs": [
        {
          "internalType": "bytes32",
          "name": "role",
          "type": "bytes32"
        }
      ],
      "name": "getRoleAdmin",
      "outputs": [
        {
          "internalType": "bytes32",
          "name": "",
          "type": "bytes32"
        }
      ],
      "stateMutability": "view",
      "type": "function"
    },
    {
      "inputs": [
        {
          "internalType": "address",
          "name": "buyer",
          "type": "address"
        }
      ],
      "name": "getTokenBalances",
      "outputs": [
        {
          "internalType": "uint256[]",
          "name": "tokenIds",
          "type": "uint256[]"
        },
        {
          "internalType": "uint256[]",
          "name": "balances",
          "type": "uint256[]"
        }
      ],
      "stateMutability": "view",
      "type": "function"
    },
    {
      "inputs": [
        {
          "internalType": "uint256",
          "name": "id",
          "type": "uint256"
        }
      ],
      "name": "getTokenOwners",
      "outputs": [
        {
          "internalType": "address[]",
          "name": "owners",
          "type": "address[]"
        },
        {
          "internalType": "uint256[]",
          "name": "balances",
          "type": "uint256[]"
        }
      ],
      "stateMutability": "view",
      "type": "function"
    },
    {
      "inputs": [
        {
          "internalType": "bytes32",
          "name": "role",
          "type": "bytes32"
        },
        {
          "internalType": "address",
          "name": "account",
          "type": "address"
        }
      ],
      "name": "grantRole",
      "outputs": [],
      "stateMutability": "nonpayable",
      "type": "function"
    },
    {
      "inputs": [
        {
          "internalType": "bytes32",
          "name": "role",
          "type": "bytes32"
        },
        {
          "internalType": "address",
          "name": "account",
          "type": "address"
        }
      ],
      "name": "hasRole",
      "outputs": [
        {
          "internalType": "bool",
          "name": "",
          "type": "bool"
        }
      ],
      "stateMutability": "view",
      "type": "function"
    },
    {
      "inputs": [],
      "name": "initialize",
      "outputs": [],
      "stateMutability": "nonpayable",
      "type": "function"
    },
    {
      "inputs": [
        {
          "internalType": "address",
          "name": "account",
          "type": "address"
        },
        {
          "internalType": "address",
          "name": "operator",
          "type": "address"
        }
      ],
      "name": "isApprovedForAll",
      "outputs": [
        {
          "internalType": "bool",
          "name": "",
          "type": "bool"
        }
      ],
      "stateMutability": "view",
      "type": "function"
    },
    {
      "inputs": [
        {
          "internalType": "address",
          "name": "account",
          "type": "address"
        },
        {
          "internalType": "uint256",
          "name": "id",
          "type": "uint256"
        },
        {
          "internalType": "uint256",
          "name": "amount",
          "type": "uint256"
        },
        {
          "internalType": "bytes",
          "name": "data",
          "type": "bytes"
        }
      ],
      "name": "mint",
      "outputs": [],
      "stateMutability": "nonpayable",
      "type": "function"
    },
    {
      "inputs": [
        {
          "internalType": "address",
          "name": "to",
          "type": "address"
        },
        {
          "internalType": "uint256[]",
          "name": "ids",
          "type": "uint256[]"
        },
        {
          "internalType": "uint256[]",
          "name": "amounts",
          "type": "uint256[]"
        },
        {
          "internalType": "bytes",
          "name": "data",
          "type": "bytes"
        }
      ],
      "name": "mintBatch",
      "outputs": [],
      "stateMutability": "nonpayable",
      "type": "function"
    },
    {
      "inputs": [
        {
          "internalType": "contract IProductionTokenTrackerV3",
          "name": "owner",
          "type": "address"
        },
        {
          "internalType": "uint256",
          "name": "id",
          "type": "uint256"
        },
        {
          "internalType": "uint256",
          "name": "totalAmount",
          "type": "uint256"
        }
      ],
      "name": "mintToken",
      "outputs": [],
      "stateMutability": "nonpayable",
      "type": "function"
    },
    {
      "inputs": [],
      "name": "pause",
      "outputs": [],
      "stateMutability": "nonpayable",
      "type": "function"
    },
    {
      "inputs": [],
      "name": "paused",
      "outputs": [
        {
          "internalType": "bool",
          "name": "",
          "type": "bool"
        }
      ],
      "stateMutability": "view",
      "type": "function"
    },
    {
      "inputs": [
        {
          "internalType": "bytes32",
          "name": "role",
          "type": "bytes32"
        },
        {
          "internalType": "address",
          "name": "account",
          "type": "address"
        }
      ],
      "name": "renounceRole",
      "outputs": [],
      "stateMutability": "nonpayable",
      "type": "function"
    },
    {
      "inputs": [
        {
          "internalType": "bytes32",
          "name": "role",
          "type": "bytes32"
        },
        {
          "internalType": "address",
          "name": "account",
          "type": "address"
        }
      ],
      "name": "revokeRole",
      "outputs": [],
      "stateMutability": "nonpayable",
      "type": "function"
    },
    {
      "inputs": [
        {
          "internalType": "address",
          "name": "from",
          "type": "address"
        },
        {
          "internalType": "address",
          "name": "to",
          "type": "address"
        },
        {
          "internalType": "uint256[]",
          "name": "ids",
          "type": "uint256[]"
        },
        {
          "internalType": "uint256[]",
          "name": "amounts",
          "type": "uint256[]"
        },
        {
          "internalType": "bytes",
          "name": "data",
          "type": "bytes"
        }
      ],
      "name": "safeBatchTransferFrom",
      "outputs": [],
      "stateMutability": "nonpayable",
      "type": "function"
    },
    {
      "inputs": [
        {
          "internalType": "address",
          "name": "from",
          "type": "address"
        },
        {
          "internalType": "address",
          "name": "to",
          "type": "address"
        },
        {
          "internalType": "uint256",
          "name": "id",
          "type": "uint256"
        },
        {
          "internalType": "uint256",
          "name": "amount",
          "type": "uint256"
        },
        {
          "internalType": "bytes",
          "name": "data",
          "type": "bytes"
        }
      ],
      "name": "safeTransferFrom",
      "outputs": [],
      "stateMutability": "nonpayable",
      "type": "function"
    },
    {
      "inputs": [
        {
          "internalType": "address",
          "name": "operator",
          "type": "address"
        },
        {
          "internalType": "bool",
          "name": "approved",
          "type": "bool"
        }
      ],
      "name": "setApprovalForAll",
      "outputs": [],
      "stateMutability": "nonpayable",
      "type": "function"
    },
    {
      "inputs": [
        {
          "internalType": "string",
          "name": "newuri",
          "type": "string"
        }
      ],
      "name": "setURI",
      "outputs": [],
      "stateMutability": "nonpayable",
      "type": "function"
    },
    {
      "inputs": [
        {
          "internalType": "bytes4",
          "name": "interfaceId",
          "type": "bytes4"
        }
      ],
      "name": "supportsInterface",
      "outputs": [
        {
          "internalType": "bool",
          "name": "",
          "type": "bool"
        }
      ],
      "stateMutability": "view",
      "type": "function"
    },
    {
      "inputs": [],
      "name": "unpause",
      "outputs": [],
      "stateMutability": "nonpayable",
      "type": "function"
    },
    {
      "inputs": [
        {
          "internalType": "uint256",
          "name": "",
          "type": "uint256"
        }
      ],
      "name": "uri",
      "outputs": [
        {
          "internalType": "string",
          "name": "",
          "type": "string"
        }
      ],
      "stateMutability": "view",
      "type": "function"
    }
  ],
  "transactionHash": "0x7c507a1cf8ae918503eb1d287912f6d59c555b0daedce4bb2d976a9f21133e8a",
  "args": [],
  "numDeployments": 1,
  "solcInputHash": "55cd484baecc8aee925baad87ca49192",
  "bytecode": "0x60806040523480156200001157600080fd5b506200001c62000022565b62000152565b6200002e60ff62000031565b50565b60008054610100900460ff1615620000ca578160ff1660011480156200006a575062000068306200014360201b62000dd91760201c565b155b620000c25760405162461bcd60e51b815260206004820152602e602482015260008051602062002f3783398151915260448201526d191e481a5b9a5d1a585b1a5e995960921b60648201526084015b60405180910390fd5b506000919050565b60005460ff808416911610620001295760405162461bcd60e51b815260206004820152602e602482015260008051602062002f3783398151915260448201526d191e481a5b9a5d1a585b1a5e995960921b6064820152608401620000b9565b506000805460ff191660ff92909216919091179055600190565b6001600160a01b03163b151590565b612dd580620001626000396000f3fe608060405234801561001057600080fd5b50600436106101b85760003560e01c8063681ece9d116100f9578063a217fddf11610097578063d547741f11610071578063d547741f146103f7578063e63ab1e91461040a578063e985e9c514610431578063f242432a1461046d57600080fd5b8063a217fddf146103b5578063a22cb465146103bd578063d5391393146103d057600080fd5b80637f345710116100d35780637f345710146103455780638129fc1c1461036c5780638456cb591461037457806391d148541461037c57600080fd5b8063681ece9d146102f0578063731133e914610311578063764f3aa81461032457600080fd5b8063248a9ca31161016657806336568abe1161014057806336568abe146102aa5780633f4ba83a146102bd5780634e1273f4146102c55780635c975abb146102e557600080fd5b8063248a9ca3146102615780632eb2c2d6146102845780632f2ff15d1461029757600080fd5b80630e89341c116101975780630e89341c1461021b5780631f7fdffa1461023b57806323a36d2b1461024e57600080fd5b8062fdd58e146101bd57806301ffc9a7146101e357806302fe530514610206575b600080fd5b6101d06101cb366004612360565b610480565b6040519081526020015b60405180910390f35b6101f66101f13660046123a2565b61051c565b60405190151581526020016101da565b610219610214366004612460565b610527565b005b61022e6102293660046124a9565b61055e565b6040516101da919061251e565b6102196102493660046125e6565b6105f2565b61021961025c366004612681565b61062f565b6101d061026f3660046124a9565b60009081526097602052604090206001015490565b6102196102923660046126b6565b6106d4565b6102196102a5366004612764565b61076f565b6102196102b8366004612764565b610794565b61021961081c565b6102d86102d3366004612794565b610851565b6040516101da919061289c565b60c95460ff166101f6565b6103036102fe3660046124a9565b61097b565b6040516101da9291906128af565b61021961031f36600461290f565b610a91565b610337610332366004612966565b610ac7565b6040516101da929190612983565b6101d07f7804d923f43a17d325d77e781528e0793b2edd9890ab45fc64efd7b4b427744c81565b610219610bca565b610219610cf0565b6101f661038a366004612764565b60009182526097602090815260408084206001600160a01b0393909316845291905290205460ff1690565b6101d0600081565b6102196103cb3660046129b1565b610d22565b6101d07f9f2df0fed2c77648de5860a4cc508cd0818c85b8b8a1ab4ceeef8d981c8956a681565b610219610405366004612764565b610d2d565b6101d07f65d7a28e3265b37a6474929f336521b332c1681b933f6cb9f3376673440d862a81565b6101f661043f3660046129e4565b6001600160a01b03918216600090815260666020908152604080832093909416825291909152205460ff1690565b61021961047b366004612a12565b610d52565b60006001600160a01b0383166104f15760405162461bcd60e51b815260206004820152602b60248201527f455243313135353a2062616c616e636520717565727920666f7220746865207a60448201526a65726f206164647265737360a81b60648201526084015b60405180910390fd5b5060008181526065602090815260408083206001600160a01b03861684529091529020545b92915050565b600061051682610de8565b7f7804d923f43a17d325d77e781528e0793b2edd9890ab45fc64efd7b4b427744c61055181610e0d565b61055a82610e17565b5050565b60606067805461056d90612a7b565b80601f016020809104026020016040519081016040528092919081815260200182805461059990612a7b565b80156105e65780601f106105bb576101008083540402835291602001916105e6565b820191906000526020600020905b8154815290600101906020018083116105c957829003601f168201915b50505050509050919050565b7f9f2df0fed2c77648de5860a4cc508cd0818c85b8b8a1ab4ceeef8d981c8956a661061c81610e0d565b61062885858585610e2a565b5050505050565b6000811161067f5760405162461bcd60e51b815260206004820152601460248201527f4d757374207061737320616d6f756e74203e203000000000000000000000000060448201526064016104e8565b600082815260fb60209081526040808320805473ffffffffffffffffffffffffffffffffffffffff19166001600160a01b038816179055805191820190529081526106cf90849084908490610a91565b505050565b6001600160a01b0385163314806106f057506106f0853361043f565b6107625760405162461bcd60e51b815260206004820152603260248201527f455243313135353a207472616e736665722063616c6c6572206973206e6f742060448201527f6f776e6572206e6f7220617070726f766564000000000000000000000000000060648201526084016104e8565b6106288585858585611000565b60008281526097602052604090206001015461078a81610e0d565b6106cf838361126f565b6001600160a01b03811633146108125760405162461bcd60e51b815260206004820152602f60248201527f416363657373436f6e74726f6c3a2063616e206f6e6c792072656e6f756e636560448201527f20726f6c657320666f722073656c66000000000000000000000000000000000060648201526084016104e8565b61055a8282611311565b7f65d7a28e3265b37a6474929f336521b332c1681b933f6cb9f3376673440d862a61084681610e0d565b61084e611394565b50565b606081518351146108b65760405162461bcd60e51b815260206004820152602960248201527f455243313135353a206163636f756e747320616e6420696473206c656e677468604482015268040dad2e6dac2e8c6d60bb1b60648201526084016104e8565b6000835167ffffffffffffffff8111156108d2576108d26123bf565b6040519080825280602002602001820160405280156108fb578160200160208202803683370190505b50905060005b84518110156109735761094685828151811061091f5761091f612ab6565b602002602001015185838151811061093957610939612ab6565b6020026020010151610480565b82828151811061095857610958612ab6565b602090810291909101015261096c81612ae2565b9050610901565b509392505050565b606080600083116109ce5760405162461bcd60e51b815260206004820152600f60248201527f496e76616c696420746f6b656e4964000000000000000000000000000000000060448201526064016104e8565b600083815260fc602052604090206109e590611430565b9150815167ffffffffffffffff811115610a0157610a016123bf565b604051908082528060200260200182016040528015610a2a578160200160208202803683370190505b50905060005b8251811015610a8b57610a5c838281518110610a4e57610a4e612ab6565b602002602001015185610480565b828281518110610a6e57610a6e612ab6565b602090810291909101015280610a8381612ae2565b915050610a30565b50915091565b7f9f2df0fed2c77648de5860a4cc508cd0818c85b8b8a1ab4ceeef8d981c8956a6610abb81610e0d565b61062885858585611444565b6060806001600160a01b038316610b105760405162461bcd60e51b815260206004820152600d60248201526c24b73b30b634b210313abcb2b960991b60448201526064016104e8565b6001600160a01b038316600090815260fd60205260409020610b3190611430565b9150815167ffffffffffffffff811115610b4d57610b4d6123bf565b604051908082528060200260200182016040528015610b76578160200160208202803683370190505b50905060005b8251811015610a8b57610b9b8484838151811061093957610939612ab6565b828281518110610bad57610bad612ab6565b602090810291909101015280610bc281612ae2565b915050610b7c565b6000610bd66001611569565b90508015610bee576000805461ff0019166101001790555b610c0f604051806060016040528060248152602001612d7c6024913961167f565b610c176116af565b610c1f6116d8565b610c2a60003361126f565b610c547f7804d923f43a17d325d77e781528e0793b2edd9890ab45fc64efd7b4b427744c3361126f565b610c7e7f65d7a28e3265b37a6474929f336521b332c1681b933f6cb9f3376673440d862a3361126f565b610ca87f9f2df0fed2c77648de5860a4cc508cd0818c85b8b8a1ab4ceeef8d981c8956a63361126f565b801561084e576000805461ff0019169055604051600181527f7f26b83ff96e1f2b6a682f133852f6798a09c465da95921460cefb38474024989060200160405180910390a150565b7f65d7a28e3265b37a6474929f336521b332c1681b933f6cb9f3376673440d862a610d1a81610e0d565b61084e611707565b61055a33838361178f565b600082815260976020526040902060010154610d4881610e0d565b6106cf8383611311565b6001600160a01b038516331480610d6e5750610d6e853361043f565b610dcc5760405162461bcd60e51b815260206004820152602960248201527f455243313135353a2063616c6c6572206973206e6f74206f776e6572206e6f7260448201526808185c1c1c9bdd995960ba1b60648201526084016104e8565b6106288585858585611870565b6001600160a01b03163b151590565b60006001600160e01b03198216637965db0b60e01b1480610516575061051682611a2d565b61084e8133611a7d565b805161055a9060679060208401906122b2565b6001600160a01b038416610e8a5760405162461bcd60e51b815260206004820152602160248201527f455243313135353a206d696e7420746f20746865207a65726f206164647265736044820152607360f81b60648201526084016104e8565b8151835114610eec5760405162461bcd60e51b815260206004820152602860248201527f455243313135353a2069647320616e6420616d6f756e7473206c656e677468206044820152670dad2e6dac2e8c6d60c31b60648201526084016104e8565b33610efc81600087878787611afd565b60005b8451811015610f9857838181518110610f1a57610f1a612ab6565b602002602001015160656000878481518110610f3857610f38612ab6565b602002602001015181526020019081526020016000206000886001600160a01b03166001600160a01b031681526020019081526020016000206000828254610f809190612afd565b90915550819050610f9081612ae2565b915050610eff565b50846001600160a01b031660006001600160a01b0316826001600160a01b03167f4a39dc06d4c0dbc64b70af90fd698a233a518aa5d07e595d983b8c0526c8f7fb8787604051610fe9929190612983565b60405180910390a461062881600087878787611c69565b81518351146110625760405162461bcd60e51b815260206004820152602860248201527f455243313135353a2069647320616e6420616d6f756e7473206c656e677468206044820152670dad2e6dac2e8c6d60c31b60648201526084016104e8565b6001600160a01b0384166110c65760405162461bcd60e51b815260206004820152602560248201527f455243313135353a207472616e7366657220746f20746865207a65726f206164604482015264647265737360d81b60648201526084016104e8565b336110d5818787878787611afd565b60005b84518110156112015760008582815181106110f5576110f5612ab6565b60200260200101519050600085838151811061111357611113612ab6565b60209081029190910181015160008481526065835260408082206001600160a01b038e1683529093529190912054909150818110156111a75760405162461bcd60e51b815260206004820152602a60248201527f455243313135353a20696e73756666696369656e742062616c616e636520666f60448201526939103a3930b739b332b960b11b60648201526084016104e8565b60008381526065602090815260408083206001600160a01b038e8116855292528083208585039055908b168252812080548492906111e6908490612afd565b92505081905550505050806111fa90612ae2565b90506110d8565b50846001600160a01b0316866001600160a01b0316826001600160a01b03167f4a39dc06d4c0dbc64b70af90fd698a233a518aa5d07e595d983b8c0526c8f7fb8787604051611251929190612983565b60405180910390a4611267818787878787611c69565b505050505050565b60008281526097602090815260408083206001600160a01b038516845290915290205460ff1661055a5760008281526097602090815260408083206001600160a01b03851684529091529020805460ff191660011790556112cd3390565b6001600160a01b0316816001600160a01b0316837f2f8788117e7eff1d82e926ec794901d17c78024a50270940304540a733656f0d60405160405180910390a45050565b60008281526097602090815260408083206001600160a01b038516845290915290205460ff161561055a5760008281526097602090815260408083206001600160a01b0385168085529252808320805460ff1916905551339285917ff6391f5c32d9c69d2a47ea670b442974b53935d1edc7fd64eb21e047a839171b9190a45050565b60c95460ff166113e65760405162461bcd60e51b815260206004820152601460248201527f5061757361626c653a206e6f742070617573656400000000000000000000000060448201526064016104e8565b60c9805460ff191690557f5db9ee0a495bf2e6ff9c91a7834c1ba4fdd244a5e8aa4e537bd38aeae4b073aa335b6040516001600160a01b03909116815260200160405180910390a1565b6060600061143d83611e1e565b9392505050565b6001600160a01b0384166114a45760405162461bcd60e51b815260206004820152602160248201527f455243313135353a206d696e7420746f20746865207a65726f206164647265736044820152607360f81b60648201526084016104e8565b3360006114b085611e79565b905060006114bd85611e79565b90506114ce83600089858589611afd565b60008681526065602090815260408083206001600160a01b038b16845290915281208054879290611500908490612afd565b909155505060408051878152602081018790526001600160a01b03808a1692600092918716917fc3d58168c5ae7397731d063d5bbf3d657854427343f4c083240f7aacaa2d0f62910160405180910390a461156083600089898989611ec4565b50505050505050565b60008054610100900460ff16156115f7578160ff16600114801561158c5750303b155b6115ef5760405162461bcd60e51b815260206004820152602e60248201527f496e697469616c697a61626c653a20636f6e747261637420697320616c72656160448201526d191e481a5b9a5d1a585b1a5e995960921b60648201526084016104e8565b506000919050565b60005460ff8084169116106116655760405162461bcd60e51b815260206004820152602e60248201527f496e697469616c697a61626c653a20636f6e747261637420697320616c72656160448201526d191e481a5b9a5d1a585b1a5e995960921b60648201526084016104e8565b506000805460ff191660ff92909216919091179055600190565b600054610100900460ff166116a65760405162461bcd60e51b81526004016104e890612b15565b61084e81611fcf565b600054610100900460ff166116d65760405162461bcd60e51b81526004016104e890612b15565b565b600054610100900460ff166116ff5760405162461bcd60e51b81526004016104e890612b15565b6116d6611fff565b60c95460ff161561175a5760405162461bcd60e51b815260206004820152601060248201527f5061757361626c653a207061757365640000000000000000000000000000000060448201526064016104e8565b60c9805460ff191660011790557f62e78cea01bee320cd4e420270b5ea74000d11b0c9f74754ebdbfc544b05a2586114133390565b816001600160a01b0316836001600160a01b031614156118035760405162461bcd60e51b815260206004820152602960248201527f455243313135353a2073657474696e6720617070726f76616c20737461747573604482015268103337b91039b2b63360b91b60648201526084016104e8565b6001600160a01b03838116600081815260666020908152604080832094871680845294825291829020805460ff191686151590811790915591519182527f17307eab39ab6107e8899845ad3d59bd9653f200f220920489ca2b5937696c31910160405180910390a3505050565b6001600160a01b0384166118d45760405162461bcd60e51b815260206004820152602560248201527f455243313135353a207472616e7366657220746f20746865207a65726f206164604482015264647265737360d81b60648201526084016104e8565b3360006118e085611e79565b905060006118ed85611e79565b90506118fd838989858589611afd565b60008681526065602090815260408083206001600160a01b038c168452909152902054858110156119835760405162461bcd60e51b815260206004820152602a60248201527f455243313135353a20696e73756666696369656e742062616c616e636520666f60448201526939103a3930b739b332b960b11b60648201526084016104e8565b60008781526065602090815260408083206001600160a01b038d8116855292528083208985039055908a168252812080548892906119c2908490612afd565b909155505060408051888152602081018890526001600160a01b03808b16928c821692918816917fc3d58168c5ae7397731d063d5bbf3d657854427343f4c083240f7aacaa2d0f62910160405180910390a4611a22848a8a8a8a8a611ec4565b505050505050505050565b60006001600160e01b03198216636cdb3d1360e11b1480611a5e57506001600160e01b031982166303a24d0760e21b145b8061051657506301ffc9a760e01b6001600160e01b0319831614610516565b60008281526097602090815260408083206001600160a01b038516845290915290205460ff1661055a57611abb816001600160a01b03166014612032565b611ac6836020612032565b604051602001611ad7929190612b60565b60408051601f198184030181529082905262461bcd60e51b82526104e89160040161251e565b60005b8351811015611560576000838281518110611b1d57611b1d612ab6565b602002602001015190506000858381518110611b3b57611b3b612ab6565b60200260200101519050611b6160fc6000838152602001908152602001600020886121db565b506001600160a01b038716600090815260fd60205260409020611b8490826121f0565b50600081815260fb60205260409020546001600160a01b0316611ba88989836121fc565b15611c5357806001600160a01b031663ad799e1030898781518110611bcf57611bcf612ab6565b60209081029190910101516040516001600160e01b031960e085901b1681526001600160a01b0392831660048201526024810191909152818d166044820152908b1660648201526084810186905260a401600060405180830381600087803b158015611c3a57600080fd5b505af1158015611c4e573d6000803e3d6000fd5b505050505b5050508080611c6190612ae2565b915050611b00565b6001600160a01b0384163b156112675760405163bc197c8160e01b81526001600160a01b0385169063bc197c8190611cad9089908990889088908890600401612be1565b602060405180830381600087803b158015611cc757600080fd5b505af1925050508015611cf7575060408051601f3d908101601f19168201909252611cf491810190612c3f565b60015b611dad57611d03612c5c565b806308c379a01415611d3d5750611d18612c78565b80611d235750611d3f565b8060405162461bcd60e51b81526004016104e8919061251e565b505b60405162461bcd60e51b815260206004820152603460248201527f455243313135353a207472616e7366657220746f206e6f6e204552433131353560448201527f526563656976657220696d706c656d656e74657200000000000000000000000060648201526084016104e8565b6001600160e01b0319811663bc197c8160e01b146115605760405162461bcd60e51b815260206004820152602860248201527f455243313135353a204552433131353552656365697665722072656a656374656044820152676420746f6b656e7360c01b60648201526084016104e8565b6060816000018054806020026020016040519081016040528092919081815260200182805480156105e657602002820191906000526020600020905b815481526020019060010190808311611e5a5750505050509050919050565b60408051600180825281830190925260609160009190602080830190803683370190505090508281600081518110611eb357611eb3612ab6565b602090810291909101015292915050565b6001600160a01b0384163b156112675760405163f23a6e6160e01b81526001600160a01b0385169063f23a6e6190611f089089908990889088908890600401612d02565b602060405180830381600087803b158015611f2257600080fd5b505af1925050508015611f52575060408051601f3d908101601f19168201909252611f4f91810190612c3f565b60015b611f5e57611d03612c5c565b6001600160e01b0319811663f23a6e6160e01b146115605760405162461bcd60e51b815260206004820152602860248201527f455243313135353a204552433131353552656365697665722072656a656374656044820152676420746f6b656e7360c01b60648201526084016104e8565b600054610100900460ff16611ff65760405162461bcd60e51b81526004016104e890612b15565b61084e81610e17565b600054610100900460ff166120265760405162461bcd60e51b81526004016104e890612b15565b60c9805460ff19169055565b60606000612041836002612d45565b61204c906002612afd565b67ffffffffffffffff811115612064576120646123bf565b6040519080825280601f01601f19166020018201604052801561208e576020820181803683370190505b509050600360fc1b816000815181106120a9576120a9612ab6565b60200101906001600160f81b031916908160001a905350600f60fb1b816001815181106120d8576120d8612ab6565b60200101906001600160f81b031916908160001a90535060006120fc846002612d45565b612107906001612afd565b90505b600181111561218c577f303132333435363738396162636465660000000000000000000000000000000085600f166010811061214857612148612ab6565b1a60f81b82828151811061215e5761215e612ab6565b60200101906001600160f81b031916908160001a90535060049490941c9361218581612d64565b905061210a565b50831561143d5760405162461bcd60e51b815260206004820181905260248201527f537472696e67733a20686578206c656e67746820696e73756666696369656e7460448201526064016104e8565b600061143d836001600160a01b038416612263565b600061143d8383612263565b60006001600160a01b0382161580159061221f57506001600160a01b0384163014155b801561223d5750816001600160a01b0316846001600160a01b031614155b801561225b5750816001600160a01b0316836001600160a01b031614155b949350505050565b60008181526001830160205260408120546122aa57508154600181810184556000848152602080822090930184905584548482528286019093526040902091909155610516565b506000610516565b8280546122be90612a7b565b90600052602060002090601f0160209004810192826122e05760008555612326565b82601f106122f957805160ff1916838001178555612326565b82800160010185558215612326579182015b8281111561232657825182559160200191906001019061230b565b50612332929150612336565b5090565b5b808211156123325760008155600101612337565b6001600160a01b038116811461084e57600080fd5b6000806040838503121561237357600080fd5b823561237e8161234b565b946020939093013593505050565b6001600160e01b03198116811461084e57600080fd5b6000602082840312156123b457600080fd5b813561143d8161238c565b634e487b7160e01b600052604160045260246000fd5b601f8201601f1916810167ffffffffffffffff811182821017156123fb576123fb6123bf565b6040525050565b600067ffffffffffffffff83111561241c5761241c6123bf565b604051612433601f8501601f1916602001826123d5565b80915083815284848401111561244857600080fd5b83836020830137600060208583010152509392505050565b60006020828403121561247257600080fd5b813567ffffffffffffffff81111561248957600080fd5b8201601f8101841361249a57600080fd5b61225b84823560208401612402565b6000602082840312156124bb57600080fd5b5035919050565b60005b838110156124dd5781810151838201526020016124c5565b838111156124ec576000848401525b50505050565b6000815180845261250a8160208601602086016124c2565b601f01601f19169290920160200192915050565b60208152600061143d60208301846124f2565b600067ffffffffffffffff82111561254b5761254b6123bf565b5060051b60200190565b600082601f83011261256657600080fd5b8135602061257382612531565b60405161258082826123d5565b83815260059390931b85018201928281019150868411156125a057600080fd5b8286015b848110156125bb57803583529183019183016125a4565b509695505050505050565b600082601f8301126125d757600080fd5b61143d83833560208501612402565b600080600080608085870312156125fc57600080fd5b84356126078161234b565b9350602085013567ffffffffffffffff8082111561262457600080fd5b61263088838901612555565b9450604087013591508082111561264657600080fd5b61265288838901612555565b9350606087013591508082111561266857600080fd5b50612675878288016125c6565b91505092959194509250565b60008060006060848603121561269657600080fd5b83356126a18161234b565b95602085013595506040909401359392505050565b600080600080600060a086880312156126ce57600080fd5b85356126d98161234b565b945060208601356126e98161234b565b9350604086013567ffffffffffffffff8082111561270657600080fd5b61271289838a01612555565b9450606088013591508082111561272857600080fd5b61273489838a01612555565b9350608088013591508082111561274a57600080fd5b50612757888289016125c6565b9150509295509295909350565b6000806040838503121561277757600080fd5b8235915060208301356127898161234b565b809150509250929050565b600080604083850312156127a757600080fd5b823567ffffffffffffffff808211156127bf57600080fd5b818501915085601f8301126127d357600080fd5b813560206127e082612531565b6040516127ed82826123d5565b83815260059390931b850182019282810191508984111561280d57600080fd5b948201945b838610156128345785356128258161234b565b82529482019490820190612812565b9650508601359250508082111561284a57600080fd5b5061285785828601612555565b9150509250929050565b600081518084526020808501945080840160005b8381101561289157815187529582019590820190600101612875565b509495945050505050565b60208152600061143d6020830184612861565b604080825283519082018190526000906020906060840190828701845b828110156128f15781516001600160a01b0316845292840192908401906001016128cc565b505050838103828501526129058186612861565b9695505050505050565b6000806000806080858703121561292557600080fd5b84356129308161234b565b93506020850135925060408501359150606085013567ffffffffffffffff81111561295a57600080fd5b612675878288016125c6565b60006020828403121561297857600080fd5b813561143d8161234b565b6040815260006129966040830185612861565b82810360208401526129a88185612861565b95945050505050565b600080604083850312156129c457600080fd5b82356129cf8161234b565b91506020830135801515811461278957600080fd5b600080604083850312156129f757600080fd5b8235612a028161234b565b915060208301356127898161234b565b600080600080600060a08688031215612a2a57600080fd5b8535612a358161234b565b94506020860135612a458161234b565b93506040860135925060608601359150608086013567ffffffffffffffff811115612a6f57600080fd5b612757888289016125c6565b600181811c90821680612a8f57607f821691505b60208210811415612ab057634e487b7160e01b600052602260045260246000fd5b50919050565b634e487b7160e01b600052603260045260246000fd5b634e487b7160e01b600052601160045260246000fd5b6000600019821415612af657612af6612acc565b5060010190565b60008219821115612b1057612b10612acc565b500190565b6020808252602b908201527f496e697469616c697a61626c653a20636f6e7472616374206973206e6f74206960408201526a6e697469616c697a696e6760a81b606082015260800190565b7f416363657373436f6e74726f6c3a206163636f756e7420000000000000000000815260008351612b988160178501602088016124c2565b7f206973206d697373696e6720726f6c65200000000000000000000000000000006017918401918201528351612bd58160288401602088016124c2565b01602801949350505050565b60006001600160a01b03808816835280871660208401525060a06040830152612c0d60a0830186612861565b8281036060840152612c1f8186612861565b90508281036080840152612c3381856124f2565b98975050505050505050565b600060208284031215612c5157600080fd5b815161143d8161238c565b600060033d1115612c755760046000803e5060005160e01c5b90565b600060443d1015612c865790565b6040516003193d81016004833e81513d67ffffffffffffffff8160248401118184111715612cb657505050505090565b8285019150815181811115612cce5750505050505090565b843d8701016020828501011115612ce85750505050505090565b612cf7602082860101876123d5565b509095945050505050565b60006001600160a01b03808816835280871660208401525084604083015283606083015260a06080830152612d3a60a08301846124f2565b979650505050505050565b6000816000190483118215151615612d5f57612d5f612acc565b500290565b600081612d7357612d73612acc565b50600019019056fe68747470733a2f2f73746178652e6170702f6170692f76332f746f6b656e732f7b69647da26469706673582212205ba313f0b3f0872f31beffe3d02ba58e1fd33cda071ba3bdf92cc2a9a7f0e10f64736f6c63430008090033496e697469616c697a61626c653a20636f6e747261637420697320616c726561",
  "devdoc": {
    "custom:security-contact": "info@staxe.io",
    "kind": "dev",
    "methods": {
      "balanceOf(address,uint256)": {
        "details": "See {IERC1155-balanceOf}. Requirements: - `account` cannot be the zero address."
      },
      "balanceOfBatch(address[],uint256[])": {
        "details": "See {IERC1155-balanceOfBatch}. Requirements: - `accounts` and `ids` must have the same length."
      },
      "constructor": {
        "custom:oz-upgrades-unsafe-allow": "constructor"
      },
      "getRoleAdmin(bytes32)": {
        "details": "Returns the admin role that controls `role`. See {grantRole} and {revokeRole}. To change a role's admin, use {_setRoleAdmin}."
      },
      "grantRole(bytes32,address)": {
        "details": "Grants `role` to `account`. If `account` had not been already granted `role`, emits a {RoleGranted} event. Requirements: - the caller must have ``role``'s admin role."
      },
      "hasRole(bytes32,address)": {
        "details": "Returns `true` if `account` has been granted `role`."
      },
      "isApprovedForAll(address,address)": {
        "details": "See {IERC1155-isApprovedForAll}."
      },
      "paused()": {
        "details": "Returns true if the contract is paused, and false otherwise."
      },
      "renounceRole(bytes32,address)": {
        "details": "Revokes `role` from the calling account. Roles are often managed via {grantRole} and {revokeRole}: this function's purpose is to provide a mechanism for accounts to lose their privileges if they are compromised (such as when a trusted device is misplaced). If the calling account had been revoked `role`, emits a {RoleRevoked} event. Requirements: - the caller must be `account`."
      },
      "revokeRole(bytes32,address)": {
        "details": "Revokes `role` from `account`. If `account` had been granted `role`, emits a {RoleRevoked} event. Requirements: - the caller must have ``role``'s admin role."
      },
      "safeBatchTransferFrom(address,address,uint256[],uint256[],bytes)": {
        "details": "See {IERC1155-safeBatchTransferFrom}."
      },
      "safeTransferFrom(address,address,uint256,uint256,bytes)": {
        "details": "See {IERC1155-safeTransferFrom}."
      },
      "setApprovalForAll(address,bool)": {
        "details": "See {IERC1155-setApprovalForAll}."
      },
      "uri(uint256)": {
        "details": "See {IERC1155MetadataURI-uri}. This implementation returns the same URI for *all* token types. It relies on the token type ID substitution mechanism https://eips.ethereum.org/EIPS/eip-1155#metadata[defined in the EIP]. Clients calling this function must replace the `\\{id\\}` substring with the actual token type ID."
      }
    },
    "version": 1
  },
  "userdoc": {
    "kind": "user",
    "methods": {},
    "version": 1
  },
  "storageLayout": {
    "storage": [
      {
        "astId": 800,
        "contract": "contracts/v3/StaxeProductionTokenV3.sol:StaxeProductionTokenV3",
        "label": "_initialized",
        "offset": 0,
        "slot": "0",
        "type": "t_uint8"
      },
      {
        "astId": 803,
        "contract": "contracts/v3/StaxeProductionTokenV3.sol:StaxeProductionTokenV3",
        "label": "_initializing",
        "offset": 1,
        "slot": "0",
        "type": "t_bool"
      },
      {
        "astId": 3114,
        "contract": "contracts/v3/StaxeProductionTokenV3.sol:StaxeProductionTokenV3",
        "label": "__gap",
        "offset": 0,
        "slot": "1",
        "type": "t_array(t_uint256)50_storage"
      },
      {
        "astId": 3435,
        "contract": "contracts/v3/StaxeProductionTokenV3.sol:StaxeProductionTokenV3",
        "label": "__gap",
        "offset": 0,
        "slot": "51",
        "type": "t_array(t_uint256)50_storage"
      },
      {
        "astId": 1134,
        "contract": "contracts/v3/StaxeProductionTokenV3.sol:StaxeProductionTokenV3",
        "label": "_balances",
        "offset": 0,
        "slot": "101",
        "type": "t_mapping(t_uint256,t_mapping(t_address,t_uint256))"
      },
      {
        "astId": 1140,
        "contract": "contracts/v3/StaxeProductionTokenV3.sol:StaxeProductionTokenV3",
        "label": "_operatorApprovals",
        "offset": 0,
        "slot": "102",
        "type": "t_mapping(t_address,t_mapping(t_address,t_bool))"
      },
      {
        "astId": 1142,
        "contract": "contracts/v3/StaxeProductionTokenV3.sol:StaxeProductionTokenV3",
        "label": "_uri",
        "offset": 0,
        "slot": "103",
        "type": "t_string_storage"
      },
      {
        "astId": 2349,
        "contract": "contracts/v3/StaxeProductionTokenV3.sol:StaxeProductionTokenV3",
        "label": "__gap",
        "offset": 0,
        "slot": "104",
        "type": "t_array(t_uint256)47_storage"
      },
      {
        "astId": 184,
        "contract": "contracts/v3/StaxeProductionTokenV3.sol:StaxeProductionTokenV3",
        "label": "_roles",
        "offset": 0,
        "slot": "151",
        "type": "t_mapping(t_bytes32,t_struct(RoleData)179_storage)"
      },
      {
        "astId": 483,
        "contract": "contracts/v3/StaxeProductionTokenV3.sol:StaxeProductionTokenV3",
        "label": "__gap",
        "offset": 0,
        "slot": "152",
        "type": "t_array(t_uint256)49_storage"
      },
      {
        "astId": 956,
        "contract": "contracts/v3/StaxeProductionTokenV3.sol:StaxeProductionTokenV3",
        "label": "_paused",
        "offset": 0,
        "slot": "201",
        "type": "t_bool"
      },
      {
        "astId": 1045,
        "contract": "contracts/v3/StaxeProductionTokenV3.sol:StaxeProductionTokenV3",
        "label": "__gap",
        "offset": 0,
        "slot": "202",
        "type": "t_array(t_uint256)49_storage"
      },
      {
        "astId": 13933,
        "contract": "contracts/v3/StaxeProductionTokenV3.sol:StaxeProductionTokenV3",
        "label": "tokenMinter",
        "offset": 0,
        "slot": "251",
        "type": "t_mapping(t_uint256,t_contract(IProductionTokenTrackerV3)16377)"
      },
      {
        "astId": 13938,
        "contract": "contracts/v3/StaxeProductionTokenV3.sol:StaxeProductionTokenV3",
        "label": "tokenOwnersByToken",
        "offset": 0,
        "slot": "252",
        "type": "t_mapping(t_uint256,t_struct(AddressSet)3760_storage)"
      },
      {
        "astId": 13943,
        "contract": "contracts/v3/StaxeProductionTokenV3.sol:StaxeProductionTokenV3",
        "label": "tokenIdsByOwner",
        "offset": 0,
        "slot": "253",
        "type": "t_mapping(t_address,t_struct(UintSet)3917_storage)"
      }
    ],
    "types": {
      "t_address": {
        "encoding": "inplace",
        "label": "address",
        "numberOfBytes": "20"
      },
      "t_array(t_bytes32)dyn_storage": {
        "base": "t_bytes32",
        "encoding": "dynamic_array",
        "label": "bytes32[]",
        "numberOfBytes": "32"
      },
      "t_array(t_uint256)47_storage": {
        "base": "t_uint256",
        "encoding": "inplace",
        "label": "uint256[47]",
        "numberOfBytes": "1504"
      },
      "t_array(t_uint256)49_storage": {
        "base": "t_uint256",
        "encoding": "inplace",
        "label": "uint256[49]",
        "numberOfBytes": "1568"
      },
      "t_array(t_uint256)50_storage": {
        "base": "t_uint256",
        "encoding": "inplace",
        "label": "uint256[50]",
        "numberOfBytes": "1600"
      },
      "t_bool": {
        "encoding": "inplace",
        "label": "bool",
        "numberOfBytes": "1"
      },
      "t_bytes32": {
        "encoding": "inplace",
        "label": "bytes32",
        "numberOfBytes": "32"
      },
      "t_contract(IProductionTokenTrackerV3)16377": {
        "encoding": "inplace",
        "label": "contract IProductionTokenTrackerV3",
        "numberOfBytes": "20"
      },
      "t_mapping(t_address,t_bool)": {
        "encoding": "mapping",
        "key": "t_address",
        "label": "mapping(address => bool)",
        "numberOfBytes": "32",
        "value": "t_bool"
      },
      "t_mapping(t_address,t_mapping(t_address,t_bool))": {
        "encoding": "mapping",
        "key": "t_address",
        "label": "mapping(address => mapping(address => bool))",
        "numberOfBytes": "32",
        "value": "t_mapping(t_address,t_bool)"
      },
      "t_mapping(t_address,t_struct(UintSet)3917_storage)": {
        "encoding": "mapping",
        "key": "t_address",
        "label": "mapping(address => struct EnumerableSetUpgradeable.UintSet)",
        "numberOfBytes": "32",
        "value": "t_struct(UintSet)3917_storage"
      },
      "t_mapping(t_address,t_uint256)": {
        "encoding": "mapping",
        "key": "t_address",
        "label": "mapping(address => uint256)",
        "numberOfBytes": "32",
        "value": "t_uint256"
      },
      "t_mapping(t_bytes32,t_struct(RoleData)179_storage)": {
        "encoding": "mapping",
        "key": "t_bytes32",
        "label": "mapping(bytes32 => struct AccessControlUpgradeable.RoleData)",
        "numberOfBytes": "32",
        "value": "t_struct(RoleData)179_storage"
      },
      "t_mapping(t_bytes32,t_uint256)": {
        "encoding": "mapping",
        "key": "t_bytes32",
        "label": "mapping(bytes32 => uint256)",
        "numberOfBytes": "32",
        "value": "t_uint256"
      },
      "t_mapping(t_uint256,t_contract(IProductionTokenTrackerV3)16377)": {
        "encoding": "mapping",
        "key": "t_uint256",
        "label": "mapping(uint256 => contract IProductionTokenTrackerV3)",
        "numberOfBytes": "32",
        "value": "t_contract(IProductionTokenTrackerV3)16377"
      },
      "t_mapping(t_uint256,t_mapping(t_address,t_uint256))": {
        "encoding": "mapping",
        "key": "t_uint256",
        "label": "mapping(uint256 => mapping(address => uint256))",
        "numberOfBytes": "32",
        "value": "t_mapping(t_address,t_uint256)"
      },
      "t_mapping(t_uint256,t_struct(AddressSet)3760_storage)": {
        "encoding": "mapping",
        "key": "t_uint256",
        "label": "mapping(uint256 => struct EnumerableSetUpgradeable.AddressSet)",
        "numberOfBytes": "32",
        "value": "t_struct(AddressSet)3760_storage"
      },
      "t_string_storage": {
        "encoding": "bytes",
        "label": "string",
        "numberOfBytes": "32"
      },
      "t_struct(AddressSet)3760_storage": {
        "encoding": "inplace",
        "label": "struct EnumerableSetUpgradeable.AddressSet",
        "members": [
          {
            "astId": 3759,
            "contract": "contracts/v3/StaxeProductionTokenV3.sol:StaxeProductionTokenV3",
            "label": "_inner",
            "offset": 0,
            "slot": "0",
            "type": "t_struct(Set)3459_storage"
          }
        ],
        "numberOfBytes": "64"
      },
      "t_struct(RoleData)179_storage": {
        "encoding": "inplace",
        "label": "struct AccessControlUpgradeable.RoleData",
        "members": [
          {
            "astId": 176,
            "contract": "contracts/v3/StaxeProductionTokenV3.sol:StaxeProductionTokenV3",
            "label": "members",
            "offset": 0,
            "slot": "0",
            "type": "t_mapping(t_address,t_bool)"
          },
          {
            "astId": 178,
            "contract": "contracts/v3/StaxeProductionTokenV3.sol:StaxeProductionTokenV3",
            "label": "adminRole",
            "offset": 0,
            "slot": "1",
            "type": "t_bytes32"
          }
        ],
        "numberOfBytes": "64"
      },
      "t_struct(Set)3459_storage": {
        "encoding": "inplace",
        "label": "struct EnumerableSetUpgradeable.Set",
        "members": [
          {
            "astId": 3454,
            "contract": "contracts/v3/StaxeProductionTokenV3.sol:StaxeProductionTokenV3",
            "label": "_values",
            "offset": 0,
            "slot": "0",
            "type": "t_array(t_bytes32)dyn_storage"
          },
          {
            "astId": 3458,
            "contract": "contracts/v3/StaxeProductionTokenV3.sol:StaxeProductionTokenV3",
            "label": "_indexes",
            "offset": 0,
            "slot": "1",
            "type": "t_mapping(t_bytes32,t_uint256)"
          }
        ],
        "numberOfBytes": "64"
      },
      "t_struct(UintSet)3917_storage": {
        "encoding": "inplace",
        "label": "struct EnumerableSetUpgradeable.UintSet",
        "members": [
          {
            "astId": 3916,
            "contract": "contracts/v3/StaxeProductionTokenV3.sol:StaxeProductionTokenV3",
            "label": "_inner",
            "offset": 0,
            "slot": "0",
            "type": "t_struct(Set)3459_storage"
          }
        ],
        "numberOfBytes": "64"
      },
      "t_uint256": {
        "encoding": "inplace",
        "label": "uint256",
        "numberOfBytes": "32"
      },
      "t_uint8": {
        "encoding": "inplace",
        "label": "uint8",
        "numberOfBytes": "1"
      }
    }
  }
}