{
  "address": "0x050E101A41Ca1040536adac24B131E4535b8624c",
  "abi": [
    {
      "inputs": [
        {
          "internalType": "address",
          "name": "_trustedForwarder",
          "type": "address"
        }
      ],
      "stateMutability": "nonpayable",
      "type": "constructor"
    },
    {
      "anonymous": false,
      "inputs": [
        {
          "indexed": false,
          "internalType": "uint8",
          "name": "version",
          "type": "uint8"
        }
      ],
      "name": "Initialized",
      "type": "event"
    },
    {
      "anonymous": false,
      "inputs": [
        {
          "indexed": true,
          "internalType": "bytes32",
          "name": "role",
          "type": "bytes32"
        },
        {
          "indexed": true,
          "internalType": "bytes32",
          "name": "previousAdminRole",
          "type": "bytes32"
        },
        {
          "indexed": true,
          "internalType": "bytes32",
          "name": "newAdminRole",
          "type": "bytes32"
        }
      ],
      "name": "RoleAdminChanged",
      "type": "event"
    },
    {
      "anonymous": false,
      "inputs": [
        {
          "indexed": true,
          "internalType": "bytes32",
          "name": "role",
          "type": "bytes32"
        },
        {
          "indexed": true,
          "internalType": "address",
          "name": "account",
          "type": "address"
        },
        {
          "indexed": true,
          "internalType": "address",
          "name": "sender",
          "type": "address"
        }
      ],
      "name": "RoleGranted",
      "type": "event"
    },
    {
      "anonymous": false,
      "inputs": [
        {
          "indexed": true,
          "internalType": "bytes32",
          "name": "role",
          "type": "bytes32"
        },
        {
          "indexed": true,
          "internalType": "address",
          "name": "account",
          "type": "address"
        },
        {
          "indexed": true,
          "internalType": "address",
          "name": "sender",
          "type": "address"
        }
      ],
      "name": "RoleRevoked",
      "type": "event"
    },
    {
      "inputs": [],
      "name": "APPROVER_ROLE",
      "outputs": [
        {
          "internalType": "bytes32",
          "name": "",
          "type": "bytes32"
        }
      ],
      "stateMutability": "view",
      "type": "function"
    },
    {
      "inputs": [],
      "name": "DEFAULT_ADMIN_ROLE",
      "outputs": [
        {
          "internalType": "bytes32",
          "name": "",
          "type": "bytes32"
        }
      ],
      "stateMutability": "view",
      "type": "function"
    },
    {
      "inputs": [],
      "name": "INVESTOR_ROLE",
      "outputs": [
        {
          "internalType": "bytes32",
          "name": "",
          "type": "bytes32"
        }
      ],
      "stateMutability": "view",
      "type": "function"
    },
    {
      "inputs": [],
      "name": "ORGANIZER_ROLE",
      "outputs": [
        {
          "internalType": "bytes32",
          "name": "",
          "type": "bytes32"
        }
      ],
      "stateMutability": "view",
      "type": "function"
    },
    {
      "inputs": [
        {
          "internalType": "address",
          "name": "delegate",
          "type": "address"
        }
      ],
      "name": "addDelegate",
      "outputs": [],
      "stateMutability": "nonpayable",
      "type": "function"
    },
    {
      "inputs": [
        {
          "internalType": "bytes32",
          "name": "role",
          "type": "bytes32"
        }
      ],
      "name": "getRoleAdmin",
      "outputs": [
        {
          "internalType": "bytes32",
          "name": "",
          "type": "bytes32"
        }
      ],
      "stateMutability": "view",
      "type": "function"
    },
    {
      "inputs": [
        {
          "internalType": "bytes32",
          "name": "role",
          "type": "bytes32"
        },
        {
          "internalType": "uint256",
          "name": "index",
          "type": "uint256"
        }
      ],
      "name": "getRoleMember",
      "outputs": [
        {
          "internalType": "address",
          "name": "",
          "type": "address"
        }
      ],
      "stateMutability": "view",
      "type": "function"
    },
    {
      "inputs": [
        {
          "internalType": "bytes32",
          "name": "role",
          "type": "bytes32"
        }
      ],
      "name": "getRoleMemberCount",
      "outputs": [
        {
          "internalType": "uint256",
          "name": "",
          "type": "uint256"
        }
      ],
      "stateMutability": "view",
      "type": "function"
    },
    {
      "inputs": [
        {
          "internalType": "bytes32",
          "name": "role",
          "type": "bytes32"
        },
        {
          "internalType": "address",
          "name": "account",
          "type": "address"
        }
      ],
      "name": "grantRole",
      "outputs": [],
      "stateMutability": "nonpayable",
      "type": "function"
    },
    {
      "inputs": [
        {
          "internalType": "bytes32",
          "name": "role",
          "type": "bytes32"
        },
        {
          "internalType": "address",
          "name": "account",
          "type": "address"
        }
      ],
      "name": "hasRole",
      "outputs": [
        {
          "internalType": "bool",
          "name": "",
          "type": "bool"
        }
      ],
      "stateMutability": "view",
      "type": "function"
    },
    {
      "inputs": [],
      "name": "initialize",
      "outputs": [],
      "stateMutability": "nonpayable",
      "type": "function"
    },
    {
      "inputs": [
        {
          "internalType": "address",
          "name": "sender",
          "type": "address"
        }
      ],
      "name": "isApprover",
      "outputs": [
        {
          "internalType": "bool",
          "name": "",
          "type": "bool"
        }
      ],
      "stateMutability": "view",
      "type": "function"
    },
    {
      "inputs": [
        {
          "internalType": "address",
          "name": "sender",
          "type": "address"
        }
      ],
      "name": "isInvestor",
      "outputs": [
        {
          "internalType": "bool",
          "name": "",
          "type": "bool"
        }
      ],
      "stateMutability": "view",
      "type": "function"
    },
    {
      "inputs": [
        {
          "internalType": "address",
          "name": "sender",
          "type": "address"
        }
      ],
      "name": "isOrganizer",
      "outputs": [
        {
          "internalType": "bool",
          "name": "",
          "type": "bool"
        }
      ],
      "stateMutability": "view",
      "type": "function"
    },
    {
      "inputs": [
        {
          "internalType": "address",
          "name": "sender",
          "type": "address"
        },
        {
          "internalType": "address",
          "name": "organizer",
          "type": "address"
        }
      ],
      "name": "isOrganizerDelegate",
      "outputs": [
        {
          "internalType": "bool",
          "name": "",
          "type": "bool"
        }
      ],
      "stateMutability": "view",
      "type": "function"
    },
    {
      "inputs": [
        {
          "internalType": "address",
          "name": "forwarder",
          "type": "address"
        }
      ],
      "name": "isTrustedForwarder",
      "outputs": [
        {
          "internalType": "bool",
          "name": "",
          "type": "bool"
        }
      ],
      "stateMutability": "view",
      "type": "function"
    },
    {
      "inputs": [
        {
          "internalType": "address",
          "name": "investor",
          "type": "address"
        }
      ],
      "name": "registerInvestor",
      "outputs": [],
      "stateMutability": "nonpayable",
      "type": "function"
    },
    {
      "inputs": [
        {
          "internalType": "address",
          "name": "delegate",
          "type": "address"
        }
      ],
      "name": "removeDelegate",
      "outputs": [],
      "stateMutability": "nonpayable",
      "type": "function"
    },
    {
      "inputs": [
        {
          "internalType": "bytes32",
          "name": "role",
          "type": "bytes32"
        },
        {
          "internalType": "address",
          "name": "account",
          "type": "address"
        }
      ],
      "name": "renounceRole",
      "outputs": [],
      "stateMutability": "nonpayable",
      "type": "function"
    },
    {
      "inputs": [
        {
          "internalType": "bytes32",
          "name": "role",
          "type": "bytes32"
        },
        {
          "internalType": "address",
          "name": "account",
          "type": "address"
        }
      ],
      "name": "revokeRole",
      "outputs": [],
      "stateMutability": "nonpayable",
      "type": "function"
    },
    {
      "inputs": [
        {
          "internalType": "bytes4",
          "name": "interfaceId",
          "type": "bytes4"
        }
      ],
      "name": "supportsInterface",
      "outputs": [
        {
          "internalType": "bool",
          "name": "",
          "type": "bool"
        }
      ],
      "stateMutability": "view",
      "type": "function"
    }
  ],
  "transactionHash": "0x82d6e1b6965f89039a5e79c3141c69c82b08acd659204cfa362f25341bf3964a",
  "args": [
    "0xf23f3f8408507b4db8dfda9748ca5c8b5e944649"
  ],
  "numDeployments": 1,
  "solcInputHash": "874a50ffd346668fcd5d81512ab9f77c",
  "bytecode": "0x60c06040523480156200001157600080fd5b50604051620015863803806200158683398101604081905262000034916200018d565b6001600160a01b0381166080526200004b6200005d565b6001600160a01b031660a052620001bf565b6200006960ff6200006c565b50565b60008054610100900460ff161562000105578160ff166001148015620000a55750620000a3306200017e60201b6200099f1760201c565b155b620000fd5760405162461bcd60e51b815260206004820152602e60248201526000805160206200156683398151915260448201526d191e481a5b9a5d1a585b1a5e995960921b60648201526084015b60405180910390fd5b506000919050565b60005460ff808416911610620001645760405162461bcd60e51b815260206004820152602e60248201526000805160206200156683398151915260448201526d191e481a5b9a5d1a585b1a5e995960921b6064820152608401620000f4565b506000805460ff191660ff92909216919091179055600190565b6001600160a01b03163b151590565b600060208284031215620001a057600080fd5b81516001600160a01b0381168114620001b857600080fd5b9392505050565b60805160a051611381620001e5600039600061074f0152600061021701526113816000f3fe608060405234801561001057600080fd5b50600436106101475760003560e01c806376082a5e116100c8578063a217fddf1161008c578063d547741f11610066578063d547741f14610368578063d8d9a3911461037b578063e71bdf411461038e57600080fd5b8063a217fddf1461033a578063ca15c87314610342578063cee2a9cf1461035557600080fd5b806376082a5e146102805780637909cb59146102a75780638129fc1c146102ce5780639010d07c146102d657806391d148541461030157600080fd5b80634245962b1161010f5780634245962b146101e0578063572b6c051461020757806367e7646f14610247578063691c94841461025a5780636d218e481461026d57600080fd5b806301ffc9a71461014c578063248a9ca3146101745780632f2ff15d146101a557806336568abe146101ba57806341676f15146101cd575b600080fd5b61015f61015a3660046110bd565b6103a1565b60405190151581526020015b60405180910390f35b6101976101823660046110e7565b60009081526065602052604090206001015490565b60405190815260200161016b565b6101b86101b3366004611117565b6103cc565b005b6101b86101c8366004611117565b6103f6565b61015f6101db366004611143565b610487565b6101977f408a36151f841709116a4e8aca4e0202874f7f54687dcb863b1ea4672dc9d8cf81565b61015f610215366004611143565b7f00000000000000000000000000000000000000000000000000000000000000006001600160a01b0390811691161490565b6101b8610255366004611143565b6104c7565b6101b8610268366004611143565b6105a0565b61015f61027b366004611143565b610634565b6101977fb165298935924f540e4181c03493a5d686c54a0aaeb3f6216de85b7ffbba773881565b6101977f4d2e7a1e3f5dd6e203f087b15756ccf0e4ccd947fe1b639a38540089a1e47f6381565b6101b8610674565b6102e96102e436600461115e565b6107bb565b6040516001600160a01b03909116815260200161016b565b61015f61030f366004611117565b60009182526065602090815260408084206001600160a01b0393909316845291905290205460ff1690565b610197600081565b6101976103503660046110e7565b6107da565b61015f610363366004611143565b6107f1565b6101b8610376366004611117565b610831565b61015f610389366004611180565b610856565b6101b861039c366004611143565b6108d6565b60006001600160e01b03198216635a05180f60e01b14806103c657506103c6826109ae565b92915050565b6000828152606560205260409020600101546103e7816109e3565b6103f183836109ed565b505050565b6001600160a01b03811633146104795760405162461bcd60e51b815260206004820152602f60248201527f416363657373436f6e74726f6c3a2063616e206f6e6c792072656e6f756e636560448201527f20726f6c657320666f722073656c66000000000000000000000000000000000060648201526084015b60405180910390fd5b6104838282610a0f565b5050565b6001600160a01b03811660009081527f5886497c055deefe8d7c4914cfcbe328b9f49b3df987469762b751b0d377c917602052604081205460ff166103c6565b7f4d2e7a1e3f5dd6e203f087b15756ccf0e4ccd947fe1b639a38540089a1e47f636104f1816109e3565b6001600160a01b03828116600090815260fb602052604090205416331461056b5760405162461bcd60e51b815260206004820152602860248201527f43616e6e6f742072656d6f76652064656c65676174652066726f6d20736f6d656044820152676f6e6520656c736560c01b6064820152608401610470565b506001600160a01b0316600090815260fb60205260409020805473ffffffffffffffffffffffffffffffffffffffff19169055565b6105a933610215565b6106075760405162461bcd60e51b815260206004820152602960248201527f43616e206f6e6c792062652063616c6c65642066726f6d2074727573746564206044820152683337b93bb0b93232b960b91b6064820152608401610470565b6106317fb165298935924f540e4181c03493a5d686c54a0aaeb3f6216de85b7ffbba7738826109ed565b50565b6001600160a01b03811660009081527f2dd1231cc74c05037b167a530e23c1439bec870541435962496d8ebe33b55cff602052604081205460ff166103c6565b60006106806001610a31565b90508015610698576000805461ff0019166101001790555b6106a0610b4c565b6106ab600033610bb9565b6106d57fb165298935924f540e4181c03493a5d686c54a0aaeb3f6216de85b7ffbba773833610bb9565b6106ff7f4d2e7a1e3f5dd6e203f087b15756ccf0e4ccd947fe1b639a38540089a1e47f6333610bb9565b6107297f408a36151f841709116a4e8aca4e0202874f7f54687dcb863b1ea4672dc9d8cf33610bb9565b6107737fb165298935924f540e4181c03493a5d686c54a0aaeb3f6216de85b7ffbba77387f00000000000000000000000000000000000000000000000000000000000000006109ed565b8015610631576000805461ff0019169055604051600181527f7f26b83ff96e1f2b6a682f133852f6798a09c465da95921460cefb38474024989060200160405180910390a150565b60008281526097602052604081206107d39083610bc3565b9392505050565b60008181526097602052604081206103c690610bcf565b6001600160a01b03811660009081527fd9c8da2a6b9fa787e86538d08fa10e37f97273076c6cdc33c5f440fdf8e810bc602052604081205460ff166103c6565b60008281526065602052604090206001015461084c816109e3565b6103f18383610a0f565b6001600160a01b03811660009081527f5886497c055deefe8d7c4914cfcbe328b9f49b3df987469762b751b0d377c917602052604081205460ff1680156107d35750816001600160a01b0316836001600160a01b031614806107d35750506001600160a01b03918216600090815260fb6020526040902054821691161490565b7f4d2e7a1e3f5dd6e203f087b15756ccf0e4ccd947fe1b639a38540089a1e47f63610900816109e3565b6001600160a01b03828116600090815260fb602052604090205416156109685760405162461bcd60e51b815260206004820152601660248201527f44656c656761746520616c7265616479206164646564000000000000000000006044820152606401610470565b506001600160a01b0316600090815260fb60205260409020805473ffffffffffffffffffffffffffffffffffffffff191633179055565b6001600160a01b03163b151590565b60006001600160e01b03198216637965db0b60e01b14806103c657506301ffc9a760e01b6001600160e01b03198316146103c6565b6106318133610bd9565b6109f78282610c59565b60008281526097602052604090206103f19082610cfb565b610a198282610d10565b60008281526097602052604090206103f19082610d93565b60008054610100900460ff1615610abf578160ff166001148015610a545750303b155b610ab75760405162461bcd60e51b815260206004820152602e60248201527f496e697469616c697a61626c653a20636f6e747261637420697320616c72656160448201526d191e481a5b9a5d1a585b1a5e995960921b6064820152608401610470565b506000919050565b60005460ff808416911610610b2d5760405162461bcd60e51b815260206004820152602e60248201527f496e697469616c697a61626c653a20636f6e747261637420697320616c72656160448201526d191e481a5b9a5d1a585b1a5e995960921b6064820152608401610470565b506000805460ff191660ff92909216919091179055600190565b919050565b600054610100900460ff16610bb75760405162461bcd60e51b815260206004820152602b60248201527f496e697469616c697a61626c653a20636f6e7472616374206973206e6f74206960448201526a6e697469616c697a696e6760a81b6064820152608401610470565b565b61048382826109ed565b60006107d38383610da8565b60006103c6825490565b60008281526065602090815260408083206001600160a01b038516845290915290205460ff1661048357610c17816001600160a01b03166014610dd2565b610c22836020610dd2565b604051602001610c339291906111da565b60408051601f198184030181529082905262461bcd60e51b82526104709160040161125b565b60008281526065602090815260408083206001600160a01b038516845290915290205460ff166104835760008281526065602090815260408083206001600160a01b03851684529091529020805460ff19166001179055610cb73390565b6001600160a01b0316816001600160a01b0316837f2f8788117e7eff1d82e926ec794901d17c78024a50270940304540a733656f0d60405160405180910390a45050565b60006107d3836001600160a01b038416610f7b565b60008281526065602090815260408083206001600160a01b038516845290915290205460ff16156104835760008281526065602090815260408083206001600160a01b0385168085529252808320805460ff1916905551339285917ff6391f5c32d9c69d2a47ea670b442974b53935d1edc7fd64eb21e047a839171b9190a45050565b60006107d3836001600160a01b038416610fca565b6000826000018281548110610dbf57610dbf61128e565b9060005260206000200154905092915050565b60606000610de18360026112ba565b610dec9060026112d9565b67ffffffffffffffff811115610e0457610e046112f1565b6040519080825280601f01601f191660200182016040528015610e2e576020820181803683370190505b509050600360fc1b81600081518110610e4957610e4961128e565b60200101906001600160f81b031916908160001a905350600f60fb1b81600181518110610e7857610e7861128e565b60200101906001600160f81b031916908160001a9053506000610e9c8460026112ba565b610ea79060016112d9565b90505b6001811115610f2c577f303132333435363738396162636465660000000000000000000000000000000085600f1660108110610ee857610ee861128e565b1a60f81b828281518110610efe57610efe61128e565b60200101906001600160f81b031916908160001a90535060049490941c93610f2581611307565b9050610eaa565b5083156107d35760405162461bcd60e51b815260206004820181905260248201527f537472696e67733a20686578206c656e67746820696e73756666696369656e746044820152606401610470565b6000818152600183016020526040812054610fc2575081546001818101845560008481526020808220909301849055845484825282860190935260409020919091556103c6565b5060006103c6565b600081815260018301602052604081205480156110b3576000610fee60018361131e565b85549091506000906110029060019061131e565b90508181146110675760008660000182815481106110225761102261128e565b90600052602060002001549050808760000184815481106110455761104561128e565b6000918252602080832090910192909255918252600188019052604090208390555b855486908061107857611078611335565b6001900381819060005260206000200160009055905585600101600086815260200190815260200160002060009055600193505050506103c6565b60009150506103c6565b6000602082840312156110cf57600080fd5b81356001600160e01b0319811681146107d357600080fd5b6000602082840312156110f957600080fd5b5035919050565b80356001600160a01b0381168114610b4757600080fd5b6000806040838503121561112a57600080fd5b8235915061113a60208401611100565b90509250929050565b60006020828403121561115557600080fd5b6107d382611100565b6000806040838503121561117157600080fd5b50508035926020909101359150565b6000806040838503121561119357600080fd5b61119c83611100565b915061113a60208401611100565b60005b838110156111c55781810151838201526020016111ad565b838111156111d4576000848401525b50505050565b7f416363657373436f6e74726f6c3a206163636f756e74200000000000000000008152600083516112128160178501602088016111aa565b7f206973206d697373696e6720726f6c6520000000000000000000000000000000601791840191820152835161124f8160288401602088016111aa565b01602801949350505050565b602081526000825180602084015261127a8160408501602087016111aa565b601f01601f19169190910160400192915050565b634e487b7160e01b600052603260045260246000fd5b634e487b7160e01b600052601160045260246000fd5b60008160001904831182151516156112d4576112d46112a4565b500290565b600082198211156112ec576112ec6112a4565b500190565b634e487b7160e01b600052604160045260246000fd5b600081611316576113166112a4565b506000190190565b600082821015611330576113306112a4565b500390565b634e487b7160e01b600052603160045260246000fdfea26469706673582212205fcc83ec0e8c938a3047046db50a52261cc6f200201a49dc7e842482ff8cf13d64736f6c63430008090033496e697469616c697a61626c653a20636f6e747261637420697320616c726561",
  "devdoc": {
    "custom:security-contact": "info@staxe.io",
    "kind": "dev",
    "methods": {
      "constructor": {
        "custom:oz-upgrades-unsafe-allow": "constructor"
      },
      "getRoleAdmin(bytes32)": {
        "details": "Returns the admin role that controls `role`. See {grantRole} and {revokeRole}. To change a role's admin, use {_setRoleAdmin}."
      },
      "getRoleMember(bytes32,uint256)": {
        "details": "Returns one of the accounts that have `role`. `index` must be a value between 0 and {getRoleMemberCount}, non-inclusive. Role bearers are not sorted in any particular way, and their ordering may change at any point. WARNING: When using {getRoleMember} and {getRoleMemberCount}, make sure you perform all queries on the same block. See the following https://forum.openzeppelin.com/t/iterating-over-elements-on-enumerableset-in-openzeppelin-contracts/2296[forum post] for more information."
      },
      "getRoleMemberCount(bytes32)": {
        "details": "Returns the number of accounts that have `role`. Can be used together with {getRoleMember} to enumerate all bearers of a role."
      },
      "grantRole(bytes32,address)": {
        "details": "Grants `role` to `account`. If `account` had not been already granted `role`, emits a {RoleGranted} event. Requirements: - the caller must have ``role``'s admin role."
      },
      "hasRole(bytes32,address)": {
        "details": "Returns `true` if `account` has been granted `role`."
      },
      "renounceRole(bytes32,address)": {
        "details": "Revokes `role` from the calling account. Roles are often managed via {grantRole} and {revokeRole}: this function's purpose is to provide a mechanism for accounts to lose their privileges if they are compromised (such as when a trusted device is misplaced). If the calling account had been revoked `role`, emits a {RoleRevoked} event. Requirements: - the caller must be `account`."
      },
      "revokeRole(bytes32,address)": {
        "details": "Revokes `role` from `account`. If `account` had been granted `role`, emits a {RoleRevoked} event. Requirements: - the caller must have ``role``'s admin role."
      },
      "supportsInterface(bytes4)": {
        "details": "See {IERC165-supportsInterface}."
      }
    },
    "version": 1
  },
  "userdoc": {
    "kind": "user",
    "methods": {},
    "version": 1
  },
  "storageLayout": {
    "storage": [
      {
        "astId": 800,
        "contract": "contracts/v3/StaxeMembersV3.sol:StaxeMembersV3",
        "label": "_initialized",
        "offset": 0,
        "slot": "0",
        "type": "t_uint8"
      },
      {
        "astId": 803,
        "contract": "contracts/v3/StaxeMembersV3.sol:StaxeMembersV3",
        "label": "_initializing",
        "offset": 1,
        "slot": "0",
        "type": "t_bool"
      },
      {
        "astId": 3114,
        "contract": "contracts/v3/StaxeMembersV3.sol:StaxeMembersV3",
        "label": "__gap",
        "offset": 0,
        "slot": "1",
        "type": "t_array(t_uint256)50_storage"
      },
      {
        "astId": 3435,
        "contract": "contracts/v3/StaxeMembersV3.sol:StaxeMembersV3",
        "label": "__gap",
        "offset": 0,
        "slot": "51",
        "type": "t_array(t_uint256)50_storage"
      },
      {
        "astId": 184,
        "contract": "contracts/v3/StaxeMembersV3.sol:StaxeMembersV3",
        "label": "_roles",
        "offset": 0,
        "slot": "101",
        "type": "t_mapping(t_bytes32,t_struct(RoleData)179_storage)"
      },
      {
        "astId": 483,
        "contract": "contracts/v3/StaxeMembersV3.sol:StaxeMembersV3",
        "label": "__gap",
        "offset": 0,
        "slot": "102",
        "type": "t_array(t_uint256)49_storage"
      },
      {
        "astId": 33,
        "contract": "contracts/v3/StaxeMembersV3.sol:StaxeMembersV3",
        "label": "_roleMembers",
        "offset": 0,
        "slot": "151",
        "type": "t_mapping(t_bytes32,t_struct(AddressSet)3760_storage)"
      },
      {
        "astId": 143,
        "contract": "contracts/v3/StaxeMembersV3.sol:StaxeMembersV3",
        "label": "__gap",
        "offset": 0,
        "slot": "152",
        "type": "t_array(t_uint256)49_storage"
      },
      {
        "astId": 792,
        "contract": "contracts/v3/StaxeMembersV3.sol:StaxeMembersV3",
        "label": "__gap",
        "offset": 0,
        "slot": "201",
        "type": "t_array(t_uint256)50_storage"
      },
      {
        "astId": 12260,
        "contract": "contracts/v3/StaxeMembersV3.sol:StaxeMembersV3",
        "label": "organizerDelegate",
        "offset": 0,
        "slot": "251",
        "type": "t_mapping(t_address,t_address)"
      }
    ],
    "types": {
      "t_address": {
        "encoding": "inplace",
        "label": "address",
        "numberOfBytes": "20"
      },
      "t_array(t_bytes32)dyn_storage": {
        "base": "t_bytes32",
        "encoding": "dynamic_array",
        "label": "bytes32[]",
        "numberOfBytes": "32"
      },
      "t_array(t_uint256)49_storage": {
        "base": "t_uint256",
        "encoding": "inplace",
        "label": "uint256[49]",
        "numberOfBytes": "1568"
      },
      "t_array(t_uint256)50_storage": {
        "base": "t_uint256",
        "encoding": "inplace",
        "label": "uint256[50]",
        "numberOfBytes": "1600"
      },
      "t_bool": {
        "encoding": "inplace",
        "label": "bool",
        "numberOfBytes": "1"
      },
      "t_bytes32": {
        "encoding": "inplace",
        "label": "bytes32",
        "numberOfBytes": "32"
      },
      "t_mapping(t_address,t_address)": {
        "encoding": "mapping",
        "key": "t_address",
        "label": "mapping(address => address)",
        "numberOfBytes": "32",
        "value": "t_address"
      },
      "t_mapping(t_address,t_bool)": {
        "encoding": "mapping",
        "key": "t_address",
        "label": "mapping(address => bool)",
        "numberOfBytes": "32",
        "value": "t_bool"
      },
      "t_mapping(t_bytes32,t_struct(AddressSet)3760_storage)": {
        "encoding": "mapping",
        "key": "t_bytes32",
        "label": "mapping(bytes32 => struct EnumerableSetUpgradeable.AddressSet)",
        "numberOfBytes": "32",
        "value": "t_struct(AddressSet)3760_storage"
      },
      "t_mapping(t_bytes32,t_struct(RoleData)179_storage)": {
        "encoding": "mapping",
        "key": "t_bytes32",
        "label": "mapping(bytes32 => struct AccessControlUpgradeable.RoleData)",
        "numberOfBytes": "32",
        "value": "t_struct(RoleData)179_storage"
      },
      "t_mapping(t_bytes32,t_uint256)": {
        "encoding": "mapping",
        "key": "t_bytes32",
        "label": "mapping(bytes32 => uint256)",
        "numberOfBytes": "32",
        "value": "t_uint256"
      },
      "t_struct(AddressSet)3760_storage": {
        "encoding": "inplace",
        "label": "struct EnumerableSetUpgradeable.AddressSet",
        "members": [
          {
            "astId": 3759,
            "contract": "contracts/v3/StaxeMembersV3.sol:StaxeMembersV3",
            "label": "_inner",
            "offset": 0,
            "slot": "0",
            "type": "t_struct(Set)3459_storage"
          }
        ],
        "numberOfBytes": "64"
      },
      "t_struct(RoleData)179_storage": {
        "encoding": "inplace",
        "label": "struct AccessControlUpgradeable.RoleData",
        "members": [
          {
            "astId": 176,
            "contract": "contracts/v3/StaxeMembersV3.sol:StaxeMembersV3",
            "label": "members",
            "offset": 0,
            "slot": "0",
            "type": "t_mapping(t_address,t_bool)"
          },
          {
            "astId": 178,
            "contract": "contracts/v3/StaxeMembersV3.sol:StaxeMembersV3",
            "label": "adminRole",
            "offset": 0,
            "slot": "1",
            "type": "t_bytes32"
          }
        ],
        "numberOfBytes": "64"
      },
      "t_struct(Set)3459_storage": {
        "encoding": "inplace",
        "label": "struct EnumerableSetUpgradeable.Set",
        "members": [
          {
            "astId": 3454,
            "contract": "contracts/v3/StaxeMembersV3.sol:StaxeMembersV3",
            "label": "_values",
            "offset": 0,
            "slot": "0",
            "type": "t_array(t_bytes32)dyn_storage"
          },
          {
            "astId": 3458,
            "contract": "contracts/v3/StaxeMembersV3.sol:StaxeMembersV3",
            "label": "_indexes",
            "offset": 0,
            "slot": "1",
            "type": "t_mapping(t_bytes32,t_uint256)"
          }
        ],
        "numberOfBytes": "64"
      },
      "t_uint256": {
        "encoding": "inplace",
        "label": "uint256",
        "numberOfBytes": "32"
      },
      "t_uint8": {
        "encoding": "inplace",
        "label": "uint8",
        "numberOfBytes": "1"
      }
    }
  }
}