{
  "address": "0xFeA53EA37e909d6db94eA21D4519af7B3a60ccee",
  "abi": [
    {
      "inputs": [],
      "stateMutability": "nonpayable",
      "type": "constructor"
    },
    {
      "anonymous": false,
      "inputs": [
        {
          "indexed": false,
          "internalType": "uint8",
          "name": "version",
          "type": "uint8"
        }
      ],
      "name": "Initialized",
      "type": "event"
    },
    {
      "anonymous": false,
      "inputs": [
        {
          "indexed": true,
          "internalType": "bytes32",
          "name": "role",
          "type": "bytes32"
        },
        {
          "indexed": true,
          "internalType": "bytes32",
          "name": "previousAdminRole",
          "type": "bytes32"
        },
        {
          "indexed": true,
          "internalType": "bytes32",
          "name": "newAdminRole",
          "type": "bytes32"
        }
      ],
      "name": "RoleAdminChanged",
      "type": "event"
    },
    {
      "anonymous": false,
      "inputs": [
        {
          "indexed": true,
          "internalType": "bytes32",
          "name": "role",
          "type": "bytes32"
        },
        {
          "indexed": true,
          "internalType": "address",
          "name": "account",
          "type": "address"
        },
        {
          "indexed": true,
          "internalType": "address",
          "name": "sender",
          "type": "address"
        }
      ],
      "name": "RoleGranted",
      "type": "event"
    },
    {
      "anonymous": false,
      "inputs": [
        {
          "indexed": true,
          "internalType": "bytes32",
          "name": "role",
          "type": "bytes32"
        },
        {
          "indexed": true,
          "internalType": "address",
          "name": "account",
          "type": "address"
        },
        {
          "indexed": true,
          "internalType": "address",
          "name": "sender",
          "type": "address"
        }
      ],
      "name": "RoleRevoked",
      "type": "event"
    },
    {
      "inputs": [],
      "name": "APPROVER_ROLE",
      "outputs": [
        {
          "internalType": "bytes32",
          "name": "",
          "type": "bytes32"
        }
      ],
      "stateMutability": "view",
      "type": "function"
    },
    {
      "inputs": [],
      "name": "DEFAULT_ADMIN_ROLE",
      "outputs": [
        {
          "internalType": "bytes32",
          "name": "",
          "type": "bytes32"
        }
      ],
      "stateMutability": "view",
      "type": "function"
    },
    {
      "inputs": [],
      "name": "INVESTOR_ROLE",
      "outputs": [
        {
          "internalType": "bytes32",
          "name": "",
          "type": "bytes32"
        }
      ],
      "stateMutability": "view",
      "type": "function"
    },
    {
      "inputs": [],
      "name": "ORGANIZER_ROLE",
      "outputs": [
        {
          "internalType": "bytes32",
          "name": "",
          "type": "bytes32"
        }
      ],
      "stateMutability": "view",
      "type": "function"
    },
    {
      "inputs": [
        {
          "internalType": "address",
          "name": "delegate",
          "type": "address"
        }
      ],
      "name": "addDelegate",
      "outputs": [],
      "stateMutability": "nonpayable",
      "type": "function"
    },
    {
      "inputs": [
        {
          "internalType": "bytes32",
          "name": "role",
          "type": "bytes32"
        }
      ],
      "name": "getRoleAdmin",
      "outputs": [
        {
          "internalType": "bytes32",
          "name": "",
          "type": "bytes32"
        }
      ],
      "stateMutability": "view",
      "type": "function"
    },
    {
      "inputs": [
        {
          "internalType": "bytes32",
          "name": "role",
          "type": "bytes32"
        },
        {
          "internalType": "uint256",
          "name": "index",
          "type": "uint256"
        }
      ],
      "name": "getRoleMember",
      "outputs": [
        {
          "internalType": "address",
          "name": "",
          "type": "address"
        }
      ],
      "stateMutability": "view",
      "type": "function"
    },
    {
      "inputs": [
        {
          "internalType": "bytes32",
          "name": "role",
          "type": "bytes32"
        }
      ],
      "name": "getRoleMemberCount",
      "outputs": [
        {
          "internalType": "uint256",
          "name": "",
          "type": "uint256"
        }
      ],
      "stateMutability": "view",
      "type": "function"
    },
    {
      "inputs": [
        {
          "internalType": "bytes32",
          "name": "role",
          "type": "bytes32"
        },
        {
          "internalType": "address",
          "name": "account",
          "type": "address"
        }
      ],
      "name": "grantRole",
      "outputs": [],
      "stateMutability": "nonpayable",
      "type": "function"
    },
    {
      "inputs": [
        {
          "internalType": "bytes32",
          "name": "role",
          "type": "bytes32"
        },
        {
          "internalType": "address",
          "name": "account",
          "type": "address"
        }
      ],
      "name": "hasRole",
      "outputs": [
        {
          "internalType": "bool",
          "name": "",
          "type": "bool"
        }
      ],
      "stateMutability": "view",
      "type": "function"
    },
    {
      "inputs": [
        {
          "internalType": "address",
          "name": "treasury",
          "type": "address"
        },
        {
          "internalType": "address",
          "name": "_relayer",
          "type": "address"
        }
      ],
      "name": "initialize",
      "outputs": [],
      "stateMutability": "nonpayable",
      "type": "function"
    },
    {
      "inputs": [
        {
          "internalType": "address",
          "name": "sender",
          "type": "address"
        }
      ],
      "name": "isApprover",
      "outputs": [
        {
          "internalType": "bool",
          "name": "",
          "type": "bool"
        }
      ],
      "stateMutability": "view",
      "type": "function"
    },
    {
      "inputs": [
        {
          "internalType": "address",
          "name": "sender",
          "type": "address"
        }
      ],
      "name": "isInvestor",
      "outputs": [
        {
          "internalType": "bool",
          "name": "",
          "type": "bool"
        }
      ],
      "stateMutability": "view",
      "type": "function"
    },
    {
      "inputs": [
        {
          "internalType": "address",
          "name": "sender",
          "type": "address"
        }
      ],
      "name": "isOrganizer",
      "outputs": [
        {
          "internalType": "bool",
          "name": "",
          "type": "bool"
        }
      ],
      "stateMutability": "view",
      "type": "function"
    },
    {
      "inputs": [
        {
          "internalType": "address",
          "name": "sender",
          "type": "address"
        },
        {
          "internalType": "address",
          "name": "organizer",
          "type": "address"
        }
      ],
      "name": "isOrganizerDelegate",
      "outputs": [
        {
          "internalType": "bool",
          "name": "",
          "type": "bool"
        }
      ],
      "stateMutability": "view",
      "type": "function"
    },
    {
      "inputs": [
        {
          "internalType": "address",
          "name": "investor",
          "type": "address"
        }
      ],
      "name": "registerInvestor",
      "outputs": [],
      "stateMutability": "nonpayable",
      "type": "function"
    },
    {
      "inputs": [
        {
          "internalType": "address",
          "name": "delegate",
          "type": "address"
        }
      ],
      "name": "removeDelegate",
      "outputs": [],
      "stateMutability": "nonpayable",
      "type": "function"
    },
    {
      "inputs": [
        {
          "internalType": "bytes32",
          "name": "role",
          "type": "bytes32"
        },
        {
          "internalType": "address",
          "name": "account",
          "type": "address"
        }
      ],
      "name": "renounceRole",
      "outputs": [],
      "stateMutability": "nonpayable",
      "type": "function"
    },
    {
      "inputs": [
        {
          "internalType": "bytes32",
          "name": "role",
          "type": "bytes32"
        },
        {
          "internalType": "address",
          "name": "account",
          "type": "address"
        }
      ],
      "name": "revokeRole",
      "outputs": [],
      "stateMutability": "nonpayable",
      "type": "function"
    },
    {
      "inputs": [
        {
          "internalType": "bytes4",
          "name": "interfaceId",
          "type": "bytes4"
        }
      ],
      "name": "supportsInterface",
      "outputs": [
        {
          "internalType": "bool",
          "name": "",
          "type": "bool"
        }
      ],
      "stateMutability": "view",
      "type": "function"
    }
  ],
  "transactionHash": "0x0df9a04f4cf161ec095331bdc9756f73c36115b84480759372242751c19e4730",
  "args": [],
  "numDeployments": 1,
  "solcInputHash": "d6de8f2af357cf894957ed518c63c248",
  "bytecode": "0x60806040523480156200001157600080fd5b506200001c62000022565b62000152565b6200002e60ff62000031565b50565b60008054610100900460ff1615620000ca578160ff1660011480156200006a575062000068306200014360201b6200092e1760201c565b155b620000c25760405162461bcd60e51b815260206004820152602e60248201526000805160206200147283398151915260448201526d191e481a5b9a5d1a585b1a5e995960921b60648201526084015b60405180910390fd5b506000919050565b60005460ff808416911610620001295760405162461bcd60e51b815260206004820152602e60248201526000805160206200147283398151915260448201526d191e481a5b9a5d1a585b1a5e995960921b6064820152608401620000b9565b506000805460ff191660ff92909216919091179055600190565b6001600160a01b03163b151590565b61131080620001626000396000f3fe608060405234801561001057600080fd5b506004361061012c5760003560e01c806376082a5e116100ad578063ca15c87311610071578063ca15c873146102f2578063cee2a9cf14610305578063d547741f14610318578063d8d9a3911461032b578063e71bdf411461033e57600080fd5b806376082a5e146102385780637909cb591461025f5780639010d07c1461028657806391d14854146102b1578063a217fddf146102ea57600080fd5b80634245962b116100f45780634245962b146101c5578063485cc955146101ec57806367e7646f146101ff578063691c9484146102125780636d218e481461022557600080fd5b806301ffc9a714610131578063248a9ca3146101595780632f2ff15d1461018a57806336568abe1461019f57806341676f15146101b2575b600080fd5b61014461013f36600461104c565b610351565b60405190151581526020015b60405180910390f35b61017c610167366004611076565b60009081526065602052604090206001015490565b604051908152602001610150565b61019d6101983660046110a6565b61037c565b005b61019d6101ad3660046110a6565b6103a6565b6101446101c03660046110d2565b610437565b61017c7f408a36151f841709116a4e8aca4e0202874f7f54687dcb863b1ea4672dc9d8cf81565b61019d6101fa3660046110ed565b610477565b61019d61020d3660046110d2565b6105b4565b61019d6102203660046110d2565b610680565b6101446102333660046110d2565b610717565b61017c7fb165298935924f540e4181c03493a5d686c54a0aaeb3f6216de85b7ffbba773881565b61017c7f4d2e7a1e3f5dd6e203f087b15756ccf0e4ccd947fe1b639a38540089a1e47f6381565b610299610294366004611117565b610757565b6040516001600160a01b039091168152602001610150565b6101446102bf3660046110a6565b60009182526065602090815260408084206001600160a01b0393909316845291905290205460ff1690565b61017c600081565b61017c610300366004611076565b610776565b6101446103133660046110d2565b61078d565b61019d6103263660046110a6565b6107cd565b6101446103393660046110ed565b6107f2565b61019d61034c3660046110d2565b610872565b60006001600160e01b03198216635a05180f60e01b148061037657506103768261093d565b92915050565b60008281526065602052604090206001015461039781610972565b6103a1838361097c565b505050565b6001600160a01b03811633146104295760405162461bcd60e51b815260206004820152602f60248201527f416363657373436f6e74726f6c3a2063616e206f6e6c792072656e6f756e636560448201527f20726f6c657320666f722073656c66000000000000000000000000000000000060648201526084015b60405180910390fd5b610433828261099e565b5050565b6001600160a01b03811660009081527f5886497c055deefe8d7c4914cfcbe328b9f49b3df987469762b751b0d377c917602052604081205460ff16610376565b600061048360016109c0565b9050801561049b576000805461ff0019166101001790555b6104a3610adb565b60ca80546001600160a01b0319166001600160a01b0384161790556104c9600033610b48565b6104f37fb165298935924f540e4181c03493a5d686c54a0aaeb3f6216de85b7ffbba773833610b48565b61051d7f4d2e7a1e3f5dd6e203f087b15756ccf0e4ccd947fe1b639a38540089a1e47f6333610b48565b6105477f408a36151f841709116a4e8aca4e0202874f7f54687dcb863b1ea4672dc9d8cf33610b48565b60ca5461055f906000906001600160a01b031661097c565b61056a60008461097c565b80156103a1576000805461ff0019169055604051600181527f7f26b83ff96e1f2b6a682f133852f6798a09c465da95921460cefb38474024989060200160405180910390a1505050565b7f4d2e7a1e3f5dd6e203f087b15756ccf0e4ccd947fe1b639a38540089a1e47f636105de81610972565b6001600160a01b03828116600090815260c960205260409020541633146106585760405162461bcd60e51b815260206004820152602860248201527f43616e6e6f742072656d6f76652064656c65676174652066726f6d20736f6d656044820152676f6e6520656c736560c01b6064820152608401610420565b506001600160a01b0316600090815260c96020526040902080546001600160a01b0319169055565b60ca546001600160a01b031633146106ea5760405162461bcd60e51b815260206004820152602760248201527f43616e206f6e6c792062652063616c6c65642066726f6d2074727573746564206044820152663932b630bcb2b960c91b6064820152608401610420565b6107147fb165298935924f540e4181c03493a5d686c54a0aaeb3f6216de85b7ffbba77388261097c565b50565b6001600160a01b03811660009081527f2dd1231cc74c05037b167a530e23c1439bec870541435962496d8ebe33b55cff602052604081205460ff16610376565b600082815260976020526040812061076f9083610b52565b9392505050565b600081815260976020526040812061037690610b5e565b6001600160a01b03811660009081527fd9c8da2a6b9fa787e86538d08fa10e37f97273076c6cdc33c5f440fdf8e810bc602052604081205460ff16610376565b6000828152606560205260409020600101546107e881610972565b6103a1838361099e565b6001600160a01b03811660009081527f5886497c055deefe8d7c4914cfcbe328b9f49b3df987469762b751b0d377c917602052604081205460ff16801561076f5750816001600160a01b0316836001600160a01b0316148061076f5750506001600160a01b03918216600090815260c96020526040902054821691161490565b7f4d2e7a1e3f5dd6e203f087b15756ccf0e4ccd947fe1b639a38540089a1e47f6361089c81610972565b6001600160a01b03828116600090815260c9602052604090205416156109045760405162461bcd60e51b815260206004820152601660248201527f44656c656761746520616c7265616479206164646564000000000000000000006044820152606401610420565b506001600160a01b0316600090815260c96020526040902080546001600160a01b03191633179055565b6001600160a01b03163b151590565b60006001600160e01b03198216637965db0b60e01b148061037657506301ffc9a760e01b6001600160e01b0319831614610376565b6107148133610b68565b6109868282610be8565b60008281526097602052604090206103a19082610c8a565b6109a88282610c9f565b60008281526097602052604090206103a19082610d22565b60008054610100900460ff1615610a4e578160ff1660011480156109e35750303b155b610a465760405162461bcd60e51b815260206004820152602e60248201527f496e697469616c697a61626c653a20636f6e747261637420697320616c72656160448201526d191e481a5b9a5d1a585b1a5e995960921b6064820152608401610420565b506000919050565b60005460ff808416911610610abc5760405162461bcd60e51b815260206004820152602e60248201527f496e697469616c697a61626c653a20636f6e747261637420697320616c72656160448201526d191e481a5b9a5d1a585b1a5e995960921b6064820152608401610420565b506000805460ff191660ff92909216919091179055600190565b919050565b600054610100900460ff16610b465760405162461bcd60e51b815260206004820152602b60248201527f496e697469616c697a61626c653a20636f6e7472616374206973206e6f74206960448201526a6e697469616c697a696e6760a81b6064820152608401610420565b565b610433828261097c565b600061076f8383610d37565b6000610376825490565b60008281526065602090815260408083206001600160a01b038516845290915290205460ff1661043357610ba6816001600160a01b03166014610d61565b610bb1836020610d61565b604051602001610bc2929190611169565b60408051601f198184030181529082905262461bcd60e51b8252610420916004016111ea565b60008281526065602090815260408083206001600160a01b038516845290915290205460ff166104335760008281526065602090815260408083206001600160a01b03851684529091529020805460ff19166001179055610c463390565b6001600160a01b0316816001600160a01b0316837f2f8788117e7eff1d82e926ec794901d17c78024a50270940304540a733656f0d60405160405180910390a45050565b600061076f836001600160a01b038416610f0a565b60008281526065602090815260408083206001600160a01b038516845290915290205460ff16156104335760008281526065602090815260408083206001600160a01b0385168085529252808320805460ff1916905551339285917ff6391f5c32d9c69d2a47ea670b442974b53935d1edc7fd64eb21e047a839171b9190a45050565b600061076f836001600160a01b038416610f59565b6000826000018281548110610d4e57610d4e61121d565b9060005260206000200154905092915050565b60606000610d70836002611249565b610d7b906002611268565b67ffffffffffffffff811115610d9357610d93611280565b6040519080825280601f01601f191660200182016040528015610dbd576020820181803683370190505b509050600360fc1b81600081518110610dd857610dd861121d565b60200101906001600160f81b031916908160001a905350600f60fb1b81600181518110610e0757610e0761121d565b60200101906001600160f81b031916908160001a9053506000610e2b846002611249565b610e36906001611268565b90505b6001811115610ebb577f303132333435363738396162636465660000000000000000000000000000000085600f1660108110610e7757610e7761121d565b1a60f81b828281518110610e8d57610e8d61121d565b60200101906001600160f81b031916908160001a90535060049490941c93610eb481611296565b9050610e39565b50831561076f5760405162461bcd60e51b815260206004820181905260248201527f537472696e67733a20686578206c656e67746820696e73756666696369656e746044820152606401610420565b6000818152600183016020526040812054610f5157508154600181810184556000848152602080822090930184905584548482528286019093526040902091909155610376565b506000610376565b60008181526001830160205260408120548015611042576000610f7d6001836112ad565b8554909150600090610f91906001906112ad565b9050818114610ff6576000866000018281548110610fb157610fb161121d565b9060005260206000200154905080876000018481548110610fd457610fd461121d565b6000918252602080832090910192909255918252600188019052604090208390555b8554869080611007576110076112c4565b600190038181906000526020600020016000905590558560010160008681526020019081526020016000206000905560019350505050610376565b6000915050610376565b60006020828403121561105e57600080fd5b81356001600160e01b03198116811461076f57600080fd5b60006020828403121561108857600080fd5b5035919050565b80356001600160a01b0381168114610ad657600080fd5b600080604083850312156110b957600080fd5b823591506110c96020840161108f565b90509250929050565b6000602082840312156110e457600080fd5b61076f8261108f565b6000806040838503121561110057600080fd5b6111098361108f565b91506110c96020840161108f565b6000806040838503121561112a57600080fd5b50508035926020909101359150565b60005b8381101561115457818101518382015260200161113c565b83811115611163576000848401525b50505050565b7f416363657373436f6e74726f6c3a206163636f756e74200000000000000000008152600083516111a1816017850160208801611139565b7f206973206d697373696e6720726f6c652000000000000000000000000000000060179184019182015283516111de816028840160208801611139565b01602801949350505050565b6020815260008251806020840152611209816040850160208701611139565b601f01601f19169190910160400192915050565b634e487b7160e01b600052603260045260246000fd5b634e487b7160e01b600052601160045260246000fd5b600081600019048311821515161561126357611263611233565b500290565b6000821982111561127b5761127b611233565b500190565b634e487b7160e01b600052604160045260246000fd5b6000816112a5576112a5611233565b506000190190565b6000828210156112bf576112bf611233565b500390565b634e487b7160e01b600052603160045260246000fdfea2646970667358221220758b9c51c54f0f3ea5218d8610745b847c39c4cd120dd53f7e3962929b631d1564736f6c63430008090033496e697469616c697a61626c653a20636f6e747261637420697320616c726561",
  "devdoc": {
    "custom:security-contact": "info@staxe.io",
    "kind": "dev",
    "methods": {
      "constructor": {
        "custom:oz-upgrades-unsafe-allow": "constructor"
      },
      "getRoleAdmin(bytes32)": {
        "details": "Returns the admin role that controls `role`. See {grantRole} and {revokeRole}. To change a role's admin, use {_setRoleAdmin}."
      },
      "getRoleMember(bytes32,uint256)": {
        "details": "Returns one of the accounts that have `role`. `index` must be a value between 0 and {getRoleMemberCount}, non-inclusive. Role bearers are not sorted in any particular way, and their ordering may change at any point. WARNING: When using {getRoleMember} and {getRoleMemberCount}, make sure you perform all queries on the same block. See the following https://forum.openzeppelin.com/t/iterating-over-elements-on-enumerableset-in-openzeppelin-contracts/2296[forum post] for more information."
      },
      "getRoleMemberCount(bytes32)": {
        "details": "Returns the number of accounts that have `role`. Can be used together with {getRoleMember} to enumerate all bearers of a role."
      },
      "grantRole(bytes32,address)": {
        "details": "Grants `role` to `account`. If `account` had not been already granted `role`, emits a {RoleGranted} event. Requirements: - the caller must have ``role``'s admin role."
      },
      "hasRole(bytes32,address)": {
        "details": "Returns `true` if `account` has been granted `role`."
      },
      "renounceRole(bytes32,address)": {
        "details": "Revokes `role` from the calling account. Roles are often managed via {grantRole} and {revokeRole}: this function's purpose is to provide a mechanism for accounts to lose their privileges if they are compromised (such as when a trusted device is misplaced). If the calling account had been revoked `role`, emits a {RoleRevoked} event. Requirements: - the caller must be `account`."
      },
      "revokeRole(bytes32,address)": {
        "details": "Revokes `role` from `account`. If `account` had been granted `role`, emits a {RoleRevoked} event. Requirements: - the caller must have ``role``'s admin role."
      },
      "supportsInterface(bytes4)": {
        "details": "See {IERC165-supportsInterface}."
      }
    },
    "version": 1
  },
  "userdoc": {
    "kind": "user",
    "methods": {},
    "version": 1
  },
  "storageLayout": {
    "storage": [
      {
        "astId": 800,
        "contract": "contracts/v3/StaxeMembersV3.sol:StaxeMembersV3",
        "label": "_initialized",
        "offset": 0,
        "slot": "0",
        "type": "t_uint8"
      },
      {
        "astId": 803,
        "contract": "contracts/v3/StaxeMembersV3.sol:StaxeMembersV3",
        "label": "_initializing",
        "offset": 1,
        "slot": "0",
        "type": "t_bool"
      },
      {
        "astId": 3750,
        "contract": "contracts/v3/StaxeMembersV3.sol:StaxeMembersV3",
        "label": "__gap",
        "offset": 0,
        "slot": "1",
        "type": "t_array(t_uint256)50_storage"
      },
      {
        "astId": 4071,
        "contract": "contracts/v3/StaxeMembersV3.sol:StaxeMembersV3",
        "label": "__gap",
        "offset": 0,
        "slot": "51",
        "type": "t_array(t_uint256)50_storage"
      },
      {
        "astId": 184,
        "contract": "contracts/v3/StaxeMembersV3.sol:StaxeMembersV3",
        "label": "_roles",
        "offset": 0,
        "slot": "101",
        "type": "t_mapping(t_bytes32,t_struct(RoleData)179_storage)"
      },
      {
        "astId": 483,
        "contract": "contracts/v3/StaxeMembersV3.sol:StaxeMembersV3",
        "label": "__gap",
        "offset": 0,
        "slot": "102",
        "type": "t_array(t_uint256)49_storage"
      },
      {
        "astId": 33,
        "contract": "contracts/v3/StaxeMembersV3.sol:StaxeMembersV3",
        "label": "_roleMembers",
        "offset": 0,
        "slot": "151",
        "type": "t_mapping(t_bytes32,t_struct(AddressSet)4396_storage)"
      },
      {
        "astId": 143,
        "contract": "contracts/v3/StaxeMembersV3.sol:StaxeMembersV3",
        "label": "__gap",
        "offset": 0,
        "slot": "152",
        "type": "t_array(t_uint256)49_storage"
      },
      {
        "astId": 13071,
        "contract": "contracts/v3/StaxeMembersV3.sol:StaxeMembersV3",
        "label": "organizerDelegate",
        "offset": 0,
        "slot": "201",
        "type": "t_mapping(t_address,t_address)"
      },
      {
        "astId": 13073,
        "contract": "contracts/v3/StaxeMembersV3.sol:StaxeMembersV3",
        "label": "relayer",
        "offset": 0,
        "slot": "202",
        "type": "t_address"
      }
    ],
    "types": {
      "t_address": {
        "encoding": "inplace",
        "label": "address",
        "numberOfBytes": "20"
      },
      "t_array(t_bytes32)dyn_storage": {
        "base": "t_bytes32",
        "encoding": "dynamic_array",
        "label": "bytes32[]",
        "numberOfBytes": "32"
      },
      "t_array(t_uint256)49_storage": {
        "base": "t_uint256",
        "encoding": "inplace",
        "label": "uint256[49]",
        "numberOfBytes": "1568"
      },
      "t_array(t_uint256)50_storage": {
        "base": "t_uint256",
        "encoding": "inplace",
        "label": "uint256[50]",
        "numberOfBytes": "1600"
      },
      "t_bool": {
        "encoding": "inplace",
        "label": "bool",
        "numberOfBytes": "1"
      },
      "t_bytes32": {
        "encoding": "inplace",
        "label": "bytes32",
        "numberOfBytes": "32"
      },
      "t_mapping(t_address,t_address)": {
        "encoding": "mapping",
        "key": "t_address",
        "label": "mapping(address => address)",
        "numberOfBytes": "32",
        "value": "t_address"
      },
      "t_mapping(t_address,t_bool)": {
        "encoding": "mapping",
        "key": "t_address",
        "label": "mapping(address => bool)",
        "numberOfBytes": "32",
        "value": "t_bool"
      },
      "t_mapping(t_bytes32,t_struct(AddressSet)4396_storage)": {
        "encoding": "mapping",
        "key": "t_bytes32",
        "label": "mapping(bytes32 => struct EnumerableSetUpgradeable.AddressSet)",
        "numberOfBytes": "32",
        "value": "t_struct(AddressSet)4396_storage"
      },
      "t_mapping(t_bytes32,t_struct(RoleData)179_storage)": {
        "encoding": "mapping",
        "key": "t_bytes32",
        "label": "mapping(bytes32 => struct AccessControlUpgradeable.RoleData)",
        "numberOfBytes": "32",
        "value": "t_struct(RoleData)179_storage"
      },
      "t_mapping(t_bytes32,t_uint256)": {
        "encoding": "mapping",
        "key": "t_bytes32",
        "label": "mapping(bytes32 => uint256)",
        "numberOfBytes": "32",
        "value": "t_uint256"
      },
      "t_struct(AddressSet)4396_storage": {
        "encoding": "inplace",
        "label": "struct EnumerableSetUpgradeable.AddressSet",
        "members": [
          {
            "astId": 4395,
            "contract": "contracts/v3/StaxeMembersV3.sol:StaxeMembersV3",
            "label": "_inner",
            "offset": 0,
            "slot": "0",
            "type": "t_struct(Set)4095_storage"
          }
        ],
        "numberOfBytes": "64"
      },
      "t_struct(RoleData)179_storage": {
        "encoding": "inplace",
        "label": "struct AccessControlUpgradeable.RoleData",
        "members": [
          {
            "astId": 176,
            "contract": "contracts/v3/StaxeMembersV3.sol:StaxeMembersV3",
            "label": "members",
            "offset": 0,
            "slot": "0",
            "type": "t_mapping(t_address,t_bool)"
          },
          {
            "astId": 178,
            "contract": "contracts/v3/StaxeMembersV3.sol:StaxeMembersV3",
            "label": "adminRole",
            "offset": 0,
            "slot": "1",
            "type": "t_bytes32"
          }
        ],
        "numberOfBytes": "64"
      },
      "t_struct(Set)4095_storage": {
        "encoding": "inplace",
        "label": "struct EnumerableSetUpgradeable.Set",
        "members": [
          {
            "astId": 4090,
            "contract": "contracts/v3/StaxeMembersV3.sol:StaxeMembersV3",
            "label": "_values",
            "offset": 0,
            "slot": "0",
            "type": "t_array(t_bytes32)dyn_storage"
          },
          {
            "astId": 4094,
            "contract": "contracts/v3/StaxeMembersV3.sol:StaxeMembersV3",
            "label": "_indexes",
            "offset": 0,
            "slot": "1",
            "type": "t_mapping(t_bytes32,t_uint256)"
          }
        ],
        "numberOfBytes": "64"
      },
      "t_uint256": {
        "encoding": "inplace",
        "label": "uint256",
        "numberOfBytes": "32"
      },
      "t_uint8": {
        "encoding": "inplace",
        "label": "uint8",
        "numberOfBytes": "1"
      }
    }
  }
}