{
  "address": "0xdB0a0b34A8071C68559661D77D58B4252990B347",
  "abi": [
    {
      "inputs": [
        {
          "internalType": "address",
          "name": "_trustedForwarder",
          "type": "address"
        }
      ],
      "stateMutability": "nonpayable",
      "type": "constructor"
    },
    {
      "anonymous": false,
      "inputs": [
        {
          "indexed": false,
          "internalType": "uint8",
          "name": "version",
          "type": "uint8"
        }
      ],
      "name": "Initialized",
      "type": "event"
    },
    {
      "inputs": [
        {
          "internalType": "address",
          "name": "buyer",
          "type": "address"
        },
        {
          "internalType": "uint256",
          "name": "tokenAmount",
          "type": "uint256"
        },
        {
          "internalType": "address",
          "name": "tokenAddress",
          "type": "address"
        }
      ],
      "name": "depositTo",
      "outputs": [],
      "stateMutability": "nonpayable",
      "type": "function"
    },
    {
      "inputs": [
        {
          "internalType": "contract IProductionsV3",
          "name": "_productions",
          "type": "address"
        }
      ],
      "name": "initialize",
      "outputs": [],
      "stateMutability": "nonpayable",
      "type": "function"
    },
    {
      "inputs": [
        {
          "internalType": "address",
          "name": "forwarder",
          "type": "address"
        }
      ],
      "name": "isTrustedForwarder",
      "outputs": [
        {
          "internalType": "bool",
          "name": "",
          "type": "bool"
        }
      ],
      "stateMutability": "view",
      "type": "function"
    },
    {
      "inputs": [
        {
          "internalType": "uint256",
          "name": "tokenId",
          "type": "uint256"
        },
        {
          "internalType": "uint256",
          "name": "numTokens",
          "type": "uint256"
        },
        {
          "internalType": "uint16",
          "name": "perkId",
          "type": "uint16"
        }
      ],
      "name": "placePurchase",
      "outputs": [],
      "stateMutability": "nonpayable",
      "type": "function"
    }
  ],
  "transactionHash": "0xd6b83ebc70324e8955e789723d85c8cbe18415d7a8203d582e3d187da916360c",
  "args": [
    "0x43415f3c26771ED52eE5160Ce67AC6f6ad547616"
  ],
  "numDeployments": 1,
  "solcInputHash": "16fa5a17a842ab7a1fdba292100cd1d5",
  "bytecode": "0x60a06040523480156200001157600080fd5b50604051620011a0380380620011a0833981016040819052620000349162000182565b6001600160a01b0381166080526200004b62000052565b50620001b4565b6200005e60ff62000061565b50565b60008054610100900460ff1615620000fa578160ff1660011480156200009a575062000098306200017360201b6200045c1760201c565b155b620000f25760405162461bcd60e51b815260206004820152602e60248201526000805160206200118083398151915260448201526d191e481a5b9a5d1a585b1a5e995960921b60648201526084015b60405180910390fd5b506000919050565b60005460ff808416911610620001595760405162461bcd60e51b815260206004820152602e60248201526000805160206200118083398151915260448201526d191e481a5b9a5d1a585b1a5e995960921b6064820152608401620000e9565b506000805460ff191660ff92909216919091179055600190565b6001600160a01b03163b151590565b6000602082840312156200019557600080fd5b81516001600160a01b0381168114620001ad57600080fd5b9392505050565b608051610faa620001d6600039600081816076015261046f0152610faa6000f3fe608060405234801561001057600080fd5b506004361061004c5760003560e01c806320acd9f314610051578063572b6c0514610066578063c4d66de8146100ba578063c5eac022146100cd575b600080fd5b61006461005f366004610a06565b6100e0565b005b6100a6610074366004610a48565b7f00000000000000000000000000000000000000000000000000000000000000006001600160a01b0390811691161490565b604051901515815260200160405180910390f35b6100646100c8366004610a48565b61021b565b6100646100db366004610a75565b6102b1565b6001600160a01b03831660009081526066602052604090205461014a5760405162461bcd60e51b815260206004820152601260248201527f4e6f20707572636861736520657869737473000000000000000000000000000060448201526064015b60405180910390fd5b8061016861015661046b565b6001600160a01b0383169030866104b0565b606554610182906001600160a01b0383811691168561054e565b6065546001600160a01b038581166000818152606660205260409081902080546001820154600290920154925163678909dd60e11b815260048101919091526024810193909352604483015261ffff16606482015291169063cf1213ba90608401600060405180830381600087803b1580156101fd57600080fd5b505af1158015610211573d6000803e3d6000fd5b5050505050505050565b6000610227600161067e565b9050801561023f576000805461ff0019166101001790555b6065805473ffffffffffffffffffffffffffffffffffffffff19166001600160a01b03841617905580156102ad576000805461ff0019169055604051600181527f7f26b83ff96e1f2b6a682f133852f6798a09c465da95921460cefb38474024989060200160405180910390a15b5050565b606554604051637c28680960e11b8152600481018590526000916001600160a01b03169063f850d0129060240160006040518083038186803b1580156102f657600080fd5b505afa15801561030a573d6000803e3d6000fd5b505050506040513d6000823e601f3d908101601f191682016040526103329190810190610e15565b6020015160e00151600681111561034b5761034b610aa3565b14156103995760405162461bcd60e51b815260206004820152601960248201527f50726f64756374696f6e20646f6573206e6f74206578697374000000000000006044820152606401610141565b816103e65760405162461bcd60e51b815260206004820152601b60248201527f496e76616c696420746f6b656e206e756d62657220746f2062757900000000006044820152606401610141565b60405180606001604052808481526020018381526020018261ffff168152506066600061041161046b565b6001600160a01b0316815260208082019290925260409081016000208351815591830151600183015591909101516002909101805461ffff191661ffff909216919091179055505050565b6001600160a01b03163b151590565b60007f00000000000000000000000000000000000000000000000000000000000000006001600160a01b03163314156104ab575060131936013560601c90565b503390565b6040516001600160a01b03808516602483015283166044820152606481018290526105489085906323b872dd60e01b906084015b60408051601f198184030181529190526020810180517bffffffffffffffffffffffffffffffffffffffffffffffffffffffff167fffffffff0000000000000000000000000000000000000000000000000000000090931692909217909152610799565b50505050565b8015806105d75750604051636eb1769f60e11b81523060048201526001600160a01b03838116602483015284169063dd62ed3e9060440160206040518083038186803b15801561059d57600080fd5b505afa1580156105b1573d6000803e3d6000fd5b505050506040513d601f19601f820116820180604052508101906105d59190610ef1565b155b6106495760405162461bcd60e51b815260206004820152603660248201527f5361666545524332303a20617070726f76652066726f6d206e6f6e2d7a65726f60448201527f20746f206e6f6e2d7a65726f20616c6c6f77616e6365000000000000000000006064820152608401610141565b6040516001600160a01b03831660248201526044810182905261067990849063095ea7b360e01b906064016104e4565b505050565b60008054610100900460ff161561070c578160ff1660011480156106a15750303b155b6107045760405162461bcd60e51b815260206004820152602e60248201527f496e697469616c697a61626c653a20636f6e747261637420697320616c72656160448201526d191e481a5b9a5d1a585b1a5e995960921b6064820152608401610141565b506000919050565b60005460ff80841691161061077a5760405162461bcd60e51b815260206004820152602e60248201527f496e697469616c697a61626c653a20636f6e747261637420697320616c72656160448201526d191e481a5b9a5d1a585b1a5e995960921b6064820152608401610141565b506000805460ff191660ff92909216919091179055600190565b919050565b60006107ee826040518060400160405280602081526020017f5361666545524332303a206c6f772d6c6576656c2063616c6c206661696c6564815250856001600160a01b031661086b9092919063ffffffff16565b805190915015610679578080602001905181019061080c9190610f0a565b6106795760405162461bcd60e51b815260206004820152602a60248201527f5361666545524332303a204552433230206f7065726174696f6e20646964206e6044820152691bdd081cdd58d8d9595960b21b6064820152608401610141565b606061087a8484600085610884565b90505b9392505050565b6060824710156108e55760405162461bcd60e51b815260206004820152602660248201527f416464726573733a20696e73756666696369656e742062616c616e636520666f6044820152651c8818d85b1b60d21b6064820152608401610141565b6001600160a01b0385163b61093c5760405162461bcd60e51b815260206004820152601d60248201527f416464726573733a2063616c6c20746f206e6f6e2d636f6e74726163740000006044820152606401610141565b600080866001600160a01b031685876040516109589190610f25565b60006040518083038185875af1925050503d8060008114610995576040519150601f19603f3d011682016040523d82523d6000602084013e61099a565b606091505b50915091506109aa8282866109b5565b979650505050505050565b606083156109c457508161087d565b8251156109d45782518084602001fd5b8160405162461bcd60e51b81526004016101419190610f41565b6001600160a01b0381168114610a0357600080fd5b50565b600080600060608486031215610a1b57600080fd5b8335610a26816109ee565b9250602084013591506040840135610a3d816109ee565b809150509250925092565b600060208284031215610a5a57600080fd5b813561087d816109ee565b61ffff81168114610a0357600080fd5b600080600060608486031215610a8a57600080fd5b83359250602084013591506040840135610a3d81610a65565b634e487b7160e01b600052602160045260246000fd5b634e487b7160e01b600052604160045260246000fd5b6040516101c0810167ffffffffffffffff81118282101715610af357610af3610ab9565b60405290565b6040516080810167ffffffffffffffff81118282101715610af357610af3610ab9565b604051610100810167ffffffffffffffff81118282101715610af357610af3610ab9565b604051601f8201601f1916810167ffffffffffffffff81118282101715610b6957610b69610ab9565b604052919050565b8051610794816109ee565b80516007811061079457600080fd5b60005b83811015610ba6578181015183820152602001610b8e565b838111156105485750506000910152565b600082601f830112610bc857600080fd5b815167ffffffffffffffff811115610be257610be2610ab9565b610bf5601f8201601f1916602001610b40565b818152846020838601011115610c0a57600080fd5b610c1b826020830160208701610b8b565b949350505050565b805160ff8116811461079457600080fd5b60006101c08284031215610c4757600080fd5b610c4f610acf565b905081518152610c6160208301610b71565b602082015260408201516040820152606082015160608201526080820151608082015260a082015160a0820152610c9a60c08301610b71565b60c0820152610cab60e08301610b7c565b60e08201526101008083015167ffffffffffffffff811115610ccc57600080fd5b610cd885828601610bb7565b828401525050610120808301518183015250610140808301518183015250610160610d04818401610c23565b90820152610180610d16838201610b71565b908201526101a0610d28838201610b71565b9082015292915050565b600082601f830112610d4357600080fd5b8151602067ffffffffffffffff821115610d5f57610d5f610ab9565b610d6d818360051b01610b40565b82815260079290921b84018101918181019086841115610d8c57600080fd5b8286015b84811015610dfa5760808189031215610da95760008081fd5b610db1610af9565b8151610dbc81610a65565b815281850151610dcb81610a65565b81860152604082810151610dde81610a65565b9082015260608281015190820152835291830191608001610d90565b509695505050505050565b8051801515811461079457600080fd5b600060208284031215610e2757600080fd5b815167ffffffffffffffff80821115610e3f57600080fd5b908301906101008286031215610e5457600080fd5b610e5c610b1c565b82518152602083015182811115610e7257600080fd5b610e7e87828601610c34565b602083015250604083015182811115610e9657600080fd5b610ea287828601610d32565b604083015250610eb460608401610b71565b60608201526080830151608082015260a083015160a082015260c083015160c0820152610ee360e08401610e05565b60e082015295945050505050565b600060208284031215610f0357600080fd5b5051919050565b600060208284031215610f1c57600080fd5b61087d82610e05565b60008251610f37818460208701610b8b565b9190910192915050565b6020815260008251806020840152610f60816040850160208701610b8b565b601f01601f1916919091016040019291505056fea264697066735822122049d05910ebcb4d9d99b83e7e089489895428a5703f56e5eae5560efa1dd5772c64736f6c63430008090033496e697469616c697a61626c653a20636f6e747261637420697320616c726561",
  "devdoc": {
    "custom:security-contact": "info@staxe.io",
    "kind": "dev",
    "methods": {
      "constructor": {
        "custom:oz-upgrades-unsafe-allow": "constructor"
      }
    },
    "version": 1
  },
  "userdoc": {
    "kind": "user",
    "methods": {},
    "version": 1
  },
  "storageLayout": {
    "storage": [
      {
        "astId": 800,
        "contract": "contracts/v3/TransakOnePurchaseProxy.sol:TransakOnePurchaseProxy",
        "label": "_initialized",
        "offset": 0,
        "slot": "0",
        "type": "t_uint8"
      },
      {
        "astId": 803,
        "contract": "contracts/v3/TransakOnePurchaseProxy.sol:TransakOnePurchaseProxy",
        "label": "_initializing",
        "offset": 1,
        "slot": "0",
        "type": "t_bool"
      },
      {
        "astId": 3114,
        "contract": "contracts/v3/TransakOnePurchaseProxy.sol:TransakOnePurchaseProxy",
        "label": "__gap",
        "offset": 0,
        "slot": "1",
        "type": "t_array(t_uint256)50_storage"
      },
      {
        "astId": 792,
        "contract": "contracts/v3/TransakOnePurchaseProxy.sol:TransakOnePurchaseProxy",
        "label": "__gap",
        "offset": 0,
        "slot": "51",
        "type": "t_array(t_uint256)50_storage"
      },
      {
        "astId": 16259,
        "contract": "contracts/v3/TransakOnePurchaseProxy.sol:TransakOnePurchaseProxy",
        "label": "productions",
        "offset": 0,
        "slot": "101",
        "type": "t_contract(IProductionsV3)17017"
      },
      {
        "astId": 16264,
        "contract": "contracts/v3/TransakOnePurchaseProxy.sol:TransakOnePurchaseProxy",
        "label": "purchases",
        "offset": 0,
        "slot": "102",
        "type": "t_mapping(t_address,t_struct(Purchase)16252_storage)"
      }
    ],
    "types": {
      "t_address": {
        "encoding": "inplace",
        "label": "address",
        "numberOfBytes": "20"
      },
      "t_array(t_uint256)50_storage": {
        "base": "t_uint256",
        "encoding": "inplace",
        "label": "uint256[50]",
        "numberOfBytes": "1600"
      },
      "t_bool": {
        "encoding": "inplace",
        "label": "bool",
        "numberOfBytes": "1"
      },
      "t_contract(IProductionsV3)17017": {
        "encoding": "inplace",
        "label": "contract IProductionsV3",
        "numberOfBytes": "20"
      },
      "t_mapping(t_address,t_struct(Purchase)16252_storage)": {
        "encoding": "mapping",
        "key": "t_address",
        "label": "mapping(address => struct TransakOnePurchaseProxy.Purchase)",
        "numberOfBytes": "32",
        "value": "t_struct(Purchase)16252_storage"
      },
      "t_struct(Purchase)16252_storage": {
        "encoding": "inplace",
        "label": "struct TransakOnePurchaseProxy.Purchase",
        "members": [
          {
            "astId": 16247,
            "contract": "contracts/v3/TransakOnePurchaseProxy.sol:TransakOnePurchaseProxy",
            "label": "tokenId",
            "offset": 0,
            "slot": "0",
            "type": "t_uint256"
          },
          {
            "astId": 16249,
            "contract": "contracts/v3/TransakOnePurchaseProxy.sol:TransakOnePurchaseProxy",
            "label": "numTokens",
            "offset": 0,
            "slot": "1",
            "type": "t_uint256"
          },
          {
            "astId": 16251,
            "contract": "contracts/v3/TransakOnePurchaseProxy.sol:TransakOnePurchaseProxy",
            "label": "perkId",
            "offset": 0,
            "slot": "2",
            "type": "t_uint16"
          }
        ],
        "numberOfBytes": "96"
      },
      "t_uint16": {
        "encoding": "inplace",
        "label": "uint16",
        "numberOfBytes": "2"
      },
      "t_uint256": {
        "encoding": "inplace",
        "label": "uint256",
        "numberOfBytes": "32"
      },
      "t_uint8": {
        "encoding": "inplace",
        "label": "uint8",
        "numberOfBytes": "1"
      }
    }
  }
}